:020000040000FA
:10000000021F3F022003FFFFFFFFFF02200BFFFF45
:10001000FFFFFF022013FFFFFFFFFF02201BFFFF78
:10002000FFFFFF022023FFFFFFFFFF02202BFFFF48
:10003000FFFFFF022033FFFFFFFFFF02203BFFFF18
:10004000FFFFFF022043FFFFFFFFFF02204BFFFFE8
:10005000FFFFFF022053FFFFFFFFFF02205BFFFFB8
:10006000FFFFFF022063FFFFFFFFFF02206BFFFF88
:10007000FFFFFF022073FFFFFFFFFF02207BFFFF58
:10008000FFFFFF022083FFFFFFFFFF02208BFFFF28
:10009000FFFF70DFFFFF040000000002000000C847
:1000A000030002030369A5020269A532730000017F
:1000B00000000000000400FFFFFFFFFFFFFFFF0440
:1000C00003090424035400650078006100730020D4
:1000D0000049006E0073007400720075006D0065C9
:1000E000006E007400730024035400490020004394
:1000F000004300320035003300310020005500532A
:10010000004200200043004400430000035F005F02
:100110000030005800000000000000000000000057
:1001200000000000000000000000000000000000CF
:100130000000000000303132333435363738394171
:100140004243444546331C881C881C881C881C90EC
:100150001C74F8121BCD900391E06015900302749B
:10016000FEF0900304744DF0A37405F07A011207B9
:100170001C7F01021D6C74F8121BCD74FF121EB699
:100180007E00801F851882851983E064FE700690CA
:1001900003877401F0851882851983E0F890038441
:1001A000E068F07901AA18AB191210E9E9700302AE
:1001B0000287851882851983E064EF70027E07E06C
:1001C000C0E0900387E0FA900385E0F8EA28F8E4BD
:1001D0003400F9740228F582740339F583D0E0F015
:1001E000900387E0609E14600E14602B14603B1433
:1001F0006051146067809E900384E4F085188285C6
:100200001983E0900386F0C394809003874003E451
:1002100080827402020194851882851983E090031C
:1002200082F09003877403020194851882851983F4
:10023000E0900383F0900386E060199003877404D4
:10024000020194900385E004F0F8900386E0686072
:10025000030201959003877405020194900385E4DD
:10026000F0900387F0900384E0F885188285198365
:10027000E0686003020195900382E0644D60030230
:1002800001951203BF8002EEF97401121E370201BC
:100290007174F7121BCD74FB121EB6EAFEEBFF75EC
:1002A00008047509007808121ED07402121F377AEC
:1002B000907B0079041218EB7402121E3712070E9D
:1002C000121F88E0687003A3E069701285188285A8
:1002D0001983E0F47003A3E0F4600302039A74044A
:1002E000121F2F1207708A088B09A808A909740227
:1002F000121F88E8F0A3E9F07404121F88E0600878
:1003000079011201510203B3851882851983E068CF
:100310007003A3E0697076851882851983E0F47014
:1003200003A3E0F470197402121F887410F0A37410
:1003300020F08518828519837410F0A37420F0755D
:1003400008017509007808121ED07402121F377A4E
:10035000247B0812196F7402121E3775080478087E
:10036000121ED07402121F377A907B007904121883
:10037000EB7402121E3712070E121F88E06870031A
:10038000A3E069700479028006790480027903127F
:1003900001518E828F83741E80058E828F83E4F0DC
:1003A00012070E121F88E0687003A3E069700479D9
:1003B00001800279007405121E377F02021D6C74E1
:1003C000ED121BCD74F8121EB6900307E0FD9003EA
:1003D00006E0FCFAEDF8E4C8F9EA28FEE93408FF83
:1003E000751001750B00750A068E088F0974027866
:1003F00008121F1CC39508F8E49509F9740228F542
:100400000E740339F50F8E088F0974097808121FCE
:100410004EE508F511EE2410F508E43FF509EEF578
:100420000CEF5401F50D900383E014605914700330
:100430000204FB14700302057614601024FE70039E
:100440000206311470030206E10206F1750A03790F
:100450004E1213BD9003071207047402F0A37440F8
:100460001207027408120702F0A3F07418C394076D
:1004700004F510AA10A90B12071CA90A7408121E71
:10048000377F0C021D6C750A04794E1213BDEE45C0
:100490000D7005A9111219D5C3EE9425EF940850DB
:1004A0003CC3E5089424E50994084031E50E249600
:1004B000F8E50F3420F988828983E0701BA3AA82B3
:1004C000AB83E070139003887401F0888289837491
:1004D000A5F08A828B838004900388E4F07508106D
:1004E0007509007808121ED07C087D03EEFAEFFB38
:1004F00012196F7402121E37020473750A05E51192
:10050000C394794006750B0102047375124075138C
:10051000007812121ED07C097D037402780C121F21
:100520001CAA0CAB0DA9111218EB7402121E379005
:100530000307E0A3F0900306E0A3F0751043C3EEB9
:100540009425EF94084003020473C3E5089424E55E
:100550000994085003020473900388E070030204B6
:1005600073E50E2497F8E50F3420F988828983E437
:10057000F0A3F00204737508047509007808121ED0
:10058000D07402121F377A907B0079041218EB7432
:1005900002121E377402121F88E0F8A3E0F98518D2
:1005A00082851983E0687003A3E069851882851944
:1005B00083700BE0F47003A3E0F470578009E0F45B
:1005C0007003A3E0F4700D8518828519837410F010
:1005D000A37420F012070E121F88E8F0A3E9F0754B
:1005E00008017808121ED07402121F377A247B0883
:1005F00012196F7402121E377508047808121ED083
:100600007402121F377A907B0079041218EB74027F
:10061000121E3712070E121F88E0687003A3E069EC
:100620007006750A01020473750A02750B0702044D
:10063000739003D6E0600764026003020473EDFF69
:100640007A01790012071CE060030206D5800312CC
:10065000118512116CE970F77404121F881206F6E6
:100660007404121F887808121F6C85080C85090D08
:10067000850A0E850B0F9003C2780C121EF67404C7
:10068000121F88780C121F5DE5084509450A450BC5
:1006900070CE8EC2E5C554E04FF5C57404121F88B4
:1006A0001206F67404121F887808121F6C85080C55
:1006B00085090D850A0E850B0F9003C2780C121E5A
:1006C000F67404121F88780C121F5DE50845094571
:1006D0000A450B70CE7A01790012071C79080204D2
:1006E0007CEC900391F07003020473750A09020414
:1006F00073790602047CE4F0A37426F0A3E4F0A36B
:10070000F022F0A3E4F0A3F0A3F0A3F0A322851855
:1007100082851983E0F8A3E0F974022274F8121BB1
:10072000CDEAFE900305E0D2E7F0E9A3F0EE9003F6
:1007300003F08E0874042AFE7C028004E062080C38
:10074000ECFA3395E0FB74022AF58274033BF583DF
:10075000EEF8C3EA98EB9400A2D265D03340DDE511
:1007600008F074012AF97A027B0312112702017141
:1007700074E9121BCD7582007583FE121E198A164C
:100780008B177514007515008A828B83E4F0900333
:10079000D6E07006D2AAD2AF800464027005790058
:1007A000120151750C00750D20750E00750F00902B
:1007B00003D6E0600464027015121185120176E917
:1007C000F874096860030208AC7900120151E06412
:1007D000027007A29240030208877508007509029B
:1007E0007808121ED07402121F37850C08850D0977
:1007F000AA08E5095407FB850E0A850F0B740B78D0
:1008000008121E87A9081218EB7402121E377E0008
:100810007F009003CAC0828E10EFF5113395E0F58A
:1008200012F513850C08850D09850E0A850F0B78C6
:10083000087910121F099003C67808121EF67583F6
:1008400003D0827808121DFA501D851882851983FD
:10085000E5822EF582E5833FF583E0F9AA14AB1516
:100860001208DB8A148B150EEE70010FC3EF940291
:1008700040A09003CE780C121EF69003D2780C1292
:100880001DFA40030207AF7900AA14AB151208DB6A
:1008900079001208DB8B159003D6E07004C2AFC25A
:1008A000AAEA451570277AA57BA58021E870030286
:1008B00007CE74066870030207CE740768700302DF
:1008C00007CE8516828517837401F080BA75820081
:1008D000758302121E197F10021D6CC008C0097CAE
:1008E000088A088B09740F7808121F4EE508F8EA89
:1008F00025E0FAEB33FBE9A2E7500474014AFAE879
:10090000A2E0500874216AFA74106BFBE9C333F952
:100910001CEC70CDD009D00822C082C083120F33E6
:1009200060030209F0A3E0F8A3E060030209F0A36A
:10093000E064027002A3E060030209F09003B8E0F3
:100940002480600914604F14605C0209F0E86003C1
:100950000209F09003B2E060047801800278009010
:1009600003C0E8F0A3E4F09003B1E0600A9003C094
:10097000E04402F0A3E4F09003A6E0640460149065
:1009800003B374C0F0A37403F0A3E4F0A3740212E1
:100990000F95F0020E6E90039FE064047052900376
:1009A000C0E4F0A380D0E8547FFA90039FE0640491
:1009B000703EEAC394065038749F2AF582E43403EB
:1009C000F583E854806018A3A3A3A3A3A3A3E064C2
:1009D0000370047801800278009003C0E88094E5F9
:1009E00082240CF58250020583E0640370E980E301
:1009F0009003A67404809B74F8121BCDE9FE90034B
:100A0000BE120F366003020AD990039FE0640460AF
:100A10000B9003BC120F366003020AD99003B8E0B2
:100A2000541F6009146030146020020AD99003BA80
:100A3000E064017022EE9003B1F060047905800259
:100A400079067A00121BCB020ADF9003BCE0547FC8
:100A5000FA9003BAE060057900020AE1EAC394065D
:100A60005077EA90620EF0749F2AF8E43403F9900C
:100A700003BCE05480602EEE600474108002744069
:100A8000906211F0EE60047B0380027B00EB8882B1
:100A90008983A3A3A3A3A3A3A3F0EE600479088092
:100AA0002F7907802BEE60047B2080027B80EB9007
:100AB0006214F0EE60047B0380027B00E8240CF5F6
:100AC00082E439F583EBF0EE6004790A800279095B
:100AD000121BCB90620EE480059003A67404F0799B
:100AE000017F01021D6C79001209F7E97003121BE6
:100AF000BA2279011209F7E97003121BC922C082D8
:100B0000C0839003BC120F367015A3120F36700FFE
:100B10009003BA120CD95480FAE9FBEA4B600790B3
:100B200003A67404801AE8906200F090039F6009A5
:100B3000E06402700C74038007E0640370037402C5
:100B4000F0020E6E74F5121BCD9003BAE0FAA3E02A
:100B50001460081460101460398057121754120C76
:100B6000B6A37B8080417900121776120CB67B8089
:100B7000E92402F9E43AFA121E6DFC1919E0FAA30D
:100B8000E92403F9E43AFA121E6DF9ECA3F0A3E9A3
:100B9000801CEAF91217E49003B3EAF0A3EBF0A388
:100BA000E4120CC5A37B00121E6DA3F0A3E4F002B7
:100BB0000C709003B3E4F0A3F0A3F0750B00900465
:100BC0007DE0FAA3E0FB020C4E850B08750900746A
:100BD000037808121F1CEA2508F8EB3509F9900381
:100BE000BA120CCFE493C0E0EFFCD0E06C705DA3D0
:100BF000E4936E70579003BC120CCFA3A3E493C090
:100C0000E0EFFCD0E06C704488828983A3A3A3E466
:100C1000936E703888828983A3A3A3A3E493F50815
:100C2000740193F5099003B3E508F0A3E509F0A377
:100C30007480F088828983A3A3A3A3A3A3E493F879
:100C4000740193F99003B6E8F0A3E9F0050B900462
:100C50007F120CD9C39AF508E99BF509740378084B
:100C6000121F4EC3E50B9508E495095003020BC90A
:100C70009003B3E0FCA3E0FDA3E0FEEC4D4E900337
:100C8000A6700474048029E0640460259003BEE02B
:100C9000FAA3E0FB9003B6E0F8A3E0F9C3EA98EB0F
:100CA0009950089003B6EAF0A3EBF09003A6740104
:100CB000F07F04021D6C9003B3EAF0A3EBF0A37481
:100CC00080120CC522F09003B3E0F9A3E0FA22E011
:100CD000FEA3E0FF8882898322E0F8A3E0F9E822FE
:100CE00074EE121BCDEA2404F8E43BF98808890964
:100CF0008882F583E4936025900481120CD9FEE983
:100D0000FF8007EE2404FE50010F8E828F83E49350
:100D1000F8740193F9EA687002EB6970E6750B00EC
:100D2000803F9062147490F07410120E3570037549
:100D30000A408E828F83A3A3A3E493550E6006E539
:100D40000AD2E0F50AE50A906215F0EA906213F023
:100D5000EC240CF582E43DF583E4F090620EF0059E
:100D60000B850882850983E493F8E50BC39840035B
:100D7000020E307A0079051216E78A0C8B0DEA45CF
:100D80000D60DCEA2402F8E4350DF9881089118839
:100D900082F583E493540FF51290620EF0750A0009
:100DA0008A828B83A3A3A3A3E4932407F50EA3E471
:100DB000933400F50F7403780E121F4EAA0EA8127A
:100DC000749F28F8E43403F9E8FCE9FD750E017519
:100DD0000F00E512780E121F1CE50EF50EE50C242F
:100DE00003F8E4350DF9851082851183E493A2E7B9
:100DF0004003020D229062117448F07408120E35FF
:100E00007003750A408E828F83A3A3E493550E600E
:100E100006E50AD2E0F50AE50A906212F0EA90626D
:100E200010F08C828D83A3A3A3A3A3A3A3020D59C7
:100E30007F0B021D6CF088828983E4935403640164
:100E400022C082C083120F337010A3120F36700AB3
:100E5000A3E064017002A3E060079003A67404801D
:100E60000C9003B374A0F0A37403120F8BF0D08323
:100E7000D0822274F3121BCD90039FE064026014B1
:100E80009003BC120F36700CA3120F36700690033D
:100E9000BBE060099003A67404F0020F2E7A00797B
:100EA00001121BCB9003BAE0606F7A00F91217763B
:100EB0008A0A8B0BEA450B605890039F7404F090EC
:100EC00003BAE09003A0F0750800850A82850B83C1
:100ED000A3A3A3A3E493F8E508C398504AA8087411
:100EE000A128F8E43403F9E8FEE9FF8E828F83E459
:100EF000F07A0079041216E78A828B83A3A3A3E415
:100F000093F88E828F83E06870E7120CE00508800A
:100F1000B99003A67404F0800E9003A0F090039F94
:100F20007403F0F91216677A007902121BCB7F0660
:100F3000021D6C9003BAE0F8A3E0F9E8492274F6C8
:100F4000121BCD90039FE0640470199003B8E06415
:100F5000817011120F33700C9003BEE064017002B7
:100F6000A3E060079003A67404801A9003BCE024F9
:100F7000A1F508A3E03403F5099003B3E508F0A355
:100F8000E509120F8BF07F03021D6CF0A3E4F0A3C0
:100F900004120F9522F0A3E4F09003A6042274F744
:100FA000121BCD90039FE0640470649003B8E0646A
:100FB00001705C9003BE120F3670549003BAE0FBD0
:100FC0009003BCE0FA9003A0E0F91217AE8A088BF8
:100FD00009AE08AF09EE4F60369003BCE0FA790322
:100FE000121BCB9003BAE0C0E09003BCE024A1F850
:100FF000A3E03403F988828983D0E0F0EEFAEFFBB6
:10100000120CE09003BCE0FA7904121BCB8006902E
:1010100003A67404F07F02021D6CC082C0838003AB
:10102000121A31A2E840F9A823E854046009782391
:10103000E654FBF612140EA823E854106009782336
:10104000E654EFF612142FA823E8A2E05005782307
:1010500054FCF690620EE0FA7404F0906214E0A280
:10106000E05039A9A8C2AF906216E0F8A3E0E8FB0F
:10107000E9A2E792AF8017906228E0C0E090039366
:10108000E0F812111CD0E0F0900393E004F0EBFDC7
:1010900074FF2DFB0470E0906214E4F0EA90620E9D
:1010A000F0E0FC7404F0906211E0A2E040319003A3
:1010B00095E0F8900394E06860257A4090039412DC
:1010C000115FE0906228F0900394E004F008900330
:1010D00095E06860041AEA70E39062117401F0EC24
:1010E00090620EF0D083D0822274F8121BCDE9FEFC
:1010F0007900801212111CE08A828B83F090039297
:10110000E00412115409900392E0F8900393E06810
:101110006005E9C39E40DD7F01021D6C748528F5E2
:1011200082E43404F58322C082C083E9FC80188AFB
:10113000828B83E0C0E090039512115FD0E0121122
:1011400054900395E004F0ECF874FF28FC0470DF81
:1011500079018090F08A828B83A3AA82AB8322E0FC
:10116000F8748528F582E43405F58322C082C083B3
:10117000900395E0F8900394E068600479018002A0
:1011800079000210E402101A74FB121EB67E009061
:1011900006857808121F6C794A1213BD9006857473
:1011A00001F0A3F0A37469F0A374A5F09003D778BD
:1011B00008121EE170047E0180159003DB7808128E
:1011C0001EE16008E59D541864107003022000EED3
:1011D000F9121334C280D291EEA2E050030212E75A
:1011E000AA18AB19120291E970030212E7C29185A5
:1011F0001882851983E0C3943C500EE0F8743CC318
:1012000098F50895E0F5098006750800750900E471
:10121000F50AF50B9003DF780C121F6C7808790C37
:10122000121AD1790612015112101A120176E9F838
:101230007409687007790612015180277407686085
:1012400016A2935012E8600874066860030212E761
:10125000A292400F0212E7750800750900750A0096
:10126000750B0085080C85090D850A0E850B0F90FE
:1012700003C27808121EF6E50C450D450E450F70A9
:10128000A7D2807907120151800312101A12116C33
:10129000E970F77E007F007401121F88E4F0A374E8
:1012A00026F0A3E4F0A3F07401121F887808121F3F
:1012B0006C85080C85090D850A0E850B0F9003C2FD
:1012C000780C121EF67401121F88780C121F5DE54F
:1012D000084509450A450B70CEA29250FCA29350D6
:1012E000F81213B8022000D280D291794E1213BDA9
:1012F000750800750900750A00750B007905120163
:101300005112101A120176E9F874096860EE74013E
:101310006870EE12101A9003E37808121EF690031C
:10132000E77808121DFA50EB1213B802200074057A
:10133000121E372274F8121BCDE9FE53BEFBE59D49
:10134000A2E650FA0078F8790100E824FF18E934A1
:10135000FFF9E84970F375C6807480659E70FA43A2
:10136000BE049062707408F01213ADEE700853F46E
:10137000FEC29043FE017403F5D575D4899003969F
:10138000E4F0A374C2F0A37401F0A3E4F0A3F0A30B
:10139000F0A37408F01213D37AFF7BFF1219EC53F9
:1013A000F4FED29043FE011213AD021117D2804316
:1013B000FD01C29143FE0222D280C29122781075B3
:1013C000B60FE5B4A2E750FAE5BBC39940F118E8BF
:1013D00070ED2274F7121BCD7A0079011217768A0C
:1013E000828B83A3A3A3A3A3A3A3E493A2E6900366
:1013F000B2500474018001E4F09003B1E4F0906213
:101400000F7403F0E0A2E750FB7F02021D6CC08264
:10141000C08390039F7402F0A3E4F09003A6F079D8
:1014200003121667752100752200D083D0822274C2
:10143000F6121BCD90620EE0FEE4F0906211E0FF28
:10144000A2E4501D7480F09003A67407F0E52145D6
:10145000226009852182852283121F979003A6E4CA
:10146000F0EFA2E2500B906211E4F09003A6F0803E
:10147000679003A6E0F87402687046906216E0FF79
:101480009003B3121DACEFF97A207B6212168174BF
:1014900003121E37EFF89003B612164512164F2F9F
:1014A000121657A3E0F8A3E0F9E8496004744080FD
:1014B000027448906211F0E849600302163B02167C
:1014C000177406687009852182852283121F979000
:1014D00003A6E060030215C2EFA2E0400302163B40
:1014E0007508B8750903750A007808121ECC7908CA
:1014F0007A207B621216817403121E3775210075E3
:1015000022009003B8E054E0601D24E0700302154F
:101510009D24E0607224C0604824E070030215A896
:1015200024E0606E0215B3A3E014602624FE601D63
:1015300024FE600A24FC601F24FE60208075120ACD
:10154000FE9003A6E06404707278608070120AF264
:1015500080EF120AE680EA120E7380E5120F9E8079
:10156000E0A3E0600E24FA600F24FE601024FE6009
:1015700011804012091980C9120B4480C4120E4117
:1015800080BF120F3E80BA7521B675221B121BB6A2
:1015900080AF7521B875221B121BB880A47521512C
:1015A00075221B121B51809975218175221B121BFC
:1015B00081808E9003A67404F0808E7840E890625B
:1015C00011F09003A6E0F874016870617F02900347
:1015D000B6E0F8A3E0F9C3E89420E994005007E8E6
:1015E000F5087F0A80037508209003B3121DACA98B
:1015F000087A207B621216AC7403121E37AC0812F4
:10160000164F2C121657A808A3121645EF90621118
:10161000F0E8C394205024E5214522600985218209
:10162000852283121F979003A6E4F0800E7405684C
:101630007009852182852283121F97EE90620EF039
:101640007F03021D6CC3E098F0A3E09400F02290A9
:1016500003B31216D9E922F9E43AFA9003B3E9F098
:10166000A3EAF0A3EBF022C082C083E99003A7783D
:1016700005F0A3D8FC9003AC7805F0A3D8FC0214C5
:101680002A74F8121BCDEAFCEBFDE9F87408121F6E
:10169000881216D460118C828D83E0121EA0E9247A
:1016A0000109E43AFAD8EF7F01021D6C74F8121BAD
:1016B000CDEAFCEBFDE9F87408121F881216D4601D
:1016C00011121E6D8C828D83F0E9240109E43AFA2F
:1016D000D8EF80D31216D9E822E0F9A3E0FAA3E00C
:1016E000FB22D083D08222C082C083E9FCEAFD7A4B
:1016F000007B00800312173290039DE0F8A3E0F90D
:1017000090047BE0687003A3E069602490039EE08E
:10171000F5838882A3E493F8EC68700D90039DE054
:10172000FAA3E0FB1217328007ED6870C8ED60C5C0
:1017300080B090039DE0F8A3E0F5838882E493F8FD
:1017400090039DE028F8A3E03400F990039DE8F0B1
:10175000A3E9F022C082C0831217657A00790112D2
:1017600016E70216E2900479E0F8A3E0F990039DF1
:10177000E8F0A3E9F02274F7121BCDE9FFEAFE12AC
:1017800017657A0079021216E7EA4B601CEF6010C9
:101790008A828B83A3A3A3A3A3E4936F70E480093D
:1017A000EEF874FF28FE0470D97F02021D6C74F5F8
:1017B000121BCDEAFF8B087A001217767A027904A1
:1017C0001216E7EA4B60188A828B83A3A3E4936F17
:1017D00070EA8A828B83A3A3A3E493650870DD7FFC
:1017E00004021D6C74F7121BCD74F0121EB6E97A58
:1017F000007B00600C146010146014146018021850
:10180000D47AF37B030218D47AF77B030218D47AD4
:101810001B7B040218D490043FE060030218D090B0
:1018200003EB7408121F377408121DD9750808F5E8
:10183000097808121ED07402121F377AE87B0779E4
:101840007F1218EB7402121E377808121ED0740A29
:10185000121F377402121F2F121C907402121E37AF
:101860008B09EA450970197509007808121ED07CA9
:101870000C7D787402121F2F121D267402121E375F
:101880007C287D00EDF8851882851983E58228F58E
:1018900082E43583F583E0FFECF8743F28F8E43404
:1018A00004F9EF1218DC88828983F0EFC41218DC87
:1018B000C0E0E824FEF582E934FFF583D0E0F00DC6
:1018C00074FC2CFCEDC3940840BA90043F742AF0D9
:1018D0007A3F7B047410121E370217A9540FFA7452
:1018E000692AF582E43404F583E02274F6121BCDF4
:1018F000890A740F550AF508750900740B780812E7
:101900001F1CEA2400F8EB3480F9E82400E93509CB
:10191000F985C709A2AFE433F508C2AFE50AC4549C
:101920000FFAE5C754F84AF5C7740A121F88E0FA9F
:10193000A3E0FB801C88828983E08C828D83F08801
:10194000828983A3A882A9838C828D83A3AC82AD74
:1019500083EAFEEBFFEE24FF1AEF34FFFBEE4F703D
:10196000D48509C7E508A2E092AF7F03021D6C741D
:10197000F7121BCDED900389F0ECA3F0A37462F095
:10198000A37473F0A3E0541FF07409121F88E0F5EC
:1019900008A3E0F509E508333354FC90038EF07496
:1019A000067808121F4EE50890038DF090038F749F
:1019B00012F0A37442F075D1FE75D601EA906271FF
:1019C000F0EBA3F0906270E0D2E1F0E0A2E740FB20
:1019D0007F02021D6CC082C083E9C333906272F043
:1019E000906270E0D2E0F0D083D0822274F7121BB4
:1019F000CD7523007524007525008A268B27EA9073
:101A0000620BF08A088B0974047808121F4EE508EF
:101A1000906207F08A088B0974097808121F4EE556
:101A200008543E906209F0758B00C2E87F02021DE7
:101A30006C74F7121BCDE59DA2E650FA906206E0A9
:101A4000F9A2E25034AA26EA90620BF0F508852745
:101A50000974047808121F4EE508906207F08A089E
:101A600085270974097808121F4EE508543E9062D4
:101A700009F0906201E0D2E0F0E9782346F6906246
:101A800002E0F50875090074047808121F1C782319
:101A9000E50846F608E50946F6906204E0F50875A3
:101AA000090074097808121F1C7824E50946F6E934
:101AB000A2E050037525017406596003752500E501
:101AC0008BA2E55006758BDF752500121BCC021A20
:101AD00027080808EAC0E0EBC0E086F0E7A4FA189F
:101AE0000986F0E7A42AFA180986F0E7A42AFA186A
:101AF0000986F0E7A42AFA1986F0E7A4FBE5F02AA4
:101B0000FA190886F0E7A42BFBE5F03AFA190886E3
:101B1000F0E7A42BFBE5F03AFA18180986F0E7A4E1
:101B2000C5F02BFBE43AFA1908E7C5F0C6A426F67F
:101B3000E5F03BFBE43AFA1886F0E7A4F6E5F00896
:101B400026F6E43B08F6E43A08F6D0E0FBD0E0FAEB
:101B500022C082C0839003B9E0F8742268700890B4
:101B600003A6E0701A80117420689003A6700DE03F
:101B7000700D121BA89003A6740280027404F080FA
:101B800043C082C0839003B9E064219003A6701320
:101B9000E07013121BA8A37407F0A3E4F09003A64F
:101BA0000480027404F0801C9003B37496F0A37454
:101BB00003F0A3E4F02280028000C082C08390037F
:101BC000A67404F0D083D0822280EF22222518C58B
:101BD00082C0E0E51934FFC583C0E0E518C39582F3
:101BE00024F910AF08858319858218800885831928
:101BF000858218D2AFCEF0A3E520F0A37808E608DE
:101C0000F0A3DEFAEFF0A3E58124FBF8E608F0A3E9
:101C1000E608F0A30808E608F0A3E608F0A315819B
:101C20001581D0E0FED0E0F815811581E8C0E0EE26
:101C3000C0E02212010002020000205104A816098F
:101C40000001020301090243000201008019090496
:101C50000000010202010005240010010424020218
:101C60000524060001052401000107058203400048
:101C70004009040100020A00000007058402400038
:101C800000070504024000004E1C0000711C00000B
:101C900074F8121BCD7408121F88E0FEA3E08015B3
:101CA000A3AA82AB838C828D83A3AC82AD83EE2406
:101CB000FF1EEF34FFFFEE4F60198C828D83E0F83A
:101CC0008A828B83E0F9E86960D6E9C398FA95E0E7
:101CD000FB80047A007B007F01021D6CE47921788F
:101CE00007B800028004F709D8FCE490030278C129
:101CF00079018002F0A3D8FCD9FA7AC27B03900064
:101D00008E78C479018015E493A3AD82AE838A8274
:101D10008B83F0A3AA82AB838D828E83D8E9D9E727
:101D2000121188121F9274F7121BCDEAF8EBF974A6
:101D300009121F88E0FEA3E0FF80188C828D83E0EB
:101D400088828983F0A3A882A9838C828D83A3AC27
:101D500082AD838E088F09E50824FF1EE50934FF54
:101D6000FFE508450970D47F02021D6C8519838543
:101D70001882E0A3FEE0A3F5207808E0A3F608DFD0
:101D8000FAE0A3FFE0A3C0E0E0A3C0E0E0A3C0E06E
:101D9000E0A3C0E010AF088582188583198008850C
:101DA0008218858319D2AFD083D082227403800039
:101DB000CCC0E0EDC0E0E518C39CCCAD1950011DCE
:101DC00010AF068C188D1980068C188D19D2AF12A1
:101DD0001DD9D0E0FDD0E0FC22CAC0E0E0A3C5825E
:101DE000CCC582C583CDC583F0A3C582CCC582C5D1
:101DF00083CDC583DAE6D0E0CA22C008C3E096F5F9
:101E00000808A3E096420808A3E096420808A3E069
:101E10009645087001D3D00822C5822518C582C511
:101E200083351910AF07F5198582188007F51985D4
:101E30008218D2AFC5832200C0D0251810AF08F594
:101E400018500C05198008F51850020519D2AFD0AA
:101E5000D0222518F58210AF08F518400C1519800E
:101E600008F51840021519D2AF85198322BB01026B
:101E7000E722C082C08389828A83BB0003E080029C
:101E8000E493D083D082226016080808C6C313C624
:101E900018C613C618C613C618C613C6D5E0EA225C
:101EA000BB000EC082C0838A838982F0D083D08237
:101EB00022BB0101F722251810AF08F518400C15B8
:101EC000198008F51840021519D2AF227403800456
:101ED00074028000C0E0F404121E52D0E0121F7B96
:101EE00022E066701008A3E066700A08A3E066703E
:101EF0000408A3E06622E026F608A3E036F608A36D
:101F0000E036F608A3E036F622E627F60809E637BB
:101F1000F60809E637F60809E637F622700422606B
:101F20000D18C6C333C608C633C6D5E0F41822253B
:101F300018FAE43519FB222518FCE43519FD227541
:101F4000D00075813F751802751903021CDC600C06
:101F500008C6C313C618C613C6D5E0F422E6F008B7
:101F6000A3E6F008A3E6F008A3E6F022E0F608A353
:101F7000E0F608A3E0F608A3E0F622CAC0E0E6F027
:101F8000A308DAFAD0E0FA222518F582E43519F52B
:101F9000832200000080FBE473FFFFFFFFFFFFFFD1
:101FA000FFFFFFFFFFFFFFFFFFFFFFFFFFFFFFFF41
:101FB000FFFFFFFFFFFFFFFFFFFFFFFFFFFFFFFF31
:101FC000FFFFFFFFFFFFFFFFFFFFFFFFFFFFFFFF21
:101FD000FFFFFFFFFFFFFFFFFFFFFFFFFFFFFFFF11
:101FE000FFFFFFFFFFFFFFFFFFFFFFFFFFFFFFFF01
:0A1FF600850609433886000000004C
:020000040003F7
:01FFF000F020
:020000040000FA
:10200000022DCC022231FFFFFFFFFFFFFFFFFFFF8A
:10201000FFFFFFFFFFFFFFFFFFFFFFFFFFFFFFFFD0
:10202000FFFFFFFFFFFFFFFFFFFFFF022A50FFFF41
:10203000FFFFFF022253FFFFFFFFFFFFFFFFFFFF36
:10204000FFFFFFFFFFFFFFFFFFFFFFFFFFFFFFFFA0
:10205000FFFFFF02216BFFFFFFFFFFFFFFFFFFFFFF
:10206000FFFFFFFFFFFFFFFFFFFFFF022A79FFFFD8
:10207000FFFFFFFFFFFFFFFFFFFFFF0228A1FFFFA2
:10208000FFFFFF0221C201FFFFFFFFFFFFFFFFFF76
:1020900010201020010105030101FF0F10FEFFBCFD
:1020A0004D00000000F24C00000000FF000000FFA7
:1020B00000010020FD00020000B73E0000000051BA
:1020C0003E3B3F873EF93E00007B3E0000000000A3
:1020D0000000000000000000000000000000000000
:1020E00000000006FFFFFF00035F005F00300058A4
:1020F00000000000000000000000000000000000E0
:1021000000000000000000000000000000000000CF
:1021100000C326182718271827182720270101048D
:10212000001218000000E8030000FFFFE118E803B8
:10213000000064006400B801A0BB0D00A0BB0D004E
:102140000202000800000502070101051E02051E2B
:10215000020A0A01080803B80B02803E0102FEFFD2
:10216000E8030A050001FFFF0A01E0C0E074F21273
:102170002664A2AFE433F508D2AFAFA7AEA1EE5FFD
:1021800054106006124AE775A1EFEE5F540860082C
:10219000123BDB75A1F78023EEA2E092F0EFA2E004
:1021A00082F05017906198E0F8900777E0C398A20A
:1021B000D265D0335002E8F075A1FE751A00E5082B
:1021C0008066C0E074F2122664A2AFE433FED2AFA0
:1021D0009061A4E0F8759B00E5915854086008757B
:1021E00091F7123C238023E59158541060087591B3
:1021F000EF123C298014E591A2E092F0E8A2E0827F
:10220000F05007E0C2E0F0123D7F9061A3E0F8E5F6
:10221000E9585404600E123D5575E9FB906193E056
:10222000A2E640F2751A00EEA2E092AF7F0102270B
:1022300020C0E074F2122664A2AFE433FED2AF9065
:1022400061A5E0F8E5BF585404600675BFFB123D78
:102250009780D1C0E074F1122664E59DA2E650FAA1
:10226000906206E0F9A2E25034AA2CEA90620BF0E8
:10227000F508852D0974047808122DEBE5089062A5
:1022800007F08A08852D0974097808122DEBE508F6
:10229000543E906209F0906201E0D2E0F0E97829C2
:1022A00046F6906202E0F508750900740478081299
:1022B0002D1C7829E50846F608E50946F6906204E3
:1022C000E0F50875090074097808122D1C782AE5D4
:1022D0000946F6E9A2E05003752B01740659600324
:1022E000752B00E58BA2E55006758BDF752B001270
:1022F00042CB758B00C2E87F02022720C3E498F826
:10230000E499F912233D8026C3E49AFAE49BFBE9A1
:1023100020E7E912233DE498F8E499F922C3E49810
:10232000F8E499F912233DE498F8E499F9C3E49AA2
:10233000FAE49BFB22EB20E7CFE920E7E0B90010AD
:10234000BB0008E88AF084F8AAF022E4FBC8FA226D
:10235000EB70227B10C833C8C933C9335007C39A06
:10236000C3DBF280069A50012ADBEAC833F4C8C9FD
:1023700033F4C9FA2275F008E4C833C8C933C93345
:10238000C99AC99B5004C92AC93BD5F0ECFBC83394
:10239000F4C8E4C9FA2274F51225FE74FA122C135B
:1023A0007508047509007808122B9D7404122BF32C
:1023B0007AF87B077903123AAF7402122B5F90818F
:1023C0003A7808122DDC7402122E697808122C6AF1
:1023D00070497508027509007808122B9D74021265
:1023E0002BF37AF67B077903123AAF7402122B5F54
:1023F000851882851983E0F47003A3E0F4601C85DE
:102400001882851983E0F8A3E0F988828983740231
:10241000F0A3F0A37469F0A374A5F0C2AF75D69FC2
:102420000200007406122B5F7F040228E4080808EB
:10243000EAC0E0EBC0E086F0E7A4FA180986F0E70E
:10244000A42AFA180986F0E7A42AFA180986F0E700
:10245000A42AFA1986F0E7A4FBE5F02AFA190886FF
:10246000F0E7A42BFBE5F03AFA190886F0E7A42B75
:10247000FBE5F03AFA18180986F0E7A4C5F02BFB43
:10248000E43AFA1908E7C5F0C6A426F6E5F03BFBE6
:10249000E43AFA1886F0E7A4F6E5F00826F6E43BFD
:1024A00008F6E43A08F6D0E0FBD0E0FA22122E5EFD
:1024B000B9000302250DE47921780DB800028004EB
:1024C000F709D8FCE49004D178C779158002F0A30D
:1024D000D8FCD9FA781A9020867A01BA00028007CF
:1024E000E493A3F608DAF97A977B1990209478D8C8
:1024F00079018015E493A3AD82AE838A828B83F049
:10250000A3AA82AB838D828E83D8E9D9E77582A096
:102510007583A47406122B417582ED75834A74008D
:10252000122B41E4CFC0E0E4CEC0E0E4CDC0E0E453
:10253000CCC0E075F020E626F608E633F608E63370
:10254000F608E633F6181818EC33FCED33FDEE33DD
:10255000FEEF33FFC3EC9709ED9709EE9709EF976C
:10256000191919400FFFEC97FC09ED97FD09EE973B
:10257000FE191906D5F0BFECF709EDF709EEF709DA
:10258000EFF7191919D0E0FCD0E0FDD0E0FED0E063
:10259000FF222518C582C0E0E51934FFC583C0E0DD
:1025A000E518C3958224F810AF0885831985821831
:1025B0008008858319858218D2AFCEF0A3E520F07C
:1025C000A37808E608F0A3DEFAEFF0A3E58124FA89
:1025D000F8E608F0A3E608F0A3E608F0A30808E68A
:1025E00008F0A3E608F0A315811581D0E0FED0E045
:1025F000F8158115811581E8C0E0EEC0E0222518AC
:10260000C582C0E0E51934FFC583C0E0E518C39575
:102610008224F910AF088583198582188008858384
:1026200019858218D2AFCEF0A3E520F0A37808E692
:1026300008F0A3DEFAEFF0A3E58124FBF8E608F04A
:10264000A3E608F0A30808E608F0A3E608F0A3153F
:10265000811581D0E0FED0E0F815811581E8C0E059
:10266000EEC0E022C0D02518C582C0E0E51934FFD5
:10267000C583C0E0E518C3958224F310AF088583B5
:10268000198582188008858319858218D2AFC8F011
:10269000A3E9F0A3EAF0A3EBF0A37908E709F0A31C
:1026A000D8FAECF0A3EDF0A3EEF0A3EFF0A3D0E0A6
:1026B000F0A3D0E0F0A3D0E0F0A3E520F0A3E5F094
:1026C000F0A32212010002020000205104A8160902
:1026D00000010203010902430002010080190904FC
:1026E000000001020201000524001001042402027E
:1026F00005240600010524010001070582034000AE
:102700004009040100020A0000000705840240009D
:102710000007050402400000DE260000012700003B
:10272000851983851882E0C0E0A3E0F9A3E0FAA34D
:10273000E0FBA37808E0F608A3DFFAE0FCA3E0FDE5
:10274000A3E0FEA3E0FFA3E0C0E0A3E0C0E0A3E0BD
:10275000F5D0A3E0F520A3E0A3F5F010AF08858342
:10276000198582188008858319858218D2AFD08296
:10277000D083D0E0F8D0E03275F0108E218F228522
:102780008226858325851882851983E0CEA3E0CF34
:10279000852682852583EBC9EAC8EDCBECCAC3E860
:1027A00033C8E933C9EA33CAEB33CBC3EA9EF52415
:1027B000EB9FF523B35004AB23AA24EC33CCED33C9
:1027C000CDD5F0DAAE21AF2222D083D082ECC0E0AA
:1027D000EDC0E0E493A3FCE493A3FDED4C600D1287
:1027E0002924EC24FFFCED34FFFD80EFE493A3FCEF
:1027F000E493A3FDED4C600D1229FBEC24FFFCEDEE
:1028000034FFFD80EFD0E0FDD0E0FCE493A3C0E016
:10281000E493C0E022D083D082E9C0E0E493A3C374
:1028200086F0C5F095F0F908E493A386F0C5F0951D
:10283000F0700BE493A3C3994005E9048002A3E47C
:1028400075F002A42582F582E5F03583F583D0E0AA
:10285000F9E493A3C0E0E493C0E0228519838518CE
:1028600082E0A3FEE0A3F5207808E0A3F608DFFAF3
:10287000E0A3FFE0A3C0E0E0A3C0E0E0A3C0E0E08D
:10288000A3C0E0E0A3C0E010AF08858218858319DB
:102890008008858218858319D2AFD083D082022B1D
:1028A00047C0E074F2122664A2AFE433FED2AFE573
:1028B0008AA2E25007900738E0D2E0F0E58AA2E36E
:1028C0005007900738E0D2E1F0758A00C2EB7A1029
:1028D0007B00900734E0F912406DEEA2E092AF7FEA
:1028E00001022720851983851882E0A3FEE0A3F565
:1028F000207808E0A3F608DFFAE0A3FFE0A3C0E039
:10290000E0A3C0E0E0A3C0E0E0A3C0E010AF088512
:1029100082188583198008858218858319D2AFD0E3
:1029200083D08222C0E0C3E4939608740193961882
:10293000400FE49366700808740193661870007085
:1029400019A3A3C3E49396087401939618A3A34014
:102950000DD0E0D0E0D0E0022805A3A3A3A3A3A359
:10296000D0E022D083D082C5F0E493A3C5F0C39514
:10297000F0F5F0E493A3C395F04005E5F004800181
:10298000E475F002A42582F582E5F03583F583E451
:1029900093A3C0E0E493C0E0227404800874038031
:1029A0000474028000CCC0E0EDC0E0E518C39CCC0C
:1029B000AD1950011D10AF068C188D1980068C18AA
:1029C0008D19D2AF122AC3D0E0FDD0E0FC227402F0
:1029D0008000CCC0E0EDC0E0E518C39CCCAD195040
:1029E000011D10AF068C188D1980068C188D19D218
:1029F000AF122AA1D0E0FDD0E0FC22C0E0C0F088F8
:102A0000F0E4936670080874019366187000A8F0EB
:102A1000A3A3700BD0F0D0E0D0E0D0E0022805A353
:102A2000A3D0F0D0E022D083D082CCC0E0E493A346
:102A30006006122AE41470FAE493A36006122C3F95
:102A40001470FAD0E0FCE493A3C0E0E493C0E02269
:102A5000C0E0C0D0E8C0E0E9C0E0A9A8D2AFC2C7DA
:102A6000751A00E9A2E7E433F8E9A2E792AFD0E0F3
:102A7000F9D0E0F8D0D0D0E032C0E074F212266491
:102A8000758900C2C590198FE0700E7A007B109096
:102A9000080DE0F912406D800312493D7F010227C5
:102AA00020CAC0E0E493A3C582CCC582C583CDC54E
:102AB00083F0A3C582CCC582C583CDC583DAE5D0BA
:102AC000E0CA22CAC0E0E0A3C582CCC582C583CDDE
:102AD000C583F0A3C582CCC582C583CDC583DAE6A4
:102AE000D0E0CA22C0E0E493A3D39C5010E493A3A7
:102AF000C39C400AD0E0D0E0D0E0022A43A3A3A3C5
:102B0000D0E022C008C3E096F50808A3E09642088A
:102B100008A3E096420808A3E09645087001D3D0C8
:102B200008227009080808226016181818C6C3334E
:102B3000C608C633C608C633C608C633C6D5E0EADB
:102B400022C09FF59FE473D09F22D083D082C09F84
:102B5000E493C0E0740193C0E0740293F59F2200F7
:102B6000C0D0251810AF08F518500C05198008F5CD
:102B70001850020519D2AFD0D0222518F58210AF17
:102B800008F518400C15198008F51840021519D2DF
:102B9000AF851983227404800A740380067402804E
:102BA000027401C0E0F404122B7AD0E0122E092244
:102BB000BB0102E722C082C08389828A83BB0003F3
:102BC000E08002E493D083D082226016080808C611
:102BD000C313C618C613C618C613C618C613C6D55F
:102BE000E0EA222518F8E43519F9222518FAE43527
:102BF00019FB222518FCE43519FD22C3E0C696F620
:102C000008A3E0C696F608A3E0C696F608A3E0C6B9
:102C100096F622251810AF08F518400C15198008F3
:102C2000F51840021519D2AF22BB000EC082C08336
:102C30008A838982F0D083D08222BB0101F722C02F
:102C4000E0E493A36C7009D0E0D0E0D0E0022A4326
:102C5000A3A3D0E022E76670100809E766700A08AF
:102C600009E76670040809E76622E066701008A3A9
:102C7000E066700A08A3E066700408A3E06622C359
:102C8000E09608A3E09608A3E09608A3E096A2D2F7
:102C900065D03322C3E697F60809E697F60809E6F9
:102CA00097F60809E697F622C3E493960874019311
:102CB000960874029396087403939622C3E096F0E4
:102CC00008A3E096F008A3E096F008A3E096F022AF
:102CD000E026F008A3E036F008A3E036F008A3E011
:102CE00036F022E647F60809E647F60809E647F611
:102CF0000809E647F622E493F608740193F608748F
:102D00000293F608740393F622E056F608A3E05601
:102D1000F608A3E056F608A3E056F62270042260F7
:102D20000D18C6C333C608C633C6D5E0F41822E072
:102D300056F008A3E056F008A3E056F008A3E056CA
:102D4000F022E627F60809E637F60809E637F6081E
:102D500009E637F622E026F608A3E036F608A3E0F7
:102D600036F608A3E036F622E657F60809E657F6E7
:102D70000809E657F60809E657F622E4C396F6086E
:102D8000E496F608E496F608E496F622C3E0960880
:102D9000A3E09608A3E09608A3E09622C6F4C6082E
:102DA000C6F4C608C6F4C608C6F4C622600D08C636
:102DB000A2E713C618C613C6D5E0F322C3E79608E8
:102DC00009E7960809E7960809E7962275D0007585
:102DD000813F7518D1751904000224ADE0F608A3EF
:102DE000E0F608A3E0F608A3E0F622600C08C6C3EC
:102DF00013C618C613C6D5E0F422E6F008A3E6F021
:102E000008A3E6F008A3E6F022CAC0E0E6F0A308B3
:102E1000DAFAD0E0FA22E0F8A3E0F9A3E0FAA3E0BE
:102E2000FB22E0FCA3E0FDA3E0FEA3E0FF22EAF02A
:102E3000A3EBF0A3ECF0A3EDF022E0FAA3E0FBA3F8
:102E4000E0FCA3E0FD22ECF0A3EDF0A3EEF0A3EF95
:102E5000F022E8F0A3E9F0A3EAF0A3EBF022E5C743
:102E600054F84401F5C77901222518F582E4351993
:102E7000F58322122B4A6CA802122B4A29AC0212AB
:102E80002B4A3DAC02122B4A47AC02122B4A51ACE2
:102E900002122B4A5BAC02122B4A65AC02122B4A7F
:102EA0007EAC02122B4A88AC02122B4AFFAC0212F3
:102EB0002B4A0AAD02122B4A39AD02122B4A61ADE0
:102EC00002122B4A6CAD02122B4AD1AD02122B4AD0
:102ED000DBAD02122B4AE6AD02122B4A0AAE0212F9
:102EE0002B4A2EAE02122B4AA0AE02122B4AE9AE9A
:102EF00002122B4A05AF02122B4A76AF02122B4A5E
:102F0000C2AF02122B4A0BB002122B4A49B0021276
:102F10002B4ACAB002122B4A71B102122B4A36B3A5
:102F200002122B4A9BB302122B4AC9B402122B4A3B
:102F3000EFB402122B4A37B602122B4A71B90212B1
:102F40002B4A6FBB02122B4A3ABD02122B4AD3BD49
:102F500002122B4AD4BF02122B4A89C002122B4AFA
:102F6000C2C002122B4A32C102122B4A3CC10212C9
:102F70002B4A65C302122B4A68C402122B4AA5C50C
:102F800002122B4AFCC502122B4AA7C602122B4A78
:102F900057C802122B4AA4C902122B4AC4C90212F2
:102FA0002B4A19CA02122B4A1ACB02122B4A42CBC5
:102FB00002122B4AA1CB02122B4A99CC02122B4AA5
:102FC00010CD02122B4A23CE02122B4A91CE0212AE
:102FD0002B4A90CF02122B4AEAD102122B4A13D26B
:102FE00002122B4A79D302122B4AFBD402122B4A2B
:102FF00052D502122B4A00D602122B4AA5D6021233
:103000002B4A08D702122B4AC6D702122B4A58D88D
:1030100002122B4AB7D802122B4AF9D802122B4AB5
:103020002AD902122B4A81DA02122B4A008003129B
:103030002B4A328003122B4A6B8003122B4A3482B4
:1030400003122B4A788203122B4A4E8303122B4A17
:10305000AD8303122B4AC38403122B4A0F8503123C
:103060002B4A9D8703122B4A818A03122B4AC88B55
:1030700003122B4A608C03122B4A6C8C03122B4ACE
:10308000B58C03122B4AF78D03122B4AED8E0312D7
:103090002B4A178F03122B4A6D8F03122B4AC68FB0
:1030A00003122B4A399003122B4A6F9203122B4AB8
:1030B000F19303122B4ADA9403122B4A249603123B
:1030C0002B4A5C9803122B4A599B03122B4A689B8C
:1030D00003122B4AFC9B03122B4AA79C03122B4A78
:1030E000EA9C03122B4A339D03122B4A839D031241
:1030F0002B4AE79D03122B4A599E03122B4A759EB9
:1031000003122B4AA49E03122B4AE39E03122B4A5E
:10311000DE9F03122B4A8DA003122B4A0AA303122F
:103120002B4A3CA403122B4A14A503122B4A96A542
:1031300003122B4ACBA903122B4AFAA903122B4ADA
:1031400055AA03122B4A88AA03122B4A00AB03127A
:103150002B4A38AB03122B4A88AB03122B4AF7AC2D
:1031600003122B4A1BAD03122B4A55AD03122B4AF7
:1031700062AD03122B4A65AD03122B4A94AD0312C4
:103180002B4A8CAF03122B4A4BB003122B4A7AB056
:1031900003122B4A98B103122B4A60B203122B4A36
:1031A00021B403122B4A91B403122B4AC3B4031265
:1031B0002B4A29B503122B4A38B503122B4A65B5A1
:1031C00003122B4A7FB503122B4AF2B503122B4A86
:1031D00016B803122B4A75B803122B4AC9B803124A
:1031E0002B4AF8BA03122B4ADBBB03122B4A63BCEF
:1031F00003122B4A47BD03122B4AD1BD03122B4A9F
:10320000E5BD03122B4AF9BD03122B4A0DBE031272
:103210002B4A21BE03122B4A4EBE03122B4A7EBEFE
:1032200003122B4A39C003122B4A0FC103122B4A37
:10323000B3C103122B4A08C203122B4A51C2031214
:103240002B4AD5C203122B4A1CC303122B4A8EC32E
:1032500003122B4AE3C403122B4A8CC503122B4AD8
:10326000A4C503122B4A47C603122B4AC3C8031234
:103270002B4A6BCA03122B4A89CA03122B4A9F811D
:1032800001122B4AE18101122B4A4E8701122B4A6F
:103290009A8701122B4AE08701122B4A31890112C9
:1032A0002B4A968901122B4ADA8901122B4A408B4C
:1032B00001122B4A9B8E01122B4ACE8F01122B4AF0
:1032C0005D9B01122B4AED9B01122B4AD79E0112E6
:1032D0002B4A3CA001122B4A9FA001122B4ABBA1F2
:1032E00001122B4A25A301122B4A04A401122B4AD6
:1032F00072A601122B4A04A801122B4A95A80112AA
:103300002B4AB4A901122B4A41AA01122B4A4BAAFB
:1033100001122B4A73AA01122B4A16AB01122B4A37
:1033200001AC01122B4AC9AC01122B4A56AD011255
:103330002B4A6CAD01122B4A89AD01122B4AB2AD5A
:1033400001122B4ADFAD01122B4A23B001122B4A86
:10335000F6B001122B4A3AB101122B4ABCB101124C
:103360002B4A5DB201122B4A8FB201122B4AD6B200
:1033700001122B4A09B301122B4A4DB301122B4AF9
:103380009CB301122B4AA1B301122B4AFDB30112C7
:103390002B4A41B401122B4A2BB501122B4A90B58E
:1033A00001122B4AEEB501122B4A6DB601122B4ABF
:1033B000E5B901122B4AE8BA01122B4A7EBC011270
:1033C0002B4AC1BF01122B4A63C001122B4AACC267
:1033D00001122B4A67C301122B4AA6C301122B4AC2
:1033E0006AC501122B4A87C501122B4A90C50112EA
:1033F0002B4A99C501122B4AA4C501122B4AC3C5F9
:1034000001122B4AE7C701122B4A44C801122B4A6A
:103410004EC801122B4A58C801122B4ABBC80112D0
:103420002B4A17C901122B4A24CA01122B4A85CAFA
:1034300001122B4A96CB01122B4ADFCB01122B4AE9
:10344000A9CC01122B4AC0CD01122B4A84CE011205
:103450002B4AD0CF01122B4AD4D001122B4ACDD106
:1034600001122B4AE5D101122B4A1CD201122B4A20
:1034700026D201122B4A30D201122B4A3BD2011222
:103480002B4A59D201122B4AA1D201122B4AFFD248
:1034900001122B4A26D301122B4A38D301122B4A90
:1034A000E1D301122B4A1AD401122B4A4BD5011237
:1034B0002B4AA8D501122B4A99D601122B4ACFD6F6
:1034C00001122B4A3FD701122B4ABBD701122B4ABC
:1034D0003CD901122B4A63DA01122B4A25DB011277
:1034E0002B4AF3DB01122B4A78DC01122B4A27DD31
:1034F00001122B4A0FDE01122B4AA8DE01122B4AC1
:1035000084DF01122B4AECDF01122B4AABE00112DF
:103510002B4A07E101122B4A6BE101122B4A31E2DF
:1035200001122B4A54E201122B4A0EE301122B4ADC
:1035300030E301122B4A91E301122B4AC1E501123B
:103540002B4ABAE601122B4A66E701122B4A83E99D
:1035500001122B4ACCE901122B4A17EA01122B4A1D
:1035600073EA01122B4AD1EA01122B4AF5EA011241
:103570002B4A19EB01122B4A4EEB01122B4A76EB28
:1035800001122B4ABBEB01122B4A19EC01122B4AF8
:1035900072EC01122B4A6CED01122B4A18EF01124A
:1035A0002B4A5DEF01122B4A86EF01122B4A0FF0D6
:1035B00001122B4A82F001122B4A90F001122B4A81
:1035C000B4F001122B4A0AF101122B4A25F1011223
:1035D0002B4AE0F101122B4A0CF201122B4A4FF256
:1035E00001122B4AB2F201122B4AC2F401122B4AE9
:1035F000EEF401122B4AA9F501122B4A8DF60112A5
:103600002B4A21F701122B4A0CB205122B4A44B265
:1036100005122B4A65B205122B4AA7B205122B4A96
:103620000BB305122B4A15B305122B4A25B305120D
:103630002B4A5CB305122B4A05B705122B4ACDB8AD
:1036400005122B4AB1BA05122B4A53BB05122B4A5D
:10365000DDBB05122B4A508004122B4AF98004125C
:103660002B4AD88104122B4AE48204122B4A048389
:1036700004122B4A268404122B4AD68504122B4AA4
:10368000438604122B4A148704122B4A1A88041208
:103690002B4A928804122B4ACD8804122B4A268981
:1036A00004122B4A618904122B4AAA8904122B4A5C
:1036B0003E8A04122B4AD48A04122B4AA98B041284
:1036C0002B4A7C8C04122B4A0A8D04122B4A308D13
:1036D00004122B4A5D8D04122B4A8E8D04122B4A44
:1036E0005B8E04122B4A6B8E04122B4ABE8E041280
:1036F0002B4ACB8E04122B4AD88E04122B4AE18E11
:1037000004122B4A458F04122B4AA38F04122B4A12
:10371000EE8F04122B4A099004122B4A30900412A7
:103720002B4A4D9004122B4A599004122B4AEA91CD
:1037300004122B4A039204122B4A7F9204122B4A42
:10374000929204122B4AA29204122B4A469304121C
:103750002B4AB29404122B4AC59504122B4A659643
:1037600004122B4A6F9604122B4AEE9604122B4A2F
:10377000FF9604122B4A3E9704122B4A6C970412B0
:103780002B4A399804122B4A909804122B4AC99854
:1037900004122B4A1F9904122B4A3D9904122B4AFA
:1037A0008B9904122B4A569A04122B4AA49A04129B
:1037B0002B4AF19A04122B4A749B04122B4A9E9BAB
:1037C00004122B4AD49B04122B4AE39B04122B4A6B
:1037D000429C04122B4ABA9C04122B4AFB9C0412F2
:1037E0002B4A4B9D04122B4A769D04122B4A909D26
:1037F00004122B4AAA9D04122B4A7F9E04122B4AC4
:10380000899E04122B4AC49E04122B4AD49E041291
:103810002B4ADD9E04122B4A2E9F04122B4A429FF4
:1038200004122B4A64A004122B4A77A004122B4ADC
:103830008EA004122B4AA3A004122B4A36A1041214
:103840002B4AAAA104122B4A4FA204122B4A5AA2B5
:1038500004122B4ABDA304122B4AD9A304122B4AEB
:1038600025A404122B4A93A404122B4AC5A40412C3
:103870002B4ADFA404122B4A3FA504122B4ADEA5D3
:1038800004122B4A29A604122B4A7CA804122B4AA4
:1038900014A904122B4A8BA904122B4AE8AB041278
:1038A0002B4A00AC04122B4A03AC04122B4A0FAC77
:1038B00004122B4A23AC04122B4A2BAC04122B4AC1
:1038C00062AC04122B4A56AD04122B4AE0AD04122E
:1038D0002B4A62AE04122B4AE2AE04122B4AB9AF55
:1038E00004122B4ADBAF04122B4A74B004122B4A89
:1038F000D1B004122B4AD4B004122B4A01B10412E5
:103900002B4A16B104122B4A85B104122B4AD1B2AC
:1039100004122B4AE4B304122B4A6FB404122B4A4C
:1039200082B504122B4A49B604122B4A7AB6041205
:103930002B4AA0B604122B4AA9B604122B4AD8B6B9
:1039400004122B4A88B704122B4A38B804122B4AA7
:10395000ABB804122B4A4EB904122B4AC1B9041257
:103960002B4A00BA04122B4A49BA04122B4A7EBAD7
:1039700004122B4A258D05122B4A928D05122B4AD3
:10398000D98D05122B4A4F8E05122B4AA18E051296
:103990002B4A278F05122B4A6B9105122B4A9A93BB
:1039A00005122B4A779705122B4AF79705122B4AD7
:1039B000329805122B4A509805122B4AB0980512DE
:1039C0002B4AD89805122B4A089905122B4A399987
:1039D00005122B4A669905122B4ABF9905122B4AEC
:1039E0000A9A05122B4A419A05122B4ABD9A0512D2
:1039F0002B4AE99A05122B4A1B9B05122B4A7D9CE8
:103A000005122B4A999C05122B4AD79C05122B4A6A
:103A1000649D05122B4AC09D05122B4A869E0512F5
:103A20002B4A459F05122B4A8A9F05122B4AEB9F72
:103A300005122B4A60A005122B4A9AA005122B4AA8
:103A4000F2A005122B4A14A105122B4AACA10512B3
:103A50002B4A53A205122B4AA0A205122B4AC9A237
:103A600005122B4A0AA305122B4AB7A405122B4AAA
:103A70009BA505122B4A4CA605122B4A0EB4061222
:103A80002B4A1FB406122B4ABDB406122B4AEF7FF5
:103A900000122B4AE5FF01122B4A25B306122B4ACE
:103AA00035B306122B4A4DB306122B4A01B4061247
:103AB0002B4A2FB106122B4AB3B106122B4A19B268
:103AC00006122B4AD7B406122B4ADAB406122B4A36
:103AD00013B506122B4A69B506122B4A7CB506129D
:103AE0002B4A7FB506122B4A168406122B4A2484D1
:103AF00006122B4A9D8406122B4A728506122B4A07
:103B0000318706122B4A968706122B4AF587061232
:103B10002B4AF87F00122B4A93A206122B4ACBA203
:103B200006122B4A19A406122B4A9DA406122B4AF0
:103B30004DFD02122B4AEEFD02122B4A27FE021205
:103B40002B4A72FE02122B4A3BFF02122B4A65FFE0
:103B500002122B4A8BFF02122B4A9FFF02122B4AA2
:103B6000B4FF02122B4ABDFF02122B4A53DC05128E
:103B70002B4A7FDC05122B4A25DF05122B4A7CDFFE
:103B800005122B4AB8DF05122B4ACCDF05122B4A4F
:103B9000E5DF05122B4AD6E005122B4AB2E10512E9
:103BA0002B4AC6E105122B4A2CA806122B4A50A814
:103BB00006122B4A69A806122B4AA7A806122B4AFE
:103BC000DDA806122B4A10A906122B4A1AA90612C2
:103BD0002B4A86A906122B4AA39E02122B4A93A9AE
:103BE00006122B4AA0A906122B4ACA9806122B4A83
:103BF000ED9806122B4A389906122B4A569906124E
:103C00002B4A719906122B4AD79906122B4AE3992F
:103C100006122B4A409A06122B4A649A06122B4A25
:103C20002A9B06122B4A379B06122B4A489B0612E8
:103C30002B4A73B706122B4A8BB706122B4AB7B71B
:103C400006122B4A92A602122B4AD5ED05122B4AD8
:103C5000E3ED05122B4AF7ED05122B4A14EE05127F
:103C60002B4A29EE05122B4A3CEE05122B4ABEEEDA
:103C700005122B4A24EF05122B4AADEF05122B4AF1
:103C800025F005122B4AFEF005122B4A0EF1051203
:103C90002B4A1DF105122B4A3CB606122B4A60B680
:103CA00006122B4A88B606122B4AB0B606122B4AC9
:103CB000769B06122B4A9D9B06122B4ABC9B061232
:103CC0002B4A319C06122B4AF79506122B4A109666
:103CD00006122B4A279606122B4A309606122B4ABA
:103CE0004E9606122B4A589606122B4A62960612D8
:103CF0002B4A759606122B4A029706122B4A719789
:103D000006122B4A9F9706122B4AF09706122B4A4F
:103D10003C9806122B4A579806122B4A61980612B5
:103D20002B4A729806122B4AB59806122B4A8AFF24
:103D300005122B4AD5FF05122B4A8CBC05122B4AC3
:103D4000B8BC05122B4ADBBC05122B4AEEBC05128F
:103D50002B4A09BD05122B4A6DBD05122B4A9BBD8E
:103D600005122B4AA8C105122B4AEAC205122B4A9A
:103D70001CC305122B4A87C305122B4A0BC505121B
:103D80002B4A33C505122B4A48C505122B4A58C584
:103D900005122B4A98C505122B4ADAC505122B4A83
:103DA000EAC505122B4A73AC06122B4A83AC0612E5
:103DB0002B4AA7AC06122B4AD0AC06122B4AFAACFF
:103DC00006122B4A1EAD06122B4A35AD06122B4A9F
:103DD00063AD06122B4A86AD06122B4A39FF041238
:103DE0002B4A7FFF04122B4AFB8B06122B4A0B8CAB
:103DF00006122B4A298D06122B4A5D8D06122B4A7C
:103E00007F8D06122B4AA78D06122B4AC08D0612F3
:103E10002B4AFC8D06122B4A628E06122B4AA78E65
:103E200006122B4AEC8E06122B4A198F06122B4AC9
:103E3000518F06122B4AF47B00122B4A567C00123B
:103E40002B4AFD7C00122B4A357D00122B4A008044
:103E500005122B4AAF8005122B4AE38205122B4A2A
:103E6000B68505122B4A368705122B4A988705120C
:103E70002B4AA38A05122B4AE78B05122B4ABEADAB
:103E800006122B4A09AE06122B4A02E705122B4AEC
:103E9000C1E905122B4A5EEA05122B4A8AEA05128D
:103EA0002B4AB8EA05122B4AEDEA05122B4A15EB0C
:103EB00005122B4A75EB05122B4A39A705122B4A1E
:103EC00031AB05122B4A28AD05122B4A56AE05120E
:103ED0002B4A32AF05122B4ACDB005122B4A9AB1AC
:103EE00005122B4AEEB105122B4A039E06122B4AED
:103EF0000D9E06122B4A2E9E06122B4AE2E9041250
:103F00002B4A06EF04122B4A35F004122B4A11F209
:103F100004122B4A9CF204122B4A30F304122B4A4F
:103F200029F404122B4A60F504122B4A6DF6041290
:103F30002B4A52F704122B4AC9CA03122B4A01CB4F
:103F400003122B4A5ED503122B4A48D603122B4A82
:103F500098D703122B4AE3D803122B4A8ED90312A7
:103F60002B4A61DA03122B4AF8DA03122B4ADCDB04
:103F700003122B4ADFDC03122B4AA1DD03122B4A6A
:103F8000CFDD03122B4A47DF03122B4AD0DF031287
:103F90002B4AE9DF03122B4A43E103122B4AF5E1D6
:103FA00003122B4A84E203122B4A33E303122B4AF7
:103FB00096E303122B4A32E403122B4AABE40312BA
:103FC0002B4AC9E403122B4A96E503122B4A65E6F5
:103FD00003122B4A1BE703122B4AAAA906122B4AEB
:103FE000D4A906122B4AE8AA06122B4AEBAA0612FB
:103FF0002B4AD5B606122B4A17B706122B4A59B7C9
:1040000006122B4A69B706122B4ACDD505122B4A48
:1040100014D605122B4A7DD605122B4A9ED60512C0
:104020002B4AB7D605122B4A67D705122B4A70D7F1
:1040300005122B4AC1D705122B4AF7D705122B4A76
:104040000ED805122B4A7BD805122B4A0BD9051224
:104050002B4A41D905122B4A8AD905122B4AEBD992
:1040600005122B4A25DA05122B4A8DDA05122B4A46
:10407000E0DA05122B4A23DB05122B4A60DB05121E
:104080002B4A72DB05122B4A84DB05122B4ABEDB5E
:1040900005122B4AFEDB05122B4A27DC05122B4AA0
:1040A0004EF105122B4A94F205122B4ABDF205126D
:1040B0002B4ACEF205122B4AE6F405122B4A06F5DE
:1040C00005122B4A4FA006122B4A85A006122B4A36
:1040D000D4A006122B4A30A206122B4AD0D50412C5
:1040E0002B4A0ED704122B4A4AD704122B4A0FD957
:1040F00004122B4A39D904122B4ABFDB04122B4A73
:10410000FFDB04122B4A95DD04122B4A2ADE04122F
:104110002B4A88DE04122B4A0EDF04122B4A46DF9C
:1041200004122B4A88DF04122B4AF5E004122B4AB2
:1041300079E204122B4AB3E404122B4AE1E404129C
:104140002B4A0DE504122B4A16E504122B4A6CE5A6
:1041500004122B4AFCE504122B4A03E904122B4AF1
:1041600085E904122B4A88B506122B4A9EB5061221
:104170002B4AA8B506122B4A04B606122B4A24FB7A
:1041800005122B4A3DFB05122B4AE2FB05122B4A76
:1041900022FC05122B4A3BFC05122B4A6EFC051231
:1041A0002B4ABBFC05122B4AEFFC05122B4A31FDB2
:1041B00005122B4A0AFF05122B4A75FF05122B4ADE
:1041C000F2AE06122B4A47AF06122B4AA1AF0612D7
:1041D0002B4A1CB006122B4A8EB006122B4ACCB0CA
:1041E00006122B4A0DB106122B4AE2F701122B4A96
:1041F000E8F701122B4A2FF801122B4A3BFA011261
:104200002B4A6BFA01122B4AD5FA01122B4A90FB6A
:1042100001122B4AD3FB01122B4A04FC01122B4A38
:104220008EFC01122B4AA5FC01122B4AB2FC011292
:104230002B4ABCFC01122B4A5CFE01122B4A4EFF9A
:1042400001122B4AACFF01122B4A1AC605122B4A47
:1042500030C605122B4AE2C605122B4A0CC80512BD
:104260002B4A01C905122B4A98C905122B4AD3C9FA
:1042700005122B4A45CA05122B4AA3CA05122B4A1E
:10428000B3CA05122B4ADACA05122B4A2CCB0512E7
:104290002B4A98CC05122B4A9DCC05122B4ABFCC39
:1042A00005122B4A7DFF03122B4AABFF03122B4A48
:1042B000E0FF03122B4AE2FF03122B4AE4FF031232
:1042C0002B4AF5FF03122B4AF7FF03122B4AFAFF82
:1042D00003122B4A9DA606122B4A0BA706122B4A45
:1042E0002DA706122B4A65A706122B4A9BA706127A
:1042F0002B4AE49206122B4A269306122B4A499324
:1043000006122B4A7C9506122B4A969506122B4ACA
:10431000C19506122B4AF8B706122B4AF3F704127E
:104320002B4AD1F804122B4AB7F904122B4AC8F9C8
:1043300004122B4AD9F904122B4A25FA04122B4AEB
:1043400016FC04122B4A6BFD04122B4A9BFD04122F
:104350002B4A5FFE04122B4ABDFE04122B4ADDDA03
:1043600002122B4A38DB02122B4AD8DB02122B4AEC
:1043700055DD02122B4A41DE02122B4AFEDE0212EA
:104380002B4A15DF02122B4A64DF02122B4AD8DFB8
:1043900002122B4A33E002122B4A46E002122B4A49
:1043A000AAE002122B4A19E102122B4A31E1021251
:1043B0002B4AE4E302122B4AE9E402122B4A44E5B9
:1043C00002122B4A8AE502122B4A40E802122B4ABB
:1043D00090E802122B4A11E902122B4A53E9021209
:1043E0002B4A2DEA02122B4A66EA02122B4A85EA70
:1043F00002122B4AD0EA02122B4AF0EA02122B4A8E
:10440000ABEB02122B4A79EC02122B4A84EC02121B
:104410002B4AD2EC02122B4A27ED02122B4A73EDE3
:1044200002122B4ACEEE02122B4A01EF02122B4A45
:1044300099F102122B4ACCF102122B4AE0F202123D
:104440002B4A0FF302122B4A87F302122B4A62F413
:1044500002122B4AA4F402122B4A18F502122B4A1C
:1044600032F602122B4A7FF602122B4A89F602120A
:104470002B4A8CF602122B4A96F602122B4AB2F6FF
:1044800002122B4A2AF702122B4A63F702122B4A16
:104490007FF702122B4AABF702122B4AD2F7021215
:1044A0002B4AF6F702122B4A6FF802122B4AE2F857
:1044B00002122B4A25F902122B4A2FF902122B4A1B
:1044C0005EF902122B4A74F902122B4A90F9021279
:1044D0002B4ABFF902122B4ADFF902122B4A28FAA3
:1044E00002122B4A63FA02122B4A6FFB02122B4A6A
:1044F000D2FC02122B4AF1FC02122B4A08FD0212D6
:104500002B4A1AFD02122B4A32B206122B4A43B230
:1045100006122B4ACCB206122B4ADAE105122B4ABC
:1045200018E205122B4AB1E205122B4ABCE3051230
:104530002B4A04E605122B4A81E605122B4A94CE3B
:1045400005122B4AE3CE05122B4AA1D005122B4AA5
:1045500075D205122B4AB3D205122B4A94D30512F9
:104560002B4A9ED405122B4AC0D405122B4A1CD5C7
:1045700005122B4A9DD505122B4ADA5000122B4A00
:10458000FC5000122B4A6B5200122B4AB4520012FC
:104590002B4A255300122B4AA85300122B4A1F54B2
:1045A00000122B4A665400122B4ADD5400122B4A8B
:1045B000815500122B4AF65500122B4A3356001231
:1045C0002B4A7B5A00122B4A9E5C00122B4AD75C66
:1045D00000122B4A165D00122B4A126000122B4A61
:1045E000A26000122B4A566200122B4A90630012FE
:1045F0002B4AB06400122B4A216500122B4A026636
:1046000000122B4A856600122B4A996600122B4A2B
:10461000686700122B4A9F6800122B4ACE6A00126C
:104620002B4ADD6C00122B4AC96D00122B4A6070B8
:1046300000122B4A357100122B4A747200122B4A59
:10464000A47500122B4AB47500122B4AEA760012A8
:104650002B4A837700122B4AB47800122B4A227916
:1046600000122B4A5B7A00122B4A967A00122B4AD0
:104670003F7B00122B4AE9BA04122B4A8BBB04126F
:104680002B4AF7BB04122B4A11BC04122B4A93BCD1
:1046900004122B4ACDBC04122B4ACFBD04122B4A64
:1046A00011BE04122B4A83BE04122B4AD3BE04123D
:1046B0002B4A32BF04122B4ADEBF04122B4AC8C257
:1046C00004122B4A8FC304122B4AF5C304122B4A3F
:1046D0009DC504122B4A36C604122B4ACFC60412BB
:1046E0002B4A32C704122B4AA8C704122B4AA9C866
:1046F00004122B4A9AC904122B4AD5C904122B4A18
:10470000ECC904122B4ACACA04122B4A08CB041261
:104710002B4A90CB04122B4ADDCC04122B4AA1CE9B
:1047200004122B4ADFCF04122B4A12D104122B4A57
:1047300026D204122B4ABDD204122B4A2CD30412C7
:104740002B4A39D404122B4AE0E703122B4A4BE8D8
:1047500003122B4A93E803122B4AFAE803122B4A5E
:1047600056E903122B4A91E903122B4A2DEA031250
:104770002B4A87EA03122B4AF3EB03122B4A6CEC09
:1047800003122B4AA3ED03122B4ACBED03122B4A43
:10479000A9EE03122B4ABAEE03122B4AD2EE0312F1
:1047A0002B4AC9EF03122B4AECEF03122B4AB5F048
:1047B00003122B4ADFF003122B4AF6F003122B4AA6
:1047C00010F103122B4A3CF103122B4A5CF1031245
:1047D0002B4A82F103122B4A99F103122B4A6EF2F3
:1047E00003122B4AC8F203122B4A99F303122B4AE5
:1047F00015F403122B4A2CF403122B4AAFF40312C4
:104800002B4AF7F403122B4A1DF503122B4A75F6B7
:1048100003122B4A7AF603122B4AB8F603122B4ADC
:104820002FF703122B4A9BF703122B4A96F8031219
:104830002B4A70F903122B4ABCF903122B4AD4FA03
:1048400003122B4AD0FB03122B4A72FC03122B4A91
:10485000B8FC03122B4ACDFC03122B4ADFFD0312D6
:104860002B4A80FE03122B4ADCFE03122B4A0988D6
:1048700006122B4AC48906122B4A8C8A06122B4A2E
:10488000E18A06122B4A678B06122B4A0080061219
:104890002B4A1E8006122B4A628006122B4A888001
:1048A00006122B4AAF8006122B4AC78006122B4AEB
:1048B000DF8006122B4AF78006122B4A9D810612D2
:1048C0002B4ADF8106122B4AF48106122B4AFB8207
:1048D00006122B4A168306122B4A1F8306122B4AF6
:1048E000288306122B4A318306122B4A3B83061279
:1048F0002B4AB88306122B4A5AF605122B4A9CFA09
:1049000005122B4AB8FA05122B4ABDFA05122B4A9A
:104910001CA506122B4AA58F06122B4ABB8F061226
:104920002B4A3C9106122B4A669106122B4AAC91F7
:1049300006122B4AB59206122B4A18AB06122B4AC6
:1049400066B806122B4A8BB806122B4A309E02120A
:104950002B4A149E02122B4AF69D02122B4ADE9C11
:1049600002122B4AB99C02122B4AC99B02122B4AF3
:10497000559B02122B4ABE9A02122B4A4C9A0212E3
:104980002B4A3B9A02122B4A169A02122B4A329950
:1049900002122B4A4E9802122B4A649502122B4A9D
:1049A000219402122B4A889102122B4A439102123F
:1049B0002B4AE99002122B4A4A9002122B4AF58F99
:1049C00002122B4A228F02122B4A5C8E02122B4AB1
:1049D000208E02122B4AB38D02122B4AAB8D02128B
:1049E0002B4A208D02122B4A56A602122B4AB08C5B
:1049F00002122B4A25A502122B4AA6A402122B4A08
:104A00006BA302122B4A5BA302122B4A2FA20212A3
:104A10002B4A4DA002122B4A44A002122B4A37A067
:104A200002122B4A018C02122B4AF68B02122B4ADD
:104A3000E78B02122B4AC68B02122B4A3A9F0212B4
:104A40002B4A928B02122B4A668B02122B4A388A0F
:104A500002122B4A2C8802122B4A71EC05122B4AA7
:104A6000FD8702122B4AB29E02122B4AE1870212E4
:104A70002B4A8B8702122B4A528702122B4ACA8674
:104A800002122B4A7E8602122B4A378602122B4ACA
:104A90006A8502122B4AEE8402122B4A46840212C5
:104AA0002B4A9F8302122B4A418302122B4A168300
:104AB00002122B4AC78202122B4A898202122B4A07
:104AC000668202122B4A4D8202122B4A0582021282
:104AD0002B4A008002122B4A4F8102122B4AC380BC
:104AE00002122B4A578002122B4A89A906000000A5
:104AF00080FBE4738F000100821987000100811997
:104B000035000400311A25000200351A2600020083
:104B1000371A27000200391A28000100431A290019
:104B20000100441A84000400451A86000100491A55
:104B30002A0001004A1A2B0001004B1A2C00010028
:104B40004F1A2D00080063192E000100501A2F0083
:104B50000100511A30000100521A31000100531AAD
:104B6000320001006B19330001006C1934000100A0
:104B7000541A360001006D1938000100551A390029
:104B800001004E1A83000200691A630001007E19B9
:104B9000640001004C1A650001004D1A6D0001000F
:104BA0007F19710008005B1966000100681A430054
:104BB0000100591A440002005A1A450001005C1A0B
:104BC000460002005D1A47000800761948000100FF
:104BD0005F1A4B000100601A040001006B1AA1006B
:104BE00001006D1A370001006C1A8800010083195A
:104BF0003C0001006E193D000100561A49000200F8
:104C0000611A6700010080194D000200631A4E000E
:104C10000100651A4F000200661A3E000100751976
:104C2000510001006F1952000100571A5300010092
:104C3000581A540001007019000000000000000123
:104C400036360101000102010001030100010401E7
:104C5000060605020000070100340801000F0904E0
:104C600001010D0100FF0E080000170200001901EC
:104C700000FF1A0100011B0100FE1C0100081D02BB
:104C800000001F010001200100012102000023019A
:104C9000000F24020000260100012701000828025D
:104CA00000FF2A0100072B0102402C0100002D010A
:104CB00000012E0100012F0100FF30010B1D310802
:104CC00000003A0100083B01000F3C0100013D01DA
:104CD00000FF3E04000042040000460400004A04B5
:104CE00000004E04000052040000560400005A0464
:104CF0000000010371030103010301030103010328
:104D00002203020301031003000300030003000356
:104D1000000300030003420300032403060300030F
:104D200000030403120325032303250323030403C1
:104D300004030003000300034403000300032303F0
:104D4000000365032100350381030003050300030D
:104D5000000300030003250323030304710402047A
:104D6000600411047004020402040104020410042B
:104D700061040004140463047304720462044304B1
:104D800000041304060400040004040412040004D4
:104D90000004000400045104640000040004000442
:104DA0004404000400040004000465040004350405
:104DB00081046400050400048304000403007100FE
:104DC00030016000110070003102200350048000A7
:104DD00010006100000014006300730072006200A4
:104DE0004300000013000600000000000400120051
:104DF000000000000000000004000400370037003D
:104E00003C024400000000000000000065000000BB
:104E10003500810000000500000083000000010152
:104E200071010101010111010101310101010101C2
:104E30008001100161013B001400630173017201E4
:104E4000620143010001130106013D013500040127
:104E500012010001000100010001040104013301FD
:104E600033013C01440132013600000100016501BB
:104E7000000135008101000105018201830100016B
:104E8000030271023001600211027002010202028B
:104E900002028002100261023A00410063027302C2
:104EA0007202620243020002130238000002000292
:104EB00004021202000200020002000204020402C4
:104EC000370037003C0244020002390000020002B1
:104ED000650200023502810200020502820283029D
:104EE000000236000100060000000F000000000074
:104EF000000000000000000003FFFF00000403FFAB
:104F0000FF0000FFFF0FF4010005C40403200001AF
:104F100000000B000000000000000003010F000073
:104F20000000000000000000000000000000000081
:104F30000000000000000000000000000000000071
:104F40000000B546130013461F0019461F801F4678
:104F50000100B54602009B450300A1450400A7459A
:104F60000500AD450600B9453000D7453100D145B3
:104F70003200E3453300E9453500EF453400F5459F
:104F80003600FB451100074614000D461500CB45C1
:104F9000FFFF00000A000000020000000400000003
:104FA0000800000010000000200000004000000089
:104FB000800000000001000000020000000400006A
:104FC0000008000000100000002000000040000069
:104FD00001C33206F93208F3320B113310DB2F0A0A
:104FE000233302C93205E73207CF320CAB320DB79B
:104FF0003264B549FF000007ECFDFDFDECDCDCCCC4
:10500000BCACAC9C9C8C7C7C6C6C5C5C5C4C4C3C10
:105010003C2C2C1C1C03EAF5E5D5D5C5B5A595950A
:1050200085857575656555554545353525251515B0
:105030000500160F00000B150B020002220F3300B3
:10504000000E5A6967426565416C6C69616E636503
:10505000303901030507090B0D0F00020406080A89
:105060000C0D00034A49434E181A25050200011988
:1050700016181616182303000C0E020B040B0A0751
:1050800008000F303016181920231A1C1E30003962
:105090003D3F373C3C362C442D3030171819213019
:1050A0001B1D1F30020402010101010902E8030077
:1050B0000000BE040A000000007F00E8030E00109C
:1050C0000C0A030305090008000CFF1E1E28050832
:1050D0000304040910150401080CC082C083901851
:1050E000D9E4F0A3F07CED7D047AF27B171241E164
:1050F00012498512302912497F02669274F31225F3
:105100009274F5122C1389098A088B0A8C0BE970AA
:105110005F74026508703F79081244ED750C0078E1
:105120000C122BA1E50BF50C780C122BA1E50AF55E
:105130000C780C122BA190180E122999901A49E0A4
:10514000F97C767D19901A691270EA12495B74072E
:10515000122B5F02523374016508600302523879E2
:10516000081244ED7B00AA0AA90A124A030252332C
:10517000740165096009740265096003025238EA26
:10518000600674036508704779021244ED901A496D
:10519000E0F990180E122E3A12496DE9F990181D97
:1051A000E0A2E34010E9700D9018DDE004F0640423
:1051B000700312525974036508707A9018DEE0F893
:1051C000740128F0E8C39405406B1252598066744C
:1051D000016508706374016509790A702E1244ED47
:1051E0007401122E69E4F07402122E697403F00443
:1051F000122E69E4F0A3F0A3F0A3F07408122E6954
:10520000E4F0AA18AB191232D580441244ED901A7A
:105210003F1229997A007B20901812E0F9124193ED
:105220007404122B5F901A49E0F990180E122E3A6E
:10523000124A39E9F9E960179081161229997A0121
:105240007B00901812E0F91241937404122B5F74E2
:105250000B122B5F7F0502285B90180EE4F0A374FD
:10526000F8F0A374FFF0A37407F02274F6122592ED
:10527000E9FFEAFE7AD1F91240498A828B83E582FE
:105280004583702A7A027B0012402BEA4B700E7A1B
:10529000107B00901812E0F912406D80148A828B06
:1052A0008374D1F0EFA3F0EEF91240378003EFA33F
:1052B000F00254D874F712259289089006FA126504
:1052C000FD901A2DE0F47003A3E0F4702D90080D0A
:1052D000E0901A2DF0A3E4F080208E828F83A31239
:1052E000638A600F8E828F83A3A3126384FAA90856
:1052F0001245838E828F8312539BEE4F70DC901A7F
:105300002DE0F47003A3E0F4600A901A2DE0FAA9EE
:10531000081245831233E39017DC125CD11233DD9F
:105320007F0102285B74F0122592890B8C0C7508A2
:10533000007509007410122E6912540F7412122E87
:105340006912539B803CA80A1253FFF50EA3E0F5A7
:105350000FA8091253F2F583E0650E7004A3E0650F
:105360000F7014125392EE28F582EF39F583E50E93
:10537000F0A3E50FF00508050AE50AC3950C40C641
:105380000509E509C3950B5005750A0080EBA908CE
:105390008011A808E828F8E433F922126DC3E8FE6A
:1053A000E9FF227F0802285B74F4122592890B8C96
:1053B0000A750800740C122E6912540F8002050839
:1053C000E508C3950B502775090080020509E5091A
:1053D000C3950A50E9A8081253F21265FBA80912F6
:1053E00053FF6E7003A3E06F70E2790180027900D1
:1053F0008028E828F8E433F9EA28F582EB3922E836
:1054000028F8E433F9EC28F582ED39F583E022122F
:105410006DC3E8FCE9FD22122B5F7F0402285B7458
:10542000F61225921254C27003A3E06D701775082E
:105430001B7509187808122B9DEEFA1246BB7402F0
:10544000122B5F801F7508027509807808122B9D4A
:105450008C088D097808122B9D1254AD1246DF740A
:1054600004122B5F807274F61225921254C27003DC
:10547000A3E06D70177508287509187808122B9D20
:10548000EEFA1246C17402122B5F801F7508037575
:1054900009807808122B9D8C088D097808122B9DA5
:1054A0001254AD1246DF7404122B5F802B1254BBD2
:1054B0003FF583E0FD7C8012673A22EE240EF582F0
:1054C000E422EAFEEBFF12674FFCE439FD9017DCA3
:1054D000E06C227402122B5F7F0202285B74F612CA
:1054E000259274FE122C13EAFEEBFF8518828519B3
:1054F00083E4F0A3125C81126680FCA3E0FBECFA6B
:1055000088828983A3A3E0F9750900750800600506
:1055100074FF697005750882803D9017DCE06A7041
:1055200003A3E06B701AAA18AB191239B3E9F50995
:10553000851882851983126AC1701C7508838017CB
:10554000901981E06004640170057508818008E0AD
:1055500064027003750880851882851983126AAA0F
:10556000A908EEFAEFFB1246C7E50960118518821B
:10557000851983126AC160061270E41240D3025486
:10558000D374F2122592EAFEEBFF7508007509004C
:1055900012674BF50AE439F50B1233E3EA650A703A
:1055A00003EB650B70121239C5E914F50879017A1D
:1055B000A57B181239CB8003750980126AB0F50CEF
:1055C000780C122BA1750CA5750D18780C122B9D5B
:1055D0007808122BA1780A122B9DE509F5087808A6
:1055E000122BA1126516126AB3F97A057B80124656
:1055F000CD740702788074F6122592890975080027
:1056000080278A828B83E0FE127A43EE28E439FFFA
:10561000125392EC28F582ED39F583EEF0A3EFF00A
:10562000EA2402FA50010B0508E508C3950940D2A7
:105630000254D874E812259274FB122C138A168B2C
:1056400017851882851983E4F07403122E69E4F03B
:10565000A3F004122E69E4F0A3F0125A4435171295
:105660005C53F50B850A82F583127B2FFEE439FF2C
:10567000850A82850B83A3A3E0FA850A82850B83C2
:10568000A3A3A3E0F9EAF508E439F509E50A24043F
:10569000F50A5002050BEEFAEFFB12347FE96401C4
:1056A0006016EEFAEFFB12347FE9703D9017DCE0F4
:1056B0006E7003A3E06F6031126890122BA1E4F5C5
:1056C00008F5097808122B9D7808122BA19017DC99
:1056D0001229A17508807808122BA1125A2B1246A4
:1056E000CD7407122B5F025A21125A5E8810602B6C
:1056F0001276CE1240CD7403122E69125CD174035F
:10570000122E69126AC160137403122E69125A565E
:10571000A9101245B38A0A8B0B8003751000125A28
:105720005E880F60271276CE1240CD7401122E696A
:10573000125CD17401122E69126AC1600F740112D9
:105740002E69125A56A90F1245B38003750F0090A7
:1057500006FA805C850A82850B83A3A3A3A3A3A377
:10576000A3A3E4F0A3F0AA0AAB0B851482851583EA
:10577000A3A3E0F8126384F91240378512828513DF
:1057800083E0C0E0851882851983E0F874A528F5C8
:1057900082E43418F583D0E0126AC504F0E511A262
:1057A000E05007AA12AB131240D3851482851583EB
:1057B000E0F514A3E0F515E5144515700302598EC4
:1057C000851482851583A312638A60DE8514828521
:1057D0001583A3A3A3A3A3A3A3A3E0A2E050CB8517
:1057E0001482851583A3A3A3A3126AC1851482859D
:1057F0001583A3A3601F12638BFA79018514828538
:105800001583A3A3A3A3125A49124AF28A128B1337
:105810007511018010125A49A3A3A3E0F512A3E069
:10582000F513751100E5124513700302579D85129B
:1058300082851383A3E065087004A3E06509600F07
:1058400074FF6508700474FF6509600302579D8545
:105850001282851383A3A3A3A3A3A3A31229A185C3
:105860001282851383A3A3A3A3A3A3E0FC74051250
:105870002E691270EAA9101245957402122B5FE985
:10588000703C851282851383A3A3A3A3A3A3A3A320
:10589000A3A31229A1851282851383A3A3A3A3A383
:1058A000A3A3A3A3E0FC7403122E691270EAA90F4C
:1058B0001245957402122B5FE9700302579DE50FA4
:1058C0002510C333240AFA7B0012402B8A0A8B0B63
:1058D000EA450B700302577B8A828B8374D2126C69
:1058E000D08A828B83A3A3E8F0A3E91279A9A3E568
:1058F00010127B37E50FF0E510603CEA2405FAE46E
:10590000350BFBE50A240AF8E4350BF98A828B8310
:105910001262507403122E69125A6E122B99AC1037
:10592000EC2CFCE433FD8A828B831270EA12400770
:105930007403122B5F800D8A828B83A3A3A3A3A37E
:10594000E4F0A3F0E50F7003025754A8101253942B
:10595000E50A28F8E50B39F9E8240AFAE439FB8569
:105960000A82850B83A3A3A3A3A3A3A3A3125CD141
:105970007401122E69125A6E122B99AC0FEC2CFC8A
:10598000E433FD1240077403122B5F02576685183B
:1059900082851983E06027126890122BA17508A5F3
:1059A0007509187808122B9D7403122E69126899D4
:1059B000122BA19017DC1229A17508008029EEFA9C
:1059C000EFFB12347FE9702F126890122BA175083B
:1059D000A57509187808122B9D7508007808122BF8
:1059E000A19017DC1229A17808122BA1125A2B12B0
:1059F00046CD7407122B5F7403122E69126AC160C0
:105A00000B7403122E691270EA1240D37401122E25
:105A100069126AC1600B7401122E691270EA124099
:105A2000D37405122B5F7F1002285BE5162402FC5D
:105A3000E43517FDE5161264AA3517F583E0F97A07
:105A4000067B8022EA12667722125A4D22E0F8A3E2
:105A5000E0F583888222126AAAAA0AAB0B22850A81
:105A600082850B83E0F8A385820A85830B22E0F50B
:105A70000CA3E0F50D750E00780C2274F11225923E
:105A800074F4122C138A088B09ECFEEDFF740B12D0
:105A90002E697403F0122BEB1241E11233DD8A0AF6
:105AA0008B0BAC0AAD0B7403122BEB1241DBE960DC
:105AB0000A125C4D6010E06401600B851882851944
:105AC000837484025BFB8E828F83A3A3A3A3A3A30F
