:020000040000FA
:10000000021F3F022003FFFFFFFFFF02200BFFFF45
:10001000FFFFFF022013FFFFFFFFFF02201BFFFF78
:10002000FFFFFF022023FFFFFFFFFF02202BFFFF48
:10003000FFFFFF022033FFFFFFFFFF02203BFFFF18
:10004000FFFFFF022043FFFFFFFFFF02204BFFFFE8
:10005000FFFFFF022053FFFFFFFFFF02205BFFFFB8
:10006000FFFFFF022063FFFFFFFFFF02206BFFFF88
:10007000FFFFFF022073FFFFFFFFFF02207BFFFF58
:10008000FFFFFF022083FFFFFFFFFF02208BFFFF28
:10009000FFFF70DFFFFF040000000002000000C847
:1000A000030002030369A5020269A532730000017F
:1000B00000000000000400FFFFFFFFFFFFFFFF0440
:1000C00003090424035400650078006100730020D4
:1000D0000049006E0073007400720075006D0065C9
:1000E000006E007400730024035400490020004394
:1000F000004300320035003300310020005500532A
:10010000004200200043004400430000035F005F02
:100110000030005800000000000000000000000057
:1001200000000000000000000000000000000000CF
:100130000000000000303132333435363738394171
:100140004243444546331C881C881C881C881C90EC
:100150001C74F8121BCD900391E06015900302749B
:10016000FEF0900304744DF0A37405F07A011207B9
:100170001C7F01021D6C74F8121BCD74FF121EB699
:100180007E00801F851882851983E064FE700690CA
:1001900003877401F0851882851983E0F890038441
:1001A000E068F07901AA18AB191210E9E9700302AE
:1001B0000287851882851983E064EF70027E07E06C
:1001C000C0E0900387E0FA900385E0F8EA28F8E4BD
:1001D0003400F9740228F582740339F583D0E0F015
:1001E000900387E0609E14600E14602B14603B1433
:1001F0006051146067809E900384E4F085188285C6
:100200001983E0900386F0C394809003874003E451
:1002100080827402020194851882851983E090031C
:1002200082F09003877403020194851882851983F4
:10023000E0900383F0900386E060199003877404D4
:10024000020194900385E004F0F8900386E0686072
:10025000030201959003877405020194900385E4DD
:10026000F0900387F0900384E0F885188285198365
:10027000E0686003020195900382E0644D60030230
:1002800001951203BF8002EEF97401121E370201BC
:100290007174F7121BCD74FB121EB6EAFEEBFF75EC
:1002A00008047509007808121ED07402121F377AEC
:1002B000907B0079041218EB7402121E3712070E9D
:1002C000121F88E0687003A3E069701285188285A8
:1002D0001983E0F47003A3E0F4600302039A74044A
:1002E000121F2F1207708A088B09A808A909740227
:1002F000121F88E8F0A3E9F07404121F88E0600878
:1003000079011201510203B3851882851983E068CF
:100310007003A3E0697076851882851983E0F47014
:1003200003A3E0F470197402121F887410F0A37410
:1003300020F08518828519837410F0A37420F0755D
:1003400008017509007808121ED07402121F377A4E
:10035000247B0812196F7402121E3775080478087E
:10036000121ED07402121F377A907B007904121883
:10037000EB7402121E3712070E121F88E06870031A
:10038000A3E069700479028006790480027903127F
:1003900001518E828F83741E80058E828F83E4F0DC
:1003A00012070E121F88E0687003A3E069700479D9
:1003B00001800279007405121E377F02021D6C74E1
:1003C000ED121BCD74F8121EB6900307E0FD9003EA
:1003D00006E0FCFAEDF8E4C8F9EA28FEE93408FF83
:1003E000751001750B00750A068E088F0974027866
:1003F00008121F1CC39508F8E49509F9740228F542
:100400000E740339F50F8E088F0974097808121FCE
:100410004EE508F511EE2410F508E43FF509EEF578
:100420000CEF5401F50D900383E014605914700330
:100430000204FB14700302057614601024FE70039E
:100440000206311470030206E10206F1750A03790F
:100450004E1213BD9003071207047402F0A37440F8
:100460001207027408120702F0A3F07418C394076D
:1004700004F510AA10A90B12071CA90A7408121E71
:10048000377F0C021D6C750A04794E1213BDEE45C0
:100490000D7005A9111219D5C3EE9425EF940850DB
:1004A0003CC3E5089424E50994084031E50E249600
:1004B000F8E50F3420F988828983E0701BA3AA82B3
:1004C000AB83E070139003887401F0888289837491
:1004D000A5F08A828B838004900388E4F07508106D
:1004E0007509007808121ED07C087D03EEFAEFFB38
:1004F00012196F7402121E37020473750A05E51192
:10050000C394794006750B0102047375124075138C
:10051000007812121ED07C097D037402780C121F21
:100520001CAA0CAB0DA9111218EB7402121E379005
:100530000307E0A3F0900306E0A3F0751043C3EEB9
:100540009425EF94084003020473C3E5089424E55E
:100550000994085003020473900388E070030204B6
:1005600073E50E2497F8E50F3420F988828983E437
:10057000F0A3F00204737508047509007808121ED0
:10058000D07402121F377A907B0079041218EB7432
:1005900002121E377402121F88E0F8A3E0F98518D2
:1005A00082851983E0687003A3E069851882851944
:1005B00083700BE0F47003A3E0F470578009E0F45B
:1005C0007003A3E0F4700D8518828519837410F010
:1005D000A37420F012070E121F88E8F0A3E9F0754B
:1005E00008017808121ED07402121F377A247B0883
:1005F00012196F7402121E377508047808121ED083
:100600007402121F377A907B0079041218EB74027F
:10061000121E3712070E121F88E0687003A3E069EC
:100620007006750A01020473750A02750B0702044D
:10063000739003D6E0600764026003020473EDFF69
:100640007A01790012071CE060030206D5800312CC
:10065000118512116CE970F77404121F881206F6E6
:100660007404121F887808121F6C85080C85090D08
:10067000850A0E850B0F9003C2780C121EF67404C7
:10068000121F88780C121F5DE5084509450A450BC5
:1006900070CE8EC2E5C554E04FF5C57404121F88B4
:1006A0001206F67404121F887808121F6C85080C55
:1006B00085090D850A0E850B0F9003C2780C121E5A
:1006C000F67404121F88780C121F5DE50845094571
:1006D0000A450B70CE7A01790012071C79080204D2
:1006E0007CEC900391F07003020473750A09020414
:1006F00073790602047CE4F0A37426F0A3E4F0A36B
:10070000F022F0A3E4F0A3F0A3F0A3F0A322851855
:1007100082851983E0F8A3E0F974022274F8121BB1
:10072000CDEAFE900305E0D2E7F0E9A3F0EE9003F6
:1007300003F08E0874042AFE7C028004E062080C38
:10074000ECFA3395E0FB74022AF58274033BF583DF
:10075000EEF8C3EA98EB9400A2D265D03340DDE511
:1007600008F074012AF97A027B0312112702017141
:1007700074E9121BCD7582007583FE121E198A164C
:100780008B177514007515008A828B83E4F0900333
:10079000D6E07006D2AAD2AF800464027005790058
:1007A000120151750C00750D20750E00750F00902B
:1007B00003D6E0600464027015121185120176E917
:1007C000F874096860030208AC7900120151E06412
:1007D000027007A29240030208877508007509029B
:1007E0007808121ED07402121F37850C08850D0977
:1007F000AA08E5095407FB850E0A850F0B740B78D0
:1008000008121E87A9081218EB7402121E377E0008
:100810007F009003CAC0828E10EFF5113395E0F58A
:1008200012F513850C08850D09850E0A850F0B78C6
:10083000087910121F099003C67808121EF67583F6
:1008400003D0827808121DFA501D851882851983FD
:10085000E5822EF582E5833FF583E0F9AA14AB1516
:100860001208DB8A148B150EEE70010FC3EF940291
:1008700040A09003CE780C121EF69003D2780C1292
:100880001DFA40030207AF7900AA14AB151208DB6A
:1008900079001208DB8B159003D6E07004C2AFC25A
:1008A000AAEA451570277AA57BA58021E870030286
:1008B00007CE74066870030207CE740768700302DF
:1008C00007CE8516828517837401F080BA75820081
:1008D000758302121E197F10021D6CC008C0097CAE
:1008E000088A088B09740F7808121F4EE508F8EA89
:1008F00025E0FAEB33FBE9A2E7500474014AFAE879
:10090000A2E0500874216AFA74106BFBE9C333F952
:100910001CEC70CDD009D00822C082C083120F33E6
:1009200060030209F0A3E0F8A3E060030209F0A36A
:10093000E064027002A3E060030209F09003B8E0F3
:100940002480600914604F14605C0209F0E86003C1
:100950000209F09003B2E060047801800278009010
:1009600003C0E8F0A3E4F09003B1E0600A9003C094
:10097000E04402F0A3E4F09003A6E0640460149065
:1009800003B374C0F0A37403F0A3E4F0A3740212E1
:100990000F95F0020E6E90039FE064047052900376
:1009A000C0E4F0A380D0E8547FFA90039FE0640491
:1009B000703EEAC394065038749F2AF582E43403EB
:1009C000F583E854806018A3A3A3A3A3A3A3E064C2
:1009D0000370047801800278009003C0E88094E5F9
:1009E00082240CF58250020583E0640370E980E301
:1009F0009003A67404809B74F8121BCDE9FE90034B
:100A0000BE120F366003020AD990039FE0640460AF
:100A10000B9003BC120F366003020AD99003B8E0B2
:100A2000541F6009146030146020020AD99003BA80
:100A3000E064017022EE9003B1F060047905800259
:100A400079067A00121BCB020ADF9003BCE0547FC8
:100A5000FA9003BAE060057900020AE1EAC394065D
:100A60005077EA90620EF0749F2AF8E43403F9900C
:100A700003BCE05480602EEE600474108002744069
:100A8000906211F0EE60047B0380027B00EB8882B1
:100A90008983A3A3A3A3A3A3A3F0EE600479088092
:100AA0002F7907802BEE60047B2080027B80EB9007
:100AB0006214F0EE60047B0380027B00E8240CF5F6
:100AC00082E439F583EBF0EE6004790A800279095B
:100AD000121BCB90620EE480059003A67404F0799B
:100AE000017F01021D6C79001209F7E97003121BE6
:100AF000BA2279011209F7E97003121BC922C082D8
:100B0000C0839003BC120F367015A3120F36700FFE
:100B10009003BA120CD95480FAE9FBEA4B600790B3
:100B200003A67404801AE8906200F090039F6009A5
:100B3000E06402700C74038007E0640370037402C5
:100B4000F0020E6E74F5121BCD9003BAE0FAA3E02A
:100B50001460081460101460398057121754120C76
:100B6000B6A37B8080417900121776120CB67B8089
:100B7000E92402F9E43AFA121E6DFC1919E0FAA30D
:100B8000E92403F9E43AFA121E6DF9ECA3F0A3E9A3
:100B9000801CEAF91217E49003B3EAF0A3EBF0A388
:100BA000E4120CC5A37B00121E6DA3F0A3E4F002B7
:100BB0000C709003B3E4F0A3F0A3F0750B00900465
:100BC0007DE0FAA3E0FB020C4E850B08750900746A
:100BD000037808121F1CEA2508F8EB3509F9900381
:100BE000BA120CCFE493C0E0EFFCD0E06C705DA3D0
:100BF000E4936E70579003BC120CCFA3A3E493C090
:100C0000E0EFFCD0E06C704488828983A3A3A3E466
:100C1000936E703888828983A3A3A3A3E493F50815
:100C2000740193F5099003B3E508F0A3E509F0A377
:100C30007480F088828983A3A3A3A3A3A3E493F879
:100C4000740193F99003B6E8F0A3E9F0050B900462
:100C50007F120CD9C39AF508E99BF509740378084B
:100C6000121F4EC3E50B9508E495095003020BC90A
:100C70009003B3E0FCA3E0FDA3E0FEEC4D4E900337
:100C8000A6700474048029E0640460259003BEE02B
:100C9000FAA3E0FB9003B6E0F8A3E0F9C3EA98EB0F
:100CA0009950089003B6EAF0A3EBF09003A6740104
:100CB000F07F04021D6C9003B3EAF0A3EBF0A37481
:100CC00080120CC522F09003B3E0F9A3E0FA22E011
:100CD000FEA3E0FF8882898322E0F8A3E0F9E822FE
:100CE00074EE121BCDEA2404F8E43BF98808890964
:100CF0008882F583E4936025900481120CD9FEE983
:100D0000FF8007EE2404FE50010F8E828F83E49350
:100D1000F8740193F9EA687002EB6970E6750B00EC
:100D2000803F9062147490F07410120E3570037549
:100D30000A408E828F83A3A3A3E493550E6006E539
:100D40000AD2E0F50AE50A906215F0EA906213F023
:100D5000EC240CF582E43DF583E4F090620EF0059E
:100D60000B850882850983E493F8E50BC39840035B
:100D7000020E307A0079051216E78A0C8B0DEA45CF
:100D80000D60DCEA2402F8E4350DF9881089118839
:100D900082F583E493540FF51290620EF0750A0009
:100DA0008A828B83A3A3A3A3E4932407F50EA3E471
:100DB000933400F50F7403780E121F4EAA0EA8127A
:100DC000749F28F8E43403F9E8FCE9FD750E017519
:100DD0000F00E512780E121F1CE50EF50EE50C242F
:100DE00003F8E4350DF9851082851183E493A2E7B9
:100DF0004003020D229062117448F07408120E35FF
:100E00007003750A408E828F83A3A3E493550E600E
:100E100006E50AD2E0F50AE50A906212F0EA90626D
:100E200010F08C828D83A3A3A3A3A3A3A3020D59C7
:100E30007F0B021D6CF088828983E4935403640164
:100E400022C082C083120F337010A3120F36700AB3
:100E5000A3E064017002A3E060079003A67404801D
:100E60000C9003B374A0F0A37403120F8BF0D08323
:100E7000D0822274F3121BCD90039FE064026014B1
:100E80009003BC120F36700CA3120F36700690033D
:100E9000BBE060099003A67404F0020F2E7A00797B
:100EA00001121BCB9003BAE0606F7A00F91217763B
:100EB0008A0A8B0BEA450B605890039F7404F090EC
:100EC00003BAE09003A0F0750800850A82850B83C1
:100ED000A3A3A3A3E493F8E508C398504AA8087411
:100EE000A128F8E43403F9E8FEE9FF8E828F83E459
:100EF000F07A0079041216E78A828B83A3A3A3E415
:100F000093F88E828F83E06870E7120CE00508800A
:100F1000B99003A67404F0800E9003A0F090039F94
:100F20007403F0F91216677A007902121BCB7F0660
:100F3000021D6C9003BAE0F8A3E0F9E8492274F6C8
:100F4000121BCD90039FE0640470199003B8E06415
:100F5000817011120F33700C9003BEE064017002B7
:100F6000A3E060079003A67404801A9003BCE024F9
:100F7000A1F508A3E03403F5099003B3E508F0A355
:100F8000E509120F8BF07F03021D6CF0A3E4F0A3C0
:100F900004120F9522F0A3E4F09003A6042274F744
:100FA000121BCD90039FE0640470649003B8E0646A
:100FB00001705C9003BE120F3670549003BAE0FBD0
:100FC0009003BCE0FA9003A0E0F91217AE8A088BF8
:100FD00009AE08AF09EE4F60369003BCE0FA790322
:100FE000121BCB9003BAE0C0E09003BCE024A1F850
:100FF000A3E03403F988828983D0E0F0EEFAEFFBB6
:10100000120CE09003BCE0FA7904121BCB8006902E
:1010100003A67404F07F02021D6CC082C0838003AB
:10102000121A31A2E840F9A823E854046009782391
:10103000E654FBF612140EA823E854106009782336
:10104000E654EFF612142FA823E8A2E05005782307
:1010500054FCF690620EE0FA7404F0906214E0A280
:10106000E05039A9A8C2AF906216E0F8A3E0E8FB0F
:10107000E9A2E792AF8017906228E0C0E090039366
:10108000E0F812111CD0E0F0900393E004F0EBFDC7
:1010900074FF2DFB0470E0906214E4F0EA90620E9D
:1010A000F0E0FC7404F0906211E0A2E040319003A3
:1010B00095E0F8900394E06860257A4090039412DC
:1010C000115FE0906228F0900394E004F008900330
:1010D00095E06860041AEA70E39062117401F0EC24
:1010E00090620EF0D083D0822274F8121BCDE9FEFC
:1010F0007900801212111CE08A828B83F090039297
:10110000E00412115409900392E0F8900393E06810
:101110006005E9C39E40DD7F01021D6C748528F5E2
:1011200082E43404F58322C082C083E9FC80188AFB
:10113000828B83E0C0E090039512115FD0E0121122
:1011400054900395E004F0ECF874FF28FC0470DF81
:1011500079018090F08A828B83A3AA82AB8322E0FC
:10116000F8748528F582E43405F58322C082C083B3
:10117000900395E0F8900394E068600479018002A0
:1011800079000210E402101A74FB121EB67E009061
:1011900006857808121F6C794A1213BD9006857473
:1011A00001F0A3F0A37469F0A374A5F09003D778BD
:1011B00008121EE170047E0180159003DB7808128E
:1011C0001EE16008E59D541864107003022000EED3
:1011D000F9121334C280D291EEA2E050030212E75A
:1011E000AA18AB19120291E970030212E7C29185A5
:1011F0001882851983E0C3943C500EE0F8743CC318
:1012000098F50895E0F5098006750800750900E471
:10121000F50AF50B9003DF780C121F6C7808790C37
:10122000121AD1790612015112101A120176E9F838
:101230007409687007790612015180277407686085
:1012400016A2935012E8600874066860030212E761
:10125000A292400F0212E7750800750900750A0096
:10126000750B0085080C85090D850A0E850B0F90FE
:1012700003C27808121EF6E50C450D450E450F70A9
:10128000A7D2807907120151800312101A12116C33
:10129000E970F77E007F007401121F88E4F0A374E8
:1012A00026F0A3E4F0A3F07401121F887808121F3F
:1012B0006C85080C85090D850A0E850B0F9003C2FD
:1012C000780C121EF67401121F88780C121F5DE54F
:1012D000084509450A450B70CEA29250FCA29350D6
:1012E000F81213B8022000D280D291794E1213BDA9
:1012F000750800750900750A00750B007905120163
:101300005112101A120176E9F874096860EE74013E
:101310006870EE12101A9003E37808121EF690031C
:10132000E77808121DFA50EB1213B802200074057A
:10133000121E372274F8121BCDE9FE53BEFBE59D49
:10134000A2E650FA0078F8790100E824FF18E934A1
:10135000FFF9E84970F375C6807480659E70FA43A2
:10136000BE049062707408F01213ADEE700853F46E
:10137000FEC29043FE017403F5D575D4899003969F
:10138000E4F0A374C2F0A37401F0A3E4F0A3F0A30B
:10139000F0A37408F01213D37AFF7BFF1219EC53F9
:1013A000F4FED29043FE011213AD021117D2804316
:1013B000FD01C29143FE0222D280C29122781075B3
:1013C000B60FE5B4A2E750FAE5BBC39940F118E8BF
:1013D00070ED2274F7121BCD7A0079011217768A0C
:1013E000828B83A3A3A3A3A3A3A3E493A2E6900366
:1013F000B2500474018001E4F09003B1E4F0906213
:101400000F7403F0E0A2E750FB7F02021D6CC08264
:10141000C08390039F7402F0A3E4F09003A6F079D8
:1014200003121667752100752200D083D0822274C2
:10143000F6121BCD90620EE0FEE4F0906211E0FF28
:10144000A2E4501D7480F09003A67407F0E52145D6
:10145000226009852182852283121F979003A6E4CA
:10146000F0EFA2E2500B906211E4F09003A6F0803E
:10147000679003A6E0F87402687046906216E0FF79
:101480009003B3121DACEFF97A207B6212168174BF
:1014900003121E37EFF89003B612164512164F2F9F
:1014A000121657A3E0F8A3E0F9E8496004744080FD
:1014B000027448906211F0E849600302163B02167C
:1014C000177406687009852182852283121F979000
:1014D00003A6E060030215C2EFA2E0400302163B40
:1014E0007508B8750903750A007808121ECC7908CA
:1014F0007A207B621216817403121E3775210075E3
:1015000022009003B8E054E0601D24E0700302154F
:101510009D24E0607224C0604824E070030215A896
:1015200024E0606E0215B3A3E014602624FE601D63
:1015300024FE600A24FC601F24FE60208075120ACD
:10154000FE9003A6E06404707278608070120AF264
:1015500080EF120AE680EA120E7380E5120F9E8079
:10156000E0A3E0600E24FA600F24FE601024FE6009
:1015700011804012091980C9120B4480C4120E4117
:1015800080BF120F3E80BA7521B675221B121BB6A2
:1015900080AF7521B875221B121BB880A47521512C
:1015A00075221B121B51809975218175221B121BFC
:1015B00081808E9003A67404F0808E7840E890625B
:1015C00011F09003A6E0F874016870617F02900347
:1015D000B6E0F8A3E0F9C3E89420E994005007E8E6
:1015E000F5087F0A80037508209003B3121DACA98B
:1015F000087A207B621216AC7403121E37AC0812F4
:10160000164F2C121657A808A3121645EF90621118
:10161000F0E8C394205024E5214522600985218209
:10162000852283121F979003A6E4F0800E7405684C
:101630007009852182852283121F97EE90620EF039
:101640007F03021D6CC3E098F0A3E09400F02290A9
:1016500003B31216D9E922F9E43AFA9003B3E9F098
:10166000A3EAF0A3EBF022C082C083E99003A7783D
:1016700005F0A3D8FC9003AC7805F0A3D8FC0214C5
:101680002A74F8121BCDEAFCEBFDE9F87408121F6E
:10169000881216D460118C828D83E0121EA0E9247A
:1016A0000109E43AFAD8EF7F01021D6C74F8121BAD
:1016B000CDEAFCEBFDE9F87408121F881216D4601D
:1016C00011121E6D8C828D83F0E9240109E43AFA2F
:1016D000D8EF80D31216D9E822E0F9A3E0FAA3E00C
:1016E000FB22D083D08222C082C083E9FCEAFD7A4B
:1016F000007B00800312173290039DE0F8A3E0F90D
:1017000090047BE0687003A3E069602490039EE08E
:10171000F5838882A3E493F8EC68700D90039DE054
:10172000FAA3E0FB1217328007ED6870C8ED60C5C0
:1017300080B090039DE0F8A3E0F5838882E493F8FD
:1017400090039DE028F8A3E03400F990039DE8F0B1
:10175000A3E9F022C082C0831217657A00790112D2
:1017600016E70216E2900479E0F8A3E0F990039DF1
:10177000E8F0A3E9F02274F7121BCDE9FFEAFE12AC
:1017800017657A0079021216E7EA4B601CEF6010C9
:101790008A828B83A3A3A3A3A3E4936F70E480093D
:1017A000EEF874FF28FE0470D97F02021D6C74F5F8
:1017B000121BCDEAFF8B087A001217767A027904A1
:1017C0001216E7EA4B60188A828B83A3A3E4936F17
:1017D00070EA8A828B83A3A3A3E493650870DD7FFC
:1017E00004021D6C74F7121BCD74F0121EB6E97A58
:1017F000007B00600C146010146014146018021850
:10180000D47AF37B030218D47AF77B030218D47AD4
:101810001B7B040218D490043FE060030218D090B0
:1018200003EB7408121F377408121DD9750808F5E8
:10183000097808121ED07402121F377AE87B0779E4
:101840007F1218EB7402121E377808121ED0740A29
:10185000121F377402121F2F121C907402121E37AF
:101860008B09EA450970197509007808121ED07CA9
:101870000C7D787402121F2F121D267402121E375F
:101880007C287D00EDF8851882851983E58228F58E
:1018900082E43583F583E0FFECF8743F28F8E43404
:1018A00004F9EF1218DC88828983F0EFC41218DC87
:1018B000C0E0E824FEF582E934FFF583D0E0F00DC6
:1018C00074FC2CFCEDC3940840BA90043F742AF0D9
:1018D0007A3F7B047410121E370217A9540FFA7452
:1018E000692AF582E43404F583E02274F6121BCDF4
:1018F000890A740F550AF508750900740B780812E7
:101900001F1CEA2400F8EB3480F9E82400E93509CB
:10191000F985C709A2AFE433F508C2AFE50AC4549C
:101920000FFAE5C754F84AF5C7740A121F88E0FA9F
:10193000A3E0FB801C88828983E08C828D83F08801
:10194000828983A3A882A9838C828D83A3AC82AD74
:1019500083EAFEEBFFEE24FF1AEF34FFFBEE4F703D
:10196000D48509C7E508A2E092AF7F03021D6C741D
:10197000F7121BCDED900389F0ECA3F0A37462F095
:10198000A37473F0A3E0541FF07409121F88E0F5EC
:1019900008A3E0F509E508333354FC90038EF07496
:1019A000067808121F4EE50890038DF090038F749F
:1019B00012F0A37442F075D1FE75D601EA906271FF
:1019C000F0EBA3F0906270E0D2E1F0E0A2E740FB20
:1019D0007F02021D6CC082C083E9C333906272F043
:1019E000906270E0D2E0F0D083D0822274F7121BB4
:1019F000CD7523007524007525008A268B27EA9073
:101A0000620BF08A088B0974047808121F4EE508EF
:101A1000906207F08A088B0974097808121F4EE556
:101A200008543E906209F0758B00C2E87F02021DE7
:101A30006C74F7121BCDE59DA2E650FA906206E0A9
:101A4000F9A2E25034AA26EA90620BF0F508852745
:101A50000974047808121F4EE508906207F08A089E
:101A600085270974097808121F4EE508543E9062D4
:101A700009F0906201E0D2E0F0E9782346F6906246
:101A800002E0F50875090074047808121F1C782319
:101A9000E50846F608E50946F6906204E0F50875A3
:101AA000090074097808121F1C7824E50946F6E934
:101AB000A2E050037525017406596003752500E501
:101AC0008BA2E55006758BDF752500121BCC021A20
:101AD00027080808EAC0E0EBC0E086F0E7A4FA189F
:101AE0000986F0E7A42AFA180986F0E7A42AFA186A
:101AF0000986F0E7A42AFA1986F0E7A4FBE5F02AA4
:101B0000FA190886F0E7A42BFBE5F03AFA190886E3
:101B1000F0E7A42BFBE5F03AFA18180986F0E7A4E1
:101B2000C5F02BFBE43AFA1908E7C5F0C6A426F67F
:101B3000E5F03BFBE43AFA1886F0E7A4F6E5F00896
:101B400026F6E43B08F6E43A08F6D0E0FBD0E0FAEB
:101B500022C082C0839003B9E0F8742268700890B4
:101B600003A6E0701A80117420689003A6700DE03F
:101B7000700D121BA89003A6740280027404F080FA
:101B800043C082C0839003B9E064219003A6701320
:101B9000E07013121BA8A37407F0A3E4F09003A64F
:101BA0000480027404F0801C9003B37496F0A37454
:101BB00003F0A3E4F02280028000C082C08390037F
:101BC000A67404F0D083D0822280EF22222518C58B
:101BD00082C0E0E51934FFC583C0E0E518C39582F3
:101BE00024F910AF08858319858218800885831928
:101BF000858218D2AFCEF0A3E520F0A37808E608DE
:101C0000F0A3DEFAEFF0A3E58124FBF8E608F0A3E9
:101C1000E608F0A30808E608F0A3E608F0A315819B
:101C20001581D0E0FED0E0F815811581E8C0E0EE26
:101C3000C0E02212010002020000205104A816098F
:101C40000001020301090243000201008019090496
:101C50000000010202010005240010010424020218
:101C60000524060001052401000107058203400048
:101C70004009040100020A00000007058402400038
:101C800000070504024000004E1C0000711C00000B
:101C900074F8121BCD7408121F88E0FEA3E08015B3
:101CA000A3AA82AB838C828D83A3AC82AD83EE2406
:101CB000FF1EEF34FFFFEE4F60198C828D83E0F83A
:101CC0008A828B83E0F9E86960D6E9C398FA95E0E7
:101CD000FB80047A007B007F01021D6CE47921788F
:101CE00007B800028004F709D8FCE490030278C129
:101CF00079018002F0A3D8FCD9FA7AC27B03900064
:101D00008E78C479018015E493A3AD82AE838A8274
:101D10008B83F0A3AA82AB838D828E83D8E9D9E727
:101D2000121188121F9274F7121BCDEAF8EBF974A6
:101D300009121F88E0FEA3E0FF80188C828D83E0EB
:101D400088828983F0A3A882A9838C828D83A3AC27
:101D500082AD838E088F09E50824FF1EE50934FF54
:101D6000FFE508450970D47F02021D6C8519838543
:101D70001882E0A3FEE0A3F5207808E0A3F608DFD0
:101D8000FAE0A3FFE0A3C0E0E0A3C0E0E0A3C0E06E
:101D9000E0A3C0E010AF088582188583198008850C
:101DA0008218858319D2AFD083D082227403800039
:101DB000CCC0E0EDC0E0E518C39CCCAD1950011DCE
:101DC00010AF068C188D1980068C188D19D2AF12A1
:101DD0001DD9D0E0FDD0E0FC22CAC0E0E0A3C5825E
:101DE000CCC582C583CDC583F0A3C582CCC582C5D1
:101DF00083CDC583DAE6D0E0CA22C008C3E096F5F9
:101E00000808A3E096420808A3E096420808A3E069
:101E10009645087001D3D00822C5822518C582C511
:101E200083351910AF07F5198582188007F51985D4
:101E30008218D2AFC5832200C0D0251810AF08F594
:101E400018500C05198008F51850020519D2AFD0AA
:101E5000D0222518F58210AF08F518400C1519800E
:101E600008F51840021519D2AF85198322BB01026B
:101E7000E722C082C08389828A83BB0003E080029C
:101E8000E493D083D082226016080808C6C313C624
:101E900018C613C618C613C618C613C6D5E0EA225C
:101EA000BB000EC082C0838A838982F0D083D08237
:101EB00022BB0101F722251810AF08F518400C15B8
:101EC000198008F51840021519D2AF227403800456
:101ED00074028000C0E0F404121E52D0E0121F7B96
:101EE00022E066701008A3E066700A08A3E066703E
:101EF0000408A3E06622E026F608A3E036F608A36D
:101F0000E036F608A3E036F622E627F60809E637BB
:101F1000F60809E637F60809E637F622700422606B
:101F20000D18C6C333C608C633C6D5E0F41822253B
:101F300018FAE43519FB222518FCE43519FD227541
:101F4000D00075813F751802751903021CDC600C06
:101F500008C6C313C618C613C6D5E0F422E6F008B7
:101F6000A3E6F008A3E6F008A3E6F022E0F608A353
:101F7000E0F608A3E0F608A3E0F622CAC0E0E6F027
:101F8000A308DAFAD0E0FA222518F582E43519F52B
:101F9000832200000080FBE473FFFFFFFFFFFFFFD1
:101FA000FFFFFFFFFFFFFFFFFFFFFFFFFFFFFFFF41
:101FB000FFFFFFFFFFFFFFFFFFFFFFFFFFFFFFFF31
:101FC000FFFFFFFFFFFFFFFFFFFFFFFFFFFFFFFF21
:101FD000FFFFFFFFFFFFFFFFFFFFFFFFFFFFFFFF11
:101FE000FFFFFFFFFFFFFFFFFFFFFFFFFFFFFFFF01
:0A1FF600850609433886000000004C
:020000040003F7
:01FFF000F020
:020000040000FA
:10200000022DB8022230FFFFFFFFFFFFFFFFFFFF9F
:10201000FFFFFFFFFFFFFFFFFFFFFFFFFFFFFFFFD0
:10202000FFFFFFFFFFFFFFFFFFFFFF022A50FFFF41
:10203000FFFFFF022252FFFFFFFFFFFFFFFFFFFF37
:10204000FFFFFFFFFFFFFFFFFFFFFFFFFFFFFFFFA0
:10205000FFFFFF02216AFFFFFFFFFFFFFFFFFFFF00
:10206000FFFFFFFFFFFFFFFFFFFFFF022A79FFFFD8
:10207000FFFFFFFFFFFFFFFFFFFFFF0228A1FFFFA2
:10208000FFFFFF0221C101FFFFFFFFFFFFFFFFFF77
:1020900010201020010105030101FF0F10FEFFFEBB
:1020A0004B00000000344B00000000FF000000FF68
:1020B00000010020FD00020000D13D000000006B87
:1020C0003D553EA13D133E0000953D00000000003F
:1020D0000000000000000000000000000000000000
:1020E00000000006FFFFFF00035F005F00300058A4
:1020F00000000000000000000000000000000000E0
:1021000000000000000000000000000000000000CF
:1021100000C22617271727172717271F2701010493
:10212000001018000000E8030000FFFFDD18E803BE
:10213000000064006400B801A0BB0D00A0BB0D004E
:1021400002020008000005020701051E02051E022A
:102150000A0A01080803B80B02803E0102FEFFE8EC
:10216000030A050001FFFF0A01E0C0E074F2122635
:1021700063A2AFE433F508D2AFAFA7AEA1EE5F54D0
:1021800010600612492975A1EFEE5F54086008122D
:102190003AF575A1F78023EEA2E092F0EFA2E0827B
:1021A000F05017906198E0F8900775E0C398A2D2BC
:1021B00065D0335002E8F075A1FE751A00E508807D
:1021C00066C0E074F2122663A2AFE433FED2AF9091
:1021D00061A4E0F8759B00E591585408600875917A
:1021E000F7123B3D8023E59158541060087591EF3C
:1021F000123B438014E591A2E092F0E8A2E082F065
:102200005007E0C2E0F0123C999061A3E0F8E5E9E4
:10221000585404600E123C6F75E9FB906193E0A284
:10222000E640F2751A00EEA2E092AF7F0102271F8E
:10223000C0E074F2122663A2AFE433FED2AF906125
:10224000A5E0F8E5BF585404600675BFFB123CB129
:1022500080D1C0E074F1122663E59DA2E650FA90A9
:102260006206E0F9A2E25034AA2CEA90620BF0F583
:1022700008852D0974047808122DD7E508906207A7
:10228000F08A08852D0974097808122DD7E50854BD
:102290003E906209F0906201E0D2E0F0E9782946D0
:1022A000F6906202E0F50875090074047808122DB2
:1022B000547829E50846F608E50946F6906204E0F8
:1022C000F50875090074097808122D54782AE50973
:1022D00046F6E9A2E05003752B01740659600375B8
:1022E0002B00E58BA2E55006758BDF752B001241A4
:1022F000DF758B00C2E87F0202271FC3E498F8E471
:1023000099F912233C8026C3E49AFAE49BFBE92066
:10231000E7E912233CE498F8E499F922C3E498F839
:10232000E499F912233CE498F8E499F9C3E49AFAA1
:10233000E49BFB22EB20E7CFE920E7E0B90010BBEC
:102340000008E88AF084F8AAF022E4FBC8FA22EB3D
:1023500070227B10C833C8C933C9335007C39AC32E
:10236000DBF280069A50012ADBEAC833F4C8C9338D
:10237000F4C9FA2275F008E4C833C8C933C933C9AF
:102380009AC99B5004C92AC93BD5F0ECFBC833F469
:10239000C8E4C9FA2274F51225FD74FA122C3F75AF
:1023A00008047509007808122B9D7404122C0B7A0E
:1023B000F87B0779031239C97402122B5F908136BA
:1023C0007808122DC87402122E557808122C5570F8
:1023D000497508027509007808122B9D7402122CA9
:1023E0000B7AF67B0779031239C97402122B5F85C9
:1023F0001882851983E0F47003A3E0F4601C85184B
:1024000082851983E0F8A3E0F9888289837402F059
:10241000A3F0A37469F0A374A5F0C2AF75D69F02B0
:1024200000007406122B5F7F040228E4080808EA03
:10243000C0E0EBC0E086F0E7A4FA180986F0E7A454
:102440002AFA180986F0E7A42AFA180986F0E7A400
:102450002AFA1986F0E7A4FBE5F02AFA190886F0B3
:10246000E7A42BFBE5F03AFA190886F0E7A42BFB6A
:10247000E5F03AFA18180986F0E7A4C5F02BFBE45A
:102480003AFA1908E7C5F0C6A426F6E5F03BFBE4E6
:102490003AFA1886F0E7A4F6E5F00826F6E43B08D9
:1024A000F6E43A08F6D0E0FBD0E0FA22122E4AB960
:1024B000000302250CE47921780DB800028004F7AE
:1024C00009D8FCE49004D178B979158002F0A3D83A
:1024D000FCD9FA781A9020867A01BA00028007E4C3
:1024E00093A3F608DAF97A897B1990209478D77942
:1024F000018015E493A3AD82AE838A828B83F0A31F
:10250000AA82AB838D828E83D8E9D9E775827E75E6
:1025100083FB7405122B4175822F75834974001259
:102520002B41E4CFC0E0E4CEC0E0E4CDC0E0E4CC99
:10253000C0E075F020E626F608E633F608E633F646
:1025400008E633F6181818EC33FCED33FDEE33FED5
:10255000EF33FFC3EC9709ED9709EE9709EF971951
:102560001919400FFFEC97FC09ED97FD09EE97FE56
:10257000191906D5F0BFECF709EDF709EEF709EFE9
:10258000F7191919D0E0FCD0E0FDD0E0FED0E0FF53
:10259000222518C582C0E0E51934FFC583C0E0E5F7
:1025A00018C3958224F810AF088583198582188096
:1025B00008858319858218D2AFCEF0A3E520F0A359
:1025C0007808E608F0A3DEFAEFF0A3E58124FAF834
:1025D000E608F0A3E608F0A3E608F0A30808E6087A
:1025E000F0A3E608F0A315811581D0E0FED0E0F855
:1025F000158115811581E8C0E0EEC0E0222518C5DF
:1026000082C0E0E51934FFC583C0E0E518C39582B8
:1026100024F910AF088583198582188008858319ED
:10262000858218D2AFCEF0A3E520F0A37808E608A3
:10263000F0A3DEFAEFF0A3E58124FBF8E608F0A3AF
:10264000E608F0A30808E608F0A3E608F0A3158161
:102650001581D0E0FED0E0F815811581E8C0E0EEEC
:10266000C0E022C0D02518C582C0E0E51934FFC5FE
:1026700083C0E0E518C3958224F310AF0885831961
:102680008582188008858319858218D2AFC8F0A387
:10269000E9F0A3EAF0A3EBF0A37908E709F0A3D8E7
:1026A000FAECF0A3EDF0A3EEF0A3EFF0A3D0E0F08E
:1026B000A3D0E0F0A3D0E0F0A3E520F0A3E5F0F094
:1026C000A32212010002020000205104A8160900F2
:1026D00001020301090243000201008019090400FC
:1026E0000001020201000524001001042402020579
:1026F0002406000105240100010705820340004073
:1027000009040100020A00000007058402400000DD
:1027100007050402400000DD2600000027000085B8
:102720001983851882E0C0E0A3E0F9A3E0FAA3E0F2
:10273000FBA37808E0F608A3DFFAE0FCA3E0FDA322
:10274000E0FEA3E0FFA3E0C0E0A3E0C0E0A3E0F56B
:10275000D0A3E0F520A3E0A3F5F010AF088583191E
:102760008582188008858319858218D2AFD082D0DF
:1027700083D0E0F8D0E0320875F0108E218F2285EA
:102780008226858325851882851983E0CEA3E0CF34
:10279000852682852583EBC9EAC8EDCBECCAC3E860
:1027A00033C8E933C9EA33CAEB33CBC3EA9EF52415
:1027B000EB9FF523B35004AB23AA24EC33CCED33C9
:1027C000CDD5F0DAAE21AF2222D083D082ECC0E0AA
:1027D000EDC0E0E493A3FCE493A3FDED4C600D1287
:1027E0002924EC24FFFCED34FFFD80EFE493A3FCEF
:1027F000E493A3FDED4C600D1229FBEC24FFFCEDEE
:1028000034FFFD80EFD0E0FDD0E0FCE493A3C0E016
:10281000E493C0E022D083D082E9C0E0E493A3C374
:1028200086F0C5F095F0F908E493A386F0C5F0951D
:10283000F0700BE493A3C3994005E9048002A3E47C
:1028400075F002A42582F582E5F03583F583D0E0AA
:10285000F9E493A3C0E0E493C0E0228519838518CE
:1028600082E0A3FEE0A3F5207808E0A3F608DFFAF3
:10287000E0A3FFE0A3C0E0E0A3C0E0E0A3C0E0E08D
:10288000A3C0E0E0A3C0E010AF08858218858319DB
:102890008008858218858319D2AFD083D082022B1D
:1028A00047C0E074F2122663A2AFE433FED2AFE574
:1028B0008AA2E25007900736E0D2E0F0E58AA2E370
:1028C0005007900736E0D2E1F0758A00C2EB7A102B
:1028D0007B00900732E0F9123F87EEA2E092AF7FD3
:1028E0000102271F851983851882E0A3FEE0A3F566
:1028F000207808E0A3F608DFFAE0A3FFE0A3C0E039
:10290000E0A3C0E0E0A3C0E0E0A3C0E010AF088512
:1029100082188583198008858218858319D2AFD0E3
:1029200083D08222C0E0C3E4939608740193961882
:10293000400FE49366700808740193661870007085
:1029400019A3A3C3E49396087401939618A3A34014
:102950000DD0E0D0E0D0E0022805A3A3A3A3A3A359
:10296000D0E022D083D082C5F0E493A3C5F0C39514
:10297000F0F5F0E493A3C395F04005E5F004800181
:10298000E475F002A42582F582E5F03583F583E451
:1029900093A3C0E0E493C0E0227404800874038031
:1029A0000474028000CCC0E0EDC0E0E518C39CCC0C
:1029B000AD1950011D10AF068C188D1980068C18AA
:1029C0008D19D2AF122AC3D0E0FDD0E0FC227402F0
:1029D0008000CCC0E0EDC0E0E518C39CCCAD195040
:1029E000011D10AF068C188D1980068C188D19D218
:1029F000AF122AA1D0E0FDD0E0FC22C0E0C0F088F8
:102A0000F0E4936670080874019366187000A8F0EB
:102A1000A3A3700BD0F0D0E0D0E0D0E0022805A353
:102A2000A3D0F0D0E022D083D082CCC0E0E493A346
:102A30006006122B031470FAE493A36006122C298B
:102A40001470FAD0E0FCE493A3C0E0E493C0E02269
:102A5000C0E0C0D0E8C0E0E9C0E0A9A8D2AFC2C7DA
:102A6000751A00E9A2E7E433F8E9A2E792AFD0E0F3
:102A7000F9D0E0F8D0D0D0E032C0E074F212266392
:102A8000758900C2C5901981E0700E7A007B1090A4
:102A9000080BE0F9123F8780031247857F01022768
:102AA0001FCAC0E0E493A3C582CCC582C583CDC54F
:102AB00083F0A3C582CCC582C583CDC583DAE5D0BA
:102AC000E0CA22CAC0E0E0A3C582CCC582C583CDDE
:102AD000C583F0A3C582CCC582C583CDC583DAE6A4
:102AE000D0E0CA22C008C3E096F50808A3E09642E9
:102AF0000808A3E096420808A3E09645087001D3B1
:102B0000D00822C0E0E493A3D39C5010E493A3C365
:102B10009C400AD0E0D0E0D0E0022A43A3A3A3D097
:102B2000E0227009080808226016181818C6C33376
:102B3000C608C633C608C633C608C633C6D5E0EADB
:102B400022C09FF59FE473D09F22D083D082C09F84
:102B5000E493C0E0740193C0E0740293F59F2200F7
:102B6000C0D0251810AF08F518500C05198008F5CD
:102B70001850020519D2AFD0D0222518F58210AF17
:102B800008F518400C15198008F51840021519D2DF
:102B9000AF851983227404800A740380067402804E
:102BA000027401C0E0F404122B7AD0E0122DF52259
:102BB000BB0102E722C082C08389828A83BB0003F3
:102BC000E08002E493D083D082226016080808C611
:102BD000C313C618C613C618C613C618C613C6D55F
:102BE000E0EA22C3E0C696F608A3E0C696F608A37C
:102BF000E0C696F608A3E0C696F6222518F8E43556
:102C000019F9222518FAE43519FB222518FCE435B8
:102C100019FD22BB000EC082C0838A838982F0D056
:102C200083D08222BB0101F722C0E0E493A36C7041
:102C300009D0E0D0E0D0E0022A43A3A3D0E02225CF
:102C40001810AF08F518400C15198008F518400247
:102C50001519D2AF22E066701008A3E066700A086A
:102C6000A3E066700408A3E06622C3E09608A3E030
:102C70009608A3E09608A3E096A2D265D03322E797
:102C80006670100809E766700A0809E766700408AC
:102C900009E76622C3E697F60809E697F60809E60B
:102CA00097F60809E697F622C3E096F008A3E096A7
:102CB000F008A3E096F008A3E096F022E627F608D5
:102CC00009E637F60809E637F60809E637F622E09E
:102CD00026F608A3E036F608A3E036F608A3E036A9
:102CE000F622E026F008A3E036F008A3E036F0086C
:102CF000A3E036F022E056F008A3E056F008A3E087
:102D000056F008A3E056F022E056F608A3E056F687
:102D100008A3E056F608A3E056F622E647F60809AF
:102D2000E647F60809E647F60809E647F622E4937F
:102D3000F608740193F608740293F608740393F688
:102D400022E657F60809E657F60809E657F6080995
:102D5000E657F622700422600D18C6C333C608C6B3
:102D600033C6D5E0F41822E4C396F608E496F608D4
:102D7000E496F608E496F622C6F4C608C6F4C60839
:102D8000C6F4C608C6F4C622600D08C6A2E713C67C
:102D900018C613C6D5E0F322C3E7960809E79608DC
:102DA00009E7960809E79622C3E09608A3E096088B
:102DB000A3E09608A3E0962275D00075813F7518B0
:102DC000D1751904000224ACE0F608A3E0F608A3CC
:102DD000E0F608A3E0F622600C08C6C313C618C6C6
:102DE00013C6D5E0F422E6F008A3E6F008A3E6F067
:102DF00008A3E6F022CAC0E0E6F0A308DAFAD0E0C1
:102E0000FA22E0F8A3E0F9A3E0FAA3E0FB22E0FC59
:102E1000A3E0FDA3E0FEA3E0FF22EAF0A3EBF0A312
:102E2000ECF0A3EDF022E0FAA3E0FBA3E0FCA3E0CA
:102E3000FD22ECF0A3EDF0A3EEF0A3EFF022E8F01A
:102E4000A3E9F0A3EAF0A3EBF022E5C754F84401AC
:102E5000F5C77901222518F582E43519F583221288
:102E60002B4A65A802122B4A22AC02122B4A36AC1E
:102E700002122B4A40AC02122B4A4AAC02122B4AD5
:102E800054AC02122B4A5EAC02122B4A77AC0212EF
:102E90002B4A81AC02122B4AF8AC02122B4A03AD2A
:102EA00002122B4A32AD02122B4A5AAD02122B4AA1
:102EB00065AD02122B4ACAAD02122B4AD4AD0212E2
:102EC0002B4ADFAD02122B4A03AE02122B4A27AE69
:102ED00002122B4A99AE02122B4AE2AE02122B4A80
:102EE000FEAE02122B4A6FAF02122B4ABBAF021288
:102EF0002B4A04B002122B4A42B002122B4AC3B032
:102F000002122B4A6AB102122B4A2FB302122B4A29
:102F100094B302122B4AC2B402122B4AE8B4021232
:102F20002B4A30B602122B4A6AB902122B4A68BBEE
:102F300002122B4A33BD02122B4ACCBD02122B4A7D
:102F4000CDBF02122B4A82C002122B4ABBC0021212
:102F50002B4A2BC102122B4A35C102122B4A5EC3E7
:102F600002122B4A61C402122B4A9EC502122B4A3E
:102F7000F5C502122B4AA0C602122B4A50C80212F3
:102F80002B4A9DC902122B4ABDC902122B4A12CAF2
:102F900002122B4A13CB02122B4A3BCB02122B4AB2
:102FA0009ACB02122B4A92CC02122B4A09CD021262
:102FB0002B4A1CCE02122B4A8ACE02122B4A89CFF0
:102FC00002122B4AE3D102122B4A0CD202122B4AD4
:102FD00072D302122B4AF4D402122B4A4BD502129E
:102FE0002B4AF9D502122B4A9ED602122B4A01D740
:102FF00002122B4ABFD702122B4A51D802122B4A77
:10300000B0D802122B4AF2D802122B4A23D902124C
:103010002B4A7ADA02122B4A008003122B4A3280A2
:1030200003122B4A6B8003122B4A348203122B4A61
:10303000788203122B4A4C8303122B4AAB83031270
:103040002B4AC18403122B4A0D8503122B4A9B87FE
:1030500003122B4A7F8A03122B4AC68B03122B4A78
:103060005E8C03122B4A6A8C03122B4AB18C03121A
:103070002B4AF38D03122B4AE98E03122B4A138F2E
:1030800003122B4A698F03122B4AC28F03122B4A59
:10309000359003122B4A6B9203122B4AED930312C5
:1030A0002B4AD29403122B4A1C9603122B4A549893
:1030B00003122B4A519B03122B4A609B03122B4A8B
:1030C000F49B03122B4A9F9C03122B4AE29C03128F
:1030D0002B4A2B9D03122B4A7B9D03122B4ADF9D0B
:1030E00003122B4A519E03122B4A6D9E03122B4A48
:1030F0009C9E03122B4ADB9E03122B4AD69F03127F
:103100002B4A85A003122B4A02A303122B4A34A494
:1031100003122B4A0CA503122B4A8EA503122B4A2D
:10312000C3A903122B4AF2A903122B4A4DAA031278
:103130002B4A80AA03122B4A04AB03122B4A54AB2E
:1031400003122B4AC1AC03122B4AE5AC03122B4AE3
:103150001CAD03122B4A29AD03122B4A2CAD0312CE
:103160002B4A5BAD03122B4A53AF03122B4A12B00A
:1031700003122B4A3EB003122B4AF2B103122B4A20
:10318000F5B103122B4A68B203122B4A8CB4031216
:103190002B4AEBB403122B4A3FB503122B4A64B7F8
:1031A00003122B4A62B803122B4A46B903122B4A68
:1031B000D0B903122B4AE4B903122B4A11BA0312F5
:1031C0002B4A41BA03122B4AEDBC03122B4A5FBDB6
:1031D00003122B4AD2BE03122B4AF0BE03122B4A13
:1031E0008F8101122B4AD18101122B4A3E87011295
:1031F0002B4A8A8701122B4AD08701122B4A218938
:1032000001122B4A868901122B4ACA8901122B4AC4
:10321000308B01122B4A8B8E01122B4ABE8F01126A
:103220002B4A4D9B01122B4ADD9B01122B4AC79E54
:1032300001122B4A2CA001122B4A8FA001122B4AFB
:10324000ABA101122B4A15A301122B4AF4A30112C0
:103250002B4A62A601122B4AF4A701122B4A85A819
:1032600001122B4AA4A901122B4A31AA01122B4A9E
:103270003BAA01122B4A63AA01122B4A06AB011288
:103280002B4AF1AB01122B4AB9AC01122B4A46ADC5
:1032900001122B4A5CAD01122B4A79AD01122B4A67
:1032A000A2AD01122B4ACFAD01122B4A13B001126D
:1032B0002B4AE6B001122B4A2AB101122B4AACB1BB
:1032C00001122B4A4DB201122B4A7FB201122B4A36
:1032D000C6B201122B4AF9B201122B4A3DB30112B8
:1032E0002B4A8CB301122B4A91B301122B4AEDB336
:1032F00001122B4A31B401122B4A1BB501122B4A81
:1033000080B501122B4ADEB501122B4A5DB60112BF
:103310002B4AD5B901122B4AD8BA01122B4A6EBCDE
:1033200001122B4AB1BF01122B4A53C001122B4A82
:103330009CC201122B4A57C301122B4A96C3011299
:103340002B4A5AC501122B4A77C501122B4A80C558
:1033500001122B4A89C501122B4A94C501122B4A2E
:10336000B3C501122B4AD7C701122B4A34C8011228
:103370002B4A3EC801122B4A48C801122B4AABC83F
:1033800001122B4A07C901122B4A14CA01122B4AF7
:1033900075CA01122B4A86CB01122B4ACFCB0112E0
:1033A0002B4A99CC01122B4AB0CD01122B4A74CE74
:1033B00001122B4AC0CF01122B4AC4D001122B4A52
:1033C000BDD101122B4AD5D101122B4A0CD20112C8
:1033D0002B4A16D201122B4A20D201122B4A2BD291
:1033E00001122B4A49D201122B4A91D201122B4AC7
:1033F000EFD201122B4A16D301122B4A28D3011205
:103400002B4AD1D301122B4A0AD401122B4A3BD5A5
:1034100001122B4A98D501122B4A89D601122B4A48
:10342000BFD601122B4A2FD701122B4AABD701125C
:103430002B4A2CD901122B4A53DA01122B4A15DBE5
:1034400001122B4AE3DB01122B4A68DC01122B4AE2
:1034500017DD01122B4AFFDD01122B4A98DE011203
:103460002B4A74DF01122B4ADCDF01122B4A9BE04E
:1034700001122B4AF7E001122B4A5BE101122B4AA1
:1034800021E201122B4A44E201122B4AFEE2011210
:103490002B4A20E301122B4A81E301122B4AB1E5AA
:1034A00001122B4AAAE601122B4A56E701122B4AB7
:1034B00073E901122B4ABCE901122B4A07EA0112F7
:1034C0002B4A63EA01122B4AC1EA01122B4AE5EAB0
:1034D00001122B4A09EB01122B4A3EEB01122B4A37
:1034E00066EB01122B4AABEB01122B4A09EC0112DD
:1034F0002B4A62EC01122B4A5CED01122B4A08EFB9
:1035000001122B4A4DEF01122B4A76EF01122B4A82
:10351000FFEF01122B4A72F001122B4A80F00112C8
:103520002B4AA4F001122B4AFAF001122B4A15F192
:1035300001122B4AD0F101122B4AFCF101122B4A45
:103540005FF201122B4A6FF401122B4A9BF4011215
:103550002B4A56F501122B4A3AF601122B4ACEF6A7
:1035600001122B4AF58D06122B4A348E06122B4A75
:1035700071BF03122B4A1AC003122B4AF9C003125F
:103580002B4A05C203122B4A25C203122B4A47C3FA
:1035900003122B4AF7C403122B4A64C503122B4AA9
:1035A00035C603122B4A3BC703122B4AB3C703127B
:1035B0002B4AEEC703122B4A47C803122B4A82C874
:1035C00003122B4ACBC803122B4A5FC903122B4AA2
:1035D000F5C903122B4ACACA03122B4A9DCB031208
:1035E0002B4A2BCC03122B4A51CC03122B4A7ECCF4
:1035F00003122B4AAFCC03122B4A7CCD03122B4A69
:103600008CCD03122B4ADFCD03122B4AECCD0312D3
:103610002B4AF9CD03122B4A02CE03122B4A66CE57
:1036200003122B4AC4CE03122B4A0FCF03122B4A8C
:103630002ACF03122B4A51CF03122B4A6ECF03120B
:103640002B4A7ACF03122B4A0BD103122B4A24D1D7
:1036500003122B4AA0D103122B4AB3D103122B4AD7
:10366000C3D103122B4A67D203122B4AD3D30312BE
:103670002B4AE6D403122B4A86D503122B4A90D547
:1036800003122B4A0FD603122B4A20D603122B4AC1
:103690005FD603122B4A8DD603122B4A5AD7031238
:1036A0002B4AB1D703122B4AEAD703122B4A40D830
:1036B00003122B4A5ED803122B4AACD803122B4AB2
:1036C00077D903122B4AC5D903122B4A12DA0312F7
:1036D0002B4A95DA03122B4ABFDA03122B4AF5DA8A
:1036E00003122B4A04DB03122B4A63DB03122B4A1F
:1036F000DBDB03122B4A1CDC03122B4A6CDC0312AB
:103700002B4A97DC03122B4AB1DC03122B4ACBDC89
:1037100003122B4AA0DD03122B4AAADD03122B4A07
:10372000E5DD03122B4AF5DD03122B4AFEDD031201
:103730002B4A4FDE03122B4A63DE03122B4A85DF2E
:1037400003122B4A98DF03122B4AAFDF03122B4AD6
:10375000C4DF03122B4A57E003122B4ACBE00312BB
:103760002B4A70E103122B4A7BE103122B4ADEE263
:1037700003122B4AFAE203122B4A46E303122B4AA6
:10378000B4E303122B4AE6E303122B4A00E40312CC
:103790002B4A60E403122B4AFFE403122B4A4AE54A
:1037A00003122B4A9DE703122B4A35E803122B4ADA
:1037B000ACE803122B4A09EB03122B4A21EB03124C
:1037C0002B4A24EB03122B4A30EB03122B4A44EB17
:1037D00003122B4A4CEB03122B4A83EB03122B4AA6
:1037E00077EC03122B4A01ED03122B4A83ED0312EF
:1037F0002B4A03EE03122B4ADAEE03122B4AFCEE9D
:1038000003122B4A95EF03122B4AF2EF03122B4AB5
:10381000F5EF03122B4A22F003122B4A37F0031262
:103820002B4AA6F003122B4AF2F103122B4A05F39E
:1038300003122B4A90F303122B4AA3F403122B4AD0
:103840006AF503122B4A9BF503122B4AC1F50312AA
:103850002B4ACAF503122B4AF9F503122B4AA9F693
:1038600003122B4A59F703122B4ACCF703122B4AA7
:103870006FF803122B4AE2F803122B4A21F90312C4
:103880002B4A6AF903122B4A9FF903122B4AF5E6D9
:1038900004122B4A62E704122B4AA9E704122B4AAE
:1038A0001FE804122B4A71E804122B4AF7E80412AD
:1038B0002B4A3BEB04122B4A6AED04122B4A47F1C8
:1038C00004122B4AC7F104122B4A02F204122B4AAB
:1038D00020F204122B4A80F204122B4AA8F204129E
:1038E0002B4AD8F204122B4A09F304122B4A36F35E
:1038F00004122B4A8FF304122B4ADAF304122B4AD8
:10390000008005122B4A7C8005122B4AA8800512E4
:103910002B4ADA8005122B4A3C8205122B4A588228
:1039200005122B4A968205122B4A238305122B4A35
:103930007F8305122B4A458405122B4A0485051204
:103940002B4A498505122B4AAA8505122B4A1F8648
:1039500005122B4A598605122B4AB18605122B4AAD
:10396000D38605122B4A6B8705122B4A1288051243
:103970002B4A5F8805122B4A888805122B4AC98872
:1039800005122B4A768A05122B4A5A8B05122B4AAE
:103990000B8C05122B4A32FF03122B4A43FF0312F2
:1039A0002B4AE1FF03122B4AF1FF01122B4ADAFFE7
:1039B00002122B4AF18806122B4A018906122B4A61
:1039C000198906122B4ACD8906122B4AEE87061258
:1039D0002B4A728806122B4AD88806122B4A8E8AE6
:1039E00006122B4A918A06122B4ACA8A06122B4AC1
:1039F000208B06122B4A338B06122B4A368B06126B
:103A00002B4ACCD805122B4ADAD805122B4A53D9A7
:103A100005122B4A28DA05122B4AE7DB05122B4A3E
:103A20004CDC05122B4AABDC05122B4AF87F001246
:103A30002B4A71F905122B4AA9F905122B4AF7FAFC
:103A400005122B4A7BFB05122B4AB4EF05122B4AB9
:103A500055F005122B4A8EF005122B4AD9F00512AB
:103A60002B4AA2F105122B4ACCF105122B4AF2F196
:103A700005122B4A06F205122B4A1BF205122B4A9D
:103A800024F205122B4AEB7900122B4A177A001206
:103A90002B4ABD7C00122B4A147D00122B4A507D0C
:103AA00000122B4A647D00122B4A7D7D00122B4AA6
:103AB0006E7E00122B4A4A7F00122B4A5E7F001254
:103AC0002B4A008006122B4A248006122B4A3D8086
:103AD00006122B4A7B8006122B4AB18006122B4A13
:103AE000E48006122B4AEE8006122B4A5A810612F7
:103AF0002B4A309E02122B4A678106122B4A748190
:103B000006122B4A08ED05122B4A2BED05122B4A03
:103B100076ED05122B4A94ED05122B4AAFED0512F6
:103B20002B4A15EE05122B4A21EE05122B4A7EEE8A
:103B300005122B4AA2EE05122B4A68EF05122B4AFA
:103B400075EF05122B4A86EF05122B4A727F001281
:103B50002B4A8A7F00122B4AB67F00122B4A8BA673
:103B600002122B4A09BF05122B4A17BF05122B4A16
:103B70002BBF05122B4A48BF05122B4A5DBF051209
:103B80002B4A70BF05122B4AF2BF05122B4A58C0B0
:103B900005122B4AE1C005122B4A59C105122B4AC6
:103BA00032C205122B4A42C205122B4A51C20512DB
:103BB0002B4AF38B06122B4A178C06122B4A3F8C8A
:103BC00006122B4A678C06122B4A54F205122B4A16
:103BD0007BF205122B4A9AF205122B4A0FF30512BB
:103BE0002B4A35EA05122B4A4EEA05122B4A65EAA2
:103BF00005122B4A6EEA05122B4A8CEA05122B4A53
:103C000096EA05122B4AA0EA05122B4AB3EA0512DE
:103C10002B4A40EB05122B4AAFEB05122B4ADDEB8A
:103C200005122B4A2EEC05122B4A7AEC05122B4A70
:103C300095EC05122B4A9FEC05122B4AB0EC0512AD
:103C40002B4AF3EC05122B4A9AFF01122B4AE5FF8F
:103C500001122B4AAF9705122B4ADB9705122B4A0C
:103C6000FE9705122B4A119805122B4A2C98051223
:103C70002B4A909805122B4ABE9805122B4ACB9CD2
:103C800005122B4A0D9E05122B4A3F9E05122B4A08
:103C9000AA9E05122B4A2EA005122B4A56A00512E9
:103CA0002B4A6BA005122B4A7BA005122B4ABBA006
:103CB00005122B4AFDA005122B4A0DA105122B4A15
:103CC000458406122B4A558406122B4A7984061223
:103CD0002B4AA28406122B4ACC8406122B4AF0846B
:103CE00006122B4A078506122B4A358506122B4AE7
:103CF000588506122B4ADA8906122B4A208A0612A8
:103D00002B4ABFDC05122B4ACFDC05122B4AEDDD16
:103D100005122B4A21DE05122B4A43DE05122B4ADF
:103D20006BDE05122B4A84DE05122B4AC0DE05121B
:103D30002B4A26DF05122B4A6BDF05122B4AB0DF18
:103D400005122B4ADDDF05122B4A15E005122B4A1E
:103D5000D1D405122B4A33D505122B4ADAD50512D8
:103D60002B4A12D605122B4AD0D904122B4A7FDADD
:103D700004122B4AB3DC04122B4A86DF04122B4AAE
:103D800006E104122B4A68E104122B4A73E4041280
:103D90002B4AB7E504122B4A908506122B4ADB8585
:103DA00006122B4A36B805122B4AF5BA05122B4AD1
:103DB00092BB05122B4ABEBB05122B4AECBB051267
:103DC0002B4A21BC05122B4A49BC05122B4AA9BC1F
:103DD00005122B4A11F404122B4A09F804122B4A3B
:103DE00000FA04122B4A2EFB04122B4A0AFC04127E
:103DF0002B4AA5FD04122B4A72FE04122B4AC6FE62
:103E000004122B4AE1F405122B4AEBF405122B4A5B
:103E10000CF505122B4ABFCB04122B4AE3D0041237
:103E20002B4A12D204122B4AEED304122B4A79D415
:103E300004122B4A0DD504122B4A06D604122B4A23
:103E40003DD704122B4A4AD804122B4A2FD9041208
:103E50002B4A008004122B4A388004122B4A448AD1
:103E600004122B4A2E8B04122B4A7E8C04122B4AEE
:103E7000C98D04122B4A748E04122B4A478F0412E8
:103E80002B4ADE8F04122B4AC29004122B4AC59192
:103E900004122B4A879204122B4AB59204122B4A21
:103EA0002D9404122B4AB69404122B4ACF94041278
:103EB0002B4A299604122B4ADB9604122B4A6A9746
:103EC00004122B4A199804122B4A7C9804122B4A8C
:103ED000189904122B4A919904122B4AAF99041293
:103EE0002B4A7C9A04122B4A4B9B04122B4A019CAE
:103EF00004122B4A7E8106122B4AA88106122B4AF5
:103F0000BA8206122B4ABD8206122B4A8C8C0612EC
:103F10002B4ACE8C06122B4A108D06122B4A208D6E
:103F200006122B4A80F902122B4AC7F902122B4AB9
:103F300030FA02122B4A51FA02122B4A6AFA021282
:103F40002B4A1AFB02122B4A23FB02122B4A74FB48
:103F500002122B4AAAFB02122B4AC1FB02122B4A65
:103F60002EFC02122B4ABEFC02122B4AF4FC021257
:103F70002B4A3DFD02122B4A9EFD02122B4AD8FD10
:103F800002122B4A40FE02122B4A93FE02122B4AC7
:103F9000D6FE02122B4A13FF02122B4A25FF0212F1
:103FA0002B4A37FF02122B4A71FF02122B4AB1FF34
:103FB00002122B4A82C205122B4AC8C305122B4A91
:103FC000F1C305122B4A02C405122B4A1AC6051268
:103FD0002B4A3AC605122B4A2DF705122B4A63F7D6
:103FE00005122B4AB2F705122B4A0EF905122B4A7D
:103FF000ADB704122B4AEBB804122B4A27B90412AE
:104000002B4AECBA04122B4A16BB04122B4A9CBD55
:1040100004122B4ADCBD04122B4A72BF04122B4A35
:1040200007C004122B4A65C004122B4AEBC00412CD
:104030002B4A23C104122B4A65C104122B4AD2C257
:1040400004122B4A56C404122B4A90C604122B4A5F
:10405000BEC604122B4AEAC604122B4AF3C6041247
:104060002B4A49C704122B4AD9C704122B4AE0CA6B
:1040700004122B4A62CB04122B4A3F8B06122B4AA6
:10408000558B06122B4A5F8B06122B4ABB8B0612EE
:104090002B4A58CC05122B4A71CC05122B4A16CD4F
:1040A00005122B4A56CD05122B4A6FCD05122B4A0D
:1040B000A2CD05122B4AEFCD05122B4A23CE0512B5
:1040C0002B4A65CE05122B4A3ED005122B4AA9D0A9
:1040D00005122B4AC48606122B4A198706122B4A50
:1040E000738706122B4AE4FE04122B4A56FF041271
:1040F0002B4A94FF04122B4AD5FF04122B4A8FF748
:1041000001122B4A95F701122B4ADCF701122B4AB8
:10411000E8F901122B4A18FA01122B4A82FA01120D
:104120002B4A3DFB01122B4A80FB01122B4AB1FBAB
:1041300001122B4A3BFC01122B4A52FC01122B4A62
:104140005FFC01122B4A69FC01122B4A09FE011285
:104150002B4AFBFE01122B4A59FF01122B4A3DA1AB
:1041600005122B4A53A105122B4A05A205122B4A10
:104170002FA305122B4A24A405122B4ABBA4051217
:104180002B4AF6A405122B4A68A505122B4AC6A590
:1041900005122B4AD6A505122B4AFDA505122B4A5E
:1041A0004FA605122B4ABBA705122B4AC0A7051222
:1041B0002B4AE2A705122B4A2A8D06122B4A588D4C
:1041C00006122B4A8D8D06122B4A8F8D06122B4A12
:1041D000918D06122B4AA28D06122B4AA48D06122F
:1041E0002B4AA78D06122B4A7BFD05122B4AE9FDAF
:1041F00005122B4A0BFE05122B4A43FE05122B4AD1
:1042000079FE05122B4A22E705122B4A64E70512B4
:104210002B4A87E705122B4ABAE905122B4AD4E943
:1042200005122B4AFFE905122B4AAA8D06122B4ACA
:10423000B7A905122B4A95AA05122B4A7BAB05128A
:104240002B4A8CAB05122B4A9DAB05122B4AE9ABCE
:1042500005122B4ADAAD05122B4A2FAF05122B4A55
:104260005FAF05122B4A23B005122B4A81B005120D
:104270002B4AD6DA02122B4A31DB02122B4AAEDC71
:1042800002122B4A6BDD02122B4A82DD02122B4AEC
:10429000D1DD02122B4A45DE02122B4A58DE0212F1
:1042A0002B4AA6DE02122B4A15DF02122B4A2DDF03
:1042B00002122B4AA0E102122B4AADE202122B4A53
:1042C00008E302122B4A9EE502122B4A1FE6021255
:1042D0002B4A61E602122B4A3BE702122B4A74E793
:1042E00002122B4ABFE702122B4AD5E702122B4AD1
:1042F00090E802122B4A5EE902122B4A69E9021287
:104300002B4AB7E902122B4A0CEA02122B4A58EA4E
:1043100002122B4AB5EB02122B4AE8EB02122B4A8F
:104320007BEE02122B4AAEEE02122B4AC5EF0212AE
:104330002B4AF4EF02122B4A66F002122B4A91F03C
:1043400002122B4AD3F002122B4A47F102122B4AD7
:1043500065F202122B4AB2F202122B4ABCF202128E
:104360002B4ABFF202122B4AC9F202122B4AE5F283
:1043700002122B4A65F302122B4A9EF302122B4AB9
:10438000BAF302122B4AE6F302122B4A0DF4021280
:104390002B4A31F402122B4AAAF402122B4A1DF5C1
:1043A00002122B4A60F502122B4A6AF502122B4ABE
:1043B00099F502122B4AAFF502122B4ACBF50212E5
:1043C0002B4AFAF502122B4A1AF602122B4A63F60E
:1043D00002122B4A9EF602122B4AAAF702122B4A0D
:1043E00004F902122B4A23F902122B4A3BF902125A
:1043F0002B4A4DF902122B4A0AFF05122B4A1BFFCA
:1044000005122B4AA4FF05122B4A0AFA03122B4A63
:1044100048FA03122B4AE1FA03122B4AECFB03126F
:104420002B4A34FE03122B4AB1FE03122B4AFDB075
:1044300005122B4A4CB105122B4A0AB305122B4A1E
:10444000DEB405122B4A1CB505122B4AFDB5051228
:104450002B4A07B705122B4A29B705122B4A85B7F5
:1044600005122B4A06B805122B4AF74E00122B4AAA
:10447000194F00122B4A885000122B4AD1500012BB
:104480002B4A425100122B4AC55100122B4A3C5272
:1044900000122B4A835200122B4AFA5200122B4A66
:1044A0009B5300122B4A105400122B4A4D540012F9
:1044B0002B4A905800122B4AB15A00122B4AEA5A42
:1044C00000122B4A3C5B00122B4A3D5E00122B4A25
:1044D000CD5E00122B4A816000122B4AAF610012A0
:1044E0002B4ADB6200122B4A466300122B4A2764D8
:1044F00000122B4A856400122B4A886400122B4A52
:104500004E6500122B4A976600122B4AC6680012AD
:104510002B4AD56A00122B4ABD6B00122B4A546EEF
:1045200000122B4A2D6F00122B4A6C7000122B4A7E
:104530009C7300122B4AAC7300122B4AF2740012C7
:104540002B4A8B7500122B4ABE7600122B4A2C7711
:1045500000122B4A577800122B4A927800122B4AED
:104560003B7900122B4AC69C04122B4A689D041208
:104570002B4AD49D04122B4AEE9D04122B4A709EA6
:1045800004122B4AAA9E04122B4AAC9F04122B4AF7
:10459000EE9F04122B4A60A004122B4AB0A0041212
:1045A0002B4A0FA104122B4ABBA104122B4AA5A42B
:1045B00004122B4A6CA504122B4AD2A504122B4AD2
:1045C0007AA704122B4A13A804122B4AACA804128F
:1045D0002B4A0FA904122B4A85A904122B4A86AA3A
:1045E00004122B4A77AB04122B4AB2AB04122B4AAB
:1045F000C9AB04122B4AA7AC04122B4AE5AC041237
:104600002B4A6DAD04122B4ABAAE04122B4A7EB06F
:1046100004122B4ABCB104122B4AEFB204122B4AEB
:1046200003B404122B4A9AB404122B4A09B504129B
:104630002B4A16B604122B4AF88C05122B4A638DAE
:1046400005122B4AAB8D05122B4A128E05122B4AEE
:104650006E8E05122B4AA98E05122B4A458F051224
:104660002B4A9F8F05122B4A0B9105122B4A9291D0
:1046700005122B4AD39105122B4AFE9105122B4AA3
:104680007F9205122B4AC79205122B4AED92051212
:104690002B4A3F9405122B4A449405122B4ABB9493
:1046A00005122B4A279505122B4A229605122B4AF2
:1046B0000E9705122B4A69E005122B4AACE1051250
:1046C0002B4A74E205122B4AC9E205122B4A4FE32A
:1046D00005122B4AB6D005122B4AD4D005122B4A0C
:1046E00018D105122B4A3ED105122B4A65D105126D
:1046F0002B4A7DD105122B4A95D105122B4AADD1FB
:1047000005122B4A53D205122B4A95D205122B4A79
:10471000AAD205122B4AB1D305122B4ACCD30512CB
:104720002B4AD5D305122B4ADED305122B4AE7D3E9
:1047300005122B4AF1D305122B4A6ED405122B4ACF
:104740008EC705122B4AD0CB05122B4AECCB051293
:104750002B4AF1CB05122B4AFAFB05122B4AE3E355
:1047600005122B4AF9E305122B4A7AE505122B4A6A
:10477000A4E505122B4AEAE505122B4AF3E60512D9
:104780002B4AEA8206122B4A618E06122B4A868E2B
:1047900006122B4A149E02122B4AF69D02122B4A35
:1047A000DE9C02122B4AB99C02122B4AC99B0212B0
:1047B0002B4A559B02122B4ABE9A02122B4A4C9A44
:1047C00002122B4A3B9A02122B4A169A02122B4AC9
:1047D000329902122B4A4E9802122B4A6495021209
:1047E0002B4A219402122B4A889102122B4A4391A0
:1047F00002122B4AE99002122B4A4A9002122B4ACB
:10480000F58F02122B4A228F02122B4A5C8E021263
:104810002B4A208E02122B4AB38D02122B4AAB8DEB
:1048200002122B4A208D02122B4A4FA602122B4A4B
:10483000B08C02122B4A1EA502122B4A9FA4021210
:104840002B4A64A302122B4A54A302122B4A28A219
:1048500002122B4A46A002122B4A3DA002122B4AFA
:104860003A9F02122B4A018C02122B4AF68B02123B
:104870002B4AE78B02122B4AC68B02122B4AB29E9E
:1048800002122B4A928B02122B4A668B02122B4A7F
:10489000388A02122B4A2C8802122B4AA5BD051217
:1048A0002B4AFD8702122B4AA39E02122B4AE18754
:1048B00002122B4A8B8702122B4A528702122B4A72
:1048C000CA8602122B4A7E8602122B4A37860212B1
:1048D0002B4A6A8502122B4AEE8402122B4A468426
:1048E00002122B4A9F8302122B4A418302122B4A47
:1048F000168302122B4AC78202122B4A89820212A5
:104900002B4A668202122B4A4D8202122B4A0582E2
:1049100002122B4A008002122B4A4F8102122B4AAC
:10492000C38002122B4A578002122B4A5D81060077
:10493000000080FBE4738F00010074198700010000
:10494000731935000400231A25000200271A2600D7
:104950000200291A270002002B1A28000100351A2C
:1049600029000100361A84000400371A860001006D
:104970003B1A2A0001003C1A2B0001003D1A2C00B2
:104980000100401A2D00080055192E000100411A9F
:104990002F000100421A30000100431A31000100CB
:1049A000441A320001005D19330001005E19340021
:1049B0000100451A360001005F1938000100461A4F
:1049C000390001003F1A830002005A1A63000100F7
:1049D0007019640001004C19650001003E1A6D0059
:1049E00001007119710008004D1966000100591A83
:1049F000430001004A1A440002004B1A450001001E
:104A00004D1A460002004E1A470008006819480077
:104A10000100501A4B000100511A040001005C1AF9
:104A2000A10001005E1A370001005D1A8800010034
:104A300075193C00010060193D000100471A49004A
:104A40000200521A6700010072194D000200541A48
:104A50004E000100561A4F000200571A3E00010096
:104A6000671951000100611952000100481A5300F2
:104A70000100491A54000100621900000000000002
:104A800000013636010100010201000103010001AD
:104A90000401060605020000070100340801000FAA
:104AA000090401010D0100FF0E08000017020000BB
:104AB000190100FF1A0100011B0100FE1C01000882
:104AC0001D0200001F010001200100012102000061
:104AD0002301000F24020000260100012701000825
:104AE000280200FF2A0100072B0102402C010000D0
:104AF0002D0100012E0100012F0100FF30010B1DCF
:104B0000310800003A0100083B01000F3C010001A0
:104B10003D0100FF3E040000420400004604000086
:104B20004A0400004E040000520400005604000035
:104B30005A0400000103710301030103010301038F
:104B40000103220302030103100300030003000317
:104B500000030003000300034203000324030603D1
:104B60000003000304031203250323032503230387
:104B700004030403000300030003440300030003D1
:104B800023030003650321003503810300030503AC
:104B9000000300030003000325032303030471043F
:104BA00002046004110470040204020401040204FB
:104BB00010046104000414046304730472046204A6
:104BC0004304000413040604000400040404120453
:104BD0000004000400040004510464000004000404
:104BE00000044404000400040004000465040004FC
:104BF00035048104640005040004830400040300F8
:104C00007100300160001100700031022003500477
:104C10008000100061000000140063007300720047
:104C200062004300000013000600000000000400C2
:104C30001200000000000000000004000400370023
:104C400037003C0244000000000000000000650046
:104C50000000350081000000050000008300000016
:104C60000101710101010101110101013101010184
:104C700001018001100161013B0014006301730117
:104C80007201620143010001130106013D0135007B
:104C900004011201000100010001000104010401EE
:104CA000330133013C0144013201360000010001AF
:104CB00065010001350081010001050182018301C8
:104CC0000001030271023001600211027002010250
:104CD000020202028002100261023A0041006302F5
:104CE00073027202620243020002130238000002E1
:104CF000000204021202000200020002000204028A
:104D00000402370037003C0244020002390000026E
:104D100000026502000235028102000205028202E1
:104D20008302000236000100060000000F000000B0
:104D30000000000000000000000003FFFF0000046E
:104D400003FFFF0000FFFF0FF4010005C404032070
:104D5000000100000B000000000000000003010F34
:104D60000000000000000000000000000000000043
:104D70000000000000000000000000000000000033
:104D800000000000A545130003451F0009451F80D2
:104D90000F450100A54502008B4403009144040027
:104DA000974405009D440600A9443000C7443100E3
:104DB000C1443200D3443300D9443500DF443400C9
:104DC000E5443600EB441100F7441400FD4415009F
:104DD000BB44FFFF00000A000000020000000400C6
:104DE000000008000000100000002000000040004B
:104DF000000080000000000100000002000000042C
:104E0000000000080000001000000020000000402A
:104E10000000012532065B320855320B733210C791
:104E20002F0A8532022B320549320731320C0D32FE
:104E30000D193264F747FF000007ECFDFDFDECDCC7
:104E4000DCCCBCACAC9C9C8C7C7C6C6C5C5C5C4CB2
:104E50004C3C3C2C2C1C1C03EAF5E5D5D5C5B5A56E
:104E60009595858575756565555545453535252572
:104E700015150500160F00000B150B020002220F7E
:104E80003300000E0C0E020B040B0A0708000F0083
:104E90000119161816161823030000034A49434E39
:104EA000181A250502303016181920231A1C1E3036
:104EB00000393D3F373C3C362C442D303017181913
:104EC00021301B1D1F3002040201010101090200F3
:104ED000BE040A7F00E8030E00000000000C08106A
:104EE0000C0A1503090900040003FF1E1E01050C2E
:104EF00004040810050328C082C0839018D5E4F08C
:104F0000A3F07CED7D047AF07B171240F51247C7C1
:104F10001230151247C1026ED574F312259174F543
:104F2000122C3F89098A088B0A8C0BE9705F740286
:104F30006508703F79081243DD750C00780C122B60
:104F4000A1E50BF50C780C122BA1E50AF50C780CF9
:104F5000122BA190180C122999901A3BE0F97C6849
:104F60007D19901A5A126EE212479D7407122B5F38
:104F700002505074016508600302505579081243CD
:104F8000DD7B00AA0AA90A12484502505074016547
:104F9000096009740265096003025055EA600674ED
:104FA000036508704779021243DD901A3BE0F990DF
:104FB000180C122E261247AFE9F9901819E0A2E357
:104FC0004010E9700D9018D9E004F06404700312E9
:104FD000507674036508707A9018DAE0F874012846
:104FE000F0E8C39405406B12507680667401650842
:104FF000706374016509790A702E1243DD74011221
:105000002E55E4F07402122E557403F004122E553E
:10501000E4F0A3F0A3F0A3F07408122E55E4F0AA74
:1050200018AB1912323780441243DD901A3112291D
:10503000997A007B20901810E0F91240A7740412AE
:105040002B5F901A3BE0F990180C122E2612485D47
:10505000E9F9E960179081121229997A017B009091
:105060001810E0F91240A77404122B5F740B122B76
:105070005F7F0502285B90180CE4F0A374F8F0A39E
:1050800074FFF0A37407F02274F6122591E9FFEA89
:10509000FE7AD1F9123F638A828B83E58245837061
:1050A0002A7A027B00123F45EA4B700E7A107B0091
:1050B000901810E0F9123F8780148A828B8374D194
:1050C000F0EFA3F0EEF9123F518003EFA3F002528C
:1050D000F574F712259189089006F8126422901A47
:1050E0001FE0F47003A3E0F4702D90080BE0901A19
:1050F0001FF0A3E4F080208E828F83A31262D5601C
:105100000F8E828F83A3A31262CFFAA90812447371
:105110008E828F831251B8EE4F70DC901A1FE0F42C
:105120007003A3E0F4600A901A1FE0FAA908124481
:10513000731233459017DA125AE412333F7F01029B
:10514000285B74F0122591890B8C0C750800750989
:10515000007410122E5512522C7412122E55125128
:10516000B8803CA80A12521CF50EA3E0F50FA8095E
:1051700012520FF583E0650E7004A3E0650F701402
:105180001251AFEE28F582EF39F583E50EF0A3E575
:105190000FF00508050AE50AC3950C40C60509E5A8
:1051A00009C3950B5005750A0080EBA9088011A86A
:1051B00008E828F8E433F9221274B5E8FEE9FF2282
:1051C0007F0802285B74F4122591890B8C0A7508FC
:1051D00000740C122E5512522C80020508E508C3EB
:1051E000950B502775090080020509E509C3950A4A
:1051F00050E9A80812520F126420A80912521C6E1E
:105200007003A3E06F70E27901800279008028E8E2
:1052100028F8E433F9EA28F582EB3922E828F8E4A3
:1052200033F9EC28F582ED39F583E0221274B5E804
:10523000FCE9FD22122B5F7F0402285B74F6122525
:10524000911252DF7003A3E06D701775081775098E
:10525000187808122B9DEEFA1245AB7402122B5FE0
:10526000801F7508027509807808122B9D8C088DA7
:10527000097808122B9D1252CA1245CF7404122BC2
:105280005F807274F61225911252DF7003A3E06DF5
:1052900070177508247509187808122B9DEEFA12FC
:1052A00045B17402122B5F801F7508037509807861
:1052B00008122B9D8C088D097808122B9D1252CA5A
:1052C0001245CF7404122B5F802B1252D83FF58306
:1052D000E0FD7C8012652922EE240EF582E422EAAC
:1052E000FEEBFF12653EFCE439FD9017DAE06C221C
:1052F0007402122B5F7F0202285B74F612259174F0
:10530000FE122C3FEAFEEBFF851882851983E4F03C
:10531000A3125A96126677FBECFA88828983A3A3BC
:10532000E0F9750900750800600574FF697005757E
:105330000882803D9017DAE06A7003A3E06B701A70
:10534000AA18AB191238CDE9F50985188285198399
:105350001268B9701C7508838017901973E0600497
:10536000640170057508818008E0640270037508A7
:10537000808518828519831268A2A908EEFAEFFBCE
:105380001245B7E50960118518828519831268B93D
:105390006006126EDC123FE70252F074F2122591A1
:1053A000EAFEEBFF75080075090012653AF50AE49C
:1053B00039F50B123345EA650A7003EB650B701281
:1053C0001238DFE914F50879017AA17B181238E563
:1053D00080037509801268A8F50C780C122BA17552
:1053E0000CA1750D18780C122B9D7808122BA17842
:1053F0000A122B9DE509F5087808122BA112633BD0
:105400001268ABF97A057B801245BD740702768A73
:1054100074F6122591890975080080278A828B838A
:10542000E0FE12783FEE28E439FF1251AFEC28F588
:1054300082ED39F583EEF0A3EFF0EA2402FA500191
:105440000B0508E508C3950940D20252F574E8122D
:10545000259174FB122C3F8A168B178518828519AB
:1054600083E4F07403122E55E4F0A3F004122E55D9
:10547000E4F0A3F0125DF33517125A68F50B850AB4
:1054800082F58312792BFEE439FF850A82850B832E
:10549000A3A3E0FA850A82850B83A3A3A3E0F9EA1C
:1054A000F508E439F509E50A2404F50A5002050B6C
:1054B000EEFAEFFB1233E1E964016016EEFAEFFB5E
:1054C0001233E1E9703D9017DAE06E7003A3E06FEC
:1054D0006031126688122BA1E4F508F509780812EC
:1054E0002B9D7808122BA19017DA1229A17508803C
:1054F0007808122BA11258451245BD7407122B5F74
:1055000002583B1258738810602B1274D6123FE178
:105510007403122E55125AE47403122E551268B9F0
:1055200060137403122E5512586BA9101244A38AEB
:105530000A8B0B8003751000125873880F602712B6
:1055400074D6123FE17401122E55125AE4740112FE
:105550002E551268B9600F7401122E5512586BA99E
:105560000F1244A38003750F009006F8805C850A33
:1055700082850B83A3A3A3A3A3A3A3A3E4F0A3F017
:10558000AA0AAB0B851482851583A3A3E0F81262E7
:10559000CFF9123F51851282851383E0C0E0851850
:1055A00082851983E0F874A128F582E43418F58324
:1055B000D0E01268BD04F0E511A2E05007AA12ABDA
:1055C00013123FE7851482851583E0F514A3E0F5F7
:1055D00015E514451570030257A8851482851583B7
:1055E000A31262D560DE851482851583A3A3A3A3CD
:1055F000A3A3A3A3E0A2E050CB851482851583A3C7
:10560000A3A3A31268B9851482851583A3A3601F81
:105610001262D6FA7901851482851583A3A3A3A308
:1056200012585E1249348A128B13751101801012C0
:10563000585EA3A3A3E0F512A3E0F513751100E5EE
:1056400012451370030255B7851282851383A3E0B8
:1056500065087004A3E06509600F74FF65087004B5
:1056600074FF650960030255B7851282851383A311
:10567000A3A3A3A3A3A31229A1851282851383A3A5
:10568000A3A3A3A3A3E0FC7405122E55126EE2A9F6
:10569000101244857402122B5FE9703C85128285DA
:1056A0001383A3A3A3A3A3A3A3A3A3A31229A185A5
:1056B0001282851383A3A3A3A3A3A3A3A3A3E0FCA4
:1056C0007403122E55126EE2A90F12448574021251
:1056D0002B5FE970030255B7E50F2510C333240A89
:1056E000FA7B00123F458A0A8B0BEA450B700302D6
:1056F00055958A828B8374D2126AC88A828B83A35F
:10570000A3E8F0A3E91277BDA3E510127933E50F02
:10571000F0E510603CEA2405FAE4350BFBE50A24C9
:105720000AF8E4350BF98A828B8312607B740312CA
:105730002E55125883122B99AC10EC2CFCE433FD3F
:105740008A828B83126EE2123F217403122B5F80D8
:105750000D8A828B83A3A3A3A3A3E4F0A3F0E50F98
:10576000700302556EA8101251B1E50A28F8E50B36
:1057700039F9E8240AFAE439FB850A82850B83A308
:10578000A3A3A3A3A3A3A3125AE47401122E551238
:105790005883122B99AC0FEC2CFCE433FD123F2103
:1057A0007403122B5F025580851882851983E0608F
:1057B00027126688122BA17508A17509187808129E
:1057C0002B9D7403122E55126691122BA19017DA9D
:1057D0001229A17508008029EEFAEFFB1233E1E9E6
:1057E000702F126688122BA17508A1750918780808
:1057F000122B9D7508007808122BA19017DA122938
:10580000A17808122BA11258451245BD7407122B1E
:105810005F7403122E551268B9600B7403122E5573
:10582000126EE2123FE77401122E551268B9600B36
:105830007401122E55126EE2123FE77405122B5FAF
:105840007F1002285BE5162402FCE43517FDE516FF
:105850001262C93517F583E0F97A067B8022125867
:105860006222E0F8A3E0F5838882221268A2AA0AE5
:10587000AB0B22850A82850B83E0F8A385820A851B
:10588000830B22E0F50CA3E0F50D750E00780C22D9
:1058900074F112259174F4122C3F8A088B09ECFEE6
:1058A000EDFF740B122E557403F0122C031240F509
:1058B00012333F8A0A8B0BAC0AAD0B7403122C0314
:1058C0001240EFE9600A125A626010E06401600B56
:1058D0008518828519837484025A108E828F83A35F
:1058E000A3A3A3A3A3A3A3E06013F46010125A62BE
:1058F0007016EE24141268AB6003F4700B851882E6
:105900008519837482025A10127657E0642170025E
:10591000A3E060030259E7851882851983748C120D
:105920005A96640360030259D17401122C0B126061
:1059300060123135E960030259D11243CB8A0A8BD8
:105940000BEA450B7003025A118E0C8F0D750E0079
:10595000780C122B997C157D00123F217403122BB9
:105960005F850882850983A3A3E50A2415FCE43535
:105970000BFD7409122AC31272D5C0E0E50A241E79
:10598000125A50D0E0125EC7C0E0E50A241F125A36
:1059900050D0E0F0E50A2420125A507405F0EE24AD
:1059A0000BFE50010FFAEFFB1239637D007C00798A
:1059B00000EEFAEFFB1245759081121229997A00D8
:1059C0007B10901810E0F91240A77404122B5F802E
:1059D00078125A58122BA1125A70123123740112E4
:1059E0002B5FE9702C8014125A58122BA1125A7096
:1059F0001231297401122B5FE9700D851882851907
:105A000083E4F012439B800985188285198374888A
:105A1000F01272D5F50A780A122BA17401122BFB31
:105A2000880A890B780A122B9DE508240CF582E47C
:105A30003509125A684480F50B780A122B9D1264BE
:105A40000B1245697405122B5F740C122B5F805C7E
:105A5000F582E4350BF58322EE12606DE0F50A78ED
:105A60000A22125A9B640322F583E0F50AA3E0227E
:105A7000EE240BFCE43FFD8E828F83A3A3A3A3A39C
:105A8000A3A3A3A3126F1F8E828F83A3A3A3A3A399
:105A9000A3A3A3E0F922F0125A9B22125A9F22EEEE
:105AA000126BA53FF583E022EEFAEFFB7F07022899
:105AB0005BC082C08374F3122C3F851882851983E2
:105AC000E4F004122E55125AE47403122E55AA82E1
