:020000040020DA
:10000000487100205D9921008D992100919921006E
:1000100095992100959921009599210000000000F3
:100020000000000000000000000000009599210081
:1000300095992100000000009599210089962100E2
:100040009599210095992100959921009599210074
:10005000000000009599210043A4200095992100FB
:100060009599210000000000000000000000000041
:100070000000000000000000959921000000000031
:1000800000000000000000009599210095992100D2
:100090009599210095992100959921009599210024
:1000A0009599210095992100E94720004F482000AB
:1000B0009599210095992100959921009599210004
:1000C0005D9A21009547200095992100959921007E
:1000D00095992100000000000000000000000000D1
:1000E0000000000000000000000000000000000010
:1000F0009599210000000000959921000000000062
:1001000010B592480FF2BD61D94C41650FF2FD71F7
:1001100081650FF27D51E1620FF2295121630FF6E3
:10012000310161630FF66501A1630FF60101E1631F
:100130000FF2B93121640FF2B95141640FF20D6130
:1001400081640FF27D51C1640FF6B501016520692C
:1001500008B102F067FBDFF8480C0B49A0600B22E6
:10016000082020730020206181F8200020750021E4
:1001700004F1150002F09EFB04F12000BDE81040E0
:100180000B22002102F096BB004000203EB5044641
:10019000201D05214182032101740168491E01606F
:1001A0004A1E026094F836200A7094F8361011B195
:1001B0004FF6FF71018601684A1E0260028E120A24
:1001C0000A700268018E11700179C91C017100A8C2
:1001D00004F12B0102F090FD03208DF8080000AA25
:1001E000DFF8C00BC38C0321204601F0A5FC0500FD
:1001F00004BF204600F0B8FE28463EBD38B5044690
:100200000D466068411E100A087001F8012C049820
:1002100001F8020CDFF88C0B428D120A01F8032C56
:10022000408D01F8040C180A01F8050C01F8063D90
:10023000207A626861601018401A2072DFF8741C1E
:10024000287A03280CBF01200020E0820B2209201D
:10025000207504F1200002F015FB4FF6FF732A46CB
:100260000321204601F068FC050004BF204600F091
:100270007BFE284632BDDFF8EC1C897A0829A8BF2E
:10028000072101700078C006000E70472DE9F04785
:1002900005460F46924602F047FDDFF8C88CD8F8B5
:1002A000004000F00100002680F0010913E0607EAC
:1002B000400613D560684178C1F3810103290DD14F
:1002C000ED1F411D284602F017FD103654F8084C6A
:1002D0006D1EF6B27F1EFFB227B101E054F8084C44
:1002E000002CE4D1B9F1000F18BF02F019FD02F0A3
:1002F0001BFD00F00100D8F8001080F001000BE0B9
:10030000927905F80129761C4A68527905F8012985
:10031000F6B27F1E51F8081C89B14A685378C3F3BE
:100320008103022BF6D14B7E5B06E9D40A7E92064E
:10033000F0D5FFB20122002F8AF80020EAD108B1DF
:1003400002F0EEFC2E70681EBDE8F08780400020B1
:100350002DE9F04385B0044600208DF80000884662
:1003600091460DF10100FFF786FFDFF8385A297B2F
:10037000401800F13D06F6B2304602F0CBFA070015
:1003800048D0F0197860002038722A7B7868A96814
:10039000861A304602F076FA9DF8011000AA701E07
:1003A000FFF774FF0021964A017012786978920174
:1003B00042EAC11141EA091141F00F0100F8011CA4
:1003C00044EA081100F8021D7A68397A78605118F9
:1003D000091A00203972F88238758DF80C000B224A
:1003E000DFF8881C07F1200002F04CFA9DF80000AD
:1003F00018B1F88A40F00800F88201F03CFB014691
:10040000002301AA384601F097FB0028384602D0A5
:1004100002F092FA002005B0BDE8F083F8B504467A
:1004200002F082FC00F0010080F00105DFF8340BDF
:10043000076800260EE0787E000609D561687868B6
:1004400001F026FB20B1787E00F0BF0078763E46B2
:1004500057F8087C002FEED11EB1707E40F04000AE
:100460007076002D1CBFBDE8F14002F059BCF1BD13
:10047000604D00202DE9F8438046894602F054FC87
:1004800000F0010080F00107DFF8D80A06680024B8
:1004900000250CE0354605F11800417841F01001C7
:1004A0004170017841F08001017056F8086C9EB1EE
:1004B000707E0006F9D572684946404601F004FB9B
:1004C0000028F2D0002DE5D0287D012804D16868ED
:1004D000017841F0100101700FB102F021FC15B15B
:1004E00000F0EAFC01242046BDE8F2832DE9F0414A
:1004F00082B00024009402F017FC00F04BF880F06A
:1005000001050EE057F8088C22463946304602F0C5
:10051000E1FA394600A802F098FAB07A401E474640
:10052000B07267B1787E000605D5788A401E788261
:1005300080B20028E6D03C4657F8087CF1E70DB1C0
:1005400002F0EEFBB07AB0B100F02AF81EBFDFF87F
:10055000000C90F8200000280DD1DFF89C4C2046BC
:1005600002F0A2F83021204602F085F803E0607026
:10057000204600F0E6FB00A802F087FA040007D04E
:10058000FFF74CFF607E40074CBFE920F020EEE70C
:10059000BDE8F381DFF8646C376800F00100704754
:1005A000DFF80008407B0F287047000070B5054653
:1005B000FFF734FFDFF8AC49DFF8E867A06B80474E
:1005C0000128F08D08BF401C6882A07A002804BF73
:1005D000707B0F2808D1DFF8205C284602F064F811
:1005E0003021284602F047F802F09EFBA17A491C10
:1005F000A172002804BFBDE8704002F091BB70BD3D
:10060000384C002038B50446DFF8F05B607E00F01F
:10061000EF0060762046FFF701FF2146284602F0F2
:100620004BFA02F081FBA97A491CA97208B902F0C1
:1006300077FBFFF7B5FF04D1BDE83240082001F099
:1006400063B831BD10B50446DFF85807407886B06E
:10065000B8B101208DF8000004F11C0100F014F87D
:100660000DF1020002F048FB606800788DF80A0086
:1006700004F10F010DF10B0001F0BFFB00A802F027
:100680002BFC06B010BD000000208DF80100704763
:1006900010B50446FFF77AFDDC2818BFDD2808D026
:1006A000E42818BFF32804D0DE281CBFDF28DB288D
:1006B00005D101462046BDE8104001F02FB810BD1D
:1006C00010B586B0044606208DF8000004F11C0128
:1006D0000DF1020002F010FB04F10F010DF10A0010
:1006E00001F08BFB00A802F0F7FB06B010BD000084
:1006F00030B5044604F1340585B0A87820B304F180
:100700002B0101A802F0F8FA03208DF80C007E48B6
:10071000017D0388009101A92A882046FFF76EFD1C
:10072000DC2818BFDD280BD0E42818BFF32807D039
:10073000DE2818BFDF2803D0E82818BFDB2803D144
:100740000146204600F0EAFF05B030BD2DE9F84330
:10075000044602F0E9FADFF8A46A376800F0010005
:100760004FF00008E72580F0010902E0B84657F88D
:10077000087C97B1787E0006F8D5387D012802BF45
:1007800097F8390021798842F0D1424639463046FF
:1007900002F0A0F9B07A401EB072B9F1000F18BF94
:1007A00002F0BEFA3FB13846FFF738FEF021384676
:1007B00000F0B4FF002529462046BDE8F44300F0D0
:1007C000ADBF000030B5044685B06078F32818BF8F
:1007D000DF281ED0E82818BFDB281AD0204600F0FA
:1007E00029F8050014D1207C90B104F111010920F1
:1007F00000F090F960B100F011F8FFF7FFFC05463A
:10080000F32D18BFDF2D03D0E82D18BFDB2D03D14A
:100810006570204600F07AF805B030BD02218DF8F1
:100820000C104FF6FF72ADF80420A17A009101A9D7
:100830002389704738B504460025A07A0B38132861
:10084000207B28BFE8251028A8BFE82501DA0F285B
:1008500004D07D49097A090758BFE825617B8842A1
:1008600002D20F2918BFE825DFF83805408D4FF672
:10087000FF71884208BFEC25242001F06DFFDFF8EE
:100880007819086120B12422211D01F0FBFF00E04E
:100890001A25284632BD70B50446DFF80805217ACE
:1008A000DFF8D06BC51CA972617A80F82C10E07A51
:1008B0002870A07A307002F041FC307838B1211DE8
:1008C000502002F069FDA11DE12002F065FDDFF876
:1008D0008018012081F8200004F10D01A87ADFF8CA
:1008E000105D0F2814BF0120002028750B2205F190
:1008F000150001F0C7FF04F1180105F12000BDE863
:1009000070400B2201F0BEBF8A4A002010B5044699
:10091000607820B9DFF8D80C0069FFF7BCFF2C2005
:1009200020702046BDE8104000F04CBF10B5DFF845
:10093000C01C0446086918B100220A6101F072FF68
:10094000082020702046BDE8104002F0C5BA000023
:10095000DFF8A418DFF8F807097D90F8200081F08F
:100960000101084200D1704780B5DFF8380490F8E3
:100970002C10C31C1A78987AFFF7EAFC00281CBFD9
:10098000BDE8024000F0F0BA01BD000030B50546F8
:100990000124A87B400789B01ED5E98E05F11C0013
:1009A000FFF768FDC0B9DFF8580D407908B10024A1
:1009B00012E00B2205F10F0106A801F063FF01F020
:1009C0005AF806A9019105F11C0230210091014657
:1009D000EB8E012001F068F910208DF8080005F178
:1009E0001C010DF10A0002F070F9E88EADF8140058
:1009F0008DF8164002A802F06FFA09B030BD000071
:100A0000DFF8700A0078002818BF01F02DBB70478E
:100A10000D4800F154010162DFF8E81C416200F169
:100A2000440181620FF224010164DFF8E81C0166D1
:100A3000DFF8E41C8167DFF8601DC167018941F0C0
:100A4000020101817047000080400020030471040E
:100A5000020460041104700402040204010402048C
:100A60001004610400041404630473047204620437
:100A700043040004130406040004000404041204E4
:100A80000004000400040004510464000004000495
:100A9000000444040004000400040004650400048D
:100AA000350481046400050400048304000400008C
:100AB00002460146032000F0D3BE0246014605204F
:100AC00000F0CEBE0146082000F0A2BE0FF2692061
:100AD00010B5DFF82847606382B00FF24D20A063A5
:100AE00004E0204601F0D1FF00F010F82068002853
:100AF000F7D1606828B1201D01F0C7FF00F006F8AB
:100B0000F7E72060A072E072207313BD009000A888
:100B100000F058BF38B504460FF23800255C28466F
:100B200001F0F8FE20B1291841600021017232BDA8
:100B3000022001F0EFFE50B10FF27821615C0170EC
:100B40001A214170014600F085FE01F004FF0020EB
:100B500032BD0000004246484045453F354D360015
:100B6000821DC907D2B210D50A2192FBF1F10A23E6
:100B700003FB1121C9B241B10A32521AD2B205297E
:100B8000A4BF0A32D2B20B32D2B21328ACBF1420A7
:100B900006208018C0B209300A2190FBF1F0C0B2E3
:100BA000704780B5DFF8B40C007A800704D502F0F6
:100BB0007CFA10B1012002BD002002BDDFF89C0CC0
:100BC000007A80070DD5DFF89C03807A38B9DFF80A
:100BD0008005C06F28B1407E10F0800002D0012057
:100BE000704700207047DFF87C13DFF8142B097B77
:100BF0009278914238BF01F08DBE0020704780B5D9
:100C000000F0E0FE002002BD31B5007BD54C20B1E4
:100C1000012823D0032823D036E0624D687B0F28BB
:100C200005D000F0C7FD10B90098E16A8847009927
:100C300095F83A008873142000990870201D0099D7
:100C400001F003FF02F070F8217B491C217308B901
:100C500002F066F8202000F057FD31BD1520EBE7CB
:100C60000098007A80B100984168491C416011F8F1
:100C7000010D009948730098C07D00280098407BC2
:100C800005D008B10A2814DBFFF741FF31BD50B190
:100C90000A2808DA009A0FF23C03127AC11811F8F8
:100CA000011C8A4205D0082802BF0098007A082853
:100CB000EAD100980099007A401E087200980099C5
:100CC000407B0A30087000980099407B401C4873B4
:100CD000B4E7000002040201010101090200000062
:100CE000DFF81805C06B010018BF004700207047EF
:100CF00038B5044604F114000121017004F13801F3
:100D00004A88438C42800A79C2714A79027204F19E
:100D10002C020978204600F00FFF050004BF204692
:100D200000F022F9284632BD80B500F043FD08B13D
:100D3000202002BD012002BD417E41F0010141762B
:100D4000704710B5017D027E012906D1130704D436
:100D5000BDE81040417800F0E1BC5406DFF89C3457
:100D600004D5BDE810404078196B0847012903D12C
:100D7000120748BF30210BD442781B2A08BF22211A
:100D800006D0002A0CBF0FF220020FF22802895C65
:100D900001700146BDE81040187C01F0DCBD000088
:100DA00009172000644A0020303016181920231A31
:100DB0001C1E3000303017181921301B1D1F300049
:100DC00070B5DFF88C430646E06F002870D0DFF87E
:100DD000BC5C26B11B2E05D1017D052952D0002116
:100DE000417051E0E92E2DD1807E30B902F066F9D4
:100DF00018B1E06F807D40072DD5EE2002F004FC95
:100E0000E06F817E00293ED0827D520705D4491EC5
:100E10008176BDE8704002F0AFBC017E01F07F0139
:100E20000176E06F017D032903D1417E41F0040189
:100E30004176ED2002F0E8FBDFF8201AE06FC96F81
:100E4000884724E0E12E15D102F038F9D0B1E06FE7
:100E5000807D400716D4E16FA87C8876E16F4968F1
:100E6000287888702878401C28700120BDE87040E0
:100E700002F0E3BB1C2E05D13A49096C88470020DB
:100E8000E06770BDE06F4670E06FFFF75AFFE06FFC
:100E9000807D000605D5287E02F0A0F9E87D02F0ED
:100EA00063F90020E0671020BDE8704000F02CBC22
:100EB00070BD0000754D00202DE9F04101F034FFB8
:100EC00000F00100A24D80F00108E86F002488BB0B
:100ED000244FB86B80473E6840F0100002E0344673
:100EE00056F8086C36B3717E01408142F7D1224634
:100EF0003146384601F0EEFDEE67707E000620D4E4
:100F0000F87A401EF872B8F1000F18BF01F008FF20
:100F1000EC6FE18A207AFFF723FE3881A07D00067E
:100F200013D5E07E02F05AF9E86F007FBDE8F0418A
:100F300002F01AB9B8F1000F11D0BDE8F04101F08C
:100F4000EFBEB87A401EB872DDE7207EBDE8F04102
:100F5000400800F0010080F0010002F06EBBBDE827
:100F6000F08100001C4D002038B5044600F022FD41
:100F7000217EDFF88C07090704D4217D012908BFF1
:100F8000027800D042789D4D2146284601F0C1FDEF
:100F9000D0B1696B20468847A07D40070DD401F091
:100FA000C3FEE97A491CE97208B901F0B9FEE08A8A
:100FB000C0050FD4BDE831407EE72046BDE834408F
:100FC000DFF89818896F0847F12060702046BDE867
:100FD0003240B6E631BD6FE710B5DFF880180A89F8
:100FE00004460020930704F1340103D48B795B0796
:100FF00048BFE82060231A4203D18A79920748BF8C
:10100000E820DFF8302B237A92799A420A7938BFA8
:10101000E820002A02BF09780029F52004D010B981
:101020002046FFF765FE20B101462046BDE810408E
:1010300074E310BD0D21017001F04EBF002101705D
:10104000417090F83A30DFF8B8166C4A09785B07BF
:1010500004D4D37A8B4204D3F1215FE3937A8B4299
:10106000FAD20146107C01F076BC0000804D0020D1
:1010700010B5044604F1580080B201F04BFC18B1E1
:1010800000F158010472416010BDDFF8140C0FF23A
:101090007111016000220FF2953141600FF2E111F0
:1010A00081600FF21921C1600FF21D3101610FF251
:1010B000D92141610FF2AD2181610FF2BD31C161D2
:1010C0000FF2014101620FF2554141620FF2854179
:1010D00081620FF21D21C1620FF2E90101630FF27B
:1010E000D10141630FF2D52181630FF25141C163F8
:1010F000DFF8B01B01640FF2754141640FF2C54186
:101100008164DFF8340D00F15C010A70CA700222BC
:101110000FF2F55140F83C1F016102710121017588
:10112000704700B585B002228DF800208DF80100CF
:1011300008B14FF6FF71ADF802100B22DFF8FC1C6E
:1011400001A801F09FFB00A801F0C6FE05B000BD9C
:101150000040002080B50A228DF801008DF80020A3
:101160008DF8021000A801F0B7FE01BD3EB504469F
:10117000251D0120688204F12E010220287400A898
:1011800001F0A3FD2868AB8E401E286000AA94F8E9
:101190003A10017083212879401C2871204600F004
:1011A000CBFC050004BF2046FFF7DEFE28463EBD0F
:1011B000DFF8140D90F8350030214143DFF80C0DB5
:1011C00001F059BA30B5DFF8004D607B0F2893B0BD
:1011D00006D02E208DF8000000A800F0F3FA09E0F8
:1011E00000F0E6F8608E1421B0FBF1F105F1340057
:1011F00001F041FA13B030BD604D00201C4D0020BD
:1012000038B50446607888BB04F12E05297A022996
:101210001CBF0329E82094F82B100B39132928BF91
:10122000E82024D210BB04F12B01E12002F0B4F835
:1012300004F13801502002F0AFF8297ADFF8880C69
:10124000022902D12988018406E04FF6FE7101844B
:101250001630294601F050FD0B2204F12001DFF881
:10126000DC0B01F00FFB2046FFF780FF30B1607010
:10127000172020702046BDE83240A3E231BD0000B7
:1012800010B5DFF8B44B94F85F0086B0A0B9012028
:1012900084F85F0002F07EFB02A800F0DDFB04F1A1
:1012A0005400019002AA012000900321DFF8180CDD
:1012B000C38C052000F0F8FC06B010BD10B500F09E
:1012C000F3F82078202804BFEB20607000F0A8F825
:1012D00044BF01F0FB0180F85F1000F0E1F800D599
:1012E000E6E02A2020702046BDE810406AE20000B7
:1012F00070B5044682B0012002F05EFB00F058F8A1
:1013000005F1440001F0D0F900F026F8ADF8000036
:101310006068867846B900A9532002F03DF804F1D0
:101320001C014A2002F038F80B2204F10F0105F1EC
:10133000540001F0A7FABDF800103046FFF7F1FEA7
:1013400095F85F00800703D560780021FFF702FF62
:10135000002085F85F0073BD60680178407801EB7C
:101360000020704710B50446EB206070DFF8100CC9
:1013700090F85F00800703D50021EB20FFF7EAFE1D
:101380004FEA0400BDE8104038B500F08DF800F0D9
:101390000FF805F1440001F087F905F15C00002128
:1013A0000170C1704FF6FF716078BDE83440B8E657
:1013B000DFF8CC5B05F1340001F076B910B50446D6
:1013C000FFF7D0FFC0E0000010B500F06DF8207A04
:1013D000002814BF0020EB2000F021F844BF01F0EA
:1013E000FB0180F85F1000F05BF80BD501F0FD0108
:1013F00080F85F1000F08CF8ACBF01210021FFF7EE
:10140000A9FE08E0C80706D52A202070EB206070EE
:10141000204600F0D7F92046BDE810400AE660708B
:10142000DFF85C0B90F85F104A0770471CB5044664
:10143000DFF84C0B90F85F1041F0020180F85F106C
:10144000012002F0A7FA607868B900F014FB04F1FB
:1014500010010191221D012100910146E38905201F
:1014600000F022FC6070607818B1BDE81C400021DB
:1014700070E613BD384C002010B500F015F8207848
:10148000202804BFEB206070FFF7CAFF44BF01F0C3
:10149000FB0180F85F1000F003F800D508E010BDF4
:1014A00090F85F108A0770470446012002F084BA62
:1014B00001F0FD0180F85F1000216078BDE8104068
:1014C00048E6000038B5FFF7EFFFFFF771FF207A1D
:1014D000002814BF0020EB20607095F85F004107E2
:1014E00044BF00F0FB0085F85F0095F85F008107BE
:1014F0000AD500F0FD0085F85F0000F009F8ACBFE8
:1015000001210021FFF726FE2046BDE8324091E58B
:10151000A07B00F0100001286078704710B5FFF73D
:10152000C3FFEB20FFF77BFF44BF01F0FB0180F816
:101530005F10FFF7B5FF00D5BAE710BD10B500F09A
:1015400010F82046FFF7EAFF2046BDE8104000F003
:1015500019BD000010B500F004F82046BDE81040A9
:10156000DCE70446DFF8F80B01F09EB810B504463E
:1015700086B004F11C01DFF8EC0B01F093FBF0B135
:1015800009208DF80000EF208DF80100FFF7E4FE40
:10159000ADF8020004F10F01606800798DF80400D5
:1015A000207A082806BF6068C07900208DF8050001
:1015B0000DF1060000F021FC00A801F08DFC06B042
:1015C00010BD000000F050BDA448DFF8D4168161C2
:1015D0003831C1610FF21C0141630FF27C0181635C
:1015E000DFF8581CC165018941F001010181704794
:1015F000604D002001017101010101011101010192
:101600003101010101018001100161013B00140061
:1016100063017301720162014301000113010601BC
:101620003D0135000401120100010001000100012B
:1016300004010401330133013C014401320136004D
:101640000001000165010001350081010001050173
:101650008201830100010000030271023001600277
:1016600011027002010202020202800210026102F3
:101670003A004100630273027202620243020002F6
:1016800013023800000200020402120200020002EB
:101690000002000204020402370037003C02440248
:1016A00000023900000200026502000235028102D8
:1016B0000002050282028302000200000246014687
:1016C0000220CDE001460620A2E010B5634C206860
:1016D00082B010B1204600F075F90020A072DFF84A
:1016E0000C0C006850B102E000A800F06BF900F0AB
:1016F000B1F801F05FF900280090F5D113BD0000AA
:101700004C9A21008C4D00200146DFF8300C007C03
:1017100001F022BA01012000AD05200000B585B01E
:1017200003780FF278029A5C8DF800200B2A03D11F
:10173000417000F085FB2CE05AB30C2A24D11A2901
:1017400002D1002001901FE0019090F839208DF81F
:101750000220C2680292028AADF80C20827DD20675
:1017600048BF002205D4DFF86027837E92F834203A
:10177000D21A8DF80E20427F8DF80F20827F8DF8CF
:101780001020C07F8DF811008DF8011000A801F025
:10179000A3FB05B000BD0000050620000C0E020BE7
:1017A000040B0A0708000F002C48817A481E80416C
:1017B000C00F70472948807A032801D10120704763
:1017C0000020704710B525498A7A037801EB820220
:1017D00003F07F03126B037002EB43035B7801EBB2
:1017E0008304246B04B18B72037812F8132013095D
:1017F00001EB8301C968002904BFBDE8104000F077
:1018000002BB02F00F02BDE8104051F82210084759
:10181000B0B504460FF29C00205C82B00D4601F08A
:1018200079F807000FD03C700020787029460FF23D
:101830009000225C381D01F025F800F00BF83946C5
:1018400001F089F8B3BD8DF800401A2100A8FFF718
:1018500065FFB3BDDFF8E40A007C704780400020DC
:10186000F8B507460FF24C003D5C0C46284601F0E7
:1018700051F8060015D03770002070702146A81965
:101880007060002030720FF238003A5C06F12000E0
:1018900000F0F8FFFFF7DEFF314601F05CF80020B2
:1018A000F2BD8DF800701A2100A8FFF737FF1A204B
:1018B000F2BD0000000555534D581C2028070200BA
:1018C00000011C181A18181C24030000DFF86C1AF9
:1018D00008747047F8B50C46A006DFF8085CDFF81E
:1018E0005C6A16D41AE001F01FFA317B491E31738D
:1018F00008B901F015FA38788DF800006F603846A5
:10190000FFF760FF9DF8000015281CBF281D00F0A0
:1019100059F8301D01F0B9F80700E4D1200406D4CD
:101920000AE06860FFF74EFF281D00F04BF8307C9E
:1019300001F040F80028F4D1E00602D52D2000F097
:1019400035F8E00702D5242000F030F8A00702D5D2
:10195000252000F02BF8600702D5262000F026F89D
:10196000200702D5282000F021F8600604D5FEF7F4
:101970008BFE2C2000F01AF8200604D5FEF784FE1A
:101980002F2000F013F8286870B101F0CDF92C6811
:101990000021296008B901F0C3F96C602046FFF707
:1019A00011FF281D00F00EF80020F2BD8DF8000098
:1019B00000A807E7DFF82C1B4A68824204BF00201A
:1019C0004860704738B5040008BF02F095F801F090
:1019D000ABF900F00100216880F0010561B1DFF88A
:1019E000042B5368A1F108008B4204BF0021516011
:1019F0000021216000F016FF002D1CBFBDE8314022
:101A000001F08EB931BDDFF8D00B0FF2F5318160F6
:101A10000FF20141C1600FF201410161DFF8081CC2
:101A200041610FF21D418161DFF8001CC161DFF8E7
:101A3000001C01620FF22571C1630FF2A94101641C
:101A40000FF2FD4141640FF2995181640FF235515B
:101A5000C164002101707047DFF86C140A8C4FF6E6
:101A6000FE739A4204BF163101F02FB902220272AE
:101A7000098C01807047DFF85004408D4FF6FE71ED
:101A8000884201DB0320704702207047864A00200D
:101A900042784B78C2F38102C3F381039A4211D199
:101AA000022A09D142794B799A4202BF8079897919
:101AB000884207D101207047032A03D1491D401DE8
:101AC00001F00CB90020704770B55478067A0B46C7
:101AD0000021C4F38104B44218D1022C10D15479EE
:101AE0009579008804EB0524A4B2A0420ED1D078E9
:101AF000127900EB022080B2834207D1012105E078
:101B0000032C03D1511D01F0E9F80146084670BDD0
:101B1000017ADFF8B423022907D1118C00888142B1
:101B200001D10120704700207047014602F11600E4
:101B300001F0B8B84C9A21002DE9F84F04469946B7
:101B400090460023E04800F114050A0601F07F02E8
:101B5000E18A98F808704CBF4FF6FF766E8A5FEA0C
:101B6000816C46BF4FF0080C84F818C023765FEAFA
:101B7000417C4CBF4FF0800C4FF0100C84F819C022
:101B80005FEAC16E00F1340C4EBFA3769CF800E012
:101B900084F81AE05FEAC17E48BF20230907616824
:101BA00094F814E048BF43F01003491EBEF1020F41
:101BB00009DBBEF10B0F1CBFAEF1010E01F801E90C
:101BC00043F0030301E04EEA03039CF815C0BCF1A7
:101BD000010F06D194F808C0BCF1670FA8BF43F409
:101BE000805343EA8233022A1FFA83FA07D1E88A34
:101BF000000A01F80109E88A01F801090CE0032A4A
:101C000009D1A1F1070B00F13C01584601F074F82D
:101C1000ABF1010100E052B127B14E4508BF4AF0D7
:101C2000400A04D0301201F8010901F801694AEABA
:101C30008726022FB6B209D1B8F80000000A01F8D1
:101C40000109B8F8000001F8010909E0032F06D1E5
:101C5000CF1F4146384601F04FF8791E00E02FB102
:101C60004FEA192001F8010901F80199481E227D67
:101C70001AB92A78531C2B7002E0AA7B531CAB7351
:101C80000A70310A017000F8016D217A62686060A3
:101C90005118091A217200206070BDE8F28F00000F
:101CA000884C0020E72320002DE9F047099F8A4651
:101CB0000546904699463946FEF72CFF1A26040041
:101CC0001AD00898E08225750B22394604F12000CD
:101CD00000F0D8FD4B46424651462046FFF72CFF08
:101CE000060009D1ED1F012D03D8607E40F02000D1
:101CF00060762046FFF738F93046BDE8F08770B5CA
:101D0000044604F1380684B07178012001B1052041
:101D1000251D04F12C0168820420287400A800F01D
:101D2000D4FF28686B8E401E286000AA31780170AD
:101D300003212879401C28712046FFF7FDFE05008D
:101D400004BF2046FFF710F9284604B070BDF8B56F
:101D500004460E460520207006F13A07351DF87836
:101D6000A0706068E96A416106F11C0100F0ADFFF6
:101D70006068698E4181397841740021606801761C
:101D8000C17306F10F016068193000F036F8616820
:101D9000A87A88732868616810F8012B8A8110F886
:101DA000013B42EA03228A8110F8012BD30918BFB4
:101DB00001230B7402F007010A0018BF012201EB96
:101DC00041015118C9B2081810F8011B2172E060D6
:101DD000217A01F00702490801F0380101EB4201C4
:101DE0000818606129792A688B18834227BF081A6E
:101DF0001018002020722074F1BD0B2200F042BDAB
:101E0000704718218AE401780B29B8BFFFF7F9BFA2
:101E100070470000192181E438B5DFF8C85804463E
:101E2000286820B1FFF7F6FF2846FFF7CBFD2046D4
:101E3000FFF7C0FD2C6031BD304B0020844B0020EB
:101E400030B5044689B020781F4D032808D00528F6
:101E500008D0182804D01E2818BF1F2802D00FE071
:101E6000002000E001208DF8180004F12B0103A8E8
:101E700000F042FF03208DF8140000F029F812E072
:101E800002208DF8180004F11C0103A800F034FFB3
:101E900003208DF8140004F10F0100F019F80DF182
:101EA0001900FFF7AAFF0B208DF8000004F10F01C5
:101EB00060788DF801000DF11900FFF79EFF00A872
:101EC00001F00AF809B030BD644A0020744B0020CC
:101ED000688DADF8020002208DF80A00E88CADF89C
:101EE0001600704738B5044665789DB9DFF8F817D5
:101EF000E08EC98C884218BFE82504F12C00FFF75A
:101F000007FE80B1002084F839001DB92046FFF794
:101F1000F6FE054635B16570192020702046BDE8F3
:101F200032404FE431BDDFF8C41794F8390091F81E
:101F3000201080F001000843E7D1E825EBE700001E
:101F400010B586B004218DF8041041788DF8051085
:101F5000C18EADF8101000F12C010DF1060000F05B
:101F6000B4FE0DF10600FFF7D3FD20B100F02FF80D
:101F7000DFF87407048401A800F0AEFF06B010BDBE
:101F8000304B002010B588B0044603208DF80400C3
:101F900004F11C010DF1060000F0AEFE606800784F
:101FA0008DF80E0004F10F010DF10F00FFF725FF72
:101FB00004F11C00FFF7ACFD20B100F008F8DFF8D9
:101FC0002807048401A800F087FF08B010BD4FF671
:101FD000FF74ADF8004000A9532001F0DDB9000006
:101FE00070B50546DFF8006768684078B41C4006A5
:101FF00092B009D5A08CE98E884205D1DFF8D805CA
:102000000078D0B100F030F808A80390294602A863
:10201000FFF79DFE2B208DF8080002A8FFF7D2FBEA
:10202000207810B19DF8180028B105208DF808001F
:1020300002A800F051FF12B070BD96F830000028E1
:10204000E2D005F11C00FFF763FD0028DCD105F1AB
:102050000F0001900120009006F11602A38C0321CD
:102060000620FFF721FEE6E700B585B009208DF8D0
:102070000000EE208DF8010000A800F02DFF05B053
:1020800000BDF8B5054600F04FFE00F03BF80DB17D
:1020900001F046F9DFF8505601F099FA05F12607EC
:1020A000DFF83465387D01F099F8F87C01F05CF8D0
:1020B000307801F043F8388801F049F8B88801F029
:1020C00048F805F13C0001F04AF80027DFF8140653
:1020D00000EB8700C06D010018BF80477F1C072FF1
:1020E000F4DB00F0F3F9FFF7F0FA00203071FEF7AF
:1020F000EDFCFFF788FC00F00AF80CB100F010FED0
:102100000020F2BD00F0010080F00104704705F1ED
:102110002901522001F040B9DFF8BC040FF265013B
:10212000416200F108020FF2493181620FF2793108
:10213000C1620FF20D1101630FF2052141630FF22D
:10214000B1118163DFF89C15CA6000F13C022430B4
:1021500048610A610020088101F02ABA7047000036
:10216000644B00207A4A0020072202700A7A8270AB
:102170008A7AC2704A68426000220272C969C160EC
:102180007047000070B5DFF8685504466E1C0020EB
:102190003070207A0628A4BFE8203070607A0F28BB
:1021A00004DB207A032804D0E8203070207A03284A
:1021B00005D1CC48007AC0075CBFE82030702146CA
:1021C0002846FFF7D1FF616805F11800890A816090
:1021D0000B22617A0173E17A4173217B8173617B08
:1021E000C173A17B01740A214174DFF8FC1491F8DA
:1021F0003A108174DFF8FC1401600421017105F1CB
:102200002B0004F10F0100F03DFB3078002804BFE3
:10221000607800280BD1707808B1EA21317001F0A4
:1022200023F826202070042001F09FFB01E02920E4
:1022300020702046BDE87040FFF7C4BA8B10200024
:10224000F0B5DFF8AC64751C0446687885B006F11B
:102250000C0760B9787F0A2809D001F047F839687F
:102260007A7F511801F80B0CE879401CE871786905
:10227000797F40087861491CC007797702D4C9B2D8
:102280001E29F4DBC9B21E292CD006F12901E12058
:1022900001F082F802208DF810004FF6FF73687885
:1022A000ADF80830002818BF022803D1204600F0FE
:1022B0001FF819E006F12B020128019207BF082040
:1022C0008021072083210022009202AAFFF7ECFC64
:1022D000DB2818BFE52804D0F3281CBFDF28E82836
:1022E00002D1287000F0BEF805B0F0BDD05000203B
:1022F00038B5DFF8FC43626804F12400012143791A
:1023000001FA03F39A4362603023A278032A06D1CC
:10231000DFF8D40390F8350003FB00F508E00078FF
:1023200001FA00F0401C03FB00F50AB900F0DCFFE5
:10233000294604F11000BDE834409CE11C4D00200A
:102340002DE9F041DFF8A8737D1C804668780228EB
:102350001CBF0128052890B03AD1002028704146C2
:1023600000A80A900C3709A8FFF7F1FCEE79787EF7
:1023700086421BD23C680BE06089BDF80A10884297
:1023800004D100A9204600F08DFC78B9761E2434D3
:10239000F6B2002EF0D13868EB79242200A902FBB6
:1023A000030000F06FFAE879401CE871DFF83803A9
:1023B000807820B19DF8340008B9787E10B909A85A
:1023C00000F08AFD787E58B1E979814208D101E0B8
:1023D000E8202870292088F800004046FFF7F2F92D
:1023E00010B0BDE8F08170B5044604F1240082B05D
:1023F0000178DFF8FC52032904BF807A03282CD12E
:1024000004F11C014A2000F0C7FF6068017842789F
:1024100001EB0221ADF80010861C00A9502000F04D
:10242000BBFF3078717800EB0120ADF8000000A907
:102430004B2000F0B1FFB61C3146E12000F0ACFFAC
:10244000701C0178407801EB0020ADF8000000A975
:10245000532000F0A1FF002000E0E820687000F0A9
:1024600001F873BD292020702046FFF7ABB90000AA
:1024700010B5DFF87C4204F1100000F015F900F00F
:1024800012FF042001F098FAA078032804BF6078B6
:10249000002804D004F12A01E12000F07DFF20464D
:1024A000BDE8104000F018BD00B585B0014600A899
:1024B000FFF75AFEFC208DF8010000A800F00CFD8B
:1024C00005B000BD01460720FFF7A2B98A480021E8
:1024D000016041604FF47F018160C16000210161B2
:1024E000704700008040002010B5834C0020206120
:1024F000206868B14068A168884209DA01F037FBBA
:1025000021684A688242B8BF02464A60206820615A
:10251000606838B1216919B1426849688A4203DAB2
:10252000206101E0206940B12069A16840688842CB
:10253000BCBFBDE8104001F03EBBBDE8104001F05B
:1025400062BBF8B500F0F0FB00F001006A4D80F0CE
:102550000104286918B3A9684068814203DA01F0D0
:10256000CBFA2869D8B101F002FB29694968884291
:1025700015D3002948BF01F0BFFA2E69304600F09C
:1025800093F8377BB6680CB100F0CAFB3846B04709
:1025900000F0CAFB00F0010080F00104E1E7002C2C
:1025A0001CBFBDE8F14000F0BBBBF1BD38B504462F
:1025B0000D460EE050496868096920188D4202D125
:1025C000002848BF00206860002848BF01F094FA46
:1025D0002D68002DEED131BD384C002070B500F0D3
:1025E000A3FBFFF78FFD444DA8686E682968404241
:1025F000FFF7DCFF06E0A86871688142A4BF081AF3
:1026000070603668002EF6D1E868A96881421CBF68
:10261000A86001F095FAFFF767FF002C1CBFBDE82A
:10262000704000F07DBB70BDD90F2000D70F200097
:102630003510200070B504460D4600F075FB00F023
:10264000010080F001062968284601E00846096873
:1026500019B162684B689A42F8DA04602160286810
:10266000A04208BFFFF740FF002E1CBFBDE870402E
:1026700000F056BB70BD38B504460D4601F077FA40
:10268000401960602046BDE834401B49D2E70A6823
:1026900001E011461A462AB113688242F9D10B6053
:1026A000012070470020704770B5044600F03CFBE5
:1026B00000F0010080F001050F4E31462046FFF783
:1026C000E6FF18B9311D2046FFF7E1FF306984426B
:1026D00008BFFFF709FF002D1CBFBDE8704000F0E8
:1026E0001FBB70BD80400020644A002000400020D5
:1026F000144E0020091720006C4200205D4841F272
:10270000FC72002111525C4908604FF41C71018079
:1027100048F20401A0F8701241F28851A0F8741236
:10272000704738B5012000F017F8040008BF01F029
:10273000E3F900F0F9FA05464F49201F08602046EA
:1027400000F070F84D4901200870002D04BFBDE86D
:10275000314000F0E5BA31BDF8B500240025061D72
:1027600016F003001CBF311D0E1A00F0DDFA4349BC
:10277000414A097800F0010080F0010011B1B6B2C1
:10278000112E01D2176800E03D4F3B68C3F3C03CF7
:10279000BCF1000F18BF002524D1E5B1D4F800C06A
:1027A00063445B044FEADC3E5B0C43EACE332360B8
:1027B000B6B25B045B0CB34214D3274647B33B6805
:1027C0005C04640CA41BA4B2082C14D3F45346F488
:1027D00000433B8012E05B045B0CB6B2B342EDD227
:1027E00001253C463B685B0417EB53473B88002BB5
:1027F000CBD100270CE043F400433B6039B11168B2
:10280000B94204D13968490417EB514111603F1DA9
:1028100008B100F085FA17F0030018BF01F06CF959
:102820003846F2BD10B5041F1249884203D301F5A2
:10283000C051884201D301F05FF92068C0F3C03075
:1028400008B901F059F900F06FFA216821F400414C
:10285000216000F0010008490A68944280F00100FC
:1028600038BF0C6000281CBFBDE8104000F058BA0B
:1028700010BD000048510020487100202E5100205A
:10288000BC53002003E011F8013B00F8013B134664
:102890005A1E002BF7D1704710B513465A1E3BB194
:1028A00010F8013B11F8014BA342F6D0002010BDF7
:1028B000012010BD10B5044610460A4601462046C8
:1028C00001F0B6F9204610BD0178407801EB0020F8
:1028D00080B270470278022903D1407802EB0020D1
:1028E0007047032906D14178807802EB012101EB82
:1028F00000407047042909D1417802EB0121827818
:10290000C07801EB024101EB006070471046704750
:1029100001F000BA10B5040001D1002010BD04F18F
:10292000080080B2FFF718FF28B100210160848001
:10293000FF218171083010BD80B508B9052002BDA6
:1029400010F8021CFF2901D0042002BD0838FFF74F
:1029500069FF002002BD0022FFE710B50446080011
:1029600013D0DFF82C1309788C4203D3FFF7E4FF70
:10297000032010BD50F8081C002902BFA0F1080177
:102980008B79FF2B03D0FFF7D7FF052010BD8C718B
:10299000012ADFF800330146184602D100F08CF816
:1029A00001E000F052F84FF40041204600F0D4F866
:1029B000002010BD2DE9F04180460025002600F0E2
:1029C000B3F900F00100B34C80F00107206803E088
:1029D00006B9054650F8080C68B110F8021C4145CC
:1029E000F6D1002E08BF0646F4D04FF40041404611
:1029F00000F0B2F805E04FF40041404600F0B8F8AE
:102A000026B12A463146204600F064F80FB100F0A6
:102A100087F93046BDE8F08170B500F032F89D4985
:102A20000E6800F0010080F0010001E056F8086C2B
:102A300036B116F8021CA14204BF3178A942F5D183
:102A400008B100F06DF9304670BD38B500F019F8E6
:102A5000002145F8081C00F00100216880F0010009
:102A600011B9256006E0114651F8082C002AFAD168
:102A700041F8085C00281CBFBDE8314000F050B9A7
:102A800031BD04460D4600F04FB938B50446002567
:102A900000F04AF900F05AF849B10D4655F8081C03
:102AA0002160002145F8081CFF2105F8021C08B12F
:102AB00000F036F9284632BD38B5FFF7E2FF21684D
:102AC00045F8081C2560002804BFBDE8314000F02F
:102AD00027B931BD70B505460C46164600F024F9FD
:102AE0002A6854F8081C94420CBF296046F8081C58
:102AF000002144F8081C00F0010080F00100FF21D3
:102B000004F8021C00281CBFBDE8704000F008B9A2
:102B100070BDF8B504460D461646002700F004F9CE
:102B200000F014F819B925600AE056B1114651F8C1
:102B3000082C761E002AF6B2F7D116B141F8085CCF
:102B4000012708B100F0ECF83846F2BD00F00100B2
:102B5000216880F00100704738B500F01AF805D2FE
:102B600000F0E2F800F010F82A4318E0032032BD2C
:102B700038B500F00EF805D200F0D6F800F004F8F1
:102B8000AA430CE0032032BD4349096831F8142000
:102B9000704704463E48007884420D46704721F84D
:102BA000142008B900F0BCF8002032BD80B5FF2821
:102BB00003D100F0B5F8002002BD072002BD80B5AA
:102BC000FF2803D100F0B0F8002002BD072002BDAD
:102BD00080B5FFF793FD2F490020086001F09CF8B5
:102BE00001F090F901F098F9FFF79BFD002002BD7C
:102BF00080B500F001F8FCE72DE9F041002601F076
:102C0000F3F92348244C0078216831F8161019B9DB
:102C1000761CF6B28642F7D3864224D200F084F8BE
:102C20002168354631F81580002221F8152008B9B1
:102C300000F076F8194F1A4A3E70414652F82520A6
:102C4000304690470646FF20387000F06DF8216846
:102C500031F81520324321F81520002804BFBDE8C3
:102C6000F04100F05DB8BDE8F08100F8011B0A0AF0
:102C700000F8012B0A0C00F8012B090E05E000F802
:102C8000011B0A0A00F8012B090C00F8011B704710
:102C90002E362000CC500020D0500020D8420020FA
:102CA000703F2000027A0B7A9A420CD15AB1022A64
:102CB00005D100880988884205D101207047032A80
:102CC00008BF00F00BB8002070470A7A0272032A8E
:102CD00008BF00F011B809880180704710B50822BC
:102CE00010F8013B11F8014BA34201D0002010BDA8
:102CF000521EF5D1012010BD0822FFF7C3BD50F8C8
:102D0000041B61B150F8042BD30744BFA9F10103A0
:102D10009A180023091F42F8043BFAD1EFE77047E5
:102D200080B501F067F902E080B501F05FF900B10C
:102D30000120C0B202BD10B50FF2D003820853F8D3
:102D40002220136800F00300C000FF248440A34346
:102D500001FA00F01843106010BD2849042803D17F
:102D6000086840F4803022E0052803D1086840F468
:102D700000301CE0062803D1086840F4802016E0EB
:102D80000F2805D11E48016841F00201016070471B
:102D900010280DD3A0F110010FF21412490952F8B6
:102DA00021101038012200F01F0002FA00F0086024
:102DB000704714490E2803D1086840F0006014E001
:102DC0000F2803D1086840F000700EE010280DD3E2
:102DD000A0F110010FF2EC02490952F8211010384D
:102DE000012200F01F0002FA00F008607047064858
:102DF000016841F0010101607047000024ED00E02E
:102E000010E000E004ED00E098200D40000000001C
:102E100018ED00E01CED00E020ED00E000E400E033
:102E200004E400E008E400E00CE400E010E400E06A
:102E300014E400E018E400E01CE400E020E400E01A
:102E400024E400E028E400E02CE400E030E400E0CA
:102E500034E400E038E400E03CE400E040E400E07A
:102E600044E400E048E400E04CE400E050E400E02A
:102E700054E400E058E400E05CE400E060E400E0DA
:102E800064E400E068E400E06CE400E070E400E08A
:102E900074E400E078E400E07CE400E080E400E03A
:102EA00084E400E088E400E08CE400E090E400E0EA
:102EB00000E100E004E100E008E100E00CE100E0F6
:102EC00010E100E080E200E084E200E088E200E05F
:102ED0008CE200E090E200E02DE9F14382B004785A
:102EE0000FF22420255CADF80050002D4CD00D2CA5
:102EF0004FF6FF7811D100A9532000F030FABDF849
:102F000000004FF6FE7188421FBF40450298007ACC
:102F1000002800F0A580029E6EE0052C4FF02409E9
:102F200004D10299097C243148190BE0072C0BD1FC
:102F300002988078002828460FBF1B300299097A32
:102F400009FB0100ADF80000BDF80000FFF7E2FC4E
:102F500006001DD10C2C17D102984068002813D010
:102F6000FFF7E2FE00F0010080F001070298001D6B
:102F7000FEF728FDBDF80000FFF7CCFC060004D1E9
:102F8000002F01D0FFF7CCFE8DE00FB1FFF7C8FE98
:102F900002992A463046FFF775FC052C11D171685D
:102FA000242206F11800FFF76DFC06F1180070608E
:102FB000327C71692430FFF765FC706824307061E1
:102FC0001AE0072C18D14A480568ADB1002101600C
:102FD000B078002806F11000F06002D11B222946CB
:102FE00005E0307A09FB00F2294606F11000FFF7F0
:102FF00049FC2846FFF716FC3E480168080003D04C
:1030000030468847002845D10D2C2DD102984068C4
:103010004178007800F00302022A01F0C0011FDAB3
:10302000354A927CC0F38300904201BF0029029888
:1030300090F82400022813D106F11C0000F11E01B3
:10304000C07F00F03DF80298C08C40451DD1029829
:1030500040688079022818DB304601F0BAF910B3D5
:1030600002A8FEF7AFFC1EE00C2C0ED102984078AF
:103070001A281CBF7068002807D0807DC00704D5BF
:10308000307C06F10F0100F01BF81C480078314637
:10309000FFF761FC0C2C06D10298406818B1029829
:1030A000001DFEF78FFCBDE8F78315480078002867
:1030B00014BF012801F02AB9002070470020704792
:1030C000104A12789AB10B783228B8BF322002DB4E
:1030D0006F28A8BF6E20012A05D1323858433C2200
:1030E00090FBF2F39BB2FF2BC8BFFF230B7070471E
:1030F00094500020EC500020EC490020A850002003
:103100003C5100203E510020001610000018151000
:1031100002000224144000001000000065480B214A
:103120008170FF214170C1700170704780B500F05F
:10313000BAF8BDE80140D9E001F062BA5E490A6818
:1031400000B1022022F002021043086070475B4980
:1031500000E05B49C2B20A60000A4860704701465D
:103160000822584801F0EEBB70B5574D2E7844B296
:1031700076B2A642B8BF344604DB697849B28C42C5
:10318000B8BF0C46FFF7D0FD311B891CC9B2494AB4
:10319000495DD17008B9FFF7C3FD00F002F8E0B255
:1031A00070BD80B5FFF7C0FD4249CA780B7800F0CA
:1031B00001009A4280F0010009D0444B1B7833B9DA
:1031C000434B1B781B0602D40A7042490A60002850
:1031D0001CBFBDE80140FFF7A3BD01BD38B50446E3
:1031E000A4F10B00122828BF00F086FCFFF79CFD1D
:1031F00000F0010080F001052E488470344800780A
:1032000008B900F007F8002D1CBFBDE83140FFF7FA
:1032100087BD31BD10B52E48007808B100F06CFCB8
:10322000FFF782FD234CA178627800F00100914203
:1032300080F0010011D0617008B1FFF771FD00F05E
:1032400029FC6078244900EB80002C38086001F0EC
:10325000E1FBBDE8104000F0D6BB00281CBFBDE874
:103260001040FFF75DBD10BD38B504461B4800781F
:1032700008B100F041FC1A4D287808B100F03CFC80
:103280000CB901200DE0032C08BF032009D0012C4C
:103290001CBF022C00F030FC0849FF220A6002200B
:1032A0004A60287031BD0E490020087003490D485E
:1032B000C08C4FE7C050002000860840C8850840F9
:1032C000D0850840A8850840FC992100364F002091
:1032D00050500020408608403C860840AF42002005
:1032E000354F0020644A002001F0D9BA80B501F0C2
:1032F000E0FABDE80240493840B210F1570FB8BFBC
:103300006FF0560002DB0B28A8BF0A205730C0EB35
:103310000020612190FBF1F0C0B27047EDE7F2ECC4
:1033200010B55A4C0FF2681120466C2201F0A4FE31
:10333000FFF702FF84F82200FFF7FEFE207510BDA4
:10334000A0F140021E2A38BF403804D3A0F1E001AA
:103350000F2902D23E30C0B270472D20704770B5A1
:103360000C46FFF7EDFF05462D2D01D1F42070BD71
:10337000FFF7DAFC06460FF2841000EB85014A786D
:1033800010F82500414941182046FFF77BFA0EB995
:10339000FFF7C6FC002070BD2DE9F04704460D463E
:1033A0003A4E452C08BFB5606CD0FFF7C9FF814687
:1033B0002D2808BFF42066D00FF2401808EB8907CB
:1033C000B878002804BFF978002915D0F978884228
:1033D00008BFFB2057D0582C05D128888F3846F2DB
:1033E0002241884206D22878B978884224BFF978E9
:1033F000814201D2E82046E0FFF796FC824618F8A9
:1034000029007A7829468019FFF73CFABAF1000FB3
:1034100008BFFFF785FC502C06F12A0010D0522C73
:1034200016D0532C10D0E02C26D0E12C1BD0E22C4F
:103430001DD0E52C24D0E62C04BF2978C17721E0EB
:10344000F08CFFF784FE1DE0708DFFF782FE19E01F
:1034500096F8290018B1022000F087FA12E0022045
:1034600000F0AAFA0EE0007CFFF7B8FE0AE006F1D1
:103470003C00FFF774FE05E0C07BFFF775FE01E03E
:10348000297881770020BDE8F0870000644A002099
:10349000360001000600000000000000000F0000E0
:1034A0000000000000000000000000000000030019
:1034B000FFFF00000403FFFF0000FFFF0F00F40107
:1034C0000005C4040320000100000B000000000000
:1034D000000000000300010F0000000000000000D9
:1034E00000000000000000000000000000000000DC
:1034F000000000000000000000000000000136365F
:10350000010100010201000103010001040106069E
:10351000080400000C0100340D01000F100401012B
:10352000140100FF1608000020020000220100FF25
:1035300023010001240100FE2501000826020000ED
:1035400028010001290100012A0200002C01000FBE
:103550002E0200003001000131010008320200FF9C
:103560003401000735010240360100003701000137
:1035700038010001390100FF3A010B1D3C08000031
:10358000460100084701000F48010001490100FF02
:103590004C040000500400005404000058040000D3
:1035A0005C04000060040000640400006804000083
:1035B00080B500F087FFFFF7B1FD00F0D1F901F011
:1035C000F7F900F035F8BDE8014000F097BA80B592
:1035D000FFF7AAFB18B9FFF7A3FB00F08DFA084824
:1035E000007818B901F00CFAFFF7A0FD00F09EFA80
:1035F00001F06EFD0349012081F8480001BD000083
:10360000AF420020644A002010B50446A4F1E70050
:10361000082882B00AD200A92046FFF7A0FE009831
:10362000401C009000A92046FFF7B6FE13BD0A001B
:10363000C24800210170C171704738B5BF4C0546C2
:10364000207808B100F058FA01202070BC480078BA
:1036500018B1BDE832401D2049E1657028460228B6
:10366000B84D02D101F0F4FD19E000281CBF01287B
:1036700000F042FA2968627800202071897DB24802
:1036800049064CBF90F8461090F8251022B9C07832
:1036900010B10329A8BF0221A17000F038F8E07929
:1036A000C0B9286808B900F027FA2868A74B416814
:1036B000097801F02001A171416889786171017A6E
:1036C00040688A1C00F8012D491CEE221A60C9B21C
:1036D00001F04CF9FFF728FB9D499E4A09781278C2
:1036E00000F00100114380F0010007D18321217017
:1036F00008B1FFF715FBBDE831401EE00221217043
:1037000000281CBFBDE83140FFF70ABB31BD80B5C2
:10371000FFF712FD894991F9023001229A40521EA9
:103720001040C8704878002804BFBDE8014001F08F
:1037300043BDBDE8014001F030BD8748016849083C
:10374000490001600020834908707C4840780228C5
:1037500008BF01F083BD10B5784C607840B9FDF723
:10376000BFFAE178814203D3BDE810401C20BEE0DF
:10377000BDE8104001F043BD10B5704C0120E07170
:10378000ED20FFF741FF6078BDE8104055E780B5B8
:103790006F48704900780978084318BF00F0ACF909
:1037A000FFF7C2FA65490A7800F00100022A80F0AA
:1037B000010007D183220A7008B1FFF7B1FABDE812
:1037C0000140BAE700281CBFBDE80140FFF7A8BAD6
:1037D00001BD10B5594C607800281CBF012800F0CD
:1037E0008BF90420207000F021F92079564991F8D6
:1037F0002420401C2071C0B2824203D2BDE8104098
:10380000E12074E001F12400A178407B4A1C82424F
:10381000B8BF481CA070FFF77AFF83202070BDE876
:10382000104098E710B5FFF77FFA00F0010080F034
:1038300001044248017883290ED1817941B985215B
:1038400001700CB1FFF76CFABDE8104000204EE0AB
:103850008621017001F060FD002C1CBFBDE8104006
:10386000FFF75EBA10BDF8B504460D46FFF75CFAE7
:1038700000F00100314F80F001063878862812D11F
:103880008720387001F0B6FD0EB1FFF749FA78795C
:10389000844204D1002D0CBF00201B2000E0E92051
:1038A000BDE8F24023E0002E1CBFBDE8F140FFF769
:1038B00037BAF1BD10B5FFF737FA00F0010080F01C
:1038C00001041E48017886290AD18721017001F080
:1038D00091FD0CB1FFF724FAE920BDE8104006E0A5
:1038E000002C1CBFBDE81040FFF71ABA10BD10B580
:1038F0000446124800211B2CC171017004D01748E6
:10390000017801F0FE01017000F090F8FFF749FC2A
:10391000FFF780FC2046BDE81040FDF751BA10B516
:10392000084C206808B900F0E7F800F032F9216887
:10393000C86000F07EFE2168088210BD5050002053
:10394000AF4200207C400020644A002038880840B4
:10395000344F0020364F002090860840774F0020DB
:103960005F48002141700170704738B5040008BFFE
:1039700000F0C2F8FFF7D8F90546594841782143CD
:10398000417000F071F8002D04BFBDE83140FFF731
:10399000C7B931BD10B5040008BF00F0ADF8FFF79E
:1039A000C3F94F494A7822434A70002804BFBDE852
:1039B0001040FFF7B5B910BD10B5040008BF00F006
:1039C0009BF8FFF7B1F946494A7884F0FF031A40A3
:1039D0004A7008B9FFF7A4F9BDE8104026E080B5A9
:1039E000FFF7A2F93E4900224A700A70EF223D49D2
:1039F0000A60ED220A600A6008B9FFF791F9BDE894
:103A0000014001F007B810B5FFF78EF900F0010092
:103A100080F001043248407808B100F025F8002C0D
:103A20001CBFBDE81040FFF77BB910BD10B5FFF714
:103A30007BF900F0010080F001042948407860B96A
:103A400029480078000608D42848007828B9284872
:103A50000078000658BF00F01DF8002C1CBFBDE820
:103A60001040FFF75DB910BD80B5FFF75DF91C4947
:103A70000A7800F0010080F0010022B901220A70EA
:103A8000E321184A116000281CBFBDE80140FFF780
:103A900047B901BD70B5FFF747F900F0010080F0AC
:103AA00001040F48017899B100210170EF20114DF8
:103AB0006860ED2068606860FFF736F906462A20E6
:103AC000FFF777F96FF0040028600EB9FFF728F9C7
:103AD000002C1CBFBDE87040FFF722B970BD00008C
:103AE000764F002038880840344F0020364F0020A1
:103AF00050500020348808407047000080B50020F6
:103B000000F0C5FD4FF47F0000F01AF845486FF053
:103B100008014160016841F0080101606FF0100187
:103B20004160016841F01001016001BD3D4801683C
:103B300021F010010160016821F008010160DDE75A
:103B400038B5044600F085FDA04228BFFFF7D4FF3A
:103B5000FFF7EAF8054634480460204600F0E9FD26
:103B6000002D04BFBDE83140FFF7DAB831BD38B5EC
:103B7000FFF7DAF8044600F06CFD05460CB9FFF7D4
:103B8000CFF829480068854201D3002032BD28467D
:103B900032BD38B5FFF7C8F8044600F063FD0546AE
:103BA0000CB9FFF7BDF820480068854201D300201A
:103BB00032BD284632BD70B51B4D0446286884428C
:103BC00028BFFFF799FFFFF7AFF800F0010080F082
:103BD00001066C60204600F07CFD00F03AFD844256
:103BE0000AD112496FF0100008600EB1FFF798F883
:103BF000BDE87040FEF7A5BC002E1CBFBDE87040BC
:103C0000FFF78EB870BD7047FEF79BBC80B500F023
:103C100059FEBDE80140FEF7E1BC0348006870476B
:103C20000000000008880840405000200C88084030
:103C300062F30F2262F31F42401810F0030308D012
:103C4000C91A1FD3DB0748BF00F8012D28BF20F891
:103C5000022D130030B414461546103928BF20E950
:103C60003C00FAD8490728BF20E90C0048BF40F8BB
:103C7000042D890028BF20F8022D48BF00F8012D2F
:103C800030BC7047C91818BF00F8012DCB0728BFFA
:103C900000F8012D7047000080B568B9FF20FEF7DD
:103CA0008EFF0021002001F0EDFB16490020087076
:103CB00001201549087001BD144900200870BDE8B5
:103CC00004400FF2390101F0DDBB70B5104E04461F
:103CD0003078FF280D460DD00420FEF71BFE38B1CA
:103CE000C02101708570C47001463078FEF733FE44
:103CF000002070BD012070BD00000000810801F0AF
:103D00000101E2E7AC4F00203F5100202D5100207F
:103D1000D742002000F07FBC7949002048607047FE
:103D200070B504460D46164600F018F808B1466016
:103D300070BD1020FEF710FD78B1847205814660D9
:103D400000210160C1606E490A6812B9086070BD47
:103D50000A4611680029FBD1106070BD684A1268DC
:103D60002AB113898B4204BF937A8342F7D110465C
:103D7000704708B1002101817047F8B500F024F8C0
:103D8000074600F01DF804460FB9FEF7C9FF0CB155
:103D90000020F2BD0820F2BDF8B500F015F800F0E3
:103DA000010080F0010700F00BF8040018BFE66086
:103DB0000FB1FEF7B5FF0CB10020F2BD0820F2BD37
:103DC000324629462046ABE704460D461646FEF726
:103DD000ABBF70B504460D46FEF7A6FF00F001002C
:103DE00080F0010629462046FFF7B8FF040018BFFF
:103DF000FFF7BFFF0EB1FEF793FF0CB1002070BDBF
:103E0000062070BDF8B504460D460026FEF78CFF6F
:103E100000F0010080F0010729462046FFF79EFFD1
:103E200000B146680FB1FEF77BFF3046F2BD2DE9C9
:103E3000F04182B005460095FEF776FF304C616890
:103E40006918616008B9FEF76BFF2668002E51D033
:103E500000250027FEF768FF00F0010080F0010850
:103E6000BDF80200002804BF9DF80100002807D11A
:103E700030799DF80010884202D3401A307106E074
:103E80007068009981423ABF401A70607760B088CC
:103E900060B9F08860B9F06800281CBF318900293A
:103EA0000AD0B07AFEF758FEF0687060B08808B9A2
:103EB000F08808B1308930B93068002D0CBF20601F
:103EC0002860374600E035463668B8F1000F18BF65
:103ED000FEF726FF67B1B888002804BFF8880028DD
:103EE00003D13989B87AFEF737FE3846FEF79AFCD7
:103EF000002EAED1BDE8F381014840687047000054
:103F000078500020034800218171018070470149E9
:103F1000887170477050002080B51420FEF71CFC9B
:103F20001249086014220021FEF7C4FC002001F0B1
:103F3000ABFA0120FDF7CAFC022001F0EFFB0320E1
:103F400003F06CF9042003F043FD052004F036F87B
:103F5000062005F059FA072005F05CFC082006F061
:103F6000A5F8BDE80240092000F016B8D0500020A6
:103F700093542000D5182000655720004D72200072
:103F8000EF7E2000158020003F942000279820001D
:103F9000259F2000AD3F200012490870704780B572
:103FA00006F0C0F8BDE8014006F06CBA38B50C4622
:103FB00020040BD50B4D01E0FEF7BEFC2878FEF780
:103FC000F9FC0028F8D184F4004032BDA00602D5E7
:103FD00084F0200032BDE00602D584F0100032BD2E
:103FE000002032BD2651002006F04EBAEFF31080BB
:103FF00072B67047EFF3108062B67047DFF898141E
:1040000000200860704780B503F0B6F858B9002268
:10401000012100F039F930B1016800291CBFBDE869
:10402000024001F092BD01BD80B5042000F01EF9F0
:10403000DFF868140978814207D3FF2000F016F9F1
:10404000DFF85C140978814201D2012002BD002012
:1040500002BD2DE9F04107468846387B00F023F980
:1040600000240546012625BB7A89397B386800F093
:10407000B7F8050062D02C810124387C2874788A36
:10408000688207F1100007F0EAF968614FF67F4196
:10409000388B2883B87EA8766889084068814107F4
:1040A0004FBF40F08000DFF8FC13097840EAC110F0
:1040B00068816889C109B8F1000F01F0070112D0C9
:1040C00002226A732A68927B520703D5DFF8D8234D
:1040D000128A2A8121B34FF67F421040491E40EADE
:1040E000C11068811CE009B9002619E0810605D5D8
:1040F000FEF70EFC00F07F005F3008E0C00605D53B
:10410000FEF706FC00F00F000A3000E001202881D5
:10411000202104206873DFF894030078FEF71CFD6B
:104120006CB12A89697B284600F06DF838B168695E
:1041300008B1FEF777FB2846FEF774FB00263046F1
:10414000BDE8F0813EB500F0AEF8002498B3417BA5
:10415000062930D101684489097A8DF80810016870
:104160000988ADF8001000F0E5F8200522D5BDF86B
:104170000010002000F021F8E0B9DFF82C43A18CFA
:1041800000A808F05AFD002100200CE028680188F2
:104190004FF6FF7291420DD0A18C08F04CFD1A2809
:1041A00008D00021284600F008F80500EED10020D4
:1041B00008F045FD012420463EBD18B9DFF8D802BD
:1041C000006800E0406840B142891205FAD5002934
:1041D0001EBF026812888A42F4D1704701207047DE
:1041E00070B504460D4616461C20FEF7B5FA48B1D8
:1041F000002141730573468101818173C17304609D
:104200004161416070BD70B504000D4616462BD06B
:10421000012D284606D100F029F8A54909788142E8
:104220000CD207E0042D07D100F020F89B49097853
:10423000814203D2112070BD022D15D10020606093
:10424000657326819448016831B100E001464868F1
:104250000028FBD14C6000E00460944800782021E5
:10426000FEF77AFC002070BDC12070BD8A4A12683A
:10427000002105E0537B5268834214BFFF28491C8C
:10428000002AF7D1C8B2704710B98348006800E02F
:10429000406838B1437B8B42FAD11AB103689B7BEB
:1042A0005B07F5D470477C49096800E0496821B193
:1042B0000A7B8242FAD1084670470020704776494F
:1042C000096800E0496861B10A6813888342F9D13E
:1042D000126A1378527803EB0222D205F2D4084610
:1042E000704700207047F8B50446002620000D46B0
:1042F0000AD06948076800E07F682FB12946384630
:10430000A0470128F8D13E463046F2BD0020704754
:1043100010B561490A681346002401E01C465B6839
:104320003BB18342FAD15868934201D1086010BD75
:10433000606010BD10B5040011D0FFF7E9FF2068E0
:10434000006AFEF76FFA2068FEF76CFA606908B140
:10435000FEF768FA2046BDE81040FEF763BA10BDCC
:1043600038B501684C4A098812680023002409E026
:10437000557B052D01BF641C15682D888D42526840
:1043800008BF5B1C002AF3D14A4A47491278DBB2C6
:1043900093423FBF484A1278E4B294422CBF0122B4
:1043A0000A8A02814FF6FF7305224273428942F462
:1043B00000624281006802889A4204D0898C08F029
:1043C0003AFC1A2804D1BDE83240012008F037BC7D
:1043D00031BD10B548B1A0F108010A68002A04BF38
:1043E0008A79FF2A03D0FEF7A7FA052010BD2F4CCB
:1043F00022788A7131490A7801463148FEF789FBF3
:10440000012806D120784FF40051FEF7A5FB0020CB
:1044100010BD042010BD70B5FEF786FC284D2E6837
:1044200000F0010080F001048EB1204856F8081C0D
:10443000007800294FF4005102D0FEF78DFB01E017
:10444000FEF796FB002231462846FEF743FB0CB1EF
:10445000FEF766FC304670BD70B504460E4806682F
:10446000002514E030680088A0420FD10020308180
:10447000B07A400744BF307B09F056FD06207073C8
:10448000F0213068407B01F0C0FB6D1C7668002E87
:10449000E8D1E8B270BD00000C510020F298210074
:1044A000F3982100D9420020EC490020A8500020B8
:1044B000F1982100F5982100F6982100019921003A
:1044C00010510020F0B5DFF8340489B014210160E8
:1044D0003F2181605521C160FC21DFF82444DFF8D1
:1044E0002454DFF8246461638521E167012141617F
:1044F000152141620021A967102101630E2141634A
:10450000032181630920706504210B20086080214C
:10451000FF2030602A20FEF70EFC80212B20FEF7C2
:104520000AFC2A20FEF719FC2B20FEF716FC80213E
:104530003120FEF700FCDFF8D403DFF8BC7300681D
:10454000000C3860FEF7F0FB0221F1670022DFF873
:10455000C0130A6028224A6008B9FEF7E1FBDFF8C1
:10456000B40300680003FAD5306F40F003003067F1
:10457000306F4007FCD5306F40F00A0030673120C3
:10458000FEF7EBFB48202060FFF76EFA206CC007B7
:10459000FCD500201021A26F52084041491E80B274
:1045A000F9D1002814BFB0F5607F4BF6BE20DFF8CC
:1045B0006813C2B20A6000120860796808000ED061
:1045C000002000220823A66F760852415B1EFAD114
:1045D00000ABC254401C2028F3DB00A88847FFF73B
:1045E00059FA40202060206840F020002060002020
:1045F00028606860A860E8602861686109B0F0BD63
:10460000DFF81803016821F00C0141F0040101609A
:104610008069C0B27047DFF80403016821F00C0123
:1046200041F0040101608169406900EB012080B222
:10463000704710B5FEF778FBDFF8E41201220A603C
:104640008A68496841EA022408B9FEF769FBA0B20A
:1046500010BD80B5FEF768FBDFF8C41200220A60C7
:104660004A6806E080B5FEF75FFBDFF8B41210225F
:104670000A604A698DF800200A698DF80120C9682E
:1046800000F0ACF808B9FEF74BFB009802BD01B58D
:10469000000E18BFFFF730FAFFF7DBFFA149CA6829
:1046A0008018009A801AC860FEF73EFB00229C49E1
:1046B0000A6000289DF800204A619DF801200A61E7
:1046C0009DF80220CA6004BFBDE80140FEF728BB88
:1046D00001BD11B5002481B0000E18BFFFF70CFA20
:1046E000FEF722FB90490A6800F00100D20680F034
:1046F000010004D50A6822F0100201240A60302269
:104700008A609DF80420CA619DF805208A619DF8A1
:1047100006204A616FF010024A601CB10A6842F03C
:1047200010020A6000281CBFBDE81340FEF7F8BA6B
:1047300013BD11B5002481B0000E18BFFFF7DCF9DE
:10474000FEF7F2FA78490A6800F00100120780F0DB
:10475000010004D50A6822F0080201240A60202220
:104760008A609DF80420CA619DF805208A619DF841
:1047700006204A614A6822F008024A601CB10A68B1
:1047800042F008020A6000281CBFBDE81340FEF793
:10479000C7BA13BD38B5644C2068616800EA0105EA
:1047A000E80604D5FFF730FA6FF0100060602807C4
:1047B00004D5FFF72BFA6FF008000DE0E8070CD5E1
:1047C0005A485B49006891F9002040B28242B8BF64
:1047D00002460A706FF00100606031BD8DF8021072
:1047E00000218DF80310704770B5524C666C2A207A
:1047F000FEF7DFFA504D28683040000705D56FF00E
:104800000800286000F001FE13E028683040C00670
:1048100005D56FF01000286000F0FEFD09E0286863
:104820003040C00705D5606C40084000606400F06F
:1048300093FB206C69680840400707D500F024F915
:104840006FF00400686020684006F7D470BD10B5B2
:104850003A4804682B20FEF7ACFA39480168214039
:10486000490603D56FF04001016010BD0168214089
:10487000C90708D56FF001010160FFF7B0F8BDE886
:104880001040FFF7F1B801682140490706D56FF0E5
:1048900004010160BDE8104000F0A4BB10BD244934
:1048A0006FF07F0008702048016841F0010101604D
:1048B00070471D4801684908490001601C4890F98B
:1048C0000000704738B5FEF72FFA00F00100154DD3
:1048D00080F00104287828B9FFF79FF9E9684018AB
:1048E000E86001E000202870002C1CBFBDE83140CA
:1048F000FEF716BA31BD000048500020A4860840DB
:10490000248608409085084094870840F80F2800C6
:104910001488084004200D4014700D4000700D40B4
:10492000108808408C4F00200888084060860840A6
:104930002A5100204C860840308808409486084060
:104940002C88084004E011F8013B40F8043B521E5B
:10495000D2B2002AF7D1704704E050F8043B01F8C6
:10496000013B521ED2B2002AF7D1704738B5044637
:104970000D0008BFFFF7C0F86D1E14F8010B0B49BE
:104980000860EDB2002DF7D131BD38B504460D00F9
:1049900008BFFFF7B1F80548006804F8010B6D1E69
:1049A000EDB2002DF7D131BD00000000288808408D
:1049B000DFF868060021C172416181800FF2ED01CC
:1049C00001610021817181818173704738B5DFF801
:1049D000504605202060FEF7A7F900F00DF8DFF83B
:1049E00044166FF0040008600DB9FEF799F9E06B0A
:1049F00040F00400E06331BD05462A20FEF7D9B936
:104A000080B5FEF7ECFFDFF8141600204871BDE812
:104A10000240ECE210B5DFF8044601206073207B11
:104A200018B900F003F80020607310BD38B5DFF846
:104A3000F005DFF8F045016C4908490001640521E3
:104A40000160ED2060606060FEF76EF9FFF7D4FF53
:104A50006FF0040020600DB9FEF762F9DFF8BC4585
:104A6000606918B104F11400FCF7C9F80FF23D00B9
:104A7000A17920612079084305D000202071A07120
:104A8000BDE8314071E231BD10B5DFF89045607B83
:104A900058B9012020732069804700202073607B73
:104AA00018B1FFF7C3FF0020607310BD2DE9F84F68
:104AB000DFF868452079002708B1FFF71DF881204D
:104AC0002071DFF86405007838B1DFF86055686A56
:104AD000000606D4686A400603D4277100F045FA40
:104AE00048E100F002FCA86E40084000A866A771EB
:104AF00004216079A0722046FFF747FF2078DFF895
:104B0000308500F07F00C01EE071C0B27D28BEBFBE
:104B1000607800F0070104296ADA00F00700022833
:104B200004BFE07A0028DFF80C6539D100F071F994
:104B3000FEF7FAF800F0010080F0010530788628D1
:104B40002AD1DFF8F464306808B9FEF7D5FF9DF983
:104B5000000000AFA0F14908787800F07F094946CD
:104B60004FFA88F0FEF7DAFB31684877306880F852
:104B70001E90306880F81F800DB1FEF7D1F878786C
:104B8000000606D5607800F01001E078FEF76BFEB5
:104B900033E0FEF78FFE30E07DB3FEF7C1F82CE086
:104BA0003078862808BFFEF785FE6078A17A71B15B
:104BB000E27A62B9012935D0022902D107221042D6
:104BC00030D1032903D100F0070103292AD1A178AC
:104BD000C1F381028DF802204FEA91191146DFF8E6
:104BE0005C24126862B9B9F1010F18BF012907D11D
:104BF000ED20C8F80800C8F8080000F099F9B9E0FD
:104C00000FF25042895C19F802205618B9F1000FD2
:104C1000F6B203D0410644BFB61EF6B2E179B21C2B
:104C2000914202DA00F0AAF9A4E0891B891E6172A0
:104C3000000748BF2527C9B2C8194C3080B2FBF71E
:104C4000D2FF606118B9E820C8F80800EAE7E07A06
:104C5000002718B9607800F02000A071A07990B307
:104C6000FEF762F800F0010080F0010A607800F0C1
:104C7000070003280CD1FBF7A1FF00286BD1DFF858
:104C8000C0030078002862D009F01BFDFE2862D026
:104C9000286820F004002860FEF746F88346FFF7F6
:104CA000ACFE6FF00100C8F80000BBF1000F08BFB8
:104CB000FEF736F8A86E40F00100A866BAF1000FC2
:104CC00018BFFEF72DF8606900F14C014160011D2D
:104CD0004268CA63627A0A7180F8442061780907E1
:104CE0000FD5032180F84410611C606990F84420BE
:104CF000006CFDF7C7FD6069016C90F84420511805
:104D00000164606980F8249061699DF8020081F86F
:104D10002E00FFF7A7FC61690863FFF78AFC616951
:104D20008886607800F0070008736169E07881F890
:104D30003D006178A078C0F3011001F078010843CC
:104D40006169384388735EB900F05EF812E0FBF7E2
:104D500028FF00289CD02868042740F004009AE728
:104D600026726178207A090758BF401EA8620FF2A8
:104D700009002061BDE8F18F30B5A84C207A85B0DC
:104D800008B9FEF7B9FE00F043F8A07800A9C0F317
:104D90008100C8B162699DF800304D7803EB0523AE
:104DA00013870328138FD38608D10DF1020102F176
:104DB0002600FDF7A1FF0DF10A0105E08878C9780A
:104DC00000EB0120D08401A9A078800915D0626988
:104DD000937B5B0605D40B784D7803EB0523D386D4
:104DE000891C032804D102F11C00FDF785FF04E0B3
:104DF0000878497800EB0120908300206169C8752C
:104E000000F002F805B030BD0FF23100206103E080
:104E1000217A00A8FFF7B9BD8048814A417A29B9B3
:104E2000012111600FF23901016170471029A8BFFB
:104E300010210172007A401E1060704710B5774C47
:104E40006069217A006CFFF7A0FD6169207A0A6C25
:104E500082180A64617A081A6072BDE81040DBE7C4
:104E60002DE9F8436D4D002402212846FFF78DFD02
:104E700068786E4F00F080085FEA080002D1E87A97
:104E8000022840D1E720FEF7BFFB02202871FEF781
:104E9000CDFD2857A0F14906687800F07F09494602
:104EA00070B2FEF73BFA696981F83A00686980F8E8
:104EB0003C60686980F83B906869011D00F14C0214
:104EC000CA6390F844300E7942689B1B9A1842607E
:104ED000887A400706D51078042803D0386820F077
:104EE000040038605648007818B109F0F1FB00B1B1
:104EF00004246869817B44EA08021143817368696C
:104F0000FBF782FE0BE0E820FEF77EFBB86E400860
:104F10004000B866AC7105F11400FBF770FE00208C
:104F200068610520B8624748C5F81000BDE8F14344
:104F300045480168490606D50068000603D4434881
:104F4000ED21016001600021344801718079002861
:104F500008BF00F00AB8704730480021817100791D
:104F6000002808BF00F001B8704780B5FEF75EFD6D
:104F7000FEF717F9BDE80140FEF709BC10B5274C54
:104F800030492069884218BFFEF7B6FDE079002855
:104F900004BFBDE81040FFF7CBBF1028A8BF10200A
:104FA00020721F49207A401E08600FF2090020611C
:104FB00010BD00001FB5194CFFF72AFFE079217AD8
:104FC000401AE071C0B2164928B1102809DA2072DF
:104FD000401E08601FBD052008601A482061FFF7C9
:104FE000A7FF1FBD0D48817B491C817312E510B5D9
:104FF0000A49174CC872010005D1002020602068C2
:1050000040F0090007E002281CBF0128FEF774FDEC
:10501000206840084000206010BD0000304F002094
:105020005086084034880840764F00202886084083
:1050300030880840505000207C400020485000201C
:1050400028510020AD4A20004C860840388808408E
:105050000086084000BE040A62B38B0708D0521EC7
:1050600011F8013B00F8013B00F024808B07F6D1DA
:10507000830740F0208000BF103A07D330B4B1E876
:105080003810103AA0E83810F9D230BC530724BFCA
:10509000B1E80810A0E8081044BF51F8043B40F8FC
:1050A000043BD20724BF31F8022B20F8022B44BF67
:1050B0000B7803707047083A07D3B1E80810083A34
:1050C00040F8043B40F804CBF7D25307E4E7000074
:1050D00038B5134C207808B3124D29680903FBD565
:1050E00011490A6842F003020A600A685207FCD5B7
:1050F000022804D109F090FBFFF768FC08E00128C2
:1051000018BFFEF7F9FC2868000358BFFEF7F4FC4F
:1051100000202070BDE83140FEF775BC31BD0000B5
:10512000AF42002004200D400488084010B5FDF770
:10513000FBFDDFF8281300220A604A688C6808B972
:10514000FDF7EEFD2406600E10BD38B5C248C44C14
:105150000068C00648BFFEF7CFFCC24801210167C6
:105160000160E220A060FF20A060FDF7DDFD00F0FF
:105170003DF96FF0100020600DB9FDF7D1FDFDF78E
:10518000D3FD00F033F96FF008002060002D04BF5C
:10519000BDE83140FDF7C4BD31BD80B5FFF7D5FF97
:1051A000B148BC210160B82101600F210160D0210C
:1051B0000160016001600EE080B5FFF7C6FFAA48FC
:1051C000BC21016017210160812101601021016073
:1051D000D22101608121016010210160D221016092
:1051E000D92101600121016009210160BA2101601A
:1051F00001210160C5210160D221016001BD10B50E
:1052000000F064F8994C08606FF002002060FDF730
:105210008BFD0021616000F00100A168E268944B01
:105220001B68122B80F00100D2B204D2C9B252EA3C
:10523000010308BF491C03236360C9B2A160E26097
:1052400008B1FDF76DFD00F045F8E120E06210BD0A
:1052500080B5FFF77AFF8448BC21C0E72DE9F04113
:105260007D48016841F010010160016841F00801CA
:105270000160FDF759FD00F0010080F00108774D55
:105280007C4C0020286068686E69F6B206F00F005A
:10529000C0F10F07FFB22760FEF7A1FB012076499E
:1052A0000870E120A862002028606868686986426A
:1052B00003D0022FA4BF781E2060B8F1000F1CBFDE
:1052C000BDE8F041FDF72CBDBDE8F0816B486949B0
:1052D000007870476048016841F010010160016882
:1052E00041F008010160FEF7BFBB5E48006800B1F5
:1052F000704780B558480168C9060CD5016821F08F
:10530000100101600068000748BF00F07EF8BDE8AA
:105310000140FEF787BA01BD2DE9F8434E4C2068E5
:10532000C00648BFFEF7E8FBFFF700FF8146544880
:105330004E4F0678152EB8BFFEF7DEFB09EB0600D0
:105340001438C0B2142190FBF1F1142202FB1105B4
:10535000484E491C0220EDB2B0605FFA81F8C6F8F1
:105360000080152DA8BFFEF7C7FB6FF00200386064
:10537000FDF7DAFC03213E4A796000F00100126873
:105380006902122A80F0010002D289B201B901211A
:1053900089B2CAB2BA60090AF96008B1FDF7C0FC67
:1053A000E220F862FF20F862FDF7BEFC00F01EF874
:1053B0006FF0100078620DB9FDF7B2FCBC20F86206
:1053C000B820F862D220F862206840F01000206017
:1053D000E120F862FFF7AAFE484505DA306840454B
:1053E00002D13068401E3060BDE8F18305462A20B6
:1053F000FDF7DFBC1848016821F010010160E221CF
:1054000019480160FF21016070471348016821F0CD
:1054100008010160FEF783BA80B50F48016821F0EA
:10542000100101600F480168002904BFBDE8014078
:10543000FEF7F8B90168012904BFBDE80140FEF795
:10544000C8B90068022818BFFEF756FBBDE8014046
:10545000FEF730BA0000000090860840108808402F
:105460003088084090870840388808400C880840F9
:105470004850002088870840764F00205350002075
:10548000644A002070470000A24908701021FDF70F
:1054900063BB70B50C4620048CB09E4D0ED46004E6
:1054A00033D509F05FFA18B109F09EFA09F03FFA16
:1054B00084F48040D3E03046FDF73EFA2878FDF7CB
:1054C00079FA06001ED0307801280BD01A280DD0AA
:1054D000D1280FD0D32811D0FD2804BF304609F0C1
:1054E00077FDE8E7706809F07FFAE4E7304609F0F5
:1054F00082FDE0E730460AF038FDDCE730460AF08E
:1055000081FED8E784F40040A9E0A00407D509F0A3
:1055100029FA08B109F068FA84F400509FE0E00429
:105520007D4E23D5B06848B9301DFDF7AEFAB060A6
:10553000F06018B14078401D708001E0B06890B113
:105540007288F168002004F0A1FF7188091A718047
:1055500089B229B9B068FDF7EFF90020B06002E028
:10556000F1684018F06084F4805078E0200505D59B
:1055700000200BF077F984F4006070E0600505D539
:1055800001200BF06FF984F4806068E0A00505D578
:1055900002200BF067F984F4007060E0E00505D5A7
:1055A00003200BF05FF984F4807058E0E0064ED5DC
:1055B000307808BB01208DF8000000A904208DF888
:1055C000010001208DF802000520ADF80400AA209A
:1055D000ADF80C007820ADF8180005208DF8060015
:1055E00001208DF820000FF209100A90002004F02D
:1055F0004AFF28780BF048F90022022140F601709A
:105600000BF0D4FD0022022140F602700BF0CEFD1B
:105610000022022140F603700BF0C8FD0022022197
:1056200040F604700BF0C2FD0022102140F6057018
:105630000BF0BCFD0022102140F606700BF0B6FD09
:1056400009F002FE0BF0F7F884F0100007E02007E5
:1056500004D509F089FA84F0080000E000200CB0BD
:1056600070BD80B52C4A127832B9481D80B2FDF762
:1056700051F970B1401C02BD00F0E00060280846FE
:1056800004BFBDE8024009F0F3B8BDE8024009F0EC
:10569000FAB802BD70B5204D04462878A8B9207824
:1056A000C61CF1B220460BF0F2F8F6B2611E30557E
:1056B000FE200870281DFDF7C8F9BDE870401548A8
:1056C00000784FF48051FDF747BA607800F0E000B1
:1056D000602804D12046BDE8704009F0D8B82146C2
:1056E000281DFDF7B2F9BDE8704009F00AB90000C5
:1056F000084A127801291CBF0229042902D0102966
:1057000003D0704711460BF0CFB84FF480511046CC
:10571000FDF722BA2B510020AC4F002010B5DFF866
:10572000D818DFF8D8480870002084F826000BF05D
:10573000D9FEFEF763FC0020606706F04DFD00F027
:1057400056FC18BF012803D10BF076FF07F0AEFA24
:105750000BF0DDFEDFF8A81800200860BDE810405F
:1057600007F064BA2DE9F043DFF88C5828780C462E
:1057700021048FB01CD5FDF71DF9050015D00020C0
:105780000FF2F02100E0401CC0B2024611F83230A6
:10579000FF2B07D02E78B342F5D101EBC20128468A
:1057A000496888472846FDF7C7F884F400405DE162
:1057B000A1040BD5FEF72FFE050004D000F032FC4B
:1057C0002846FDF7B9F884F400504FE1DFF83418AB
:1057D000DFF834780978022984F4804627D1E3077A
:1057E0000ED5387D0F2808D1002000F07CF920B1BB
:1057F000DFF81808006800F02AFA84F0010035E1AB
:10580000630414D5DFF80808017806290AD10B21B2
:105810000170DFF80008017897F90020012090401E
:105820000CF075FDDFF8F00702682878FDE0A306AC
:1058300040F1A1802021FEF7E5FA6968084308BF1E
:1058400001260BD0FEF758FB6968002621B188427B
:1058500034BF4FF0FF36461A76085BD000F03EF9B1
:1058600007460DF1140832E0FF208DF800008DF896
:10587000010001AA4FF0FF308DF802003868C17FA7
:10588000006A05F080F801281BD1788A40F080007A
:10589000A8F81E00B97B8DF83410B97A090706D52F
:1058A00040F48070A8F81E000DA9387B88707869D4
:1058B00010B1007BADF81400002200A901A80CF083
:1058C000FFFF06207873387BFEF73CFC4F460FB392
:1058D000002204213846FEF7D7FC81463889B042C1
:1058E0002CBF801B0020388138890028EED1B87B7E
:1058F00001280AD1B87A4007B6D406207873B721B8
:105900003868407B00F081F9E0E70028ACD1012045
:105910007873DBE7FEF777FB002201210020FEF71A
:10592000B3FC18B128782021FDF716F900F0D6F85D
:10593000E8B1078903E001898F4288BF0F46002242
:105940000421FEF7A1FC0028F5D1B6B22878BE42AA
:1059500002D2BF1BBFB227B92021FDF7FDF80020FE
:1059600005E07A002021FEF708FAFEF7C5FA686024
:1059700084F020007AE0002918BF01295BD1E006FD
:1059800004D507F047FD84F010006FE0600604D5F1
:1059900008F0A1F984F0400068E0200604D50CF07E
:1059A0004BFC84F0800061E0E00504D506F000FACD
:1059B00084F480705AE0200516D507F046FADFF827
:1059C0005C06007801280CD1DFF85406007840B15D
:1059D0004FF47A7101FB00F228784FF40061FEF772
:1059E000DBF984F4006041E0E00408D5687818B180
:1059F0000020687007F029FA84F4805036E06004D3
:105A000019D5DFF8800C0068010012D0DFF8781C8F
:105A1000097801290DD18047DFF8700C006801007A
:105A200018BF804728784FF47A724FF48041FEF710
:105A3000B3F930461AE0A00504D506F07EF984F4E7
:105A4000007013E0600510D5DFF8440C008805F005
:105A5000BFF9DFF8BC0C008805F0B6F9B889012160
:105A60000DF044F884F4806000E000200FB0BDE841
:105A7000F08300000100000019672000060000000C
:105A80002D6F200008000000B16E20000B00000008
:105A9000237020001000000051DF20000A000000E9
:105AA0002571200002000000C568200005000000EC
:105AB0006D6C200007000000DD6920000C00000074
:105AC000615D20000D0000002560200064000000E2
:105AD0000B1B2100FF000000000000000022042139
