:020000040020DA
:100000002072002039BD210069BD21006DBD210095
:1000100071BD210071BD210071BD210000000000F3
:1000200000000000000000000000000071BD210081
:1000300071BD21000000000071BD210041BA210006
:1000400071BD210071BD210071BD210071BD210074
:100050000000000071BD2100176F210071BD21005B
:1000600071BD210000000000000000000000000041
:10007000000000000000000071BD21000000000031
:10008000000000000000000071BD210071BD2100D2
:1000900071BD210071BD210071BD210071BD210024
:1000A00071BD210071BD2100195521007F5521002E
:1000B00071BD210071BD210071BD210071BD210004
:1000C00039BE2100C554210071BD210071BD210040
:1000D00071BD2100000000000000000000000000D1
:1000E0000000000000000000000000000000000010
:1000F00071BD21000000000071BD21000000000062
:100100002DE9F04794B0044602F018FB00254FF6A5
:10011000FE7A0028A946D04640F0ED80207FDFF827
:10012000886CE0B1DFF8000C0078410141EA800002
:100130002077FF20618802F07DFD50B1E08A40F019
:100140000400E0820125207F40F001004FF6FF7897
:1001500020773078002814BF01284FF040096088CC
:1001600000F070FF08B100206076A07E18B9DFF8BB
:100170003C0C0078A0762078DFF8AC7C010603D533
:1001800000F00300207006E0E07E20B93878E076C9
:100190003878401C3870207E01280BD1DFF88C0C99
:1001A000007828B1F87A002804BF2078002801D10F
:1001B000002020763078002818BF012818D1B87B9D
:1001C000800715D555B9608800F03CFF80B12078D4
:1001D00020B12069007800F003FF48B1E18AA07ED9
:1001E0004A0675D5012873D14FF6FB700840E082AE
:1001F0002078012802BF20690078022803D1E08A14
:1002000040F04000E082A07D400639D4002D37D177
:100210003078002818BF012832D1B87B80072FD54D
:100220006188607E4B46A21D04F0C4F828B100200E
:100230006076E08A40F02000E082A07970B16188A9
:1002400004F1080000F0A9F980466088804504BFE9
:100250000020A071E08A40F04000E0822078012870
:1002600004D0A18860884A4603F0D2FCA188608847
:100270004A4602F02CFF18B1E08A40F02000E082EC
:1002800004A9204600F0E1F8D045054608BFB4F8BF
:10029000028095B320789DF810308DF814000694F4
:1002A0004146608DADF8160005A8039094F82C0027
:1002B0000290E08A0190607D00902846FA8A00F062
:1002C00053F80446102C19D1284604F07DFA15E0A5
:1002D0008DF82E006088ADF82600A088ADF82800C3
:1002E000E07E8DF82F00627DA18807A803F022FE32
:1002F00000287FF47DAF112001E01024204614B0C7
:10030000BDE8F08710B58EB0044601A8342104F092
:100310008BFAA11C02A84A8802810988C18004F1D5
:1003200010010A7902760A6842620A7B42700A8BDF
:1003300082810A7A82704A7A8DF808204A8B428537
:100340000022087F8DF8340000A9FF208DF80000FE
:100350008DF801004FF0FF308DF8020001A804F085
:10036000E5FA00200EB010BD2DE9F04F804687B0B1
:100370000D4693469A462420102704F0BFF9002822
:1003800000905ED0242201F034FDDFF81C9A119C0D
:1003900099F800000026002818BF01280FD1284630
:1003A00004F05CFD40B10079012818BF032803D197
:1003B000600658BF44F48064600548BF0126DFF83A
:1003C000680A0099808C4881ADF818B00220009925
:1003D00008730099087200980580009880F81FA0A3
:1003E0000098109D45730098C0F82080ADF80A4031
:1003F0008DF80C50139AD2E90001CDE9040112984E
:100400008DF81A00314600A802F0ADF9012815D187
:1004100099F80000002818BF01280DD166B12846C0
:1004200002F0CBFA040007D02068008802F060FADE
:1004300010B1204602F01EFB002702E0009804F0F5
:10044000C3F9384607B0BDE8F08FF8B50E4604464C
:100450000820617F01B11020A17F01B10830217F08
:1004600001B1401CA17919B1217A4900891C0818F1
:100470006070207E0028DFF83009007814BF0E2558
:100480000025022802BFDFF8500C0078012808D1AF
:100490002078012805D0DFF8440C007810B1012045
:1004A00000E0002084F834006178207DDFF878795E
:1004B000081828183070207E28B1387B05F039FBE9
:1004C00031784018307030787528A8BF002662DA7D
:1004D00004F014F906005ED02078B97C40EA81006F
:1004E000617E01F0030140EA8110217F09B14FF4E0
:1004F00080710843217E40EA4120617F40EAC120AB
:10050000A17F40EA0130A17940EA812094F83410BB
:1005100040EA413080B230700827000A707060886D
:10052000B0706088000AF070A0883071A088000A5E
:100530007071A07EB071E07EF071607F28B1216A99
:1005400006F1080005F036FB1027A07F28B1616A8C
:10055000B81905F02FFB0837FFB2A07980B1207AD7
:10056000B855781CC0B2617A8155471C207AE16881
:10057000FFB24200B81905F021FB207A07EB4007D3
:10058000207F08B1FFB2B8556078227D21698019BB
:10059000281805F013FB3046F2BD30B583B0044691
:1005A0000D4601AA00A9284603F0FEF9A0B99DF85E
:1005B00000002070019860609DF8000048B1401E66
:1005C00060709DF80010019800EB410030F8020CBB
:1005D0003EBD607028463EBD4FF6FE703EBD2DE923
:1005E000F84304460F46154634220021284605F0FC
:1005F000FDFA0126082F62DB2F702078627800EB6D
:100600000220294680B200F06FF800B10026A078E1
:10061000E17800EB012068816179207900EB01200D
:10062000A881A079A874E079E87408206870E87956
:1006300018B104F1080000F0DAF8287A20B16878DF
:100640000019A86100F0D4F8002005F1240785F80E
:1006500020003860687920B16878015D6971401CBC
:100660006870687F38B36878411C6970005D85F8F0
:100670002000481CC9B2687095F82020095D85F8F3
:100680002110914215D2DFF8B41BDFF85C9C097889
:10069000914238BF0C22C0B24FEA420801194246CB
:1006A000484605F08BFAC7F80090687840446870B7
:1006B00001E00020687768782978814201D2002023
:1006C00010E002197A60081AA979287749B10E3822
:1006D000287702F10E00786000F08EF8297F081A62
:1006E00028773046BDE8F2838A1C00F003031370BC
:1006F000C0F38303537003069B0F9370430A03F008
:1007000001031371030A03F00103D370830A03F09A
:100710000103D376C30A03F001035371030B03F003
:1007200001039371420B02F0010281F83120800B2A
:10073000704710B5DFF8A8298479D37A00212CB14D
:10074000002B04BF8078002807D105E0002B1EBFD6
:100750004089D28A904200D00121084610BDF8B5E8
:1007600006460C4630781546727800EB0220294682
:1007700080B2FFF7B9FFB078F17800EB0120688113
:100780007179307900EB0120A881B079A874F079F3
:10079000E87408206870E87918B106F1080000F0E4
:1007A00026F8287A20B168788019A86100F020F82E
:1007B000687920B16878815D6971401C687028464D
:1007C000FFF7B7FF070010D16878AA79811912B92D
:1007D000A962201A08E001F10E00A86200F00CF8EE
:1007E0006978611A0E39081A28773846F2BD6861AF
:1007F0006878083068707047DFF88C0C007B05F073
:1008000098B910B5DFF8844C2146E22005F022FCAF
:10081000204610BDDFF8700CC08A7047DFF8680C06
:10082000408B704701464A2005F014BC38B5DFF80C
:10083000604C2578681C2070284602F0BEF800281D
:10084000F7D1002DF5D0284632BD2DE9F74F81466E
:100850009A4601F0ADFBDFF808670C9CDFF8C8B5DD
:10086000002705003078B8460BD1002C54D19DF8F4
:100870000820BDF80410484603B0BDE8F04F01F071
:10088000EABC94B3002818BF012805D1DFF8040C96
:100890008068010018BF8047BAF1000F08BF2F70B1
:1008A00037D03078002818BF012845D19BF80E00BA
:1008B000800741D5DFF8DC0BC268100002D051463A
:1008C00028469047DFF8D00B00782978421C9142E7
:1008D000BCBF491C2970297881422DD1484603F0BC
:1008E000D0FD012785F8018026E0BAF1000F0AD17A
:1008F000A8789DF8081008180004400CA870A87883
:1009000008B90120A870DFF8940BA9780078884214
:1009100012D24FF001080FE0012C0DD1BAF1000FF7
:100920000AD0002818BF012806D19BF80E008007C6
:1009300044BF484603F0A5FD3178DFF8580B007836
:10094000022908BF012C0BD1BAF1000F07D0DFF844
:100950004C3C1B78401CC0B2984201D301270020B8
:10096000DFF8303B187057EA080041D0002918BF63
:10097000012914D19BF80E00800710D5484604F0D9
:100980006DFA60B1B8F1000F03D0417901F0FE01BA
:1009900041716FB3417941F00101417100E03FB312
:1009A0003078002818BF01280ED19BF80E00800770
:1009B0000AD5484604F02CFA30B1494603B0BDE8E8
:1009C000F04F002004F0F1B8BBF81A0081450FD1B8
:1009D0004946012004F0E9F83078022808D103B034
:1009E000BDE8F04FDFF8100C0078012105F06DBC78
:1009F000BDE8F78FDFF8001C0B78012803D1012137
:100A0000184605F045BADFF8441C086020B10246DC
:100A10000121184605F02DBC0121184605F055BCF2
:100A2000DFF82C1C08807047DFF8CC1C088070476A
:100A300010B5DFF8F4237421212006F0D1F8044624
:100A400006F07EFC044300F04AFC18BF012802D1E6
:100A500004F090FB0443DFF8A40C0068010001D00F
:100A60008047044302F05BF9044307F0B7F92043E1
:100A700010BD80B507F0EFFC00F0A6F806F070FCA2
:100A8000DFF8DC040078002814BF012804F08BFB99
:100A9000DFF86C0C0068010018BF804702F050F9C5
:100AA000BDE8014007F038BA70B5DF4D82B02A4684
:100AB0007421212006F094F80024002850D12B4600
:100AC00074220021212006F0CAF9002848D105F13E
:100AD0000E064FF6FE713089884241D0307E0124E7
:100AE000082818BF042838D18DF8004000A94220FA
:100AF00005F0BEFA05F12F01432005F0B9FA05F122
:100B00002C01472005F0B4FA05F11C014A2005F03C
:100B1000AFFA05F11A014B2005F0AAFA05F12401FC
:100B2000502005F0A5FA05F11601532005F0A0FAB2
:100B300005F12D01542005F09BFA05F11801E12083
:100B400005F096FA3078C00800F001008DF800003A
:100B500000A9522005F08CFA02E007F07CFC00248A
:100B600006F0BEFBDFF8F8030078002814BF012868
:100B700004F004FCDFF8900C0068010018BF804707
:100B800002F016F9204676BD10B50446E00701D5FF
:100B900000F01AF8200748BF06F0B4FBDFF8C003E6
:100BA0000078002818BF012803D1A00748BF04F02F
:100BB0008AFC600707D5DFF8540C006801001CBFF1
:100BC000BDE81040004710BDDFF8BC38742200219A
:100BD000212006F044B8F0B5DFF8345CDFF8344C7F
:100BE000297887B001AA204609F09DF900208DF8E8
:100BF00008008DF80A00042104F031F8DFF8181C11
:100C00000E78B0421ED206F057FBD8B9DFF80C0CB4
:100C1000078837B10421032004F021F8F11B884232
:100C200002DA01208DF80800DFF8F40B078837B1ED
:100C30000221012004F013F8F11B884202DA01209E
:100C40008DF80A0021462A7801A809F041F92146C9
:100C5000452005F00DFA9DF80A0030B99DF80810FE
:100C600001B101218DF8001002E001208DF8000093
:100C7000DFF8641CDFF8902C097812789DF80000EA
:100C8000114008408DF8000000A9412005F0F0F95E
:100C900007B0F0BD70B504466348DFF8746BDFF849
:100CA000745B80F8724086B0317800AA284609F05B
:100CB0003AF932788DF81240294600A809F008F96F
:100CC0002946452005F0D4F906B070BD70B5DFF8AF
:100CD0003C5C044628884FF6FE71884222D11620DB
:100CE00004F0B4FF06001DD001203070A079002868
:100CF00014BF022001207070A06A4078B072000713
:100D00005CBFA08901F032FFA169B01C04F052FF62
:100D10000020F0743146DFF8E008007804F0B7FFF7
:100D2000A089288070BD0000EF4200202DE9F0412D
:100D300082B0054604208DF801000E46904600A8BA
:100D400000F057F90700DFF8C44B27D038690721B6
:100D50000170A98A4170A98A090A8170A97DC170B0
:100D60000120787705F10B0038620120B877FFF792
:100D700048FD78620120B876032E16BF012E4FF48D
:100D800088604020F882B8F1010F2088788004BF85
:100D900000203876384609F073F900E010204FF64D
:100DA000FE712180BDE8F681155200203ABC210079
:100DB00070B5DFF84458044628784FF4806105F098
:100DC00084FADFF8400CDFF8301900880880DFF87B
:100DD0008018DFF8580C008808800920DFF8A81672
:100DE00081F82600FFF70DFD0146606904F0D4FE8E
:100DF000C0B1102004F02AFF060013D0022030708A
:100E0000A06A4178827801EB02217180C07870700D
:100E10004A20A16905F02CF928783146BDE87040D8
:100E200004F035BF70BD0000AC4A0020DF42002056
:100E300038B5044602208DF8010000A800F0D9F86A
:100E400005003AD028690421017000214170217AFF
:100E5000012904BF20214170617A012903D1417821
:100E600041F040014170A17A012904D1417841F05B
:100E70008001417001E00120A876607A012805D147
:100E8000606808B10120687760682862E07A01280C
:100E900008BFE882208800F0D5F818B1E88A40F051
:100EA0000400E8820120A877FFF7ABFC6862208885
:100EB0006880284609F0E4F832BD102032BD7FB5C5
:100EC00004460D4600F087F8A86A4078002610F026
:100ED0001F0103D000F064FB00203FE0810644BF07
:100EE00001218DF80C10010644BF01218DF80B1073
:100EF000400603D501208DF80A0003E09DF80A00A2
:100F0000012803D1E87950B16E6902E0287A30B146
:100F1000AE6926B131460DF1020004F04BFEA889FE
:100F2000ADF800009DF80A00012813D1688900F08F
:100F300089F8002801BFA889DFF84C15498B884241
:100F40000BD13EB1FFF75DFC01460DF1020004F04C
:100F500023FE10B100A803F005FE204604B070BDCA
:100F60001552002010B5044692B020684189CA0786
:100F70002FD54FF6FE721140418104AA0068C17F4F
:100F8000006AFFF7ECFB002802BF0E9800780428E7
:100F90001FD100F020F8BDF81A00ADF800000E983F
:100FA0004078810644BF01218DF80B10010644BF33
:100FB00001218DF80A1040064CBF09990A990DF1DC
:100FC000020004F0F7FD20798DF80C0000A803F072
:100FD000C7FD12B010BD0E22002100A804F006BE0D
:100FE000002104281CBF0A28032800D1012108463B
:100FF000704710B5382101700121817009F06CF83B
:10100000040005D001202070A077FFF7FAFB606292
:10101000204610BDDFF87004807C7047DFF8BC0B01
:1010200000787047DFF8B41B087070470121020791
:1010300048BF03218007DFF8A80B48BF41F0040137
:10104000017070474FF6F87300210022C01A032880
:101050000BD9001F05D0401E05D0801E06D10122ED
:1010600004E0042202E0022200E00822DFF8700B14
:101070000078104218BF022101D102B101210846B7
:10108000704738B504460D4603F0EBFE00281CBF40
:10109000017900290ED005290CDA012D1CBF012988
:1010A000022902D1008802F05EFB2046BDE83240F2
:1010B00003F009BF31BD017821B94068002818BF8D
:1010C00009F064BD00207047054991F826100829F1
:1010D00008BF00F04EB87047125200201052002096
:1010E000AC4A002010B50021DFF8F82A02EB81039A
:1010F0005B88834203D100F023F8C52010BD491C52
:10110000C9B20329F2DB00214FF6FE7402EB810322
:101110005B88A34207D0491CC9B20329F6DB002132
:1011200012F8213033B902EB8103588000F008F83F
:10113000002010BD491CC9B20329F1DBC72010BD36
:10114000DFF8A80C007802F8210070470021DFF8D2
:10115000942A02EB81035B88834204D112F8213088
:101160000BB101207047491CC9B20329F1DB0020F3
:101170007047F0B50546DFF8B40C0078002600286B
:1011800018BF01288BB040D1BF4FF88A854204D1E7
:10119000BDB300F03DF8012637E0284603F05EFEBF
:1011A00004002ED02079012818BF022829D18DF8FB
:1011B00000606088ADF80C0000A805F0F8FF00B3EF
:1011C0002088DFF848170880002002F093FA20807A
:1011D00001A90DF11B0004F0EDFC2088ADF82400FE
:1011E0008DF826600222217904A8FFF79FFD208850
:1011F000ADF80200012600A805F0FBFF0020E0602A
:1012000003E0B98C284600F086FE30460BB0F0BDF6
:1012100080B500F064F818BF01280ED1012002F05B
:101220007EFA9949ADF80000C88200A9532004F065
:101230001FFFBDF800000BF07BFB01BD2CBC2100A3
:101240007FB504461226002C0D4646D08E48C08A33
:10125000844209D1FFF7D5FA0146284604F09CFCE8
:1012600000F0010080F0010600208DF80000ADF8CC
:10127000024000A805F044FF58B101A805F0C8FEDF
:10128000012806D101A9284604F086FC012600B1F8
:10129000002600F024F814BF0128122E05D129469B
:1012A000204603F07DFD00B100262946204600F0CF
:1012B0009BFE0A2808BF01260AD0A02806D129468D
:1012C000204600F099FF204600F0E9FF012E03D1EF
:1012D0000021204600F00AF8304604B070BDDFF867
:1012E0004C0B0078002870470850002038B50446A1
:1012F000FFF7F5FF18BF01280D460BD12046FFF779
:1013000038FF2B46214601B0BDE830400D224FF694
:10131000FC701BE031BD10B50446207A38B1A169DC
:10132000A089FFF78DFF012808BFA08908D0E079C8
:1013300050B161696089FFF783FF012804D160899A
:10134000FFF7D0FE012010BD002010BD2DE9F041B7
:1013500082B0044604208DF801000D4616461F4653
:1013600000F098F94FF00108A0B147B10021817752
:101370008580017841F0800101700021C17603224F
:1013800001690A702A0A4E708D70CA70448008F094
:1013900077FE80464046BDE8F6812DE9F8430446D5
:1013A0008846A06A90F801908178C07801EB00250A
:1013B000207F0126042802D000F0F2F860E0DFF878
:1013C0006C0A314F0078B9F1020F0AD9A9F1030272
:1013D000082A42D9093A34D0521E21D0521E3CD09C
:1013E00039E0002818BF012837D1B87B800734D5F1
:1013F0000021A8B202F04DFF00281EBF81791822FB
:10140000114208D0A1890091002243886189008897
:1014100003F012F813E00121A8B203F0DBFB1CE09B
:10142000002818BF012818D1B87B800715D5A8B2AD
:10143000FFF74AFEA8B2FFF755FEC5280DD10026DA
:101440000BE0002818BF012807D1B87B800704D51E
:101450000BF068FB01E04FF000086089AAB2494632
:1014600003F0F0FB6089FFF7EDFD48B1A07C022896
:1014700006DBA089F98A88421CBF002E404600D1B5
:101480000020BDE8F2830000AC4A00206C5100202F
:101490001A520020A05000202EBC2100D64200206D
:1014A0002DE9F04585B004460A200D4690469A463F
:1014B00001268DF8010025B94FEA4A000A308DF85F
:1014C000010000F0E7F807002DD03E69092006F87A
:1014D000010B41464AEA451006F8010B304604F07C
:1014E00069FB06F1080175B90C98002209E030F893
:1014F000123001F8013B30F812301B0A01F8013BB1
:10150000521C5245F3DB0120B877FFF77AF900F05F
:101510001CF918B10120787701A838627C80384620
:1015200008F0AEFD0646304605B0BDE8F085FEB5D4
:101530000446A06A10F8017F461C314601A804F059
:1015400039FB01A9DFF8980B04F026FB07F01F0513
:10155000083608B3E02007421CD1680003F0CEF83B
:10156000070019D0002007E03178727801EB0221E2
:1015700027F81010B61C401CC0B2A842F4D3009744
:101580002B46A08901AA002100F00DF8384603F08F
:101590001BF9F7BD00F004F8F7BD0000DB420020A6
:1015A000D3200BF003BD2DE9F843DFF8845C04463B
:1015B0002868884691461F46D8B178000E3080B220
:1015C00004F044FB060014D0D4203070748086F8F8
:1015D00004804946701D04F0EDFA77737A0008998B
:1015E00006F10E0004F0EAFA29683046BDE8F4433B
:1015F0000847BDE8F18300007C5100207CB504461B
:10160000886A10F8015F05F01F01461C012917D1F7
:10161000314600A804F0CEFA00A9DFF8C40A04F0AD
:10162000BBFA083678B1E020054209D17078B1786C
:1016300000EB0121307889B200F032F9204676BD06
:10164000FFF7AEFF002076BD0000000080420020C2
:10165000BE4200202DE9F84300F07CF8994600F0E6
:1016600019F80127060012D030690B21017080F8AB
:10167000018080F80290B777FFF7C3F87062777740
:1016800035627480B776304608F0FAFC0746384673
:10169000BDE8F28300A8ACE4F8B504460025A06AD2
:1016A00010F8016F4778A06903F0DBFB00281CBF2E
:1016B000017900291FD003291DDA0F2E00DA0FB19E
:1016C000012510E00575002EDFF8301C0FBF0968FA
:1016D00051F826103C225143C1618161012180F8FB
:1016E00020100BF0E1FADFF8540C0278A0892946AB
:1016F000BDE8F84006E0F1BDC0420020C44F002024
:10170000C84F00202DE9F04184B000F023F8FFF726
:10171000C1FF0126070014D038690C210170457003
:1017200080F80280BE77FFF76CF800F00EF810B179
:101730007E7701A838627C80BE76384608F0A0FC2F
:101740000646304604B0BDE8F081786201A9204623
:1017500005F077BC044603208DF801000D46904645
:10176000704710B5806A401C4478007860BB012C3B
:1017700018BF022C28D1DFF8C43B01221C700021C5
:10178000512005F06CFA022C1ED1DFF8B40BDFF803
:101790006C2B007800280FBF106852F820003C2204
:1017A000504303224FF47A71B0FBF2F048430246F3
:1017B000DFF8EC1B08604FF48041DFF85C0C007828
:1017C000BDE8104004F064BD10BD10B504468EB0F5
:1017D0002168086AA8B1C97F01AAFEF700FFDFF8F7
:1017E0003C0CBDF80E10C08A81420AD020680088E7
:1017F0009DF8212000904FF6FE73BDF8100002F016
:101800001BFE0EB010BD0000CC4F0020D04F0020BA
:10181000584200205C4200201CBC210026BC210054
:1018200024BC210070B5DFF8042612780021002ABC
:1018300018BF012A19D1002200E0521CDFF8E03B5A
:101840001B789A4211DADFF8DC3B242404FB0234D3
:101850002379FF2B1CBF238A002BEED0002819BF51
:1018600000232382591889B2E7E700F07AFB00E0F1
:10187000521CDFF8984C2478A2420FDA1C245443FF
:10188000E55AB5421EBFE5182C8B002CF0D000287D
:1018900019BF00242C83611889B2E9E7084670BD9E
:1018A00038B5DFF8785B0C4695F87210814211D29A
:1018B000FFF7F0F9DFF8700B04806421E879BDE8E8
:1018C000384001FB00F2DFF8500B00784FF4007154
:1018D00004F0CFBC31BD0000D242002038B5DFF8A3
:1018E000545C0446286803E00188A1420AD040689D
:1018F0000028F9D1082002F001FF18B104802968FE
:101900004160286031BD0000F6420020D042002036
:1019100070B5DFF8205C286882B0002401E04068E0
:10192000641C0028FBD1E4B2600002F0E7FE060070
:101930001FD02868002105E00288C9B226F81120CE
:10194000491C40680028F7D1DFF8D01AB1F86E00C2
:10195000CA8A00969042234601F1390203D1002140
:10196000FFF721FE02E00021FFF79AFD304602F06A
:101970002BFFBDE8734008F02ABC10B5DFF8B44B6C
:1019800003E04168216002F01FFF20680028F8D1C1
:1019900010BDF8B5DFF8840ADFF88C5A848C2988EA
:1019A00081845020294604F063FB2E88002704E040
:1019B000B14218BF00F0DBFA7F1CDFF8500B007853
:1019C000874209DADFF8CC0B1C2101FB07004189B3
:1019D000A142EDD14681EFE72C88DFF87C5C2868D6
:1019E00070B1062004F032F950B1D5210170848025
:1019F000002181700121C1702968BDE8F4400847C9
:101A0000F1BD0000FC510020DFF8500CC18A4FF6F8
:101A1000FE72914200D1704780B5807B800704D56B
:101A200000F00DFBBDE801401DE001BDFE510020AE
:101A300010B5DFF8E80990F8660098B14FF47A71B4
:101A400001FB00F404F000F9DFF8141C09880840D9
:101A50000219DFF8C4090078BDE810404FF4807126
:101A600004F016BC10BD2DE9F84F0025A84603F080
:101A7000C9FA002446460EE0304603F0AAFA48B1FF
:101A80000179002918BF042904D1807A00F0D2FB23
:101A900000B16D1C761CDFF8880990F80090F6B252
:101AA0004E45E9D300F01FFA8346002609E0304690
:101AB00000F03EFA20B1807C00F0BCFB00B1641C59
:101AC000761CF6B25E45F2DB6419E4B2002C44D019
:101AD000A00002F013FE5FEA00083DD0A200FF2143
:101AE00004F084F84FF0000A002617E0304603F0B7
:101AF00070FA070011D03879002818BF04280CD1DB
:101B0000B87A00F097FB40B1009401467A7A3888A1
:101B1000434600F069F80AF1010A761CF6B24E4518
:101B20003EBF5FFA8AFAEDB2AA45DFD30026F6B2CD
:101B30005E4512DA304600F0FBF905000AD0A87CB9
:101B400000F078FB30B1009401466A7C2888434657
:101B500000F04AF8761CEAE70024DFF8000B007B6F
:101B6000622518B103F0E5FFC0F15405EDB2032082
:101B700095FBF0F95FFA89F9B9F1200FA8BF4FF092
:101B80001F09C34600260DB120260025E4B2A14559
:101B900032BF4F46274646F040065A463146384641
:101BA00000F054F8824670060AD47F1EFFB200206F
:101BB00002E00BF1040B401CC0B2B842F9DBE41B9D
:101BC000BAF1000F01D17006DCD5B8F1000F1CBFCF
:101BD000404602F0F9FD5046BDE8F28FF542002084
:101BE00019520020FC500020F0B5059C002500266D
:101BF0004FF6FF7702E01D461B1D761CF6B2A6428B
:101C000023D2B3F800C0BC451CD015B12D88854245
:101C1000F1D26045EFD29C46BCF80050BD4205D0E1
:101C2000761CF6B2A6420CF1040CF5D365463CF8DE
:101C3000044D2C8063459CF80240AC709CF8034036
:101C4000EC70F3D318809A70D970F0BDF8B50446E3
:101C500004EB4400801C8DF801000E461546FFF78A
:101C600019FD012730B3016908220A7004F01F0230
:101C700032434A70891C002212E02B8801F8013B94
:101C8000521C2B881B0A01F8013BAE78EB7803F05D
:101C9000070306F0070643EA061301F8013B2D1D72
:101CA000D2B2A242E9D34FF6FC714180877608F0A8
:101CB000E7F907463846F2BD2DE9F8430026044609
:101CC0004FF6FE71A36A5A7803F1020C1306084618
:101CD00002F01F092FD409EB4905237FAD1CEDB29B
:101CE000AB4228D1B9F1000F05D09CF800009CF858
:101CF000013000EB0320B646DFF860590BE008F036
:101D00000703EF8A1FFA81F8B8450CF1030C08BFEE
:101D10001E460EF1010E5FFA8EFECE4510D29CF8E3
:101D200002809CF800109CF80130882718EA070F01
:101D300001EB0321E3D0BDE8F243D3200BF036B929
:101D40002EB989B280B200F057F800284CD0A08993
:101D500003F084F806F1010988B10021C171DFF8B0
:101D60000419027A09788A4207D3491C01EBD17120
:101D70004910072E0172B8BF4E46467234E0A08962
:101D80004FF6FF7100F072F8070010D100F08BF8E9
:101D9000070029D000F02CF8A0893880A88C788121
:101DA000AA20B87400F073FA387401207874DFF850
:101DB000B4080178387C884207D3481C00EBD07007
:101DC0004010072E3874B8BF4E467E74002038731A
:101DD000B81C05F01DF938B9207A28B1A169B81CE2
:101DE000BDE8F44303F0E6BEBDE8F18333BC210057
:101DF0001C22002103F0FABE4FF6FE7310B5984284
:101E00001CBF02F06003602B0ED0DFF85038DB8A75
:101E1000940607D4520603D5834205D2002010BD94
:101E20008342FBD39942F9D3012010BD1552002003
:101E300038B50024DFF85C5705E01C2000FB045097
:101E400000F095F8641C00F047F98442F5DB0020AF
:101E5000DFF8141801EB80034FF6FE725A8000225F
:101E600001F82020401C0328F4DB31BD30B50023ED
:101E7000DFF8204701E05B1CDBB2DFF81C2712789B
:101E800093420EDA1C225A43155B8542F3D1121994
:101E900055898D421CBF4FF6FF75A942EBD1104604
:101EA00030BD002030BD38B54FF6FF714FF6FE70E3
:101EB000FFF7DCFFB0B900240FE0DFF8D8161C22D2
:101EC00002FB0415A97C00291CBF697C002903D1F1
:101ED000288802F0D6FA2846641CDFF8BC16097878
:101EE0008C42EADB32BD10B500200021DFF8A426C9
:101EF0004FF6FE7407E01C2303FB01231B88A3425B
:101F000018BF401C491CDFF890361B78C9B29942B3
:101F1000F1D380B210BD38B504460D4603E000F0A1
:101F200026F829462046FFF7A1FF0028F7D131BD4A
:101F300070B5002100F015F801E0491C521CDFF8D3
:101F400058462478D2B2A24209D21C245443E55AFE
:101F5000B542F3D0CDB28542EFD1E01870BD00207C
:101F600070BD0022DFF82C364FF6FE76704710B5B4
:101F7000040007D0FFF73CFF4FF6FE7020804FF6BD
:101F8000FF70608110BD38B5044600250AE0DFF817
:101F900004061C2101FB05004189A14218BFFFF77F
:101FA000E6FF6D1CDFF8F00500788542EFDB31BD00
:101FB00038B504460B4800780D46002811BF0128AB
:101FC000DFF89806808C854205D1204602F046FF56
:101FD00008B1083032BD29462046FFF747FF00B15F
:101FE000103032BD155200202DE9F04704468A46D4
:101FF00000260027DFF89C8517E01C2000FB07F96E
:1020000009EB0805A81C05F003F860B139F80800D1
:10201000A04208BF46F00A065146A81C03F0BCFDCA
:1020200008B146F0A0067F1CFFB200F055F88742C9
:1020300002DAF0B20028E0D0F0B2BDE8F08738B59F
:102040000025DFF8D84316E0284602F0C2FF00283A
:102050001EBF0179012902290CD0C1794A1CC27125
:1020600094F867208A4205D200218172417200886B
:1020700002F007FA6D1CDFF8A8030078EDB2854284
:10208000E2D3002517E0DFF80C051C2101FB050059
:102090004FF6FE72018891420CD0017B4A1C0273FC
:1020A00094F867208A4205D2002181744174008827
:1020B00002F0E7F96D1C00F00FF88542E3DB002029
:1020C000DFF8A41511F8202012B1521E01F82020CB
:1020D000401C0328F6DB31BDDFF8BC0400787047F4
:1020E000E54A00202DE9F047054689464FF6FE787F
:1020F00092460024002001214646DFF8987409E04A
:1021000003F0A2FDC0B290FBF4F104FB1100C0B2D9
:1021100000240021002202E0DE5B521CD2B2DFF874
:10212000EC331B789A421FDA1C23534333F807C061
:10213000C44518BFAC45F0D0CC451FBFD44503EB18
:10214000070C9CF811C0BCF1000FE6D0BCF1080FE1
:10215000E3DABCF1070FDFD0641C0029DDD1E4B263
:102160008442DADBD85B45E0DFF800251278002AEC
:1021700018BF012A33D1002202E01E88521CD2B2BD
:10218000A74B1B789A422ADAA64B4FF0240C0CFB83
:102190000233B3F800C0C44518BFAC45EED0CC45FF
:1021A0001EBFD44593F809C0BCF1000FE6D0BCF1C6
:1021B000080FE3DA93F804C0BCF1010F18BFBCF1BB
:1021C000020FDBD093F809C0BCF1070FD5D0641C17
:1021D0000029D3D1E4B28442D0DB18880AE0E4B20B
:1021E00024B118B9012C8BD1012091E7464514BFC9
:1021F00030464046BDE8F0872DE9F0410446884668
:102200000027DFF8906300E07F1CFFF765FFFFB257
:1022100087420AD21C2000FB07F5A8194146801C02
:1022200003F0BAFC0028EFD0AC53BDE8F081000009
:10223000B051002007210D28A8BF012109DA072885
:10224000A8BF032105DA0328A8BF052101DA00B9D8
:10225000002108467047F8B505460E461746FFF7B9
:1022600022FE040012D0FFF7C3FD2580668107B966
:102270000127DFF8E803A77490F86C0001280CBF71
:1022800000200720607400F002F82074F1BDDFF830
:10229000D4030078401C00EBD07040107047F8B5B4
:1022A00004460025BB4E15E01C206843815BA1421B
:1022B00007D04FF6FF7294420BD14FF6FE72914257
:1022C00007D08719B81C04F0A3FE10B93846FFF7F1
:1022D0004EFE6D1CFFF700FF8542E5DBF1BD4FF6BA
:1022E000FF70DCE7DFF888030FF2150141600FF2A1
:1022F000310181600FF24D01C160704744BC210083
:1023000080B5DFF8701309688A7942B9C268096834
:10231000407802F071FCBDE8014007F058BF01BDF4
:10232000CE48B0F87010491CA0F8701089B200298E
:1023300004BF0120FFF776BA70470000105200205A
:10234000EB42002010B5CC4A127882B00AB9E129DC
:1023500025D10189491C018189B2304829B9A0F8E9
:1023600070100120FFF75EFA13BDC4490978B1B1BE
:10237000B0F87040A14212D20020FFF753FA642156
:10238000414391FBF4F11A2909DBBD4909680A00B0
:1023900005D0ADF80200ADF8004000A8884713BD95
:1023A000C051002000B583B000A9002200230CC159
:1023B00000A903F0F1FB401E8041C00F0EBD10B517
:1023C0003A2B18BF3B2B1C4607D113460A46014641
:1023D0002046BDE8104004F042BD0A2010BDA948C7
:1023E000A9490160A9494160A949097801290ED18B
:1023F0000FF21D1181600FF24111C1600FF29D11AA
:1024000001610FF2092141610FF2210181618068B0
:10241000010018BF004770477C510020AC4A0020E3
:102420001CBC2100F8420020FA51002070B58AB08F
:10243000054602208DF8050001A8FEF7DAFD04002C
:1024400061D0206904210170602141700120A076D3
:10245000A077FEF7D6F960626580E07E7F4D20B9F7
:102460002878E0762878401C2870207E01280AD140
:102470008848007828B1E87A002804BF207800282E
:1024800001D1002020760DF102012046FDF7DDFF8D
:10249000060035D0242002F031F9029068B32422DE
:1024A000FFF7A7FC00A9502003F0D4FD0299BDF866
:1024B00000004881E88A0299ADF8200002200873E4
:1024C0000299087202996088088001200299C881E7
:1024D00002999DF80200C8770299607D48730298BE
:1024E0000662E08AADF81200607D8DF8140002A843
:1024F00007F077FD029802F067F9304602F064F9C0
:10250000204602F061F90AB070BD00002BBC21002A
:1025100038B50024604D06E00422FF2105EB84005D
:1025200003F064FB641C5D480078E4B28442F3D39A
:1025300031BD0000D05100202DE9F04184B00024CD
:10254000464DDFF854814FF6FF7602E03018788070
:10255000641C52480078844219DA38F82400B042EA
:10256000F6D008EB840778880028EFD102208DF898
:10257000080038F82400A98CADF8000000A803F08A
:102580000EFE0422FF21384603F030FBE0E7BDE8F1
:10259000FF810000EC4500202BBC2100FEB5044665
:1025A00002202E4F8DF808000D46B98CADF8004082
:1025B00000A803F0F2FDFF261A2824D03749364A36
:1025C000097800204FF6FF7C04E0FF2E08BF064686
:1025D000401CC0B2884208DA32F820306345F4D09B
:1025E000A342F5D102EB800006E006D1FF2E06D013
:1025F00002EB860022F8264045800120FEBDB98C02
:1026000000A803F0CCFD0020FEBD00003EB504464E
:1026100002208DF80800ADF800404FF6FF750F4816
:10262000818C00A803F0BBFD1C491B4B09780020DE
:1026300001E0401CC0B2884205DA33F82020AA42EB
:10264000F7D0A242F5D1884205DA0422FF2103EB3C
:10265000800003F0CBFA37BDB4510020AC4A002013
:102660003CBC21002EBC2100FC5000201552002053
:10267000A0500020EC51002034BC2100F242002088
:10268000304F0020D44F002081502000FD5020000A
:1026900010520020DF420020385000203EBC2100B4
:1026A0002DE9F04104460D460026AC4203D004F06B
:1026B000B7FA070001D1012627E0284604F0B0FA56
:1026C00018B10146284604F005FC00223946284688
:1026D00004F086FAC8B1384602F010F85FEA000844
:1026E00012D043463A460021204604F0B8FB30B9E8
:1026F00043463A460021284604F0B1FA00B10126CB
:10270000404602F061F800E010263046BDE8F08156
:10271000DFF8981400200860704780B507F05EFC71
:1027200058B90022012100F039F930B101680029BF
:102730001CBFBDE8024006F03AB901BD80B50420D7
:1027400000F01EF9DFF868140978814207D3FF20F2
:1027500000F016F9DFF85C140978814201D20120FB
:1027600002BD002002BD2DE9F04107468846387BB6
:1027700000F023F900240546012625BB7A89397B20
:10278000386800F0B7F8050062D02C810124387C4D
:102790002874788A688207F11000FEF78CFC686163
:1027A0004FF67F41388B2883B87EA8766889084029
:1027B000688141074FBF40F08000DFF8FC130978C3
:1027C00040EAC11068816889C109B8F1000F01F0C1
:1027D000070112D002226A732A68927B520703D53E
:1027E000DFF8D823128A2A8121B34FF67F421040A6
:1027F000491E40EAC11068811CE009B9002619E0B1
:10280000810605D503F020FA00F07F005F3008E074
:10281000C00605D503F018FA00F00F000A3000E0FA
:1028200001202881202104206873DFF894030078B8
:1028300003F02EFB6CB12A89697B284600F06DF805
:1028400038B1686908B101F0BFFF284601F0BCFF4C
:1028500000263046BDE8F0813EB500F0AEF8002419
:1028600098B3417B062930D101684489097A8DF8F3
:10287000081001680988ADF8001000F0E5F820059F
:1028800022D5BDF80010002000F021F8E0B9DFF8F3
:102890002C43A18C00A803F082FC002100200CE056
:1028A000286801884FF6FF7291420DD0A18C03F089
:1028B00074FC1A2808D00021284600F008F805000A
:1028C000EED1002003F06DFC012420463EBD18B976
:1028D000DFF8D802006800E0406840B14289120584
:1028E000FAD500291EBF026812888A42F4D17047C7
:1028F0000120704770B504460D4616461C2001F0B5
:10290000FDFE48B100214173057346810181817349
:10291000C17304604161416070BD70B504000D4633
:1029200016462BD0012D284606D100F029F8A549DE
:10293000097881420CD207E0042D07D100F020F87D
:102940009B490978814203D2112070BD022D15D117
:1029500000206060657326819448016831B100E011
:10296000014648680028FBD14C6000E004609448B0
:102970000078202103F08CFA002070BDC12070BDCA
:102980008A4A1268002105E0537B5268834214BFD3
:10299000FF28491C002AF7D1C8B2704710B98348F4
:1029A000006800E0406838B1437B8B42FAD11AB12D
:1029B00003689B7B5B07F5D470477C49096800E09E
:1029C000496821B10A7B8242FAD10846704700204B
:1029D00070477649096800E0496861B10A68138860
:1029E0008342F9D1126A1378527803EB0222D2059E
:1029F000F2D40846704700207047F8B50446002618
:102A000020000D460AD06948076800E07F682FB1B2
:102A100029463846A0470128F8D13E463046F2BD47
:102A20000020704710B561490A681346002401E090
:102A30001C465B683BB18342FAD15868934201D18E
:102A4000086010BD606010BD10B5040011D0FFF724
:102A5000E9FF2068006A01F0B7FE206801F0B4FECB
:102A6000606908B101F0B0FE2046BDE8104001F0F9
:102A7000ABBE10BD38B501684C4A09881268002306
:102A8000002409E0557B052D01BF641C15682D88C5
:102A90008D42526808BF5B1C002AF3D14A4A47495D
:102AA0001278DBB293423FBF484A1278E4B29442B4
:102AB0002CBF01220A8A02814FF6FF73052242735E
:102AC000428942F400624281006802889A4204D03E
:102AD000898C03F062FB1A2804D1BDE83240012042
:102AE00003F05FBB31BD10B548B1A0F108010A6821
:102AF000002A04BF8A79FF2A03D003F0B9F8052021
:102B000010BD2F4C22788A7131490A78014631482C
:102B100003F09BF9012806D120784FF4005103F00F
:102B2000B7F9002010BD042010BD70B50AF018FCE4
:102B3000284D2E6800F0010080F001048EB120487D
:102B400056F8081C007800294FF4005102D003F019
:102B50009FF901E003F0A8F900223146284603F06E
:102B600055F90CB10AF0F8FB304670BD70B504465B
:102B70000E480668002514E030680088A0420FD196
:102B800000203081B07A400744BF307B01F086FAE4
:102B900006207073F0213068407B05F068FF6D1CE3
:102BA0007668002EE8D1E8B270BD0000E451002044
:102BB0001EBC21001FBC2100DA420020AC4A0020CC
:102BC0007C5100201DBC210021BC210022BC210021
:102BD0002DBC2100E851002070B50D46044629881F
:102BE00000F028F808B1B82070BD00F08FF86E49E9
:102BF0000978884201D3B22070BD182001F07EFD13
:102C0000060001D1102070BD002030603471122206
:102C10002946B01D02F0D2FF6448016811B9066070
:102C200004E0014608680028FBD10E6000F095F82A
:102C3000002070BD5D4A126842B11379834212BF11
:102C4000FF28D3888B42F6D1901D70470020704733
:102C500010B5564A1468FE290CBF0123002303E077
:102C6000914208BF012324683CB1E2888242FAD134
:102C70002279002BF4D0104610BDFE2010BD10B5F7
:102C800000224A4B07E01C79844204D1DC88D2B28E
:102C900021F81240521C1B68002BF4D1D0B210BD99
:102CA00038B5424B1A68002401E0144612688AB114
:102CB0001579854204BFD5888D42F6D11068002C65
:102CC0000CBF18602060104601F07EFD00F045F852
:102CD000012032BD002032BDF8B5344D04462868CD
:102CE000002603E0076801F06FFD384658B102790D
:102CF0000168A24204D1002E0CBF29603160F1E7C7
:102D000006460846F2E7BDE8F14026E000202749E4
:102D100000E0401C09680029FBD1C0B2704710B523
:102D20002148007814214843811C002289B24220A6
:102D300003F056FF040018BF00F002F8204610BD53
:102D400080B50020ADF8000000F001F801BD00AB37
:102D500002220021422003F082BF10B586B000207D
:102D6000ADF800001148046818E020798DF80400DF
:102D70001222A11D0DF1060002F020FFBDF8000097
:102D800014225043811C01AB89B2422003F067FF3B
:102D9000BDF80000401CADF800002468002CE4D110
:102DA000FFF7D5FF06B010BD88BC2100D45100202C
:102DB00030B587B000AB02220021422004F04FF86A
:102DC0000024C8B9002512E014206843811C01AB1F
:102DD000142289B2422004F042F838B99DF8040068
:102DE0000DF10601FFF7F8FE00B9641C6D1CBDF87B
:102DF0000000ADB28542E7D3A0B207B030BD50F8B5
:102E0000041B61B150F8042BD30744BFA9F101039F
:102E10009A180023091F42F8043BFAD1EFE77047E4
:102E200080B501F047FB00214FF6FE70002308E05B
:102E3000DFF8F42B02EBC102491C50805370536041
:102E40001370DFF8E82B12789142F1DB002108E0E3
:102E5000DFF8DC2B0A2303FB0122002350801372CE
:102E6000491CDFF8D02B12789142F1DB0021DFF80A
:102E7000C82B02E022F83100491CDFF8C03B1B7868
:102E8000C9B29942F6D3DFF8B80BDFF8B81B007867
:102E900008704FF47A72DFF8B00B0078BDE8084094
:102EA000102103F0F5B92DE9F04380460D46E807FF
:102EB00085B09146DFF8944B08D5A8074FF6FC780B
:102EC00054BF45F0080545F0100530E0404601F0DC
:102ED0004BFAE18A884205D02A460221404601F099
:102EE00011FA08B9002068E02B4602224FF6FE7165
:102EF000404600F03AFC00285ED105F0DF05680688
:102F000015D402A9404604F09CF845F0200768B9A2
:102F1000A18C4046FEF7AAFF060008D0B01C04F0C2
:102F200077F820B1B11C02A802F044FE3D46DFF85C
:102F3000206BE38A3778012000900022394618463A
:102F400000F0E4FE791C3170B0BBA8064CBF0E2027
:102F500006208DF8050001A8FEF74BF8040029D0E3
:102F60000120A077FDF74DFC60620121206901700E
:102F700005F07801417087704FEA1821017180F8DF
:102F8000038000214171A90603D502A9801D02F02A
:102F900011FE4FF6FD70B9F1000F608006D0DFF82A
:102FA000F00C0078814538BF84F81A90204607F06D
:102FB00067F802E0102000E0C72000F0B0BD10B5B7
:102FC000DFF8844A20784FF4805103F097F920B15C
:102FD000DFF8301C0120087010BDDFF82C0C0278DF
:102FE000DFF8280C007801280CBF01210321002004
:102FF000FFF759FFDFF89C0C02882078BDE81040ED
:103000004FF4805103F035B92DE9F84304460D46DD
:1030100016469846FEF716F810B14FF6FF7046E0D8
:10302000DFF8740C007802283DD1DFF8700C0178CD
:10303000204601F0E1FAA0BB00F034FE089901F04F
:1030400028F907002FD0787901284FF6FE791AD198
:10305000B9797888182211420ED0DFF8441C09781B
:10306000397185421CBF8642804509D142463146AE
:103070002846FFF737F803E0DFF8D019097D3971EA
:10308000484506D013E0032806D0042808BF484668
:103090000DD07879022806D00721204601F0ACFA3D
:1030A00008B1204603E02046BDE8F24301E0BDE858
:1030B000F28310B5044601F0ABFE18B9204601F0CA
:1030C000C3FE08B1204610BD4FF6FE7010BD2DE9BD
:1030D000F843044688469146FDF7B4FF00270028D0
:1030E00054D100F0DFFD494601F0D3F8060020D0AE
:1030F0007079032815D1B07902251821084230D102
:103100000021404601F030F9DFF84019C98A8842B1
:1031100031D1DFF8A80C027849462046FFF7C3FEFC
:1031200033E0012832D17088072101F065FA68BBCD
:10313000E1E72046FFF7BDFF01F090FE30B3417993
:10314000CA0723D501258A0707D501222146404613
:1031500000F0EEF90028D3D118E041F002014171EE
:10316000CEE7708800904FF6FE730022214640465D
:1031700001F062F909E02A462146404600F0D8F9FC
:1031800020B94946204600F090FD01273846BDE8A9
:10319000F2832DE9F04FDFF8B46888460446B18C1D
:1031A00089B093464046FEF703FF5FEA00094FF0FF
:1031B000060A03D099F80100002864D0A06A457877
:1031C00081788DF80C10C178007901EB002740461A
:1031D00000F080FDA16A497940188DF80400A80626
:1031E00048BF4FF00E0A87210D4206D105F01800A6
:1031F000182802D0207F504503D0D32009F0D6FEF6
:1032000041E0002000F08FF8032805F078053AD05F
:103210004FF6FF7A98BB18210D4236D045F00105D4
:10322000E80648BF45F00205A089294601F031F8BB
:1032300002001EBF90791821084212D0507901284F
:103240000FD1B9F1000F0CD0B18C5088FEF7B0FE51
:1032500000281CBF4078002803D099F8011088424C
:1032600011D300F069F850B9ABF800A00021207A22
:1032700000B1A1699DF80420A08901F0BBFCBBF856
:103280000000504510D000204AE0707B08B100F0EB
:1032900053F82B4602224FF6FE71B8B200F065FAE1
:1032A0000028ECD1ABF800A0012000F03CF8294642
:1032B000B8B201F059F8F18A88422BD1B8B201F0C6
:1032C000CDFD48B10079012818BF022804D104A916
:1032D000B8B203F0B6FE05E0FDF793FA014604A884
:1032E00002F068FC207A012803D1A16906A802F047
:1032F00061FCA06A40789DF80C3040F030000290EC
:10330000002204A80190B9B206A80090A08900F09C
:103310009FF8B8E7A16A9DF804004871FDF786FAA6
:1033200009B0BDE8F08F00909DF804209DF80C10C6
:10333000A089434600F0EABCA0892B460122414601
:1033400013E22DE9F04F0446DFF800970846B9F87C
:10335000241087B0FEF72CFE082758B1417849B9F0
:10336000DFF8CC1B0978491C01EBD17149100170C1
:1033700007214170A06AC1780279467890F802B0BE
:1033800090F807A001EB02284179827901EB022530
:10339000F10648BF1027B10644BF0837FFB236F028
:1033A000700104BF217FB94203D0D32009F0FEFD94
:1033B00046E006F070060021F20607D500F108018C
:1033C00005A802F0F7FB082106F0EF06B00608D5C5
:1033D000A06A081800F1080103A802F0EBFB06F050
:1033E000DF0659461FFA88F000F03CFFDFF844166C
:1033F0000978884208DA00F095F881798A451FD269
:1034000080F806A0002000E00420B9F816101FFA8A
:1034100088F78F4212D018B900F015F880B901E092
:1034200004280DD103A80190029605A800905B46E0
:103430005246A9B2384600F00BF801E000F003F85C
:1034400007B0BDE8F08FA18933460122A8B28CE114
:103450002DE9FE4F8A46984605469346414600F0C0
:1034600001FFDFF8D0150978884204DA00F05AF835
:10347000B0F8049001E04FF6FE7908208DF80100C5
:103480000E9CE00644BF10208DF80100A00604D574
:103490009DF8010008308DF8010000A8FDF7A9FD96
:1034A00006003DD00120B077FDF7ABF9706201A9AD
:1034B000484603F0C6FD18B10120707701A806E068
:1034C000E00605D54D4503D1012070770C98306298
:1034D0003769022038707C7087F80280FD70280AF6
:1034E000387187F805A04FEA1A20B871484600F0F5
:1034F000F1FB5844F8710020E10605D50C9907F15D
:10350000080002F057FB0820A10604D50D99C01948
:10351000083002F04FFBA6F80290304606F0B0FDEE
:10352000BDE8F78FDFF808150A2202FB001070478C
:10353000F8B5DFF818550746E88A012687420C4699
:1035400004D000233846FDF701FF06460021384627
:1035500000F00AFFE98A884214D10021204600F0D9
:1035600098FE00281EBF81791822114206D000F073
:103570005DFFE98A008800F05FFF03E0012120463B
:1035800001F028FB3046F2BDF8B5DFF8BC54DFF897
:10359000304B2878102102F0B1FE28B928784FF47A
:1035A0007A72102102F074FEDFF898040178491E47
:1035B0000170C9B229BBDFF88814097801700022B4
:1035C00005210020FFF7EAF9060019E00022052195
:1035D0003046FFF7E3F90546308980B1401E30815F
:1035E00080B260B9B07A400744BF307B00F056FD2E
:1035F00006207073F0213068407B05F038FA2E0009
:10360000E4D100264FF6FE751AE02079002818BF95
:10361000FF2813D0401E2071C0B278B9607903280A
:1036200004D1218860880222FFF782FF6079012897
:1036300004D02580002065806071A071761C08345C
:10364000DFF8480B0078F6B28642DED300260FF290
:1036500061040AE0FFF7F8F939462046FFF7CDF993
:103660000028F7D17D803870761CDFF8C803007819
:1036700086420BDADFF8B8030A2101FB0607387A25
:10368000401E3872C0B20028EED1E5E70020DFF816
:10369000981306E011F8302012B1521E01F83020C4
:1036A000401CDFF8882312789042F3DBF1BD000064
:1036B00030B50C4600258DB0002C1EBF0168086A8D
:1036C000002814D0C97F00AAFCF789FFBDF80C00C0
:1036D0006188884204BF9DF80200012807D10A983A
:1036E0000178012901BF8078217888420125284688
:1036F0000DB030BD10B550B900F011F804464FF6CA
:10370000FE70844207D1DFF8A00C007818B10120C8
:1037100000F005F80446FDF75EFA204610BD30B50E
:1037200085B0CA4C02F090FA0546E08A8542F9D08D
:10373000FDF774F88542F5D02846FDF783FC002894
:10374000F0D1002DEED08DF80000ADF8025000A8A9
:1037500003F0D6FC0028E5D14FF6FE708542E1D09B
:10376000284605B030BDFDF736BA2DE9F84F0746BB
:103770004FF6FC7087420C4615461E4652D000217B
:10378000384600F0F1FDB14F8046F88A804501D1FE
:1037900070067DD53146404600F07BFD0100DFF824
:1037A000EC09DFF81CA990F800904FF6FE7B16D1CB
:1037B0000021584600F06DFD010010D118210E4285
:1037C0002AD00022182301E0521CD2B24A450AEB4B
:1037D000C20102DA88791842F6D14A451CDAA1F80A
:1037E00000805C4518BF4C80F00748BF46F00406D7
:1037F000DFF8AC048E71012D007811D101224A71DD
:1038000018238A791A4209D008712046B98CFEF72C
:10381000CFFB00283CD110E002203AE0387DF3E7EE
:103820004A79012A34D08A7918231A4208BFF87CD1
:1038300008714D712CE0401CC0B2DFF8701B097894
:10384000884225DADFF8682B1C23002103FB0025C2
:1038500006E00AEBC1022B8852889A42EBD0491C41
:10386000C9B24945F5D3E6D11C220021284602F011
:10387000BDF92C80B88C6881AA20A87401206874D6
:10388000DFF8AC060078401C00EBD07040102874C4
:103890000020BDE8F28FF8B50646DFF88C0B007803
:1038A0000C468442154601D30520F2BD304609F08E
:1038B00016FA304600F08DF85C490F78B84204BF24
:1038C0004FF6FE7000F085F8B84222DA564901EB57
:1038D000C007786808B100F077FF34B1600000F0ED
:1038E0000DFF786018B90120F2BD002078607E805D
:1038F0007C70DFF8F00B00783870787800281CBFF7
:103900007868002803D06200294602F057F90020A9
:10391000F2BD0720F2BD2DE9F8430446DFF8080B9D
:1039200000780D468542904628BF052038D22046B3
:1039300000F04FF83D49DFF8F0900E78B0424FF6B6
:10394000FE7713D1384600F044F8B0420ED199F812
:1039500000100020012206E019F832308B423CBFF3
:1039600019461046521CB242F6DBC0B209EBC00643
:103970007780706818B100F027FF0020706045B1B3
:10398000680000F0BBFE706060B16A00414602F062
:1039900015F974807570DFF84C0B007830700020DA
:1039A000BDE8F2830120FBE738B50C46154600F070
:1039B00010F81E4A12789042014608D21A4800EBCD
:1039C000C1004178217040682860002032BD042089
:1039D00032BD38B51549144A0978002401E0641C49
:1039E000E4B28C4204DA02EBC4035B888342F6D172
:1039F0008C4204BF4FF6FE73984213D1002401E0BD
:103A0000641CE4B28C4202EBC40502DA2878002878
:103A1000F6D18C4206DA68686B8018B100F0D4FEEB
:103A200000206860204632BD904B002029BC210058
:103A3000A84C00202ABC2100944D002031BC21005C
:103A400020BC21001C5200207C510020AC4A0020E8
:103A50001B5200202DE9F043044685B0A06ADFF830
:103A60008C9B45789DB1DFF8C0190978801C8D4288
:103A700055DA002107E00378477803EB072329F89C
:103A80001230801C491CC9B20A46AA42F3DBDFF897
:103A9000A00BC28A6089904206D1A0894A46294675
:103AA00005B0BDE8F043F6E6A17CC1B30027A84607
:103AB000002100E0491CC9B20B46AB4205DA39F8D7
:103AC00013309342F6D188460127002100F0E1FB34
:103AD000060014D07079012811D1B079182108425C
:103AE0000DD072884946284600F0FEFC08B9012F27
:103AF00005D1A0894A46294600F005FD7080A37CC7
:103B0000581EA074CDF8089001200390CDF80480D1
:103B1000E07C0090A269A189608900F003F805B0FB
:103B2000BDE8F0832DE9F04782B080460D9D0B9CE7
:103B3000002D1ABF6000001D02208DF8010089468B
:103B400017469A4600A8FDF754FA060038D0A6F8A2
:103B50000280A6F8049086F81AA00A98F076B07F42
:103B6000012809D1FCF756FEB188814204D0002F0C
:103B700012BF77620020B0773069052101700DB95E
:103B800044701AE0611C4170851C0C98002108E00B
:103B9000028805F8012B491C30F8022B120A05F89F
:103BA000012BC9B2A142F3D3FCF734FE05F8010B97
:103BB000FCF730FE000A05F8010B304606F060FA0B
:103BC000BDE8F38701EB400030F8020C7047F8B510
:103BD0000446DFF85408007884420D4616460FD29A
:103BE000002700E07F1CFFB2A74205D2FCF712FEBF
:103BF00036F817108142F5D1AF4201D10120F2BD54
:103C00000020F2BD7D510020E74200200E5200202E
:103C1000F0B589B004460D461646FDF713FA0027A5
:103C200008B1002031E000F03DF8314600F031FBF2
:103C3000060029D0B079400726D5FCF7EBFD854278
:103C400008BF03970FD0284601F0F0F8012814D1DF
:103C500004208DF81000ADF8125004A803F050FABB
:103C600001280AD103900A48037802970197009728
:103C700005AA29462046FFF755FFB07981075CBFAA
:103C800000F0FB00B0710127384609B0F0BD00001C
:103C90003ABC210036BC2100E64200202FBC2100A6
:103CA00038BC2100002120465EE310B50C460021FF
:103CB00000F05AFB214600F0ECFA48B14FF6FE71D5
:103CC000018041800021017141718171002010BD8E
:103CD000042010BD70B5DFF85859297A072499B926
:103CE000A98CFEF765F906000ED0697BB078012932
:103CF00005D1FEF79FFA7478844203D201E0FEF703
:103D000099FA044604B90724204670BD2DE9F84FFE
:103D10000746884615461E4600F0A4FADFF8141937
:103D200091F800900A9CDFF810B948454FF00A0A54
:103D30000ADA0AFB00B0C1798D4203D2DCB1C57149
:103D4000868018E0032017E000214FF6FE7000F097
:103D500089FA484508BF02200ED064B1FF210AFB52
:103D600000B0817147808680C57180F80080DFF8DF
:103D7000C018C97C01720020BDE8F28F38B50A4630
:103D8000002141710020DFF8B418DFF8B438097859
:103D900000E0401CC0B2884208D2C45C157BAC4233
:103DA000F7D1BDE832401046FEF764BE04D10620CC
:103DB00050730021106843E031BD000039BC210080
:103DC00038B50546A878401EA8706879FEF7F5FD5D
:103DD000040034D0A87850B9607B022804D00620B3
:103DE0006073F02120682BE00620607331BDA87954
:103DF000E8B1287918B3E978491EE970C9B2F1B978
:103E0000DFF82C184978E970401E2871617B03297E
:103E100015D1C0B270B10420607301F015FF00F03D
:103E20000F00401C20812021BDE8344015E2607B5A
:103E3000032804D121462846BDE834409EE731BD21
:103E4000407BBDE8344004F012BE38B500210024A8
:103E5000DFF8F05707E005EBC400827812B1FFF7F6
:103E6000AFFF0121641CDFF8D4070078E4B284427C
:103E7000F1D3DFF8D447207851B1402102F03EFA67
:103E800058B92078BDE838406422402102F000BAD9
:103E9000BDE83440402102F018BA31BD70B50C467F
:103EA000DFF8A05700210BE0EA79C37C9A4202BFF9
:103EB0002A8883899A4201D1AA7852B9491C0835C7
:103EC000DFF878271278C9B29142EDD301D10020F2
:103ED00070BDA87948B3DFF85807818C2046FDF7FC
:103EE000C5FF10B1A879401EA8710020DFF85C174B
:103EF000DFF85C27097801E0401CC0B288420BDA89
:103F0000242343439E183679FF2EF5D09B5AA342B3
:103F1000F2D1A879401EA871DFF838070078081898
:103F2000A9798842BCBF0020A871012070BD0000A3
:103F30002EBC21002DE9F84FDFF87044DFF804377C
:103F40002478012505FA04FC4FF00009002702E05F
:103F50007F1CFFB20833DFF8E45695F800A0574500
:103F600002DA9D78002DF3D1574508BF002000F0FC
:103F7000938083F80690C846DFF8B476DFF8D0E681
:103F80000EE0012E18BF032E06D145894FF6FF76AD
:103F9000B54208BF4CEA090908F101084FEA4C0C88
:103FA000DFF8A8562D78A84514DA242505FB08F576
:103FB00035F80E608E421CBFB7F816B05E45EBD0E8
:103FC00075442E79042E18BF002EDAD19D796D1C10
:103FD0009D71E1E74FF0000C1EE0DFF8D4E31C26F2
:103FE00006FB0CEEBEF800608E421CBF4FF6FE755D
:103FF000AE420FD0BEF80A60BD8CAE420AD19EF828
:104000001160002E1CBF9EF81260002E02D09E7917
:10401000761C9E710CF1010CA445DEDBDFF838162E
:104020009C790978A14238BF9971997900291CBF00
:10403000817C01290EBF0021B978491C1971B9F1A1
:10404000000FF97999707978D970818919805A713E
:10405000C07CD87113D00027DFF8E40501E07F1C95
:10406000FFB2574504DA395C002918BF9142F6D1F6
:10407000574504DA3A54DFF8E40540F82790402128
:10408000DFF8C445207802F039F920B9207864229D
:10409000402102F0FDF80120BDE8F28F0021DFF899
:1040A000A02500E0491CDFF894351B78C9B299427D
:1040B00004D28B5C8342F5D1002088547047000005
:1040C000AC470020F8B50446A07A02285CD1DFF89E
:1040D0009005DFF89015A27B00780978002A39D185
:1040E000DFF88425126813001EBFDFF880552B68A7
:1040F000002B29D0DFF878653368002B1EBFDFF86E
:1041000074753B68002B1FD0012908BF01281BD103
:1041100060889047C0B9DFF86005DFF86015007867
:104120002A6800280FBF096851F820003C2141434C
:1041300060889047012827D1608831688847608867
:104140003968BDE8F44008476088BDE8F8400122BE
:1041500001211DE0DFF828251268AAB1012908BF56
:10416000012811D1042001F071FD68B164210170B2
:1041700001214170618841800146BDE8F440DFF8CB
:10418000C804007801F083BDF1BD000028BC210007
:104190002DE9F04704460E469146FEF71AFC00282A
:1041A00042D1002E44D0814ADFF8A4341278012194
:1041B00091400026002202E0521CD2B24900DFF8F2
:1041C0008C743F78BA4209DA24275743FD182D79B9
:1041D000FF2DF1D0FF5AA742EED10E460025DFF8A1
:1041E0007C74DFF85C8402E000206D1CEDB2DFF827
:1041F0004C1491F800A0554516DA15F8081000295E
:104200001CBF57F825203242EFD00846FEF7D5FBF9
:104210000028E9D0417B0529E6D157F82510B143A4
:1042200047F825105546E0E710B1417B05290AD033
:10423000B9F1000F0FD0DFF8F803818C2046BDE8FC
:10424000F04701F0B3BF01680C80012141732021C8
:10425000BDE8F04701E0BDE8F087DFF8EC03007847
:1042600001F016BE30B50022DFF8CC3301E0521C5D
:10427000D2B2DFF8C0432478A24208DA0A245443B9
:10428000E5186D88854204BFE45C8C42EFD110468E
:1042900030BDF8B5DFF8EC23DFF8EC63157801F0FA
:1042A000400100244FF6FE7308E006EBC407BF7917
:1042B00007F040078F421ED0641CE4B2AC4205DA1E
:1042C00036F834708742F7D19842EED1AC4208BF3D
:1042D000984210D1002401E0641CE4B2AC4204DA3C
:1042E00006EBC40000790028F6D1AC42BCBF36F81A
:1042F0003400FFF7DAFCAC4202DA06EBC400F2BD90
:104300000020F2BDF8B50446DFF8800306780D46BC
:10431000012D174604D13146204600F06DF9E8B969
:10432000FFF7C0FC3946FFF7B4FF012D04D0C8B138
:104330004079A84216D111E020B14179A94208BFC5
:10434000458802D078060DD425464FF6FE7085428A
:1043500008D03146284600F04FF908B10020F2BDE0
:10436000A542F1D10120F2BD38B504464806B04D52
:1043700007D52146FF20FEF75DFC88B94FF6FE7099
:1043800032BDC3480078002818BF01280AD1204652
:1043900000F064FD30B10079012818BF022801D176
:1043A000E88A32BD204632BD32BC21002BBC210040
:1043B000EC45002070B5022882B00C4616461D461A
:1043C00015D0042818BF01280FD12A460121204604
:1043D000FFF798FF48B156B12046FFF7FAFAAD490A
:1043E0000978884203D201203070002076BD002178
:1043F0002046FFF74EFF00281EBF81791822114288
:1044000008D000F013F88A490088C98A00F014F82F
:10441000012076BDA048027829462046FEF743FDDC
:104420000028E2D1F4E700002CBC21004FF6FE7119
:104430000091002243887047F8B504460D461E4699
:1044400012B100230B2216E000212846FFF721FFBE
:10445000070015D0B879C00712D506982246314614
:10446000FDF740FE4FF6FE71884209D078800023A8
:104470000C222146284601B0BDE8F040FCF766BF9B
:10448000F1BD814900220FE08B79DB070AD44B880C
:10449000834204BF4B79012B04D103234B714FF6A8
:1044A000FE734B80521C0831764B1B78D2B29A4275
:1044B000EAD37047744800214FF6FE720BE020F8F3
:1044C000022B20F8022B002300F8013B00F8013BEF
:1044D00000F8023B491C6B4B1B78C9B29942EED3E2
:1044E00070470000E842002010B5002300E05B1C8C
:1044F000DBB2834205D231F813409442F7D1012058
:1045000010BD002010BD2DE9F34F002481B090466E
:10451000A3464FF001094FF6FE7A604E0AE001F023
:1045200093FBC0B290FBF4F104FB110B5FFA8BFB21
:104530000024A146002501E06D1CEDB2454800783D
:1045400085421CDA1C2000FB05F7BA5B52451CBFF4
:10455000BDF804008242EFD000F04AF80028EBD109
:10456000B819407C0028E7D00728E5DA641CB9F1C7
:10457000000FE1D1E4B25C45DEDBB85B34E000253E
:1045800001E06D1CEDB231480078854221DA3048F7
:10459000242101FB05073A8852451CBFBDF80400E1
:1045A0008242EED000F024F80028EAD1787A002880
:1045B000E7D00728E5DA3879012818BF0228E0D0CB
:1045C000641CB9F1000FDCD1E4B25C45D9DB38885A
:1045D0000AE0E4B23CB1BBF1000F04D1012C9ED142
:1045E0004FF0010BA4E75046BDE8FE8F08500020B5
:1045F0009DF80800414677E770B50D4D0C46A98C33
:10460000FDF7D6FC060011D0B078FDF713FE7178E7
:10461000002918BF002809D06A7B012A02D18142F3
:1046200038BF01468C4201D3012070BD002070BD0F
:10463000AC4A00202ABC2100A84C002031BC21003B
:10464000CC500020944D00207C5100201CBC210047
:10465000F84200202BBC210030BC2100904F0020EC
:104660001052002012520020D84F0020E44F0020AA
:10467000EC4F0020E84F0020EA42002044BC21001B
:10468000D44F002028BC2100AC4700202FBC2100C3
:104690001552002029BC210039BC2100EC45002026
:1046A0005D4841F2FC72002111525C4908604FF4F0
:1046B0002771018048F20401A0F89C1241F25C517C
:1046C000A0F8A012704738B5012000F017F80400D8
:1046D00008BF08F053FF08F043FE05464F49201F6E
:1046E0000860204600F070F84D4901200870002D48
:1046F00004BFBDE8314008F02FBE31BDF8B500243D
:104700000025061D16F003001CBF311D0E1A08F00F
:1047100027FE4349414A097800F0010080F001007A
:1047200011B1B6B2112E01D2176800E03D4F3B68BF
:10473000C3F3C03CBCF1000F18BF002524D1E5B184
:10474000D4F800C063445B044FEADC3E5B0C43EAF0
:10475000CE332360B6B25B045B0CB34214D327465E
:1047600047B33B685C04640CA41BA4B2082C14D3AC
:10477000F45346F400433B8012E05B045B0CB6B29A
:10478000B342EDD201253C463B685B0417EB53472F
:104790003B88002BCBD100270CE043F400433B6067
:1047A00039B11168B94204D13968490417EB514154
:1047B00011603F1D08B108F0CFFD17F0030018BFCE
:1047C00008F0DCFE3846F2BD10B5041F12498842DD
:1047D00003D301F5C051884201D308F0CFFE206811
:1047E000C0F3C03008B908F0C9FE08F0B9FD21686F
:1047F00021F40041216000F0010008490A68944258
:1048000080F0010038BF0C6000281CBFBDE81040DC
:1048100008F0A2BD10BD0000205200202072002030
:1048200008520020C0540020002208F0A9BE31B672
:1048300070B504462568002D77D0DFF8D8030268EC
:10484000100002D0217928469047687B02283AD18F
:10485000A87A800737D52079E9281CBFCD28F02811
:1048600031D0A87C00060CD5A87E50B1A87328686A
:104870000088FCF7E7FB48B94FF4987008F096FB06
:1048800004E0DFF894030078401CA873207950B945
:10489000002604E04FF49B7008F088FB761C6079DA
:1048A000F6B28642F6D3A87B401EA873A8762021D4
:1048B00004206873DFF8640300882881DFF8600350
:1048C000007801F0E5FA687B022818BF06282CD191
:1048D000A87AC00729D52179284608F06BFE688997
:1048E0004FF6FE710840688128680088FCF7AAFB33
:1048F0000028207912D170B940F22F1008F056FB31
:1049000000256079EDB285420FD24FF49B7008F01C
:104910004DFB6D1CF5E740F2311002E028B940F282
:104920002D10BDE8704008F041BB70BD2DE9F04F7F
:104930009BB089460446924605A908F017FF9DF8EA
:1049400021000027002804BF9DF828000028B84651
:1049500008D09DF81400251D400606D5E888FCF710
:1049600071FB10B140F235106DE09DF8140000F0BD
:104970000C0004289DF814000CBF012600268006B8
:104980001AD54FF00108BEB9FBF744FF29898142CF
:1049900003D195F82A0000062FD4FBF73BFF014610
:1049A0002889884208D095F82A10090604D405A958
:1049B00006F0A3FD002844D1698D080612D49DF8A5
:1049C000140040060ED59DF815000322104209D1AF
:1049D0009DF8140000F00C020C2A1EBF00F00C0021
:1049E000082801279DF8140000F00300022808D1D0
:1049F000288905A908F0ABFF9DE0E888ADF82E10E6
:104A0000D5E7012812D12FB1080603D4288905A9BA
:104A100008F02BFF05A80D902889ADF83000A87884
:104A20008DF832000CA809F067F884E00028FCD16A
:104A3000DFF8F0B19BF80B00012804BFA87800282C
:104A400004D14FF49A7008F0B1FA74E002208DF8A6
:104A5000640030342889ADF85C0095F82A0000061F
:104A60003DD502208DF84000E888ADF838009DF86B
:104A700017008DF842009DF816008DF84300BBF832
:104A80002400ADF84400BDF81A00ADF84600BDF8AA
:104A90001C00ADF848009DF82800ADF84A000998C0
:104AA0001390688DADF85000A8898DF852002878D1
:104AB0008DF85300A87B8DF854009DF829008DF8DF
:104AC00055009DF82B008DF8560020788DF8570082
:104AD000A0788DF858000EA805F0B4FE2BE0CEB1FA
:104AE000A889514E8DF82A00306820B3FBF792FE5A
:104AF000BDF85C1081421ED1207804903B46688D41
:104B000000F01CF84A462878009005A9346817A8D8
:104B1000A04710E01FB1288905A908F0A6FEA87BD0
:104B2000BBF8242000F00AF84B46E87B009017A958
:104B300005A808F050FD1BB0BDE8F08F0390CDF83C
:104B400008A0CDF80480704707F046BD07F0DEBD31
:104B500007F07ABE07F0F0BD07F094BE07F00EBF75
:104B600007F053BF10B5044630480078002818BF3E
:104B7000012815D12B48807B800711D5A07A012808
:104B80000ED0FBF74BFE218881421CBFE07A012842
:104B900006D0084600F04AF910B12088FDF7E6FF7C
:104BA0002046BDE8104007F055BF07F09CBF10B588
:104BB00004461C48807B000707D41D48006820B1CC
:104BC0001C480078082101F063F92046BDE8104038
:104BD00007F0AABF10B5012904460AD10021FFF74A
:104BE00064F8154802782046BDE810400021FEF721
:104BF0005AB910BD07F0FBBE104B10B51B681C0066
:104C000084B005D08DF800000191029200A8984769
:104C10001FBD0000B8500020EC420020C44200201C
:104C20007C510020AC4A0020BC50002015520020CE
:104C30004C4200203842002039BC2100384F00206F
:104C400008F04AB807F071BFDFF85C09007824214A
:104C500001FB00F2FF21DFF8540900F0C7BF30B5B7
:104C600000220023242509E0DFF8404905FB034426
:104C70002479844224BFA142521C5B1CDFF82849DE
:104C80002478A342F0DBD0B230BD2DE9F04380465A
:104C9000DFF8140985B05FEA01090478164604D0EC
:104CA000484600F0DEF8050045D10020242200E04F
:104CB000401CC0B2A04207D2DFF8F01802FB00157A
:104CC0002979FF29F4D100E00025002D5ED0DFF81E
:104CD000E008078857B1032E18BF042E06D104211F
:104CE0000320FFF7BCFFE11B88420CDADFF8C408A1
:104CF000078857B1012E18BF022E06D100F04DF8DB
:104D0000E11B884201DB002046E000F001F9ADF82C
:104D10000280494601A802F074F900A802F069FA7D
:104D2000BDF80C0068800020A871DFF88C08818C29
:104D30004046FDF7F0F8002016B1052EB8BF04205C
:104D4000A5F800802E71687100F0B6FB2872012072
:104D50006872AA20A87200202882E871E872E860D0
:104D600086B1032E0EDA00F0FFF900280FBF0868A5
:104D700051F820003C214843E861A861012085F8F2
:104D8000200003E06FF00100E861A86100F0C4F8C2
:104D9000A04200F08BFB28466FE1022101205EE774
:104DA0007FB504460D46284600F05BF80026002833
:104DB0001CBF0188A14228D00179052925DA048089
:104DC00091B1032910DADFF8F417DFF8F427097836
:104DD00000290FBF116852F821103C225143C161D4
:104DE000816180F8206003E06FF00101C1618161A1
:104DF000C66000F08DF8ADF80240294601A802F027
:104E000000F900A802F0F5F90126304604B070BDA3
:104E100080B500F023F800281CBF0079002803D0DB
:104E2000052801DA012002BD002002BD80B500F096
:104E300015F800281CBF0079002803D0032801DAE8
:104E4000012002BD002002BD80B500F007F818B1B6
:104E5000007908B9012002BD002002BD01460020F2
:104E600000E00021F0B504460D464FF6F87085428B
:104E700085B000DB24B3002708E04FF6FF708542C1
:104E800002D03088854219D07F1CFFB2DFF81807A6
:104E90000078874214DA00F006FB01FB0706307940
:104EA000FF28F1D0002CE8D000F01AF90028EBD050
:104EB00001A9204600F070FE0028E5D0304600E051
:104EC000002005B0F0BD30B585B0FFF7CAFF002463
:104ED00005000DD000F01CF801246888ADF80C0026
:104EE00000A802F0D8F82422FF21284600F07EFE18
:104EF00000F012F8DFF8B0160978884205D2DFF822
:104F0000C41601200870FBF766FE204605B030BDD0
:104F100001208DF800007047042100209FE6F0B5C5
:104F2000DFF88426DFF88456137824244FF6FE72C7
:104F3000904208BF002619D0002600E03E469E425F
:104F400014DA771C664306EB050CFFB29CF804C02C
:104F5000BCF1FF0FF2D0765B8642EFD13E4605E012
:104F6000012818BF03280DD0761CF6B29E420BDA3A
:104F700004FB06F7781900290079F1D00028F3D056
:104F80000528F1DA785BF0BD1046F0BD0121C6E7D7
:104F90002DE9F04104460421FFF700FF050013D07E
:104FA000680080B2FFF7AAFB06000BD04FF6FE7830
:104FB00037464046FFF7EAFF404518BF27F8020B87
:104FC000F8D102E0002500E0002625703046BDE85B
:104FD000F081002201E0401E521CDFF8CC15097858
:104FE000D2B28A420CD2DFF8C415242303FB02118B
:104FF0000B79052BF0DA80B20028ECD10846704717
:10500000002070472DE9F04385B00024DFF8B88513
:10501000DFF898651CE01C20684300EB080930F8B5
:105020000810B85B81421CBFBDF80200814205D068
:1050300009F1020101A800F0AFFD10B14846FCF7EC
:1050400096FF6D1CDFF8840500788542E3DB641C65
:1050500000F04FF811DA242000FB04F74FF6FF713F
:10506000B85B8842F3D0FFF753FFB819408800F0CF
:10507000B9FA0028EBD00025E4E705B0BDE8F083DD
:105080007FB50024DFF8485507E0B06910F1020F42
:1050900002D0F069401EF061641C00F02AF81EDAAC
:1050A00000F001FA01FB040630790028F4D003284F
:1050B000F2DAF0690028E8D12878012807D1DFF872
:1050C00014050268100002D0B1693088904700F0E2
:1050D00007F80028E0D001A8FFF7F5FEDCE77FBD68
:1050E00001208DF800007088ADF80C0000A802F0D7
:1050F0005EB8DFF8B40400788442704780B5FFF7EB
:10510000ADFE48B1017931B1032904DA8169C16189
:10511000012180F82010012002BD70B50446DFF89F
:10512000B804016808001EBFDFF8A85428680028EA
:1051300019D0DFF8A8643068A8B16088884790B9B2
:1051400000F012F82A6800280FBF096851F8200003
:105150003C21414360889047012804D16088316830
:10516000BDE87040084770BDDFF85004DFF8501408
:105170000078704738B5DFF8300404780B206043BE
:10518000811C002289B2222001F02AFD05460A2D49
:1051900004D00022E1003F2001F022FD0DB100F01B
:1051A00002F8284632BD80B50020ADF8000000F0BE
:1051B000B7F901BD2DE9F04780468CB08A4691468B
:1051C0001C46222001F02CFD054600263F2001F060
:1051D00027FD002D18BF5545074603D0294622203C
:1051E00001F078FE002F18BFA74203D039463F20B8
:1051F00001F070FE00225146222001F0F1FC0A2845
:1052000061D0002221463F2001F0EAFC0A285AD052
:1052100040F2013A01AB02220021504601F01FFE8C
:10522000002850D1ADF80000002440F202350B27D1
:1052300032E0E4B207FB04F0811C02AB0B2289B21E
:10524000504601F00CFE00283DD1BDF80A004FF693
:10525000FF7188421FD0BDF800007843811C02AB6B
:105260000B2289B2222001F0FAFC60BB0DF102038F
:105270000822E100284601F0F2FD50B9BDF8000017
:10528000C1000DF10203082289B23F2001F0E7FCC2
:10529000C8B900F03FF9641CC349BDF800000978A3
:1052A00088423CBFBDF804108842C2D300F038F9F0
:1052B00048B94146504601F00DFE20B949462846FE
:1052C00001F008FE00B1012630460CB0BDE8F087C1
:1052D0002DE9F84FB44800780B2100244143C60063
:1052E000ADF800408D1C222001F09AFC83463F203F
:1052F00001F096FC804600F0D0F840F2013A5046AA
:1053000001F08EFC074640F20239484601F088FC65
:1053100017B9ADB2AB450AD108B9B04507D157B3FB
:10532000BBF1000F1CBFBDF80010002919D0514679
:105330002220FDF7B5F904001DD149463F20FDF7B5
:10534000AFF9040017D15946222001F0C3FD08B17E
:10535000012410E041463F2001F0BCFD0028F7D1B8
:1053600002E0BB4600B1804633464246A9B25846E9
:10537000FFF720FF04462046BDE8F28F2DE9F04FED
:1053800091B00020ADF80000FFF7A2FF002802D185
:1053900000F083F800287AD18348BDF8001090F817
:1053A0000090894573D3DFF818A2DFF80C82DAF891
:1053B0000060002500246FF0010B0BE0F861B8617C
:1053C000002087F82000FFF7A7FD484500F06EF8A1
:1053D000641CE4B24C455ADABDF80000ADB2854217
:1053E00055D20B2202FB04F0811C07AB89B22220AC
:1053F00001F035FD0028EBD1BDF81E004FF6FF711E
:105400008842E5D00121ADF818008DF80C1003A8F2
:1054100001F0CDFE6D1C0028DAD0B8F82410BDF8DC
:105420001C00FCF778FD00F03EF801FB04070B229E
:1054300007A9384600F0C2FB00F03EF8387201AB15
:10544000012078720822AA20B872E1000020388278
:10545000F872F8603F2001F002FD0028B3D10298F5
:1054600010F1010FAAD1387960B103280ADA534844
:10547000007810B9FE61BE61A2E75AF820003C2115
:1054800048439BE7C7F81CB0C7F818B09BE7BDF8C6
:105490000000C0B211B0BDE8F08F00AB02220021C5
:1054A000222001F0DCBC41482421704702D3454949
:1054B00000200870FBF78FBB49480078401C00EBC8
:1054C000D0704010704738B50020ADF800000024BF
:1054D0001AE0FFF7E8FF01FB04050B206043811C85
:1054E0002B460B2289B2222001F0B9FBE10005F125
:1054F0001403082289B23F2001F0B1FB2879FF286C
:1055000001D000F007F8641CFFF7F3FDE1DB00F0C9
:1055100007F831BDBDF80000401CADF80000704731
:1055200000AB02220021222001F099BBF0B5054614
:1055300085B0FFF732FC2870287878B30C214843F7
:10554000FFF7DCF804002AD02546002604E02846B0
:1055500000F027FD0546761C1348007886421EDAC7
:10556000FFF7A1FF01FB06073879012818BF0228C1
:10557000F1D1FFF7CDFC788800F034F820B101A913
:10558000284600F017FB054697F8200000281DBFAD
:10559000B869F969411A4FF0FF31D8E70024204675
:1055A00005B0F0BD000000001CBC2100F842002046
:1055B00026BC210024BC2100AC4A0020EA42002085
:1055C00044BC2100F6420020EC4500202BBC210009
:1055D00010520020E44F0020D84F0020EC4F002054
:1055E0002EBC2100ADF80C0000A801F0E0BD0A00BF
:1055F000DFF84C050FF25D3101600FF201314160BF
:10560000704770B504466068A1780D1804212878A9
:1056100000F0070060702878C0F3C100207428787B
:105620004609681C00F0F2FAA06105202077F00717
:1056300008D5691D04F1080000F0BCFA207F08308D
:10564000207705E00822002104F1080000F0CEFADE
:10565000207C012805D1207F405D2075207F401CE3
:10566000207770BD70B50446207FA178227C0D287C
:1056700060680CBF012500250818617841EAC20165
:1056800041EA451100F8011BA16900F08AFC0646B9
:1056900025B104F1080100F08DFA0836207C0128BC
:1056A00004BF207D307070BD30B504466068A178BD
:1056B00091B00D18207818B92046FFF7D3FF03E00A
:1056C00028786178084328702A78A1690DAB04F125
:1056D000080000F002F9A0788DF8040005A9207FE9
:1056E0008DF80500E0788DF8060060788DF80700E9
:1056F000608A02F091FD05A80490FF208DF800005B
:10570000207C022808BF002002D003280AD10220F2
:105710008DF8000009AB05AA082100A808F026FDB5
:1057200009A80490636820780DAA01A900F095F9F2
:105730000446287800F0F80028701022002109A8FB
:1057400000F054FA1022002105A800F04FFA20467C
:1057500011B030BD3EB510280C461FD1DFF8E45320
:1057600028788DF8040000F043FE8DF8050000F065
:105770003FFE0004000E8DF80600FBF742F80146DC
:1057800002220DF1070000F019FA0094402301AA4B
:105790000021002008F014FD2078287037BD10B5D6
:1057A0000446234600F06BF818B9DFF89C03406804
:1057B000606110BD00B585B010228DF80010014663
:1057C0000DF1010000F0FAF900AB112200213B209D
:1057D00001F045FA1122002100A800F007FA05B0F7
:1057E00000BD70B5054686B01120FEF787FF0400A6
:1057F00043D02346112200213B2001F030FB00283A
:1058000004BF2078A84230D11120FEF777FF0500B1
:105810002BD02B4600F033F8F8B923461122002193
:105820003A2001F01CFA2B46112200213B2001F006
:1058300016FAC649C44E012081F841001122002009
:105840007060214600A800F0B9F97068059000ABBF
:1058500018220021822001F002FA1122002128469C
:1058600000F0C4F92846FEF7AFFF112200212046C0
:1058700000F0BCF92046FEF7A7FF06B070BD11226C
:1058800000213A2001F0EBBA70B582B01546069AB5
:105890000C4640EAC40040EA451002F8010B1946E4
:1058A000104600F07EFB064635B1FAF7AAFF014626
:1058B000304600F07FF90836012C08D13A2300F079
:1058C00007F800280CBF9DF800000020307073BD61
:1058D00000AA01210020FCF772BD70B50C461E46DF
:1058E00001461546304600F065F9214606F10800EC
:1058F00000F057FB057070BD00000000022100F0B1
:10590000030001FA00F000F01C00704738B50446AF
:105910003A230DF10102FFF7DCFFC0B99DF8010049
:10592000844210D03B23FFF7D3FF88B99DF80000D5
:1059300084420CD19DF801009DF80010884204D2E9
:105940000846FFF74EFF3A2502E03B2500E0002520
:10595000A8B232BD2DE9F0418EB080460E208DF800
:1059600005000D467948007B8DF8070017467E1923
:105970000120B8F1000F8DF804708DF806308DF815
:10598000080029D13A2300F063F810BB0DF115008F
:105990006D4C049001226368581C606000960121E0
:1059A0009DF80700FFF770FFFAF72BFF01460AA8E2
:1059B00000F000F920886649401C208080B2096808
:1059C000814224D2634800784FF4007100F060FAFD
:1059D0001DE0002004901AE0707BFFF797FF3A2843
:1059E00001D13A2302E03B2806D13B2300F030F8F6
:1059F00010B90DF1150000E0002004909DF807108B
:105A0000785D08437855711D0AA800F0D3F8042288
:105A1000711C0CA800F0D2F8785D8DF83400049861
:105A200008B9A12011E02B460AAA01A9404600F0BE
:105A300014F80446785D00F0F80078551022002133
:105A40000DF1150000F0D2F820460EB0BDE8F0814F
:105A500005AA11210020FCF7B2BC2DE9F54F8DB04D
:105A60000C461D4607F07CFC00F0010080F00108A8
:105A7000E06806904FF0000908F054FC36493748BA
:105A80000860CA4620786178A7780E18E078042864
:105A9000F6B202DABE19F6B2002700F04AF88346E1
:105AA0007319F81807909DF83410E078B1B90428FC
:105AB000A8BF4FF0010A00F02AF801950097504660
:105AC0000E9A08F045FC040018D10020584515DA5C
:105AD00008A9079A415C8154401CF7E70428A8BF35
