:020000040000FA
:100000000212FF022003FFFFFFFFFF02200BFFFF92
:10001000FFFFFF020E61FFFFFFFFFF02201BFFFF3C
:10002000FFFFFF022023FFFFFFFFFF02202BFFFF48
:10003000FFFFFF022033FFFFFFFFFF020EA4FFFFC1
:10004000FFFFFF022043FFFFFFFFFF02204BFFFFE8
:10005000FFFFFF022053FFFFFFFFFF02205BFFFFB8
:10006000FFFFFF022063FFFFFFFFFF02206BFFFF88
:10007000FFFFFF022073FFFFFFFFFF02207BFFFF58
:10008000FFFFFF022083FFFFFFFFFF02208BFFFF28
:10009000FFFF70DFFFFF040000000002000000C847
:1000A0000300030369A5020269A501000000000026
:1000B00004003273000074F8121046900393E0605D
:1000C0001590030274FEF0900304744DF0A37405C0
:1000D000F07A011206857F0102116374F71210464F
:1000E00074FF12126B7E00801F851882851983E0D1
:1000F00064FE70069003877401F085188285198369
:10010000E0F8900384E068F07C017D00AA18AB1948
:10011000120E1C8B09EA450970030201F38518824F
:10012000851983E064EF70027E07E0C0E0900387EA
:10013000E0FA900385E0F8EA28F8E43400F9740264
:1001400028F582740339F583D0E0F0900387E060EE
:100150009814600E14602C14603C14605214606893
:100160008098900384E4F0851882851983E09003D9
:1001700086F0C394809003874004E40200F974027F
:100180000200F9851882851983E0900382F09003BC
:100190008774030200F9851882851983E090038330
:1001A000F0900386E0601990038774040200F990D0
:1001B0000385E004F0F8900386E06860030200FA2B
:1001C00090038774050200F9900385E4F09003879B
:1001D000F0900384E0F8851882851983E068600355
:1001E0000200FA900382E0644D60030200FA1203F9
:1001F000288002EEF974011212377F020211637433
:10020000F712104674FB12126BEAFEEBFF7508043E
:1002100075090078081212CF74021212E87A907BE6
:10022000007904120EC574021212371206771213E7
:1002300039E0687003A3E06970128518828519831C
:10024000E0F47003A3E0F4600302030874041212E4
:10025000E01206DD8A088B09A808A90974021213A6
:1002600039E8F0A3E9F07404121339E06008790169
:100270001200B6020321851882851983E068700395
:10028000A3E0697076851882851983E0F47003A372
:10029000E0F4701974021213397410F0A37420F092
:1002A0008518828519837410F0A37420F0750801F5
:1002B00075090078081212CF74021212E87A247BB2
:1002C00008120F49740212123775080478081212C6
:1002D000CF74021212E87A907B007904120EC57472
:1002E00002121237120677121339E0687003A3E086
:1002F000697004790280067904800279031200B6DD
:100300008E828F83741E80058E828F83E4F01206A6
:1003100077121339E0687003A3E0697004790180F3
:1003200002790074050201F774ED12104674F81298
:10033000126B900307E0FD900306E0FCFAEDF8E491
:10034000C8F9EA28FEE93408FF751001750B00753D
:100350000A068E088F0974027808121296C395084F
:10036000F8E49509F9740228F50E740339F50F8E37
:10037000088F09740978081212F0E508F511EE24C7
:1003800010F508E43FF509EEF50CEF5401F50D907A
:100390000383E014605914700302046414700302B0
:1003A00004DF14601024FE700302059A1470030227
:1003B000064A02065A750A03794E120C5B9003072F
:1003C00012066D7402F0A3744012066B74081206D4
:1003D0006BF0A3F07418C3940704F510AA10A90BCE
:1003E000120685A90A74081212377F0C0211637570
:1003F0000A04794E120C5BEE450D7005A911120F1F
:10040000AFC3EE9425EF9408503CC3E5089424E56F
:100410000994084031E50E2496F8E50F3420F98858
:10042000828983E0701BA3AA82AB83E070139003E0
:10043000887401F08882898374A5F08A828B838016
:1004400004900388E4F0750810750900780812120A
:10045000CF7C087D03EEFAEFFB120F4974021212F3
:10046000370203DC750A05E511C394794006750B64
:10047000010203DC75124075130078121212CF7C52
:10048000097D037402780C121296AA0CAB0DA91107
:10049000120EC57402121237900307E0A3F0900306
:1004A00006E0A3F0751043C3EE9425EF94084003D3
:1004B0000203DCC3E5089424E50994085003020311
:1004C000DC900388E070030203DCE50E2497F8E576
:1004D0000F3420F988828983E4F0A3F00203DC75ED
:1004E000080475090078081212CF74021212E87A13
:1004F000907B007904120EC5740212123774021236
:100500001339E0F8A3E0F9851882851983E0687053
:1005100003A3E069851882851983700BE0F47003EA
:10052000A3E0F470578009E0F47003A3E0F4700DC9
:100530008518828519837410F0A37420F012067751
:10054000121339E8F0A3E9F075080178081212CF08
:1005500074021212E87A247B08120F4974021212F4
:100560003775080478081212CF74021212E87A90D4
:100570007B007904120EC57402121237120677122C
:100580001339E0687003A3E0697006750A0102037D
:10059000DC750A02750B070203DC900391E060072B
:1005A000640260030203DCEDFF7A01790012068524
:1005B000E0600302063E8003120D1C120D26E97056
:1005C000F7740412133912065F7404121339780891
:1005D00012131D85080C85090D850A0E850B0F90D9
:1005E00005A2780C1212BC7404121339780C121381
:1005F0000EE5084509450A450B70CE8EC2E5C55487
:10060000E04FF5C5740412133912065F7404121317
:1006100039780812131D85080C85090D850A0E8589
:100620000B0F9005A2780C1212BC740412133978C7
:100630000C12130EE5084509450A450B70CE7A01E8
:10064000790012068579080203E5EC900393F070B7
:10065000030203DC750A090203DC79060203E5E400
:10066000F0A37426F0A3E4F0A3F022F0A3E4F0A337
:10067000F0A3F0A3F0A322851882851983E0F8A3E4
:10068000E0F974022274F8121046EAFE900305E0C5
:10069000D2E7F0E9A3F0EE900303F08E0874042A89
:1006A000FE7C028004E062080CECFA3395E0FB74F7
:1006B000022AF58274033BF583EEF8C3EA98EB94C3
:1006C00000A2D265D03340DDE508F074012A0C3376
:1006D00095E0FD7A027B03120E4C0200D674E912FB
:1006E00010467582007583FE1211FE8A168B1775EF
:1006F00014007515008A828B83E4F0900391E070FA
:1007000006D2AAD2AF80046402700579001200B646
:10071000750C00750D20750E00750F00900391E0AB
:10072000600464027015120D1C1200DBE9F87409F4
:1007300068600302080D79001200B675080075099B
:100740000278081212CF74021212E8850C08850D87
:1007500009AA08E5095407FB850E0A850F0B740BDF
:100760007808121252A908120EC574021212377EAE
:10077000007F009005AAC0828E10EFF5113395E03E
:10078000F512F513850C08850D09850E0A850F0BEA
:10079000780879101212A99005A678081212BC7573
:1007A0008305D08278081211DF501D8518828519C3
:1007B00083E5822EF582E5833FF583E0F9AA14AB49
:1007C0001512083C8A148B150EEE70010FC3EF94BE
:1007D0000240A09005AE780C1212BC9005B2780CC5
:1007E0001211DF400302071C7900AA14AB1512088E
:1007F0003C790012083C8B15900391E07004C2AF65
:10080000C2AAEA451570277AA57BA58021E8700366
:1008100002073B740668700302073B7407687003A5
:1008200002073B8516828517837401F080BA7582B2
:10083000007583021211FE7F10021163C008C00907
:100840007C088A088B09740F78081212F0E508F802
:10085000EA25E0FAEB33FBE9A2E7500474014AFA17
:10086000E8A2E0500874216AFA74106BFBE9C33304
:10087000F91CEC70CDD009D0082274F8121046781B
:10088000007900802274942EF582E43403F583E02D
:100890008A828B83F09004141209FA4005900414A4
:1008A000E4F008E8700109900414E0FEA3E06E6033
:1008B00007C3E89CE99D40CDE8FAE9FB7F010211FE
:1008C0006374F7121046900498E0F509A3E0F50868
:1008D000F8E509C398F895E0F9E508C39509E850EB
:1008E0000B120ADC701178007900801B247F500104
:1008F00009C39CE99D50EF7A007B008041E004F041
:10090000D2E908E8700109C3E89CE99D502C8A826D
:100910008B83E0C0E0900499E0FE74182EF582E429
:100920003404F583D0E0120ACC90049AE4F09004E9
:1009300099E0C3947F40C6E480C5E8FAE9FB7F02F2
:10094000021163C082C083C2E9900498E0F8A3E07A
:10095000686017741828F582E43404F583E0F5C163
:10096000900498120AF34002E4F0020D3A74F8126F
:1009700010467800790090051DE07055A3E0705195
:1009800075F900C28FC284A28340FCA28F4004A2EA
:100990008350F8AEF9C28FA2835004D2848032EE25
:1009A000C0E0E0FE1209EFD0E0F090051E120AF35D
:1009B00040D9E4F080D51209EFE08A828B83F09071
:1009C000051D1209FA400590051DE4F008E87001C4
:1009D0000990051DE0FEA3E06E6007C3E89CE99D59
:1009E00040D4E8497006E4F090051DF00208B874A0
:1009F0009D2EF582E43404F58322E004120AD0C36C
:100A000094802274F81210469005A0E0FEF890053C
:100A10009FE0FFEEC39FE0500DC398F895E0F912F8
:100A20000ADB70188012C398F895E0F9E8247F502B
:100A30000109C39CE99D4004EC4D70077A007B00DE
:100A4000020AC98A828B83E0F5F9A3AA82AB837874
:100A50000179008008E004F008E8700109C3E89C0F
:100A6000E99D50278A828B83E0C0E09005A0E0FEDC
:100A7000741F2EF582E43405F583D0E0120ACC9081
:100A800005A0E0C3947F40CDE480CCC28FA2834018
:100A9000FCC284A28F4004A28350F890059F120AE2
:100AA000E6E0F5F9C28F90059FE0FAA3E06A9005B1
:100AB0009F7005120AE68005120AF34002E4F0A2D4
:100AC0008350D0D284E8FAE9FB0208BC120AD02293
:100AD000F08A828B83A3AA82AB8322E824FF18E9E1
:100AE00034FFF9E84922E0FA741F2AF582E434055C
:100AF000F58322E004F0C394802274FB12126B7E13
:100B0000009005CA780812131D9005CA7401F0A35D
:100B1000F0A37469F0A374A5F09005B678081212DA
:100B20008170047E0180159005BA780812128160E8
:100B300008E59D541864107003022000120C81EE29
:100B4000A2E05003020BFEAA18AB191201FFE970D4
:100B500003020BFE851882851983E0C3943C500C78
:100B6000E0F8743CC398FA95E0FB80047A007B00BF
:100B7000120D3FE97003020BFE900391E0640170D7
:100B80000C75F800C2AB539AF7D2EA805E7907126F
:100B900000B68003120D1C120D26E970F7740112C5
:100BA0001339E4F0A37426F0A3E4F0A3F074011267
:100BB0001339780812131D85080C85090D850A0E56
:100BC000850B0F9005A2780C1212BC740112133918
:100BD000780C12130EE5084509450A450B70CE75D1
:100BE0008600C2AAC28B539AFBC2E990000174CD61
:100BF000F0022000C2AF75C9AB75C95B80FE7508F5
:100C000000750900750A00750B00900391E0701BD8
:100C1000D2AAD2AF79051200B6E07003120D1C12F1
:100C200000DBE9F8740968700980E9794E120C5B01
:100C300080ED74016870E2E07017120D1C9005BE23
:100C400078081212BC9005C278081211DF50EBC26E
:100C5000AAC2AF75C9AB75C95B80FEC082C083787C
:100C6000109005A1E0C399501575B60FE5B4A2E741
:100C700050FAE5BBC39940F118E870EDE9F0020DB8
:100C80003AC082C08353BEFBE59DA2E650FA0078CD
:100C9000F8790100120ADB70FA75C6807480659ECF
:100CA00070FA43BE049062707408F0794A120C5BCB
:100CB00090000174F5F07403F5D575D489A2A0E411
:100CC00033900391F0A2E05029D28453F3F753F309
:100CD000EF53FDF743FD10538FF753F7DF43FC202D
:100CE00043F10253F5DF75F82043F4F0D2FED2ABA6
:100CF000802853FF3F85FFFF53F1FE43F30C53F26F
:100D0000F375868075C48090049BE4F0A3F075C2EF
:100D1000D875C50B75C402438640801E8003120936
:100D200043A2E940F922C082C083900498E0F8A36E
:100D3000E0686004790180027900D083D082227457
:100D4000F112104674FF12126B7E00900391E06462
:100D500001706CC2849003927401F07508388E099A
:100D60008E0A8E0B7C017D00AA18AB19120E1C8B0B
:100D70000DEA450D6018851882851983E0641060BE
:100D80002DE064EF70088E088E098E0A8E0B8508A0
:100D90000C85090D850A0E850B0F9005A2780812A7
:100DA00012BCE50C450D450E450F70347E019003D5
:100DB00091E064017056D284900392E4F08051D2A5
:100DC000AAD2AF8A088B09E4F50AF50B9005C6781C
:100DD0000C12131D7808790C120FC679061200B692
:100DE000900391E06003020D64120D1C1200DBE918
:100DF000F8740968700779061200B6809174076864
:100E00006084E8608974066870A48082C2AFC2AA58
:100E1000EEF974011212377F08021163C082C08399
:100E2000900391E0700512087A801E900392E060B2
:100E300015A28F500BE5F98A828B83F07A0180022C
:100E40007A007B00800312096D020D3AC082C083D4
:100E5000900391E070051208C18003120A03020D8D
:100E60003AC0E074F21210AC900001E064CD70055D
:100E7000122013802AE064F57024E5C1C28BC0E023
:100E8000900415E0F8749428F582E43403F583D0D7
:100E9000E0F0900415120AF34005E4F08001007FB1
:100EA0000102110BC0E074F21210AC900001E0647A
:100EB000CD700512203B800BE064F57005120943EC
:100EC00080010080DA74F6121046890A740F550A00
:100ED000F508750900740B7808121296EA2400F8D8
:100EE000EB3480F9E82400E93509F985C709A2AF98
:100EF000E433F508C2AFE50AC4540FFAE5C754F865
:100F00004AF5C7740A121339E0FAA3E0FB801C8883
:100F1000828983E08C828D83F088828983A3A88272
:100F2000A9838C828D83A3AC82AD83EAFEEBFFEEB6
:100F300024FF1AEF34FFFBEE4F70D48509C7E50894
:100F4000A2E092AF7F0302116374F7121046ED9096
:100F50000389F0ECA3F0A37462F0A37473F0A3E030
:100F6000541FF07409121339E0F508A3E0F509E500
:100F700008333354FC90038EF0740678081212F094
:100F8000E50890038DF090038F7412F0A37442F083
:100F900075D1FE75D601EA906271F0EBA3F0906214
:100FA00070E0D2E1F0E0A2E740FB7F02021163C0F3
:100FB00082C083E9C333906272F0906270E0D2E045
:100FC000F0D083D08222080808EAC0E0EBC0E086B7
:100FD000F0E7A4FA180986F0E7A42AFA180986F0BF
:100FE000E7A42AFA180986F0E7A42AFA1986F0E796
:100FF000A4FBE5F02AFA190886F0E7A42BFBE5F03C
:101000003AFA190886F0E7A42BFBE5F03AFA18182B
:101010000986F0E7A4C5F02BFBE43AFA1908E7C506
:10102000F0C6A426F6E5F03BFBE43AFA1886F0E7B2
:10103000A4F6E5F00826F6E43B08F6E43A08F6D014
:10104000E0FBD0E0FA222518C582C0E0E51934FFA4
:10105000C583C0E0E518C3958224F910AF088583E5
:10106000198582188008858319858218D2AFCEF041
:10107000A3E520F0A37808E608F0A3DEFAEFF0A3DA
:10108000E58124FBF8E608F0A3E608F0A30808E6EB
:1010900008F0A3E608F0A315811581D0E0FED0E0AA
:1010A000F815811581E8C0E0EEC0E022C0D0251817
:1010B000C582C0E0E51934FFC583C0E0E518C395DB
:1010C0008224F310AF0885831985821880088583F0
:1010D00019858218D2AFC8F0A3E9F0A3EAF0A3EB18
:1010E000F0A37908E709F0A3D8FAECF0A3EDF0A398
:1010F000EEF0A3EFF0A3D0E0F0A3D0E0F0A3D0E0B7
:10110000F0A3E520F0A3E5F0F0A32285198385186C
:1011100082E0C0E0A3E0F9A3E0FAA3E0FBA3780833
:10112000E0F608A3DFFAE0FCA3E0FDA3E0FEA3E005
:10113000FFA3E0C0E0A3E0C0E0A3E0F5D0A3E0F5AA
:1011400020A3E0A3F5F010AF0885831985821880ED
:1011500008858319858218D2AFD082D083D0E0F879
:10116000D0E032851983851882E0A3FEE0A3F52044
:101170007808E0A3F608DFFAE0A3FFE0A3C0E0E010
:10118000A3C0E0E0A3C0E0E0A3C0E010AF08858208
:10119000188583198008858218858319D2AFD0837A
:1011A000D08222E490030278A179038002F0A3D8D0
:1011B000FCD9FA7AA27B0590008E782979018015F6
:1011C000E493A3AD82AE838A828B83F0A3AA82AB21
:1011D000838D828E83D8E9D9E7120AFA121343C0AD
:1011E00008C3E096F50808A3E096420808A3E09635
:1011F000420808A3E09645087001D3D00822C582B2
:101200002518C582C583351910AF07F519858218D1
:101210008007F519858218D2AFC583222518F5827B
:1012200010AF08F518400C15198008F51840021584
:1012300019D2AF8519832200C0D0251810AF08F548
:1012400018500C05198008F51850020519D2AFD0B6
:10125000D0226016080808C6C313C618C613C618DD
:10126000C613C618C613C6D5E0EA22251810AF0863
:10127000F518400C15198008F51840021519D2AF61
:1012800022E066701008A3E066700A08A3E06670AA
:101290000408A3E06622700422600D18C6C333C69A
:1012A00008C633C6D5E0F41822E627F60809E63763
:1012B000F60809E637F60809E637F622E026F608CA
:1012C000A3E036F608A3E036F608A3E036F622746B
:1012D000028000C0E0F40412121CD0E012132C2291
:1012E0002518FAE43519FB222518FCE43519FD22EE
:1012F000600C08C6C313C618C613C6D5E0F4227521
:10130000D00075813F7518027519030211A3E6F02C
:1013100008A3E6F008A3E6F008A3E6F022E0F6084A
:10132000A3E0F608A3E0F608A3E0F622CAC0E0E6D0
:10133000F0A308DAFAD0E0FA222518F582E435198C
:10134000F5832200000080FBFFFFFFFFFFFFFFFF90
:10135000FFFFFFFFFFFFFFFFFFFFFFFFFFFFFFFF9D
:10136000FFFFFFFFFFFFFFFFFFFFFFFFFFFFFFFF8D
:10137000FFFFFFFFFFFFFFFFFFFFFFFFFFFFFFFF7D
:10138000FFFFFFFFFFFFFFFFFFFFFFFFFFFFFFFF6D
:0A1FF600CA05094338860000000008
:020000040003F7
:01FFF000F020
:020000040000FA
:10200000022C6A0221FBFFFFFFFFFFFFFFFFFFFF24
:10201000FFFFFFFFFFFFFFFFFFFFFFFFFFFFFFFFD0
:10202000FFFFFFFFFFFFFFFFFFFFFF022904FFFF8E
:10203000FFFFFFFFFFFFFFFFFFFFFFFFFFFFFFFFB0
:10204000FFFFFF022759FFFFFFFFFFFFFFFFFFFF1B
:10205000FFFFFF022135FFFFFFFFFFFFFFFFFFFF35
:10206000FFFFFFFFFFFFFFFFFFFFFF02292DFFFF25
:10207000FFFFFFFFFFFFFFFFFFFFFFFFFFFFFFFF70
:10208000FFFFFF02218C01FFFFFFFFFFFFFFFFFFAC
:1020900010201020010105030101FF0F10FEFFE0D9
:1020A0004B00000000164B00000000FF000000FF86
:1020B000000196511800020000673D000000000179
:1020C0003DE53D373DAF3D00002B3D0000000000E9
:1020D0000000000000000000000000000000000000
:1020E00000000006FFFFFF01010400C01B0000000C
:1020F000E8030000FFFF8F1CE80300006400640099
:10210000B801A0BB0D00A0BB0D000202000800003A
:102110000502070101051E02051E020A0A01080840
:1021200003B80B02803E0102FEFFE8030A0500012E
:10213000FFFF0A01E0C0E074F2122577A2AFE4339A
:10214000F508D2AFAFA7AEA1EE5F54106006123A09
:102150008575A1EFEE5F54086008123A8B75A1F700
:102160008023EEA2E092F0EFA2E082F0501790619F
:1021700098E0F8900B51E0C398A2D265D03350029A
:10218000E8F075A1FE751A00E5088066C0E074F2FB
:10219000122577A2AFE433FED2AF9061A4E0F875C8
:1021A0009B00E59158540860087591F7123AD38066
:1021B00023E59158541060087591EF123AD98014B4
:1021C000E591A2E092F0E8A2E082F05007E0C2E0E0
:1021D000F0123C2F9061A3E0F8E5E9585404600E3A
:1021E000123C0575E9FB906193E0A2E640F2751A96
:1021F00000EEA2E092AF7F010225D6C0E074F21299
:102200002577A2AFE433FED2AF9061A5E0F8E5BF39
:10221000585404600675BFFB123C4780D1C3E49854
:10222000F8E499F912225E8026C3E49AFAE49BFB53
:10223000E920E7E912225EE498F8E499F922C3E480
:1022400098F8E499F912225EE498F8E499F9C3E465
:102250009AFAE49BFB22EB20E7CFE920E7E0B90004
:1022600010BB0008E88AF084F8AAF022E4FBC8FA60
:1022700022EB70227B10C833C8C933C9335007C35F
:102280009AC3DBF280069A50012ADBEAC833F4C80D
:10229000C933F4C9FA2275F008E4C833C8C933C990
:1022A00033C99AC99B5004C92AC93BD5F0ECFBC875
:1022B00033F4C8E4C9FA2274F512251174FA122A0B
:1022C000C77508047509007808122A517404122A87
:1022D000A77AF87B07790312395F7402122A2E90CD
:1022E00080F27808122C7A7402122D077808122ACC
:1022F000F370497508027509007808122A517402B2
:10230000122AA77AF67B07790312395F7402122A20
:102310002E851882851983E0F47003A3E0F4601C15
:10232000851882851983E0F8A3E0F988828983748F
:1023300002F0A3F0A37469F0A374A5F0C2AF75D640
:102340009F0200007406122A2E7F0402279C0808B0
:1023500008EAC0E0EBC0E086F0E7A4FA180986F0CE
:10236000E7A42AFA180986F0E7A42AFA180986F0E1
:10237000E7A42AFA1986F0E7A4FBE5F02AFA19087F
:1023800086F0E7A42BFBE5F03AFA190886F0E7A4FB
:102390002BFBE5F03AFA18180986F0E7A4C5F02BF4
:1023A000FBE43AFA1908E7C5F0C6A426F6E5F03BC7
:1023B000FBE43AFA1886F0E7A4F6E5F00826F6E41E
:1023C0003B08F6E43A08F6D0E0FBD0E0FA22E4CF8E
:1023D000C0E0E4CEC0E0E4CDC0E0E4CCC0E075F005
:1023E00020E626F608E633F608E633F608E633F686
:1023F000181818EC33FCED33FDEE33FEEF33FFC35A
:10240000EC9709ED9709EE9709EF97191919400F05
:10241000FFEC97FC09ED97FD09EE97FE191906D51B
:10242000F0BFECF709EDF709EEF709EFF719191905
:10243000D0E0FCD0E0FDD0E0FED0E0FF222518C5C2
:1024400082C0E0E51934FFC583C0E0E518C395827A
:1024500024F810AF088583198582188008858319B0
:10246000858218D2AFCEF0A3E520F0A37808E60865
:10247000F0A3DEFAEFF0A3E58124FAF8E608F0A372
:10248000E608F0A3E608F0A30808E608F0A3E608CB
:10249000F0A315811581D0E0FED0E0F815811581FB
:1024A0001581E8C0E0EEC0E022122CFCB900030266
:1024B00024FBE49004D17875791A8002F0A3D8FC4B
:1024C000D9FA781A9020867A01BA00028007E4933C
:1024D000A3F608DAF97A457B1E90209478A2790158
:1024E0008015E493A3AD82AE838A828B83F0A3AA86
:1024F00082AB838D828E83D8E9D9E775824D75834F
:102500009B74061229F5758213758349740012298C
:10251000F52518C582C0E0E51934FFC583C0E0E5A4
:1025200018C3958224F910AF088583198582188015
:1025300008858319858218D2AFCEF0A3E520F0A3D9
:102540007808E608F0A3DEFAEFF0A3E58124FBF8B3
:10255000E608F0A3E608F0A30808E608F0A3E608FA
:10256000F0A315811581D0E0FED0E0F8158115812A
:10257000E8C0E0EEC0E022C0D02518C582C0E0E58A
:102580001934FFC583C0E0E518C3958224F310AF6A
:10259000088583198582188008858319858218D259
:1025A000AFC8F0A3E9F0A3EAF0A3EBF0A37908E742
:1025B00009F0A3D8FAECF0A3EDF0A3EEF0A3EFF04E
:1025C000A3D0E0F0A3D0E0F0A3D0E0F0A3E520F0AA
:1025D000A3E5F0F0A322851983851882E0C0E0A36B
:1025E000E0F9A3E0FAA3E0FBA37808E0F608A3DF94
:1025F000FAE0FCA3E0FDA3E0FEA3E0FFA3E0C0E05F
:10260000A3E0C0E0A3E0F5D0A3E0F520A3E0A3F5AC
:10261000F010AF0885831985821880088583198595
:102620008218D2AFD082D083D0E0F8D0E032E47309
:1026300075F0108E218F228582268583258518824C
:10264000851983E0CEA3E0CF852682852583EBC95B
:10265000EAC8EDCBECCAC3E833C8E933C9EA33CAE8
:10266000EB33CBC3EA9EF524EB9FF523B35004ABC9
:1026700023AA24EC33CCED33CDD5F0DAAE21AF2252
:1026800022D083D082ECC0E0EDC0E0E493A3FCE470
:1026900093A3FDED4C600D1227DCEC24FFFCED3420
:1026A000FFFD80EFE493A3FCE493A3FDED4C600DEC
:1026B0001228AFEC24FFFCED34FFFD80EFD0E0FDED
:1026C000D0E0FCE493A3C0E0E493C0E0228519834A
:1026D000851882E0A3FEE0A3F5207808E0A3F608C1
:1026E000DFFAE0A3FFE0A3C0E0E0A3C0E0E0A3C006
:1026F000E0E0A3C0E0E0A3C0E010AF088582188549
:1027000083198008858218858319D2AFD083D0823F
:102710000229FBD083D082E9C0E0E493A3C386F012
:10272000C5F095F0F908E493A386F0C5F095F07034
:102730000BE493A3C3994005E9048002A3E475F078
:1027400002A42582F582E5F03583F583D0E0F9E433
:1027500093A3C0E0E493C0E022C0E074F2122577B6
:10276000A2AFE433FED2AFC2C0901D3DE0700BE5D6
:10277000D1A2E4501D1239E38018E5D1A2E350063E
:1027800075D1F71239B9E5D1A2E4500675D1EF122F
:1027900039BFEEA2E092AF7F010225D6851983856D
:1027A0001882E0A3FEE0A3F5207808E0A3F608DF96
:1027B000FAE0A3FFE0A3C0E0E0A3C0E0E0A3C0E034
:1027C000E0A3C0E010AF08858218858319800885D2
:1027D0008218858319D2AFD083D08222C0E0C3E4AF
:1027E0009396087401939618400FE4936670080856
:1027F000740193661870007019A3A3C3E49396083C
:102800007401939618A3A3400DD0E0D0E0D0E0026D
:1028100026BDA3A3A3A3A3A3D0E022D083D082C5C7
:10282000F0E493A3C5F0C395F0F5F0E493A3C3954A
:10283000F04005E5F0048001E475F002A42582F57E
:1028400082E5F03583F583E493A3C0E0E493C0E030
:10285000227404800474028000CCC0E0EDC0E0E586
:1028600018C39CCCAD1950011D10AF068C188D19E2
:1028700080068C188D19D2AF122977D0E0FDD0E0F8
:10288000FC2274028000CCC0E0EDC0E0E518C39CDF
:10289000CCAD1950011D10AF068C188D1980068C17
:1028A000188D19D2AF122955D0E0FDD0E0FC22C01E
:1028B000E0C0F088F0E4936670080874019366182D
:1028C0007000A8F0A3A3700BD0F0D0E0D0E0D0E06F
:1028D0000226BDA3A3D0F0D0E022D083D082CCC00A
:1028E000E0E493A360061229D61470FAE493A3607F
:1028F00006122ADD1470FAD0E0FCE493A3C0E0E4F1
:1029000093C0E022C0E0C0D0E8C0E0E9C0E0A9A8E0
:10291000D2AFC2C7751A00E9A2E7E433F8E9A2E72B
:1029200092AFD0E0F9D0E0F8D0D0D0E032C0E0747F
:10293000F2122577758900C2C5901D3DE0700E7AB0
:10294000007B10900BE7E0F9123F178003124769F4
:102950007F010225D6CAC0E0E493A3C582CCC5821C
:10296000C583CDC583F0A3C582CCC582C583CDC543
:1029700083DAE5D0E0CA22CAC0E0E0A3C582CCC5B4
:1029800082C583CDC583F0A3C582CCC582C583CD66
:10299000C583DAE6D0E0CA2270090808082260166A
:1029A000181818C6C333C608C633C608C633C608C7
:1029B000C633C6D5E0EA22C008C3E096F50808A3EE
:1029C000E096420808A3E096420808A3E09645086E
:1029D0007001D3D00822C0E0E493A3D39C5010E44C
:1029E00093A3C39C400AD0E0D0E0D0E00228F7A334
:1029F000A3A3D0E022C09FF59FE473D09F22D08391
:102A0000D082C09FE493C0E0740193C0E07402934D
:102A1000F59F222518F58210AF08F518400C1519FE
:102A20008008F51840021519D2AF8519832200C01D
:102A3000D0251810AF08F518500C05198008F518A6
:102A400050020519D2AFD0D0227404800A740380DA
:102A500006740280027401C0E0F404122A13D0E06C
:102A6000122CA722BB0102E722C082C08389828A7E
:102A700083BB0003E08002E493D083D082226016FF
:102A8000080808C6C313C618C613C618C613C61846
:102A9000C613C6D5E0EA222518F8E43519F922252F
:102AA00018FAE43519FB222518FCE43519FD22C378
:102AB000E0C696F608A3E0C696F608A3E0C696F62A
:102AC00008A3E0C696F622251810AF08F518400CAA
:102AD00015198008F51840021519D2AF22C0E0E49C
:102AE00093A36C7009D0E0D0E0D0E00228F7A3A354
:102AF000D0E022E066701008A3E066700A08A3E048
:102B000066700408A3E06622E76670100809E766AD
:102B1000700A0809E76670040809E76622C3E096B0
:102B200008A3E09608A3E09608A3E096A2D265D099
:102B30003322C3E096F008A3E096F008A3E096F0F5
:102B400008A3E096F022C3E697F60809E697F60890
:102B500009E697F60809E697F622C3E49396087407
:102B60000193960874029396087403939622E627BD
:102B7000F60809E637F60809E637F60809E637F6F3
:102B800022E026F608A3E036F608A3E036F608A30E
:102B9000E036F622E493F608740193F60874029383
:102BA000F608740393F622E647F60809E647F608A6
:102BB00009E647F60809E647F622E657F60809E669
:102BC00057F60809E657F60809E657F622E056F6E2
:102BD00008A3E056F608A3E056F608A3E056F6224E
:102BE000E056F008A3E056F008A3E056F008A3E092
:102BF00056F022E026F008A3E036F008A3E036F015
:102C000008A3E036F022700422600D18C6C333C654
:102C100008C633C6D5E0F41822E4C396F608E49655
:102C2000F608E496F608E496F622C6F4C608C6F45A
:102C3000C608C6F4C608C6F4C622600D08C6A2E7D8
:102C400013C618C613C6D5E0F322C3E7960809E7F2
:102C5000960809E7960809E79622C3E09608A3E0DC
:102C60009608A3E09608A3E0962275D00075813FF0
:102C70007518D1751904000224A9E0F608A3E0F63E
:102C800008A3E0F608A3E0F622600C08C6C313C64A
:102C900018C613C6D5E0F422E6F008A3E6F008A3B0
:102CA000E6F008A3E6F022CAC0E0E6F0A308DAFAEC
:102CB000D0E0FA22E0F8A3E0F9A3E0FAA3E0FB22D7
:102CC000E0FCA3E0FDA3E0FEA3E0FF22EAF0A3EB1B
:102CD000F0A3ECF0A3EDF022E0FAA3E0FBA3E0FC0C
:102CE000A3E0FD22ECF0A3EDF0A3EEF0A3EFF022C1
:102CF000E8F0A3E9F0A3EAF0A3EBF022E5C754F86B
:102D00004401F5C77901222518F582E43519F583C8
:102D1000221229FE25A5021229FE56A6021229FE1C
:102D200092A6021229FE6CA8021229FE29AC0212F8
:102D300029FE3DAC021229FE47AC021229FE51AC1D
:102D4000021229FE5BAC021229FE65AC021229FEBA
:102D50007EAC021229FE88AC021229FEFFAC0212E0
:102D600029FE0AAD021229FE39AD021229FE61AD1B
:102D7000021229FE6CAD021229FED1AD021229FE0B
:102D8000DBAD021229FEE6AD021229FE0AAE0212E6
:102D900029FE2EAE021229FEA0AE021229FEE9AED5
:102DA000021229FE05AF021229FE76AF021229FE99
:102DB000C2AF021229FE0BB0021229FE49B0021264
:102DC00029FECAB0021229FE71B1021229FE36B3E1
:102DD000021229FE9BB3021229FEC9B4021229FE77
:102DE000EFB4021229FE37B6021229FE71B902129F
:102DF00029FE6FBB021229FE3ABD021229FED3BD85
:102E0000021229FED4BF021229FE89C0021229FE35
:102E1000C2C0021229FE32C1021229FE3CC10212B6
:102E200029FE65C3021229FE68C4021229FEA5C547
:102E3000021229FEFCC5021229FEA7C6021229FEB3
:102E400057C8021229FEA4C9021229FEC4C90212DF
:102E500029FE19CA021229FE1ACB021229FE42CB00
:102E6000021229FEA1CB021229FE99CC021229FEE0
:102E700010CD021229FE23CE021229FE91CE02129B
:102E800029FE90CF021229FEEAD1021229FE13D2A6
:102E9000021229FE79D3021229FEFBD4021229FE66
:102EA00052D5021229FE00D6021229FEA5D6021220
:102EB00029FE08D7021229FEC6D7021229FE58D8C9
:102EC000021229FEB7D8021229FEF9D8021229FEF1
:102ED0002AD9021229FE81DA021229FE0080031289
:102EE00029FE3280031229FE6B80031229FE3482F0
:102EF000031229FE7882031229FE4E83031229FE53
:102F0000AD83031229FEC384031229FE0F85031229
:102F100029FE9D87031229FE818A031229FEC88B90
:102F2000031229FE608C031229FE6C8C031229FE09
:102F3000B58C031229FEF78D031229FEED8E0312C4
:102F400029FE178F031229FE6D8F031229FEC68FEB
:102F5000031229FE3990031229FE6F92031229FEF3
:102F6000F193031229FEDA94031229FE2496031228
:102F700029FE5C98031229FE599B031229FE689BC7
:102F8000031229FEFC9B031229FEA79C031229FEB3
:102F9000EA9C031229FE339D031229FE839D03122E
:102FA00029FEE79D031229FE599E031229FE759EF4
:102FB000031229FEA49E031229FEE39E031229FE9A
:102FC000DE9F031229FE8DA0031229FE0AA303121D
:102FD00029FE3CA4031229FE14A5031229FE96A57E
:102FE000031229FECBA9031229FEFAA9031229FE16
:102FF00055AA031229FE88AA031229FE00AB031268
:1030000029FE38AB031229FE88AB031229FEF7AC68
:10301000031229FE1BAD031229FE55AD031229FE32
:1030200062AD031229FE65AD031229FE94AD0312B1
:1030300029FE8CAF031229FE4BB0031229FE7AB091
:10304000031229FE98B1031229FE60B2031229FE71
:1030500021B4031229FE91B4031229FEC3B4031252
:1030600029FE29B5031229FE38B5031229FE65B5DC
:10307000031229FE7FB5031229FEF2B5031229FEC1
:1030800016B8031229FE75B8031229FEC9B8031237
:1030900029FEF8BA031229FEDBBB031229FE63BC2A
:1030A000031229FE47BD031229FED1BD031229FEDA
:1030B000E5BD031229FEF9BD031229FE0DBE031260
:1030C00029FE21BE031229FE4EBE031229FE7EBE3A
:1030D000031229FE39C0031229FE0FC1031229FE73
:1030E000B3C1031229FE08C2031229FE51C2031202
:1030F00029FED5C2031229FE1CC3031229FE8EC36A
:10310000031229FEE3C4031229FE8CC5031229FE13
:10311000A4C5031229FE47C6031229FEC3C8031221
:1031200029FE6BCA031229FE89CA031229FE4781B0
:10313000011229FE8981011229FEF686011229FE5B
:103140004287011229FE8887011229FED9880112BF
:1031500029FE3E89011229FE8289011229FEE88A90
:10316000011229FE438E011229FE768F011229FEDB
:10317000059B011229FE959B011229FE7F9E0112DB
:1031800029FEE49F011229FE47A0011229FE63A136
:10319000011229FECDA2011229FEACA3011229FEC3
:1031A0001AA6011229FEACA7011229FE3DA80112A0
:1031B00029FE5CA9011229FEE9A9011229FEF3A941
:1031C000011229FE1BAA011229FEBEAA011229FE24
:1031D000A9AB011229FE71AC011229FEFEAC01124D
:1031E00029FE14AD011229FE31AD011229FE5AAD9E
:1031F000011229FE87AD011229FECBAF011229FE73
:103200009EB0011229FEE2B0011229FE64B1011242
:1032100029FE05B2011229FE37B2011229FE7EB243
:10322000011229FEB1B2011229FEF5B2011229FEE6
:1032300044B3011229FE49B3011229FEA5B30112BC
:1032400029FEE9B3011229FED3B4011229FE38B5D3
:10325000011229FE96B5011229FE15B6011229FEAA
:103260008DB9011229FE90BA011229FE26BC011265
:1032700029FE69BF011229FE0BC0011229FE54C2AA
:10328000011229FE0FC3011229FE4EC3011229FEAD
:1032900012C5011229FE2FC5011229FE38C50112DF
:1032A00029FE41C5011229FE4CC5011229FE6BC53C
:1032B000011229FE8FC7011229FEECC7011229FE57
:1032C000F6C7011229FE00C8011229FE63C80112C7
:1032D00029FEBFC8011229FECCC9011229FE2DCA40
:1032E000011229FE3ECB011229FE87CB011229FED5
:1032F00051CC011229FE68CD011229FE2CCE0112FB
:1033000029FE78CF011229FE7CD0011229FE75D149
:10331000011229FE8DD1011229FEC4D1011229FE0C
:10332000CED1011229FED8D1011229FEE3D101121A
:1033300029FE01D2011229FE49D2011229FEA7D28B
:10334000011229FECED2011229FEE0D2011229FE7D
:1033500089D3011229FEC2D3011229FEF3D401122E
:1033600029FE50D5011229FE41D6011229FE77D639
:10337000011229FEE7D6011229FE63D7011229FEA8
:10338000E4D8011229FE0BDA011229FECDDA01126E
:1033900029FE9BDB011229FE20DC011229FECFDC75
:1033A000011229FEB7DD011229FE50DE011229FEAD
:1033B0002CDF011229FE94DF011229FE53E00112D5
:1033C00029FEAFE0011229FE13E1011229FED9E125
:1033D000011229FEFCE1011229FEB6E2011229FECA
:1033E000D8E2011229FE39E3011229FE69E5011232
:1033F00029FE62E6011229FE0EE7011229FE2BE9E1
:10340000011229FE74E9011229FEBFE9011229FE09
:103410001BEA011229FE79EA011229FE9DEA011236
:1034200029FEC1EA011229FEF6EA011229FE1EEB6D
:10343000011229FE63EB011229FEC1EB011229FEE4
:103440001AEC011229FE14ED011229FEC0EE011240
:1034500029FE05EF011229FE2EEF011229FEB7EF1A
:10346000011229FE2AF0011229FE38F0011229FE6C
:103470005CF0011229FEB2F0011229FECDF001121A
:1034800029FE88F1011229FEB4F1011229FEF7F19B
:10349000011229FE5AF2011229FE6AF4011229FED4
:1034A00096F4011229FE51F5011229FE35F601129A
:1034B00029FEC9F6011229FE78B3051229FEB0B320
:1034C000051229FED1B3051229FE13B4051229FEF7
:1034D00077B4051229FE81B4051229FE91B40512B4
:1034E00029FEC8B4051229FE71B8051229FE39BAA1
:1034F000051229FE1DBC051229FEBFBC051229FEBE
:1035000049BD051229FE5080041229FEF9800412DB
:1035100029FED881041229FEE482041229FE0483C4
:10352000041229FE2684041229FED685041229FEDF
:103530004386041229FE1487041229FE1A880412F5
:1035400029FE9288041229FECD88041229FE2689BC
:10355000041229FE6189041229FEAA89041229FE97
:103560003E8A041229FED48A041229FEA98B041271
:1035700029FE7C8C041229FE0A8D041229FE308D4E
:10358000041229FE5D8D041229FE8E8D041229FE7F
:103590005B8E041229FE6B8E041229FEBE8E04126D
:1035A00029FECB8E041229FED88E041229FEE18E4C
:1035B000041229FE458F041229FEA38F041229FE4E
:1035C000EE8F041229FE0990041229FE3090041295
:1035D00029FE4D90041229FE5990041229FEEA9109
:1035E000041229FE0392041229FE7F92041229FE7E
:1035F0009292041229FEA292041229FE469304120A
:1036000029FEB294041229FEC595041229FE65967E
:10361000041229FE6F96041229FEEE96041229FE6A
:10362000FF96041229FE3E97041229FE6C9704129D
:1036300029FE3998041229FE9098041229FEC9988F
:10364000041229FE1F99041229FE3D99041229FE35
:103650008B99041229FE569A041229FEA49A041288
:1036600029FEF19A041229FE749B041229FE9E9BE6
:10367000041229FED49B041229FEE39B041229FEA6
:10368000429C041229FEBA9C041229FEFB9C0412DF
:1036900029FE4B9D041229FE769D041229FE909D61
:1036A000041229FEAA9D041229FE7F9E041229FEFF
:1036B000899E041229FEC49E041229FED49E04127F
:1036C00029FEDD9E041229FE2E9F041229FE429F30
:1036D000041229FE64A0041229FE77A0041229FE18
:1036E0008EA0041229FEA3A0041229FE36A1041202
:1036F00029FEAAA1041229FE4FA2041229FE5AA2F1
:10370000041229FEBDA3041229FED9A3041229FE26
:1037100025A4041229FE93A4041229FEC5A40412B0
:1037200029FEDFA4041229FE3FA5041229FEDEA50E
:10373000041229FE29A6041229FE7CA8041229FEDF
:1037400014A9041229FE8BA9041229FEE8AB041265
:1037500029FE00AC041229FE03AC041229FE0FACB2
:10376000041229FE23AC041229FE2BAC041229FEFC
:1037700062AC041229FE56AD041229FEE0AD04121B
:1037800029FE62AE041229FEE2AE041229FEB9AF90
:10379000041229FEDBAF041229FE74B0041229FEC4
:1037A000D1B0041229FED4B0041229FE01B10412D2
:1037B00029FE16B1041229FE85B1041229FED1B2E8
:1037C000041229FEE4B3041229FE6FB4041229FE88
:1037D00082B5041229FE49B6041229FE7AB60412F3
:1037E00029FEA0B6041229FEA9B6041229FED8B6F5
:1037F000041229FE88B7041229FE38B8041229FEE3
:10380000ABB8041229FE4EB9041229FEC1B9041244
:1038100029FE00BA041229FE49BA041229FE7EBA12
:10382000041229FE0080051229FE6D80051229FE72
:10383000B480051229FE2A81051229FE7C81051219
:1038400029FE0282051229FE4684051229FE75868C
:10385000051229FE528A051229FED28A051229FE76
:103860000D8B051229FE2B8B051229FE8B8B051261
:1038700029FEB38B051229FEE38B051229FE148C59
:10388000051229FE418C051229FE9A8C051229FE8B
:10389000E58C051229FE1C8D051229FE988D051256
:1038A00029FEC48D051229FEF68D051229FE588FBA
:1038B000051229FE748F051229FEB28F051229FE0A
:1038C0003F90051229FE9B90051229FE6191051279
:1038D00029FE2092051229FE6592051229FEC69244
:1038E000051229FE3B93051229FE7593051229FE48
:1038F000CD93051229FEEF93051229FE8794051238
:1039000029FE2E95051229FE7B95051229FEA49508
:10391000051229FEE595051229FE9297051229FE4A
:103920007698051229FE2799051229FE32A806125B
:1039300029FE43A8061229FEE1A8061229FEECFF83
:10394000011229FEE47F001229FEFBA8061229FEBF
:103950000BA9061229FE20A9061229FEB1A90612FA
:1039600029FE3CA6061229FEC0A6061229FE26A79D
:10397000061229FEEFFF011229FEDDFF021229FEC9
:10398000EDFF021229FEF0FF021229FEF3FF0212E0
:1039900029FEF87F001229FE3999061229FE5B994B
:1039A000061229FEC69A061229FE4A9B061229FE15
:1039B0007DFF031229FE86FF031229FE8FFF0312EB
:1039C00029FE9DFF031229FE137A001229FE7F7A39
:1039D000001229FE477B001229FE3C7C001229FEC2
:1039E000297E001229FE837E001229FED67E001257
:1039F00029FEE77E001229FEF97E001229FE657F6E
:103A0000001229FE797F001229FE847F001229FE10
:103A1000927F001229FEA47F001229FE45D50512CF
:103A200029FE71D5051229FE17D8051229FE6ED878
:103A3000051229FEAAD8051229FEBED8051229FEB4
:103A4000D7D8051229FEF69D021229FEA4DA051226
:103A500029FEB8DA051229FE399D061229FE5D9D60
:103A6000061229FE769D061229FEB49D061229FE35
:103A7000EA9D061229FE1D9E061229FE279E0612A9
:103A800029FE939E061229FE969E061229FEA09EEE
:103A9000061229FEAD9E061229FE708F061229FE1F
:103AA000938F061229FEDE8F061229FEA6A40212AB
:103AB00029FE1790061229FE7D90061229FE899094
:103AC000061229FEE690061229FE0A91061229FE28
:103AD000D091061229FEDD91061229FEEE91061202
:103AE00029FE71AC061229FE89AC061229FEB5AC7E
:103AF000061229FE63E5051229FEC7E6051229FE16
:103B0000D5E6051229FEE9E6051229FE06E70512AB
:103B100029FE1BE7051229FE2EE7051229FEB0E754
:103B2000051229FE16E8051229FE9FE8051229FE56
:103B300017E9051229FEF0E9051229FE00EA05122F
:103B400029FE0FEA051229FED8AB061229FEFCABAE
:103B5000061229FE24AC061229FE4CAC061229FEE0
:103B60001C92061229FE4392061229FE6292061248
:103B700029FED792061229FE14FD021229FE2DFD00
:103B8000021229FE44FD021229FE4DFD021229FEF9
:103B90006BFD021229FE75FD021229FE7FFD021245
:103BA00029FE92FD021229FE1FFE021229FE8EFE40
:103BB000021229FEBCFE021229FE0DFF021229FE8E
:103BC00059FF021229FE74FF021229FE7EFF021223
:103BD00029FE8FFF021229FED2FF021229FE95FF55
:103BE000011229FEE0FF011229FEF8BD051229FE8F
:103BF00024BE051229FE47BE051229FE5ABE051233
:103C000029FE75BE051229FED9BE051229FE07BF81
:103C1000051229FE14C3051229FE56C4051229FEF9
:103C200088C4051229FEF3C4051229FE77C60512C1
:103C300029FE9FC6051229FEB4C6051229FEC4C678
:103C4000051229FE04C7051229FE46C7051229FEE2
:103C500056C7051229FE80A1061229FE90A1061260
:103C600029FEB4A1061229FEDDA1061229FE07A233
:103C7000061229FE2BA2061229FE42A2061229FED6
:103C800070A2061229FE93A2061229FEC1A90612ED
:103C900029FE07AA061229FEBC8B061229FECC8B30
:103CA000061229FEEA8C061229FE1E8D061229FE36
:103CB000408D061229FE688D061229FE818D06129E
:103CC00029FEBD8D061229FE238E061229FE688E5E
:103CD000061229FEAD8E061229FEDA8E061229FE84
:103CE000128F061229FE0580061229FE6780061231
:103CF00029FE0E81061229FE4681061229FEE2E9FE
:103D0000041229FE91EA041229FEC5EC041229FED0
:103D100098EF041229FE18F1041229FE7AF1041218
:103D200029FE85F4041229FEC9F5041229FECBA24E
:103D3000061229FE16A3061229FEF4DF051229FE3B
:103D4000B3E2051229FE50E3051229FE7CE30512B9
:103D500029FEAAE3051229FEDFE3051229FE07E486
:103D6000051229FE67E4051229FE09A7051229FE9E
:103D7000F2AA051229FEE9AC051229FE17AE0512BA
:103D800029FEF3AE051229FE9EB0051229FE39B2B6
:103D9000051229FE06B3051229FE5AB3051229FEA3
:103DA000A994061229FEB394061229FED494061291
:103DB00029FE149A051229FE3B9F051229FE6AA0CE
:103DC000051229FE46A2051229FE3FA3051229FE6F
:103DD00076A4051229FE83A5051229FE68A6051200
:103DE00029FEC9CA031229FE01CB031229FE5ED5A2
:103DF000031229FE48D6031229FE98D7031229FE82
:103E0000E3D8031229FE8ED9031229FE61DA0312C8
:103E100029FEF8DA031229FEDCDB031229FEDFDCBF
:103E2000031229FEA1DD031229FECFDD031229FEB4
:103E300047DF031229FED0DF031229FEE9DF031258
:103E400029FE43E1031229FEF5E1031229FE84E273
:103E5000031229FE33E3031229FE96E3031229FE1F
:103E600032E4031229FEABE4031229FEC9E4031273
:103E700029FE96E5031229FE65E6031229FE1BE7DB
:103E8000031229FEB79E061229FEE19E061229FEA4
:103E9000F59F061229FEF89F061229FE75AA061242
:103EA00029FEC8AA061229FE0AAB061229FE1AAB81
:103EB000061229FEBFCE051229FE06CF051229FEE5
:103EC0006FCF051229FE90CF051229FEA9CF05124A
:103ED00029FE59D0051229FE62D0051229FEB3D061
:103EE000051229FEE9D0051229FE00D1051229FE8E
:103EF0006DD1051229FEFDD1051229FE33D205121E
:103F000029FE7CD2051229FEDDD2051229FE17D327
:103F1000051229FE7FD3051229FED2D3051229FEF0
:103F200015D4051229FE52D4051229FE64D40512B7
:103F300029FE76D4051229FEB0D4051229FEF0D44C
:103F4000051229FE19D5051229FE40EA051229FE9F
:103F500086EB051229FEAFEB051229FEC0EB051218
:103F600029FED8ED051229FEF8ED051229FEF59679
:103F7000061229FE2B97061229FE7A97061229FEB1
:103F8000D698061229FED0D5041229FE0ED70412A7
:103F900029FE4AD7041229FE0FD9041229FE39D965
:103FA000041229FEBFDB041229FEFFDB041229FEE6
:103FB00095DD041229FE2ADE041229FE88DE041291
:103FC00029FE0EDF041229FE46DF041229FE88DFD7
:103FD000041229FEF5E0041229FE79E2041229FEFA
:103FE000B3E4041229FEE1E4041229FE0DE50412F3
:103FF00029FE16E5041229FE6CE5041229FEFCE5F3
:10400000041229FE03E9041229FE85E9041229FE9F
:1040100024AB061229FE3AAB061229FE44AB061267
:1040200029FEA0AB061229FE16F4051229FE2FF474
:10403000051229FED4F4051229FE14F5051229FEF5
:104040002DF5051229FE60F5051229FEADF50512C4
:1040500029FEE1F5051229FE23F6051229FEFCF7DB
:10406000051229FE67F8051229FEFFA3061229FE94
:1040700054A4061229FEAEA4061229FE29A5061292
:1040800029FE9BA5061229FED9A5061229FE1AA60D
:10409000061229FE8AF7011229FE90F7011229FE65
:1040A000D7F7011229FEE3F9011229FE13FA0112D2
:1040B00029FE7DFA011229FE38FB011229FE7BFB45
:1040C000011229FEACFB011229FE36FC011229FE69
:1040D0004DFC011229FE5AFC011229FE64FC01125A
:1040E00029FE04FE011229FEF6FE011229FE54FFEC
:1040F000011229FE07F7041229FE1DF7041229FEFA
:10410000CFF7041229FEF9F8041229FEEEF9041281
:1041100029FE85FA041229FEC0FA041229FE32FB98
:10412000041229FE90FB041229FEA0FB041229FEB2
:10413000C7FB041229FE19FC041229FE85FD041296
:1041400029FE8AFD041229FEACFD041229FEDDDAE7
:10415000021229FE35DB021229FED5DB021229FEEE
:1041600052DD021229FE3EDE021229FEFBDE0212A1
:1041700029FE12DF021229FE61DF021229FED5DFBD
:10418000021229FE30E0021229FE43E0021229FE4B
:10419000A7E0021229FE16E1021229FEC9E302126B
:1041A00029FECEE4021229FE29E5021229FE6FE55E
:1041B000021229FE25E8021229FE75E8021229FEE4
:1041C000F6E8021229FE38E9021229FE12EA02126A
:1041D00029FE4BEA021229FE6AEA021229FEB5EA1A
:1041E000021229FECBEA021229FE86EB021229FEF8
:1041F00054EC021229FE5FEC021229FEADEC021211
:1042000029FE02ED021229FE4EED021229FEA9EE50
:10421000021229FED3EE021229FE6BF1021229FED0
:1042200095F1021229FEA0F2021229FECFF202122B
:1042300029FE47F3021229FE22F4021229FE64F439
:10424000021229FED8F4021229FEF2F5021229FE0A
:104250003FF6021229FE52F6021229FE55F602120C
:1042600029FE5EF6021229FE79F6021229FEF1F607
:10427000021229FE2AF7021229FE46F7021229FE2F
:1042800072F7021229FE99F7021229FEBDF70212F7
:1042900029FE36F8021229FEA9F8021229FEECF8CE
:1042A000021229FEF6F8021229FE25F9021229FE51
:1042B0003BF9021229FE57F9021229FE86F9021271
:1042C00029FEA6F9021229FEEFF9021229FE2AFAA6
:1042D000021229FE36FB021229FE99FC021229FE67
:1042E000B8FC021229FECFFC021229FEE1FC0212E8
:1042F00029FE3FA7061229FE50A7061229FED9A7BC
:10430000061229FECCDA051229FE0ADB051229FE67
:10431000A3DB051229FEAEDC051229FEF6DE05122E
:1043200029FE73DF051229FE86C7051229FED5C7AF
:10433000051229FE93C9051229FE67CB051229FE35
:10434000A5CB051229FE86CC051229FE90CD0512BB
:1043500029FEB2CD051229FE0ECE051229FE8FCE02
:10436000051229FEFE4E001229FE204F001229FEE2
:104370008F50001229FED850001229FE4951001218
:1043800029FECC51001229FE4352001229FE8A5206
:10439000001229FE0153001229FEA553001229FE26
:1043A0001A54001229FE5754001229FE9F58001279
:1043B00029FEC25A001229FEFB5A001229FE3A5B5E
:1043C000001229FE365E001229FEC65E001229FE8A
:1043D0007A60001229FEB461001229FED462001234
:1043E00029FE4563001229FE2664001229FEA964F5
:1043F000001229FEBD64001229FE8C65001229FE00
:10440000C366001229FEF268001229FE016B001239
:1044100029FEED6B001229FE846E001229FE596FF1
:10442000001229FE9870001229FEC873001229FE9E
:10443000D873001229FE0E75001229FEA77500120E
:1044400029FED876001229FE4677001229FE7F78D1
:10445000001229FEBA78001229FE6379001229FEA3
:10446000E9BA041229FE8BBB041229FEF7BB041221
:1044700029FE11BC041229FE93BC041229FECDBCF6
:10448000041229FECFBD041229FE11BE041229FE1A
:1044900083BE041229FED3BE041229FE32BF0412C9
:1044A00029FEDEBF041229FEC8C2041229FE8FC3F2
:1044B000041229FEF5C3041229FE9DC5041229FE2B
:1044C00036C6041229FECFC6041229FE32C70412D2
:1044D00029FEA8C7041229FEA9C8041229FE9AC9F8
:1044E000041229FED5C9041229FEECC9041229FEC2
:1044F000CACA041229FE08CB041229FE90CB04126A
:1045000029FEDDCC041229FEA1CE041229FEDFCF44
:10451000041229FE12D1041229FE26D2041229FE09
:10452000BDD2041229FE2CD3041229FE39D4041260
:1045300029FEE0E7031229FE4BE8031229FE93E867
:10454000031229FEFAE8031229FE56E9031229FE96
:1045500091E9031229FE2DEA031229FE87EA0312CC
:1045600029FEF3EB031229FE6CEC031229FEA3EDE6
:10457000031229FECBED031229FEA9EE031229FE38
:10458000BAEE031229FED2EE031229FEC9EF03127E
:1045900029FEECEF031229FEB5F0031229FEDFF02D
:1045A000031229FEF6F0031229FE10F1031229FE70
:1045B0003CF1031229FE5CF1031229FE82F1031281
:1045C00029FE99F1031229FE6EF2031229FEC8F2A8
:1045D000031229FE99F3031229FE15F4031229FE92
:1045E0002CF4031229FEAFF4031229FEF7F4031290
:1045F00029FE1DF5031229FE75F6031229FE7AF62F
:10460000031229FEB8F6031229FE2FF7031229FE22
:104610009BF7031229FE96F8031229FE70F9031284
:1046200029FEBCF9031229FED4FA031229FED0FB9D
:10463000031229FE72FC031229FEB8FC031229FEA4
:10464000CDFC031229FEDFFD031229FE80FE0312BA
:1046500029FEDCFE031229FE0084061229FEBB851A
:10466000061229FE8386061229FED886061229FE26
:104670005E87061229FE74F8051229FE92F80512CB
:1046800029FED6F8051229FEFCF8051229FE23F9A9
:10469000051229FE3BF9051229FE53F9051229FEE0
:1046A0006BF9051229FE11FA051229FE53FA0512BB
:1046B00029FE68FA051229FE6FFB051229FE8AFB06
:1046C000051229FE93FB051229FE9CFB051229FE0B
:1046D000A5FB051229FEAFFB051229FE2CFC0512D5
:1046E00029FE4CEF051229FE8EF3051229FEAAF3CE
:1046F000051229FEAFF3051229FEBF9B061229FE03
:10470000F287061229FE0888061229FEA6890612DB
:1047100029FEF189061229FE5D8A061229FE5C8BAC
:10472000061229FE8B8B061229FE9D8B061229FE8E
:1047300025A0061229FE8AFC051229FEE6FC0512B8
:1047400029FE26FD051229FE28FE051229FE40FE3F
:10475000051229FE52FE051229FE7EFE051229FED3
:10476000B5FE051229FEC5FE051229FEDBFE051267
:1047700029FE00FF051229FE8EFF051229FEB87FD3
:10478000001229FEDE9C021229FEB99C021229FEAB
:10479000C99B021229FE559B021229FEBE9A0212E3
:1047A00029FE4C9A021229FE3B9A021229FE169A01
:1047B000021229FE3299021229FE4E98021229FE97
:1047C0006495021229FE2194021229FE8891021298
:1047D00029FE4391021229FEE990021229FE4A9015
:1047E000021229FEF58F021229FE228F021229FEE3
:1047F0005C8E021229FE208E021229FEB38D021257
:1048000029FEAB8D021229FE208D021229FEB08CEA
:10481000021229FE6BA3021229FE018C021229FE4C
:104820005BA3021229FE2FA2021229FE4DA0021242
:1048300029FE44A0021229FE37A0021229FE3A9F47
:10484000021229FEB29E021229FEA39E021229FE26
:10485000F68B021229FEE78B021229FEC68B02128A
:1048600029FE928B021229FE309E021229FE668BCF
:10487000021229FE388A021229FE2C88021229FE11
:10488000FD87021229FEFC8F061229FEE187021223
:1048900029FE149E021229FE8B87021229FE5287DE
:1048A000021229FECA86021229FE7E86021229FE03
:1048B0003786021229FE6A85021229FEEE84021250
:1048C00029FE4684021229FE9F83021229FE41839B
:1048D000021229FE1683021229FEC782021229FE45
:1048E0008982021229FE6682021229FE4D8202127C
:1048F00029FE0582021229FE4F81021229FE008044
:10490000021229FEC380021229FE5780021229FEDC
:10491000C8D90500000080FB8F000100301D870012
:1049200001002F1D35000400A91E25000200AD1E48
:1049300026000200AF1E27000200B11E2800010061
:10494000BB1E29000100BC1E84000400BD1E8600A1
:104950000100C11E2A000100C21E2B000100C31E5F
:104960002C000100C71E2D000800111D2E000100A3
:10497000C81E2F000100C91E30000100CA1E3100F0
:104980000100CB1E32000100191D330001001A1D69
:1049900034000100CC1E360001001B1D3800010050
:1049A000CD1E39000100C61E83000200E11E630017
:1049B00001002C1D64000100C41E65000100C51E1D
:1049C0006D0001002D1D71000800091D6600010029
:1049D000E01E43000100D11E44000200D21E45002B
:1049E0000100D41E46000200D51E47000800241D09
:1049F00048000100D71E4B000100D81E0400010032
:104A0000E31EA1000100E51E37000100E41E88003E
:104A10000100311D3C0001001C1D3D000100CE1EA7
:104A200049000200D91E670001002E1D4D00020042
:104A3000DB1E4E000100DD1E4F000200DE1E3E00A8
:104A40000100231D510001001D1D52000100CF1E59
:104A500053000100D01E540001001E1D0000000084
:104A600000000001363601010001020100010301CE
:104A700000010401060605020000070100340801D8
:104A8000000F090401010D0100FF0E0800001702CC
:104A90000000190100FF1A0100011B0100FE1C01AA
:104AA00000081D0200001F01000120010001210279
:104AB00000002301000F240200002601000127014D
:104AC0000008280200FF2A0100072B0102402C01E8
:104AD00000002D0100012E0100012F0100FF300117
:104AE0000B1D310800003A0100083B01000F3C019A
:104AF00000013D0100FF3E040000420400004604A6
:104B000000004A0400004E04000052040000560455
:104B100000005A04000001037103010301030103B3
:104B20000103010322030203010310030003000336
:104B300000030003000300030003420300032403F7
:104B400006030003000304031203250323032503C4
:104B500023030403040300030003000344030003CE
:104B600000032303000365032100350381030003D1
:104B700005030003000300030003250323030304CC
:104B800071040204600411047004020402040104AC
:104B90000204100461040004140463047304720426
:104BA0006204430400041304060400040004040423
:104BB0001204000400040004000451046400000412
:104BC000000400044404000400040004000465041C
:104BD0000004350481046400050400048304000417
:104BE00003007100300160001100700031022003E9
:104BF0005004800010006100000014006300730086
:104C00007200620043000000130006000000000074
:104C10000400120000000000000000000400040076
:104C2000370037003C024400000000000000000094
:104C300065000000350081000000050000008300D1
:104C400000000101710101010101110101013101A6
:104C5000010101018001100161013B0014006301A9
:104C600073017201620143010001130106013D015C
:104C700035000401120100010001000100010401DE
:104C80000401330133013C014401320136000001CB
:104C9000000165010001350081010001050182016B
:104CA00083010001030271023001600211027002EF
:104CB0000102020202028002100261023A00410077
:104CC000630273027202620243020002130238009E
:104CD00000020002040212020002000200020002AE
:104CE00004020402370037003C024402000239008B
:104CF0000002000265020002350281020002050284
:104D000082028302000236000100060000000F004C
:104D100000000000000000000000000003FFFF0092
:104D2000000403FFFF0000FFFF0FF4010005C404AF
:104D30000320000100000B00000000000000000341
:104D4000010F000000000000000000000000000053
:104D50000000000000000000000000000000000053
:104D60000000000000009F441300FD431F000344A7
:104D70001F80094401009F440200854303008B43C8
:104D800004009143050097430600A3433000C1434C
:104D90003100BB433200CD433300D3433500D94308
:104DA0003400DF433600E5431100F1431400F743BC
:104DB0001500B543FFFF00000A00000002000000DC
:104DC00004000000080000001000000020000000A7
:104DD0004000000080000000000100000002000010
:104DE0000004000000080000001000000020000087
:104DF0000040000001733106A93108A3310BC13115
:104E0000108B2E0AD331027931059731077F310C8F
:104E10005B310D673164DB47FF000007ECFDFDFDF2
:104E2000ECDCDCCCBCACAC9C9C8C7C7C6C6C5C5CB2
:104E30005C4C4C3C3C2C2C1C1C03EAF5E5D5D5C540
:104E4000B5A5959585857575656555554545353582
:104E5000252515150500160F00000B150B02000285
:104E6000220F3300000E5A6967426565416C6C6918
:104E7000616E6365303901030507090B0D0F0002F0
:104E80000406080A0C0D00034A49434E181A25056A
:104E90000200011916181616182303000C0E020B37
:104EA000040B0A0708000F303016181920231A1CAB
:104EB0001E3000393D3F373C3C362C442D303017F6
:104EC000181921301B1D1F300204020101010109C4
:104ED00002E803000000BE040A000000007F00E8B2
:104EE000030E00100C0A030305090008000CFF1E46
:104EF0001E2805080304040910150401080CC082CB
:104F0000C083901C87E4F0A3F07CED7D047AA07B45
:104F10001B12408B1247AB122ED91247A50264B662
:104F200074F312243D74F5122AC789098A088B0A82
:104F30008C0BE9705F74026508703F79081242D7E4
:104F4000750C00780C122A55E50BF50C780C122A1A
:104F500055E50AF50C780C122A55901BBC12285105
:104F6000901EC1E0F97C247D1D901EE1126F0E128F
:104F700047817407122A2E02505774016508600396
:104F800002505C79081242D77B00AA0AA90A12488B
:104F90001D025057740165096009740265096003B8
:104FA00002505CEA60067403650870477902124299
:104FB000D7901EC1E0F9901BBC122CD8124793E980
:104FC000F9901BCBE0A2E34010E9700D901C8BE040
:104FD00004F06404700312507D74036508707A90C5
:104FE0001C8CE0F8740128F0E8C39405406B125063
:104FF0007D806674016508706374016509790A70C3
:105000002E1242D77401122D07E4F07402122D07FC
:105010007403F004122D07E4F0A3F0A3F0A3F074DE
:1050200008122D07E4F0AA18AB191231858044123A
:1050300042D7901EB71228517A007B20901BC0E007
:10504000F912403D7404122A2E901EC1E0F9901B03
:10505000BC122CD812483BE9F9E960179080CE12B7
:1050600028517A017B00901BC0E0F912403D740486
:10507000122A2E740B122A2E7F050226CD901BBCFD
:10508000E4F0A374F8F0A374FFF0A37407F02274A3
:10509000F612243DE9FFEAFE7AD1F9123EF38A8244
:1050A0008B83E5824583702A7A027B00123ED5EA23
:1050B0004B700E7A107B00901BC0E0F9123F1780F6
:1050C000148A828B8374D1F0EFA3F0EEF9123EE1E3
:1050D0008003EFA3F00252FC74F712243D8908907C
:1050E00006FA126421901EA5E0F47003A3E0F470A8
:1050F0002D900BE7E0901EA5F0A3E4F080208E82B7
:105100008F83A31261AE600F8E828F83A3A312617F
:10511000A8FAA90812436D8E828F831251BFEE4FF9
:1051200070DC901EA5E0F47003A3E0F4600A901E0A
:10513000A5E0FAA90812436D123293901B8A125A05
:10514000F512328D7F010226CD74F012243D890BB9
:105150008C0C7508007509007410122D071252335B
:105160007412122D071251BF803CA80A125223F567
:105170000EA3E0F50FA809125216F583E0650E7034
:1051800004A3E0650F70141251B6EE28F582EF39D2
:10519000F583E50EF0A3E50FF00508050AE50AC35F
:1051A000950C40C60509E509C3950B5005750A0025
:1051B00080EBA9088011A808E828F8E433F9221246
:1051C0006BE7E8FEE9FF227F080226CD74F4122483
:1051D0003D890B8C0A750800740C122D071252338E
:1051E00080020508E508C3950B5027750900800269
:1051F0000509E509C3950A50E9A808125216126478
:105200001FA8091252236E7003A3E06F70E27901A8
:10521000800279008028E828F8E433F9EA28F5824A
:10522000EB3922E828F8E433F9EC28F582ED39F57A
:1052300083E022126BE7E8FCE9FD22122A2E7F04AC
:105240000226CD74F612243D1252E67003A3E06DDF
:1052500070177508C975091B7808122A51EEFA12E1
:1052600044A57402122A2E801F75080275098078E1
:1052700008122A518C088D097808122A511252D12D
:105280001244C97404122A2E807274F612243D123C
:1052900052E67003A3E06D70177508D675091B7888
:1052A00008122A51EEFA1244AB7402122A2E801F01
:1052B0007508037509807808122A518C088D0978C1
:1052C00008122A511252D11244C97404122A2E8093
:1052D0002B1252DF3FF583E0FD7C8012655E22EEEB
:1052E000240EF582E422EAFEEBFF126573FCE4393A
:1052F000FD901B8AE06C227402122A2E7F02022685
:10530000CD74F612243D74FE122AC7EAFEEBFF8527
:105310001882851983E4F0A3125AA51264A4FCA391
:10532000E0FBECFA88828983A3A3E0F97509007594
:105330000800600574FF697005750882803D901B48
:105340008AE06A7003A3E06B701AAA18AB191238CE
:1053500063E9F5098518828519831268E5701C7563
:1053600008838017901D2FE06004640170057508A4
:10537000818008E0640270037508808518828519B1
:10538000831268CEA908EEFAEFFB1244B1E509607A
:10539000118518828519831268E56006126F08125C
:1053A0003F7D0252F774F212243DEAFEEBFF7508CE
:1053B0000075090012656FF50AE439F50B12329396
:1053C000EA650A7003EB650B7012123875E914F583
:1053D0000879017A537B1C12387B8003750980128F
:1053E00068D4F50C780C122A55750C53750D1C7881
:1053F0000C122A517808122A55780A122A51E50906
:10540000F5087808122A5512633A1268D7F97A0516
:105410007B801244B774070276A474F612243D8987
:105420000975080080278A828B83E0FE127867EE78
:1054300028E439FF1251B6EC28F582ED39F583EEF8
:10544000F0A3EFF0EA2402FA50010B0508E508C3C7
:10545000950940D20252FC74E812243D74FB122AD2
:10546000C78A168B17851882851983E4F074031296
:105470002D07E4F0A3F004122D07E4F0A3F0125876
:10548000683517125A77F50B850A82F5831279531E
:10549000FEE439FF850A82850B83A3A3E0FA850A1F
:1054A00082850B83A3A3A3E0F9EAF508E439F509A3
:1054B000E50A2404F50A5002050BEEFAEFFB12335D
:1054C0002FE964016016EEFAEFFB12332FE9703D0D
:1054D000901B8AE06E7003A3E06F60311266B41215
:1054E0002A55E4F508F5097808122A517808122A95
:1054F00055901B8A1228557508807808122A551273
:10550000584F1244B77407122A2E02584512588277
:105510008810602B1274F2123F777403122D071259
:105520005AF57403122D071268E560137403122DE7
:105530000712587AA91012439D8A0A8B0B800375B3
:105540001000125882880F60271274F2123F77748D
:1055500001122D07125AF57401122D071268E56029
:105560000F7401122D0712587AA90F12439D800360
:10557000750F009006FA805C850A82850B83A3A3D1
:10558000A3A3A3A3A3A3E4F0A3F0AA0AAB0B8514DF
:1055900082851583A3A3E0F81261A8F9123EE18584
:1055A0001282851383E0C0E0851882851983E0F8B4
:1055B000745328F582E4341CF583D0E01268E904C2
:1055C000F0E511A2E05007AA12AB13123F7D85143B
:1055D00082851583E0F514A3E0F515E514451570F3
:1055E000030257B2851482851583A31261AE60DE73
:1055F000851482851583A3A3A3A3A3A3A3A3E0A2D9
:10560000E050CB851482851583A3A3A3A31268E57C
:10561000851482851583A3A3601F1261AFFA7901F7
:10562000851482851583A3A3A3A312586D12262E79
:105630008A128B13751101801012586DA3A3A3E079
:10564000F512A3E0F513751100E51245137003027E
:1056500055C1851282851383A3E065087004A3E019
:105660006509600F74FF6508700474FF65096003C5
:105670000255C1851282851383A3A3A3A3A3A3A369
:10568000122855851282851383A3A3A3A3A3A3E0A5
:10569000FC7405122D07126F0EA91012437F7402BD
:1056A000122A2EE9703C851282851383A3A3A3A33B
:1056B000A3A3A3A3A3A3122855851282851383A3B2
:1056C000A3A3A3A3A3A3A3A3E0FC7403122D071217
:1056D0006F0EA90F12437F7402122A2EE970030283
:1056E00055C1E50F2510C333240AFA7B00123ED5BD
:1056F0008A0A8B0BEA450B700302559F8A828B83C3
:1057000074D2126AF48A828B83A3A3E8F0A3E9120D
:1057100077CDA3E51012795BE50FF0E510603CEA68
:105720002405FAE4350BFBE50A240AF8E4350BF905
:105730008A828B831260747403122D07125892129E
:105740002A4DAC10EC2CFCE433FD8A828B83126F63
:105750000E123EB17403122A2E800D8A828B83A30F
:10576000A3A3A3A3E4F0A3F0E50F7003025578A868
:10577000101251B8E50A28F8E50B39F9E8240AFABD
:10578000E439FB850A82850B83A3A3A3A3A3A3A368
:10579000A3125AF57401122D07125892122A4DAC19
:1057A0000FEC2CFCE433FD123EB17403122A2E02DE
:1057B000558A851882851983E060271266B4122AFB
:1057C0005575085375091C7808122A517403122D57
:1057D000071266BD122A55901B8A122855750800BB
:1057E0008029EEFAEFFB12332FE9702F1266B41204
:1057F0002A5575085375091C7808122A5175080036
:105800007808122A55901B8A1228557808122A55B2
:1058100012584F1244B77407122A2E7403122D0720
:105820001268E5600B7403122D07126F0E123F7D94
:105830007401122D071268E5600B7401122D071216
:105840006F0E123F7D7405122A2E7F100226CDE5C1
:10585000162402FCE43517FDE5161262CE3517F565
:1058600083E0F97A067B8022EA12649B2212587147
:1058700022E0F8A3E0F5838882221268CEAA0AAB60
:105880000B22850A82850B83E0F8A385820A858333
:105890000B22E0F50CA3E0F50D750E00780C2274D8
:1058A000F112243D74F4122AC78A088B09ECFEED2C
:1058B000FF740B122D077403F0122A9F12408B12F3
:1058C000328D8A0A8B0BAC0AAD0B7403122A9F121D
:1058D0004085E9600A125A716010E06401600B852E
:1058E00018828519837484025A1F8E828F83A3A322
:1058F000A3A3A3A3A3A3E06013F46010125A7170D2
:1059000016EE24141268D76003F4700B8518828594
:1059100019837482025A1F127675E064217002A303
:10592000E060030259F6851882851983748C125A37
:10593000A5640360030259E07401122AA71260599A
:10594000122FFFE960030259E01242C58A0A8B0B4D
:10595000EA450B7003025A208E0C8F0D750E0078ED
:105960000C122A4D7C157D00123EB17403122A2EB2
:10597000850882850983A3A3E50A2415FCE4350B79
:10598000FD7409122977127301C0E0E50A241E1282
:105990005A5FD0E0125EC0C0E0E50A241F125A5FD1
:1059A000D0E0F0E50A2420125A5F7405F0EE240BD3
:1059B000FE50010FFAEFFB1238F97D007C007900F0
:1059C000EEFAEFFB12446F9080CE1228517A007BE2
:1059D00010901BC0E0F912403D7404122A2E80780A
:1059E000125A67122A55125A7F122FE77401122A8F
:1059F0002EE9702C8014125A67122A55125A7F12FF
:105A00002FED7401122A2EE9700D851882851983F5
:105A1000E4F012429580098518828519837488F014
:105A2000127301F50A780A122A557401122A97880E
:105A30000A890B780A122A51E508240CF582E4350C
:105A400009125A774480F50B780A122A5112640A17
:105A50001244637405122A2E740C122A2E805EF5ED
:105A600082E4350BF58322EE126066E0F50A780ACF
:105A700022125AAA640322F583E0F50AA3E022EE7B
:105A8000240BFCE43FFD8E828F83A3A3A3A3A3A3D7
:105A9000A3A3A3126F4B8E828F83A3A3A3A3A3A35D
:105AA000A3A3E0F922F0125AAA22125AAE22EE243F
:105AB00013F582E43FF583E022EEFAEFFB7F070265
:105AC00026CDC082C08374F3122AC7851882851937
:105AD00083E4F004122D07125AF57403122D07AA5D
:105AE00082AB831248E9AA18AB191248B3740D129D
:105AF0002A2E0264B6EAF0A3EBF02274F612243DDB
:105B000012648EFAA3E0F9EAF8901BD1E058F50888
:105B1000A3E059F509E5084509601C7808122A51E7
:105B2000901B8A1228551268D4FD7C0012655A1207
:105B300044C37404122A2E0252FC74EA12243D74E7
:105B4000DB122AC78A148B157512007513001258C0
:105B5000683515F5831261AFF50EAC18AD197A00F2
:105B60007B00799C122D117A04790012487DEAF5A8
:105B70000C851882851983E02AF0F8E50EC3984059
:105B800003025D5EE0C3950EF509C39404400375FE
:105B90000903E50975F01AA4FAABF0123F778A12EF
:105BA0008B13EA45137003025D61750D00AE12AFF1
:105BB00013850E08025C3B7C087D0079FF125DDDD9
:105BC000123EBD850A82850B83A3A3A3A3E0702D9B
:105BD000850A82850B831268E5700C127057F0EE0F
:105BE000241812705A8010125DE5F090055EE014E2
:105BF000C0E0125DC1D0E0125E10E4803490055E1A
:105C0000E004C0E0125DC1D0E0125E08C39403EE70
:105C10004003025CC31260627402125E0864017089
:105C200003025CD0EE2415125DE8F0EE2416125D3E
:105C3000E8F0EE241AFE50010F050DE50DC395099D
:105C40004003025CFBE508C3950C4003025CD9AA43
:105C5000087B001247F38A0A8B0B050890054B124C
:105C60005DF112408B850A82850B83126BE3125D16
:105C7000CFE8F0A3E9125E22850A82850B83A3A3F5
:105C8000A3A3A3A3A3A3A3A3E0C0E0125DB7D0E0A6
:105C9000F07401122D07E4127821126BE3740212E2
:105CA0002D071260747401122A9F1248C5E964011D
:105CB0006003025BB77404122D07125DD912408B8A
:105CC000025BC3125DE6125E0864036003025C249B
:105CD000EE241512705A025C2AE50CC3950E40059D
:105CE000750800801DE50EC3950CF5088014125D43
:105CF000E5F0EE241AFE50010F050DE50DC39509E0
:105D0000505F740E122AA7AA087B007987122D1102
:105D100005087418122D07125DF112408B741012D1
:105D20002D07125DD912408BEE2412F8E43FF9746E
:105D30000E122D07126F0E88828983EAF0A3EB12F0
:105D40005E107403125E22741D122D07E0C0E01273
:105D50005DB7D0E0126E7D70951270578093750913
:105D600000750A00780A122A557812122A51780909
:105D7000122A55E50EF5097809122A557405122DD7
:105D800007E0FD7C00E5141262C53515FBE5141231
:105D900062CA3515F583E0F91244FF7405122A2E04
:105DA000E51245136007AA12AB13123F7D7425124A
:105DB0002A2E7F0E0226CDEE2419F582E43FF583CC
:105DC00022125DC522EE2418F582E43FF58322EE0F
:105DD0002412F582E43FF58322AC82AD83EE240ADF
:105DE000FAE43FFB22EE2414F582E43FF5837401CC
:105DF00022126BE78E828F83E8F0A3E9F07C5F7D4F
:105E000005EE1262C53FFB2212781CA3A3A3E02279
:105E1000F0EE12704E7402F0EE2416F582E43FF5B7
:105E20008322F0EE2417F582E43FF5837402F0122A
:105E30005DC574FFF02274F612243D74F9122AC76E
:105E4000125EB51279DD123EC9EAF8EBF9ECFAED13
:105E5000FB851882851983122CF0EE2404FE500174
:105E60000F8E828F83E0C0E07404122D07D0E01201
:105E70006E54F87405122D077401F07406122D0784
:105E80007401F0901B94F0901B9D04127839A312BA
:105E90006F0E901B95125AF5E8901B9E125EC090F3
:105EA0001B93F0AA18AB1912478DE96003124787BC
:105EB00074070252F98A088B09EA12649B35092299
:105EC000F0127799E02274F212243D74FF122AC76F
:105ED0007508007E007F001231B58A0A8B0B1231E3
:105EE000B58A0C8B0DA80CA90D80050508126BDD79
:105EF000E84970F7901D2FE0600764016003025FBE
:105F0000D11231B58A0C8B0DA80CA90D8003126B30
:105F1000DDE849603688828983126F0E90054BE078
:105F20006A7003A3E06B600D12606D39F583126F28
:105F30000EEA4B70D988828983126BE390054BE09F
:105F4000687003A3E0697003025FD17A167B0012C8
:105F50003F778A0C8B0DAE0CAF0DEE4F6073900542
:105F60004B126BE38E828F83126074900540E08E3B
:105F7000828F83A3A3F0123317E98E828F83A3A3AA
:105F8000A3A3A3F0901EC2127810F07C5F7D0512CF
:105F9000605912408BAA18AB19794112467F8518B7
:105FA00082851983E06008901B8A126BE380047875
:105FB000FE79FF8E828F83A3A3A3A3A3A3A3126062
:105FC00074126061E50AF0A3E50BF08E0A8F0B05F1
:105FD00008901B9EE0F8E508C398500479008027DC
:105FE000E508C398F9C39406400279057800800D4E
:105FF000E50A12606E350B125A77F50B08901B9E5E
:10600000E0FAE8C39A40E97509007809122A557840
:106010000A122A51E9F5097809122A55901B9EE0C7
:10602000F5097809122A55AD087C007A957B1B90FA
:106030001B93E0F91244F97405122A2E901D2FE0EB
:1060400060046401700BEE4F6007EEFAEFFB123F45
:106050007D12478774010276A4EE240BFAE43FFB1D
:1060600022EE1260662212606E3FF58322E824144D
:10607000F582E422E8F0A3E9F02274F012243D74E2
:10608000FF122AC78A0A8B0B7E008E0E8E0F1258C3
:1060900068125A621261AFFFAC18AD197A007B002A
:1060A000799D122D11851882851983E0F8EFC39828
:1060B0004003026153E0C39FFEC3940B40027E0A7B
:1060C000EE75F007A4FAABF0123F778A088B098AC5
:1060D0000E8B0FEA450F6079750C00801A850882D7
:1060E000850983A3A3A3A3A37403F0E5082407F5FC
:1060F0000850020509050CE50CC39E5056AC08ADCE
:1061000009E50C2FFAE43400FB798B122D11850878
:1061100082850983A3A3A3A3A3E0146008146013DA
:1061200014601F80B8850882850983A3A3A3A3A355
:10613000E480B7850882850983A3A3A3A3A3740180
:1061400080A8850882850983A3A3A3A3A3740280E2
:10615000997E007508007808122A55780E122A5187
:10616000EEF5087808122A55EFF5087808122A5536
:106170007405122D07E0FD7C00E50A1262C5350B9F
:10618000FBE50A1262CA125A62E0F912450574056B
:10619000122A2EE50E450F6007AA0EAB0F123F7DA7
:1061A0007401122A2E0251C7A3E0F5838882A3123C
:1061B0005871E02274EE12243D74FE122AC78A0C34
:1061C0008B0D751000751100125868350DF583128E
:1061D00061AFF50AAC18AD197A007B0079A3122FD4
:1061E000F3126F08C3E50A9AE49B507685188285FE
:1061F0001983A80AE0C398FEA3E09400FFC3EE94BD
:1062000004EF940040067E037F008004EE4F60524E
:10621000EEFAEFFBEA75F015A4FAA8F075F015EBAD
:10622000A428FB123F778A088B098A108B11EA4554
:1062300011602F750B00750E00C3E50E9EE49F5094
:1062400026AC08AD09A80AE50E28FAE43400FB796B
:10625000A2122FF3E5082415F50850020509050ED2
:1062600080D7750B8B7E007508007808122A557848
:1062700010122A51EEF5087808122A55E50AF50899
:106280007808122A557405122D07E0FDAC0BE50CB9
:106290001262C5350DFBE50C1262CA350DF583E0BF
:1062A000F912450B7405122A2EE51045116007AA54
:1062B00010AB11123F7D7402122A2E7F0A0226CDE6
:1062C000FCEFFDE5082402FAE4221262CE22240F3C
:1062D000F582E42274F612243D74FF122AC7EAFE06
:1062E000EBFFEE1258693F1276C9A3A3A3A3A3A3A1
:1062F000A3A3E0F9124847E9851882851983F07550
:1063000008007808122A557401122A97880889090A
:106310007808122A517508357509807808122A51B3
:106320001263301244637405122A2E74010252F96A
:10633000790112633AFAE43FFB22EE2402FCE43FC7
:10634000FDEE240F2274F412243D74FA122AC712AF
:106350005EB512641FEEFAEFFB1248E3E960171214
:10636000328D8A0A8B0BAC0AAD0BEEFAEFFB1240B2
:1063700085E96401700A7401122D07E4F0A3800915
:106380007401122D07EEF0A3EF127855A3A3A3A377
:10639000A3E0F8A2E650087403122D077401F0E898
:1063A000A2E750087404122D077401F07405122D31
:1063B00007E4F004122A9F124811E9851882851912
:1063C00083F09080B6122CD81232B17A007B001282
:1063D00032BD7A007B001232B7750A00780A122AA1
:1063E000557401122A97880A890B780A122A517566
:1063F0000A34750B80780A122A5112640A12446317
:106400007405122A2E740602523B7901E508240213
:10641000FCE43509FDE508240FFAE43509FB22F513
:10642000831276D3FF2274F612243D74FF122AC71A
:1064300012648EF509A3E0F508A909123A43E9852B
:106440001882851983F0901D2FE0700B7401650888
:106450007005A9091245B3EE240B1268D7702C758C
:1064600008007808122A557401122A9788088909A9
:106470007808122A517508367509807808122A5151
:106480001263301244637405122A2E02632BEAFE53
:10649000EBFF12649A3F1264A122EE2413F582E40A
:1064A00022F583E0126583E022C082C083901D2F15
:1064B000E070031245B9D083D0820229FB74F41234
:1064C000243D74EF122AC7EAFEEBFF12656FF50850
:1064D000E439F509901B8AE065087004A3E06509BA
:1064E0007052A818A919880A890B780A122A5175BE
:1064F0000A11750B00780A122A517C007D007A81FE
:106500007B001240017404122A2EE97027750A00DC
:10651000780A122A557401122A97880A890B780A78
:10652000122A51AC08AD0912655A1244BD74031207
:106530002A2E8021750A11750B80780A122A51784B
:1065400008122A511268D4FD7C8412655A1244C97B
:106550007404122A2E741102523B12655E22EE243C
:1065600002FAE43FFBEE1262CE3FF583E0F922121D
:10657000657322125AAE126583127784F8E4C8F963
:10658000EA2822F8A3E0F9888289832274F1122490
:106590003D74EB122AC712648EFCA3E0FAE4CAFB36
:1065A000EC2AF508E43BF509901B8AE065087004C5
:1065B000A3E06509600302665B88828983A3A3E088
:1065C0009410500F88828983A3A3E08518828519CF
:1065D0008380088518828519837410F0E0C0E07408
:1065E00004122D07D0E01276B5A3A3A982AA83894D
:1065F0000C8A0D750E00780C122A4D7407122D07A7
:10660000E0FC7D007408122D07AA82AB83123EB114
:106610007403122A2E7404122A97880A890B780AA6
:10662000122A51750A11750B00780A122A517C0042
:106630007D007A817B00123FFB7404122A2E7404C1
:10664000122D07E0901BC96005E0D2E48003E0C290
:10665000E4F0851882851983E480088518828519FD
:10666000837484F0E0C0E07401122D07D0E0F07470
:1066700002122D07E508F07403122D07E508F01249
:1066800052DF3F1266BB122A557402122A978808FD
:1066900089097808122A517508147509807808123A
:1066A0002A5179031263321244637405122A2E743C
:1066B00015025A5AE5161252E03517F583E0F5082F
:1066C00078082274F612243D74E0122AC7EAFEEB21
:1066D000FF90054DE064086008E064046003026810
:1066E000C9AC18AD1912444B901D2FE06402702FF5
:1066F00012328D7402122D07AC82AD83124085E9EF
:10670000601D1232938A088B09A808A9098518828E
:10671000851983E0687003A3E06970030268C912F9
:1067200034617402122D07AC82AD83126F081233EC
