:020000040000FA
:100000000212FF022003FFFFFFFFFF02200BFFFF92
:10001000FFFFFF020E61FFFFFFFFFF02201BFFFF3C
:10002000FFFFFF022023FFFFFFFFFF02202BFFFF48
:10003000FFFFFF022033FFFFFFFFFF020EA4FFFFC1
:10004000FFFFFF022043FFFFFFFFFF02204BFFFFE8
:10005000FFFFFF022053FFFFFFFFFF02205BFFFFB8
:10006000FFFFFF022063FFFFFFFFFF02206BFFFF88
:10007000FFFFFF022073FFFFFFFFFF02207BFFFF58
:10008000FFFFFF022083FFFFFFFFFF02208BFFFF28
:10009000FFFF70DFFFFF040000000002000000C847
:1000A0000300030369A5020269A501000000000026
:1000B00004003273000074F8121046900393E0605D
:1000C0001590030274FEF0900304744DF0A37405C0
:1000D000F07A011206857F0102116374F71210464F
:1000E00074FF12126B7E00801F851882851983E0D1
:1000F00064FE70069003877401F085188285198369
:10010000E0F8900384E068F07C017D00AA18AB1948
:10011000120E1C8B09EA450970030201F38518824F
:10012000851983E064EF70027E07E0C0E0900387EA
:10013000E0FA900385E0F8EA28F8E43400F9740264
:1001400028F582740339F583D0E0F0900387E060EE
:100150009814600E14602C14603C14605214606893
:100160008098900384E4F0851882851983E09003D9
:1001700086F0C394809003874004E40200F974027F
:100180000200F9851882851983E0900382F09003BC
:100190008774030200F9851882851983E090038330
:1001A000F0900386E0601990038774040200F990D0
:1001B0000385E004F0F8900386E06860030200FA2B
:1001C00090038774050200F9900385E4F09003879B
:1001D000F0900384E0F8851882851983E068600355
:1001E0000200FA900382E0644D60030200FA1203F9
:1001F000288002EEF974011212377F020211637433
:10020000F712104674FB12126BEAFEEBFF7508043E
:1002100075090078081212CF74021212E87A907BE6
:10022000007904120EC574021212371206771213E7
:1002300039E0687003A3E06970128518828519831C
:10024000E0F47003A3E0F4600302030874041212E4
:10025000E01206DD8A088B09A808A90974021213A6
:1002600039E8F0A3E9F07404121339E06008790169
:100270001200B6020321851882851983E068700395
:10028000A3E0697076851882851983E0F47003A372
:10029000E0F4701974021213397410F0A37420F092
:1002A0008518828519837410F0A37420F0750801F5
:1002B00075090078081212CF74021212E87A247BB2
:1002C00008120F49740212123775080478081212C6
:1002D000CF74021212E87A907B007904120EC57472
:1002E00002121237120677121339E0687003A3E086
:1002F000697004790280067904800279031200B6DD
:100300008E828F83741E80058E828F83E4F01206A6
:1003100077121339E0687003A3E0697004790180F3
:1003200002790074050201F774ED12104674F81298
:10033000126B900307E0FD900306E0FCFAEDF8E491
:10034000C8F9EA28FEE93408FF751001750B00753D
:100350000A068E088F0974027808121296C395084F
:10036000F8E49509F9740228F50E740339F50F8E37
:10037000088F09740978081212F0E508F511EE24C7
:1003800010F508E43FF509EEF50CEF5401F50D907A
:100390000383E014605914700302046414700302B0
:1003A00004DF14601024FE700302059A1470030227
:1003B000064A02065A750A03794E120C5B9003072F
:1003C00012066D7402F0A3744012066B74081206D4
:1003D0006BF0A3F07418C3940704F510AA10A90BCE
:1003E000120685A90A74081212377F0C0211637570
:1003F0000A04794E120C5BEE450D7005A911120F1F
:10040000AFC3EE9425EF9408503CC3E5089424E56F
:100410000994084031E50E2496F8E50F3420F98858
:10042000828983E0701BA3AA82AB83E070139003E0
:10043000887401F08882898374A5F08A828B838016
:1004400004900388E4F0750810750900780812120A
:10045000CF7C087D03EEFAEFFB120F4974021212F3
:10046000370203DC750A05E511C394794006750B64
:10047000010203DC75124075130078121212CF7C52
:10048000097D037402780C121296AA0CAB0DA91107
:10049000120EC57402121237900307E0A3F0900306
:1004A00006E0A3F0751043C3EE9425EF94084003D3
:1004B0000203DCC3E5089424E50994085003020311
:1004C000DC900388E070030203DCE50E2497F8E576
:1004D0000F3420F988828983E4F0A3F00203DC75ED
:1004E000080475090078081212CF74021212E87A13
:1004F000907B007904120EC5740212123774021236
:100500001339E0F8A3E0F9851882851983E0687053
:1005100003A3E069851882851983700BE0F47003EA
:10052000A3E0F470578009E0F47003A3E0F4700DC9
:100530008518828519837410F0A37420F012067751
:10054000121339E8F0A3E9F075080178081212CF08
:1005500074021212E87A247B08120F4974021212F4
:100560003775080478081212CF74021212E87A90D4
:100570007B007904120EC57402121237120677122C
:100580001339E0687003A3E0697006750A0102037D
:10059000DC750A02750B070203DC900391E060072B
:1005A000640260030203DCEDFF7A01790012068524
:1005B000E0600302063E8003120D1C120D26E97056
:1005C000F7740412133912065F7404121339780891
:1005D00012131D85080C85090D850A0E850B0F90D9
:1005E00005A2780C1212BC7404121339780C121381
:1005F0000EE5084509450A450B70CE8EC2E5C55487
:10060000E04FF5C5740412133912065F7404121317
:1006100039780812131D85080C85090D850A0E8589
:100620000B0F9005A2780C1212BC740412133978C7
:100630000C12130EE5084509450A450B70CE7A01E8
:10064000790012068579080203E5EC900393F070B7
:10065000030203DC750A090203DC79060203E5E400
:10066000F0A37426F0A3E4F0A3F022F0A3E4F0A337
:10067000F0A3F0A3F0A322851882851983E0F8A3E4
:10068000E0F974022274F8121046EAFE900305E0C5
:10069000D2E7F0E9A3F0EE900303F08E0874042A89
:1006A000FE7C028004E062080CECFA3395E0FB74F7
:1006B000022AF58274033BF583EEF8C3EA98EB94C3
:1006C00000A2D265D03340DDE508F074012A0C3376
:1006D00095E0FD7A027B03120E4C0200D674E912FB
:1006E00010467582007583FE1211FE8A168B1775EF
:1006F00014007515008A828B83E4F0900391E070FA
:1007000006D2AAD2AF80046402700579001200B646
:10071000750C00750D20750E00750F00900391E0AB
:10072000600464027015120D1C1200DBE9F87409F4
:1007300068600302080D79001200B675080075099B
:100740000278081212CF74021212E8850C08850D87
:1007500009AA08E5095407FB850E0A850F0B740BDF
:100760007808121252A908120EC574021212377EAE
:10077000007F009005AAC0828E10EFF5113395E03E
:10078000F512F513850C08850D09850E0A850F0BEA
:10079000780879101212A99005A678081212BC7573
:1007A0008305D08278081211DF501D8518828519C3
:1007B00083E5822EF582E5833FF583E0F9AA14AB49
:1007C0001512083C8A148B150EEE70010FC3EF94BE
:1007D0000240A09005AE780C1212BC9005B2780CC5
:1007E0001211DF400302071C7900AA14AB1512088E
:1007F0003C790012083C8B15900391E07004C2AF65
:10080000C2AAEA451570277AA57BA58021E8700366
:1008100002073B740668700302073B7407687003A5
:1008200002073B8516828517837401F080BA7582B2
:10083000007583021211FE7F10021163C008C00907
:100840007C088A088B09740F78081212F0E508F802
:10085000EA25E0FAEB33FBE9A2E7500474014AFA17
:10086000E8A2E0500874216AFA74106BFBE9C33304
:10087000F91CEC70CDD009D0082274F8121046781B
:10088000007900802274942EF582E43403F583E02D
:100890008A828B83F09004141209FA4005900414A4
:1008A000E4F008E8700109900414E0FEA3E06E6033
:1008B00007C3E89CE99D40CDE8FAE9FB7F010211FE
:1008C0006374F7121046900498E0F509A3E0F50868
:1008D000F8E509C398F895E0F9E508C39509E850EB
:1008E0000B120ADC701178007900801B247F500104
:1008F00009C39CE99D50EF7A007B008041E004F041
:10090000D2E908E8700109C3E89CE99D502C8A826D
:100910008B83E0C0E0900499E0FE74182EF582E429
:100920003404F583D0E0120ACC90049AE4F09004E9
:1009300099E0C3947F40C6E480C5E8FAE9FB7F02F2
:10094000021163C082C083C2E9900498E0F8A3E07A
:10095000686017741828F582E43404F583E0F5C163
:10096000900498120AF34002E4F0020D3A74F8126F
:1009700010467800790090051DE07055A3E0705195
:1009800075F900C28FC284A28340FCA28F4004A2EA
:100990008350F8AEF9C28FA2835004D2848032EE25
:1009A000C0E0E0FE1209EFD0E0F090051E120AF35D
:1009B00040D9E4F080D51209EFE08A828B83F09071
:1009C000051D1209FA400590051DE4F008E87001C4
:1009D0000990051DE0FEA3E06E6007C3E89CE99D59
:1009E00040D4E8497006E4F090051DF00208B874A0
:1009F0009D2EF582E43404F58322E004120AD0C36C
:100A000094802274F81210469005A0E0FEF890053C
:100A10009FE0FFEEC39FE0500DC398F895E0F912F8
:100A20000ADB70188012C398F895E0F9E8247F502B
:100A30000109C39CE99D4004EC4D70077A007B00DE
:100A4000020AC98A828B83E0F5F9A3AA82AB837874
:100A50000179008008E004F008E8700109C3E89C0F
:100A6000E99D50278A828B83E0C0E09005A0E0FEDC
:100A7000741F2EF582E43405F583D0E0120ACC9081
:100A800005A0E0C3947F40CDE480CCC28FA2834018
:100A9000FCC284A28F4004A28350F890059F120AE2
:100AA000E6E0F5F9C28F90059FE0FAA3E06A9005B1
:100AB0009F7005120AE68005120AF34002E4F0A2D4
:100AC0008350D0D284E8FAE9FB0208BC120AD02293
:100AD000F08A828B83A3AA82AB8322E824FF18E9E1
:100AE00034FFF9E84922E0FA741F2AF582E434055C
:100AF000F58322E004F0C394802274FB12126B7E13
:100B0000009005CA780812131D9005CA7401F0A35D
:100B1000F0A37469F0A374A5F09005B678081212DA
:100B20008170047E0180159005BA780812128160E8
:100B300008E59D541864107003022000120C81EE29
:100B4000A2E05003020BFEAA18AB191201FFE970D4
:100B500003020BFE851882851983E0C3943C500C78
:100B6000E0F8743CC398FA95E0FB80047A007B00BF
:100B7000120D3FE97003020BFE900391E0640170D7
:100B80000C75F800C2AB539AF7D2EA805E7907126F
:100B900000B68003120D1C120D26E970F7740112C5
:100BA0001339E4F0A37426F0A3E4F0A3F074011267
:100BB0001339780812131D85080C85090D850A0E56
:100BC000850B0F9005A2780C1212BC740112133918
:100BD000780C12130EE5084509450A450B70CE75D1
:100BE0008600C2AAC28B539AFBC2E990000174CD61
:100BF000F0022000C2AF75C9AB75C95B80FE7508F5
:100C000000750900750A00750B00900391E0701BD8
:100C1000D2AAD2AF79051200B6E07003120D1C12F1
:100C200000DBE9F8740968700980E9794E120C5B01
:100C300080ED74016870E2E07017120D1C9005BE23
:100C400078081212BC9005C278081211DF50EBC26E
:100C5000AAC2AF75C9AB75C95B80FEC082C083787C
:100C6000109005A1E0C399501575B60FE5B4A2E741
:100C700050FAE5BBC39940F118E870EDE9F0020DB8
:100C80003AC082C08353BEFBE59DA2E650FA0078CD
:100C9000F8790100120ADB70FA75C6807480659ECF
:100CA00070FA43BE049062707408F0794A120C5BCB
:100CB00090000174F5F07403F5D575D489A2A0E411
:100CC00033900391F0A2E05029D28453F3F753F309
:100CD000EF53FDF743FD10538FF753F7DF43FC202D
:100CE00043F10253F5DF75F82043F4F0D2FED2ABA6
:100CF000802853FF3F85FFFF53F1FE43F30C53F26F
:100D0000F375868075C48090049BE4F0A3F075C2EF
:100D1000D875C50B75C402438640801E8003120936
:100D200043A2E940F922C082C083900498E0F8A36E
:100D3000E0686004790180027900D083D082227457
:100D4000F112104674FF12126B7E00900391E06462
:100D500001706CC2849003927401F07508388E099A
:100D60008E0A8E0B7C017D00AA18AB19120E1C8B0B
:100D70000DEA450D6018851882851983E0641060BE
:100D80002DE064EF70088E088E098E0A8E0B8508A0
:100D90000C85090D850A0E850B0F9005A2780812A7
:100DA00012BCE50C450D450E450F70347E019003D5
:100DB00091E064017056D284900392E4F08051D2A5
:100DC000AAD2AF8A088B09E4F50AF50B9005C6781C
:100DD0000C12131D7808790C120FC679061200B692
:100DE000900391E06003020D64120D1C1200DBE918
:100DF000F8740968700779061200B6809174076864
:100E00006084E8608974066870A48082C2AFC2AA58
:100E1000EEF974011212377F08021163C082C08399
:100E2000900391E0700512087A801E900392E060B2
:100E300015A28F500BE5F98A828B83F07A0180022C
:100E40007A007B00800312096D020D3AC082C083D4
:100E5000900391E070051208C18003120A03020D8D
:100E60003AC0E074F21210AC900001E064CD70055D
:100E7000122013802AE064F57024E5C1C28BC0E023
:100E8000900415E0F8749428F582E43403F583D0D7
:100E9000E0F0900415120AF34005E4F08001007FB1
:100EA0000102110BC0E074F21210AC900001E0647A
:100EB000CD700512203B800BE064F57005120943EC
:100EC00080010080DA74F6121046890A740F550A00
:100ED000F508750900740B7808121296EA2400F8D8
:100EE000EB3480F9E82400E93509F985C709A2AF98
:100EF000E433F508C2AFE50AC4540FFAE5C754F865
:100F00004AF5C7740A121339E0FAA3E0FB801C8883
:100F1000828983E08C828D83F088828983A3A88272
:100F2000A9838C828D83A3AC82AD83EAFEEBFFEEB6
:100F300024FF1AEF34FFFBEE4F70D48509C7E50894
:100F4000A2E092AF7F0302116374F7121046ED9096
:100F50000389F0ECA3F0A37462F0A37473F0A3E030
:100F6000541FF07409121339E0F508A3E0F509E500
:100F700008333354FC90038EF0740678081212F094
:100F8000E50890038DF090038F7412F0A37442F083
:100F900075D1FE75D601EA906271F0EBA3F0906214
:100FA00070E0D2E1F0E0A2E740FB7F02021163C0F3
:100FB00082C083E9C333906272F0906270E0D2E045
:100FC000F0D083D08222080808EAC0E0EBC0E086B7
:100FD000F0E7A4FA180986F0E7A42AFA180986F0BF
:100FE000E7A42AFA180986F0E7A42AFA1986F0E796
:100FF000A4FBE5F02AFA190886F0E7A42BFBE5F03C
:101000003AFA190886F0E7A42BFBE5F03AFA18182B
:101010000986F0E7A4C5F02BFBE43AFA1908E7C506
:10102000F0C6A426F6E5F03BFBE43AFA1886F0E7B2
:10103000A4F6E5F00826F6E43B08F6E43A08F6D014
:10104000E0FBD0E0FA222518C582C0E0E51934FFA4
:10105000C583C0E0E518C3958224F910AF088583E5
:10106000198582188008858319858218D2AFCEF041
:10107000A3E520F0A37808E608F0A3DEFAEFF0A3DA
:10108000E58124FBF8E608F0A3E608F0A30808E6EB
:1010900008F0A3E608F0A315811581D0E0FED0E0AA
:1010A000F815811581E8C0E0EEC0E022C0D0251817
:1010B000C582C0E0E51934FFC583C0E0E518C395DB
:1010C0008224F310AF0885831985821880088583F0
:1010D00019858218D2AFC8F0A3E9F0A3EAF0A3EB18
:1010E000F0A37908E709F0A3D8FAECF0A3EDF0A398
:1010F000EEF0A3EFF0A3D0E0F0A3D0E0F0A3D0E0B7
:10110000F0A3E520F0A3E5F0F0A32285198385186C
:1011100082E0C0E0A3E0F9A3E0FAA3E0FBA3780833
:10112000E0F608A3DFFAE0FCA3E0FDA3E0FEA3E005
:10113000FFA3E0C0E0A3E0C0E0A3E0F5D0A3E0F5AA
:1011400020A3E0A3F5F010AF0885831985821880ED
:1011500008858319858218D2AFD082D083D0E0F879
:10116000D0E032851983851882E0A3FEE0A3F52044
:101170007808E0A3F608DFFAE0A3FFE0A3C0E0E010
:10118000A3C0E0E0A3C0E0E0A3C0E010AF08858208
:10119000188583198008858218858319D2AFD0837A
:1011A000D08222E490030278A179038002F0A3D8D0
:1011B000FCD9FA7AA27B0590008E782979018015F6
:1011C000E493A3AD82AE838A828B83F0A3AA82AB21
:1011D000838D828E83D8E9D9E7120AFA121343C0AD
:1011E00008C3E096F50808A3E096420808A3E09635
:1011F000420808A3E09645087001D3D00822C582B2
:101200002518C582C583351910AF07F519858218D1
:101210008007F519858218D2AFC583222518F5827B
:1012200010AF08F518400C15198008F51840021584
:1012300019D2AF8519832200C0D0251810AF08F548
:1012400018500C05198008F51850020519D2AFD0B6
:10125000D0226016080808C6C313C618C613C618DD
:10126000C613C618C613C6D5E0EA22251810AF0863
:10127000F518400C15198008F51840021519D2AF61
:1012800022E066701008A3E066700A08A3E06670AA
:101290000408A3E06622700422600D18C6C333C69A
:1012A00008C633C6D5E0F41822E627F60809E63763
:1012B000F60809E637F60809E637F622E026F608CA
:1012C000A3E036F608A3E036F608A3E036F622746B
:1012D000028000C0E0F40412121CD0E012132C2291
:1012E0002518FAE43519FB222518FCE43519FD22EE
:1012F000600C08C6C313C618C613C6D5E0F4227521
:10130000D00075813F7518027519030211A3E6F02C
:1013100008A3E6F008A3E6F008A3E6F022E0F6084A
:10132000A3E0F608A3E0F608A3E0F622CAC0E0E6D0
:10133000F0A308DAFAD0E0FA222518F582E435198C
:10134000F5832200000080FBFFFFFFFFFFFFFFFF90
:10135000FFFFFFFFFFFFFFFFFFFFFFFFFFFFFFFF9D
:10136000FFFFFFFFFFFFFFFFFFFFFFFFFFFFFFFF8D
:10137000FFFFFFFFFFFFFFFFFFFFFFFFFFFFFFFF7D
:10138000FFFFFFFFFFFFFFFFFFFFFFFFFFFFFFFF6D
:0A1FF600CA05094338860000000008
:020000040003F7
:01FFF000F020
:020000040000FA
:10200000022C560221FAFFFFFFFFFFFFFFFFFFFF39
:10201000FFFFFFFFFFFFFFFFFFFFFFFFFFFFFFFFD0
:10202000FFFFFFFFFFFFFFFFFFFFFF022904FFFF8E
:10203000FFFFFFFFFFFFFFFFFFFFFFFFFFFFFFFFB0
:10204000FFFFFF022759FFFFFFFFFFFFFFFFFFFF1B
:10205000FFFFFF022134FFFFFFFFFFFFFFFFFFFF36
:10206000FFFFFFFFFFFFFFFFFFFFFF02292DFFFF25
:10207000FFFFFFFFFFFFFFFFFFFFFFFFFFFFFFFF70
:10208000FFFFFF02218B01FFFFFFFFFFFFFFFFFFAD
:1020900010201020010105030101FF0F10FEFF2297
:1020A0004A00000000584900000000FF000000FF47
:1020B000000196511800020000813C000000001B46
:1020C0003CFF3C513CC93C0000453C000000000086
:1020D0000000000000000000000000000000000000
:1020E00000000006FFFFFF01010400BE1B0000000E
:1020F000E8030000FFFF8B1CE8030000640064009D
:10210000B801A0BB0D00A0BB0D000202000800003A
:1021100005020701051E02051E020A0A010808033E
:10212000B80B02803E0102FEFFE8030A050001FF32
:10213000FF0A01E0C0E074F2122576A2AFE433F5A5
:1021400008D2AFAFA7AEA1EE5F5410600612399F60
:1021500075A1EFEE5F540860081239A575A1F780EC
:1021600023EEA2E092F0EFA2E082F0501790619887
:10217000E0F8900B4FE0C398A2D265D0335002E84C
:10218000F075A1FE751A00E5088066C0E074F212D1
:102190002576A2AFE433FED2AF9061A4E0F8759B40
:1021A00000E59158540860087591F71239ED8023C5
:1021B000E59158541060087591EF1239F38014E5D9
:1021C00091A2E092F0E8A2E082F05007E0C2E0F0D5
:1021D000123B499061A3E0F8E5E9585404600E12FF
:1021E0003B1F75E9FB906193E0A2E640F2751A008F
:1021F000EEA2E092AF7F010225D5C0E074F2122575
:1022000076A2AFE433FED2AF9061A5E0F8E5BF5807
:102210005404600675BFFB123B6180D1C3E498F89B
:10222000E499F912225D8026C3E49AFAE49BFBE963
:1022300020E7E912225DE498F8E499F922C3E498D2
:10224000F8E499F912225DE498F8E499F9C3E49A64
:10225000FAE49BFB22EB20E7CFE920E7E0B900108E
:10226000BB0008E88AF084F8AAF022E4FBC8FA224E
:10227000EB70227B10C833C8C933C9335007C39AE7
:10228000C3DBF280069A50012ADBEAC833F4C8C9DE
:1022900033F4C9FA2275F008E4C833C8C933C93326
:1022A000C99AC99B5004C92AC93BD5F0ECFBC83375
:1022B000F4C8E4C9FA2274F512251074FA122AC778
:1022C0007508047509007808122A517404122AA7A7
:1022D0007AF87B0779031238797402122A2E9080DB
:1022E000EE7808122C667402122CF37808122AF386
:1022F00070497508027509007808122A5174021293
:102300002AA77AF67B0779031238797402122A2EEB
:10231000851882851983E0F47003A3E0F4601C85BE
:102320001882851983E0F8A3E0F988828983740212
:10233000F0A3F0A37469F0A374A5F0C2AF75D69FA3
:102340000200007406122A2E7F0402279C08080847
:10235000EAC0E0EBC0E086F0E7A4FA180986F0E7EF
:10236000A42AFA180986F0E7A42AFA180986F0E7E1
:10237000A42AFA1986F0E7A4FBE5F02AFA190886E0
:10238000F0E7A42BFBE5F03AFA190886F0E7A42B56
:10239000FBE5F03AFA18180986F0E7A4C5F02BFB24
:1023A000E43AFA1908E7C5F0C6A426F6E5F03BFBC7
:1023B000E43AFA1886F0E7A4F6E5F00826F6E43BDE
:1023C00008F6E43A08F6D0E0FBD0E0FA22E4CFC009
:1023D000E0E4CEC0E0E4CDC0E0E4CCC0E075F020A5
:1023E000E626F608E633F608E633F608E633F6188E
:1023F0001818EC33FCED33FDEE33FEEF33FFC3EC86
:102400009709ED9709EE9709EF97191919400FFFF2
:10241000EC97FC09ED97FD09EE97FE191906D5F02A
:10242000BFECF709EDF709EEF709EFF7191919D025
:10243000E0FCD0E0FDD0E0FED0E0FF222518C58210
:10244000C0E0E51934FFC583C0E0E518C3958224D8
:10245000F810AF088583198582188008858319854F
:102460008218D2AFCEF0A3E520F0A37808E608F0FA
:10247000A3DEFAEFF0A3E58124FAF8E608F0A3E67C
:1024800008F0A3E608F0A30808E608F0A3E608F0C1
:10249000A315811581D0E0FED0E0F81581158115D6
:1024A00081E8C0E0EEC0E022122CE8B9000302246B
:1024B000FAE49004D17867791A8002F0A3D8FCD9A5
:1024C000FA781A9020867A01BA00028007E493A372
:1024D000F608DAF97A377B1E90209478A17901808A
:1024E00015E493A3AD82AE838A828B83F0A3AA8284
:1024F000AB838D828E83D8E9D9E77582C17583F06D
:1025000074051229F575825575834774001229F5F3
:102510002518C582C0E0E51934FFC583C0E0E51881
:10252000C3958224F910AF08858319858218800825
:10253000858319858218D2AFCEF0A3E520F0A37869
:1025400008E608F0A3DEFAEFF0A3E58124FBF8E645
:1025500008F0A3E608F0A30808E608F0A3E608F0F0
:10256000A315811581D0E0FED0E0F815811581E832
:10257000C0E0EEC0E022C0D02518C582C0E0E51959
:1025800034FFC583C0E0E518C3958224F310AF087B
:102590008583198582188008858319858218D2AFB2
:1025A000C8F0A3E9F0A3EAF0A3EBF0A37908E709E8
:1025B000F0A3D8FAECF0A3EDF0A3EEF0A3EFF0A3B4
:1025C000D0E0F0A3D0E0F0A3D0E0F0A3E520F0A3AA
:1025D000E5F0F0A322851983851882E0C0E0A3E02E
:1025E000F9A3E0FAA3E0FBA37808E0F608A3DFFA7A
:1025F000E0FCA3E0FDA3E0FEA3E0FFA3E0C0E0A3B6
:10260000E0C0E0A3E0F5D0A3E0F520A3E0A3F5F05F
:1026100010AF088583198582188008858319858203
:1026200018D2AFD082D083D0E0F8D0E032E4730883
:1026300075F0108E218F228582268583258518824C
:10264000851983E0CEA3E0CF852682852583EBC95B
:10265000EAC8EDCBECCAC3E833C8E933C9EA33CAE8
:10266000EB33CBC3EA9EF524EB9FF523B35004ABC9
:1026700023AA24EC33CCED33CDD5F0DAAE21AF2252
:1026800022D083D082ECC0E0EDC0E0E493A3FCE470
:1026900093A3FDED4C600D1227DCEC24FFFCED3420
:1026A000FFFD80EFE493A3FCE493A3FDED4C600DEC
:1026B0001228AFEC24FFFCED34FFFD80EFD0E0FDED
:1026C000D0E0FCE493A3C0E0E493C0E0228519834A
:1026D000851882E0A3FEE0A3F5207808E0A3F608C1
:1026E000DFFAE0A3FFE0A3C0E0E0A3C0E0E0A3C006
:1026F000E0E0A3C0E0E0A3C0E010AF088582188549
:1027000083198008858218858319D2AFD083D0823F
:102710000229FBD083D082E9C0E0E493A3C386F012
:10272000C5F095F0F908E493A386F0C5F095F07034
:102730000BE493A3C3994005E9048002A3E475F078
:1027400002A42582F582E5F03583F583D0E0F9E433
:1027500093A3C0E0E493C0E022C0E074F2122576B7
:10276000A2AFE433FED2AFC2C0901D2FE0700BE5E4
:10277000D1A2E4501D1238FD8018E5D1A2E3500625
:1027800075D1F71238D3E5D1A2E4500675D1EF1216
:1027900038D9EEA2E092AF7F010225D58519838555
:1027A0001882E0A3FEE0A3F5207808E0A3F608DF96
:1027B000FAE0A3FFE0A3C0E0E0A3C0E0E0A3C0E034
:1027C000E0A3C0E010AF08858218858319800885D2
:1027D0008218858319D2AFD083D08222C0E0C3E4AF
:1027E0009396087401939618400FE4936670080856
:1027F000740193661870007019A3A3C3E49396083C
:102800007401939618A3A3400DD0E0D0E0D0E0026D
:1028100026BDA3A3A3A3A3A3D0E022D083D082C5C7
:10282000F0E493A3C5F0C395F0F5F0E493A3C3954A
:10283000F04005E5F0048001E475F002A42582F57E
:1028400082E5F03583F583E493A3C0E0E493C0E030
:10285000227404800474028000CCC0E0EDC0E0E586
:1028600018C39CCCAD1950011D10AF068C188D19E2
:1028700080068C188D19D2AF122977D0E0FDD0E0F8
:10288000FC2274028000CCC0E0EDC0E0E518C39CDF
:10289000CCAD1950011D10AF068C188D1980068C17
:1028A000188D19D2AF122955D0E0FDD0E0FC22C01E
:1028B000E0C0F088F0E4936670080874019366182D
:1028C0007000A8F0A3A3700BD0F0D0E0D0E0D0E06F
:1028D0000226BDA3A3D0F0D0E022D083D082CCC00A
:1028E000E0E493A360061229D61470FAE493A3607F
:1028F00006122ADD1470FAD0E0FCE493A3C0E0E4F1
:1029000093C0E022C0E0C0D0E8C0E0E9C0E0A9A8E0
:10291000D2AFC2C7751A00E9A2E7E433F8E9A2E72B
:1029200092AFD0E0F9D0E0F8D0D0D0E032C0E0747F
:10293000F2122576758900C2C5901D2FE0700E7ABF
:10294000007B10900BE5E0F9123E3180031245B197
:102950007F010225D5CAC0E0E493A3C582CCC5821D
:10296000C583CDC583F0A3C582CCC582C583CDC543
:1029700083DAE5D0E0CA22CAC0E0E0A3C582CCC5B4
:1029800082C583CDC583F0A3C582CCC582C583CD66
:10299000C583DAE6D0E0CA2270090808082260166A
:1029A000181818C6C333C608C633C608C633C608C7
:1029B000C633C6D5E0EA22C008C3E096F50808A3EE
:1029C000E096420808A3E096420808A3E09645086E
:1029D0007001D3D00822C0E0E493A3D39C5010E44C
:1029E00093A3C39C400AD0E0D0E0D0E00228F7A334
:1029F000A3A3D0E022C09FF59FE473D09F22D08391
:102A0000D082C09FE493C0E0740193C0E07402934D
:102A1000F59F222518F58210AF08F518400C1519FE
:102A20008008F51840021519D2AF8519832200C01D
:102A3000D0251810AF08F518500C05198008F518A6
:102A400050020519D2AFD0D0227404800A740380DA
:102A500006740280027401C0E0F404122A13D0E06C
:102A6000122C9322BB0102E722C082C08389828A92
:102A700083BB0003E08002E493D083D082226016FF
:102A8000080808C6C313C618C613C618C613C61846
:102A9000C613C6D5E0EA222518F8E43519F922252F
:102AA00018FAE43519FB222518FCE43519FD22C378
:102AB000E0C696F608A3E0C696F608A3E0C696F62A
:102AC00008A3E0C696F622251810AF08F518400CAA
:102AD00015198008F51840021519D2AF22C0E0E49C
:102AE00093A36C7009D0E0D0E0D0E00228F7A3A354
:102AF000D0E022E066701008A3E066700A08A3E048
:102B000066700408A3E06622E76670100809E766AD
:102B1000700A0809E76670040809E76622C3E096B0
:102B200008A3E09608A3E09608A3E096A2D265D099
:102B30003322C3E697F60809E697F60809E697F602
:102B40000809E697F622C3E096F008A3E096F0089D
:102B5000A3E096F008A3E096F022E627F60809E63F
:102B600037F60809E637F60809E637F622E026F6D2
:102B700008A3E036F608A3E036F608A3E036F6220E
:102B8000E026F008A3E036F008A3E036F008A3E062
:102B900036F022E493F608740193F608740293F673
:102BA00008740393F622E647F60809E647F6080993
:102BB000E647F60809E647F622E657F60809E6571B
:102BC000F60809E657F60809E657F622E056F60831
:102BD000A3E056F608A3E056F608A3E056F622E076
:102BE00056F008A3E056F008A3E056F008A3E0561C
:102BF000F022700422600D18C6C333C608C633C65F
:102C0000D5E0F41822E4C396F608E496F608E496B4
:102C1000F608E496F622C6F4C608C6F4C608C6F45A
:102C2000C608C6F4C622600D08C6A2E713C618C6B9
:102C300013C6D5E0F322C3E7960809E7960809E72B
:102C4000960809E79622C3E09608A3E09608A3E059
:102C50009608A3E0962275D00075813F7518D1754E
:102C60001904000224A8E0F608A3E0F608A3E0F6A1
:102C700008A3E0F622600C08C6C313C618C613C624
:102C8000D5E0F422E6F008A3E6F008A3E6F008A3F6
:102C9000E6F022CAC0E0E6F0A308DAFAD0E0FA22B1
:102CA000E0F8A3E0F9A3E0FAA3E0FB22E0FCA3E054
:102CB000FDA3E0FEA3E0FF22EAF0A3EBF0A3ECF01B
:102CC000A3EDF022E0FAA3E0FBA3E0FCA3E0FD22E9
:102CD000ECF0A3EDF0A3EEF0A3EFF022E8F0A3E90F
:102CE000F0A3EAF0A3EBF022E5C754F84401F5C7DE
:102CF0007901222518F582E43519F583221229FE7F
:102D00001EA5021229FE4FA6021229FE8BA6021250
:102D100029FE65A8021229FE22AC021229FE36AC59
:102D2000021229FE40AC021229FE4AAC021229FE10
:102D300054AC021229FE5EAC021229FE77AC0212DC
:102D400029FE81AC021229FEF8AC021229FE03AD65
:102D5000021229FE32AD021229FE5AAD021229FEDC
:102D600065AD021229FECAAD021229FED4AD0212CF
:102D700029FEDFAD021229FE03AE021229FE27AEA4
:102D8000021229FE99AE021229FEE2AE021229FEBB
:102D9000FEAE021229FE6FAF021229FEBBAF021275
:102DA00029FE04B0021229FE42B0021229FEC3B06D
:102DB000021229FE6AB1021229FE2FB3021229FE65
:102DC00094B3021229FEC2B4021229FEE8B4021220
:102DD00029FE30B6021229FE6AB9021229FE68BB2A
:102DE000021229FE33BD021229FECCBD021229FEB9
:102DF000CDBF021229FE82C0021229FEBBC0021200
:102E000029FE2BC1021229FE35C1021229FE5EC322
:102E1000021229FE61C4021229FE9EC5021229FE79
:102E2000F5C5021229FEA0C6021229FE50C80212E0
:102E300029FE9DC9021229FEBDC9021229FE12CA2D
:102E4000021229FE13CB021229FE3BCB021229FEED
:102E50009ACB021229FE92CC021229FE09CD02124F
:102E600029FE1CCE021229FE8ACE021229FE89CF2B
:102E7000021229FEE3D1021229FE0CD2021229FE0F
:102E800072D3021229FEF4D4021229FE4BD502128B
:102E900029FEF9D5021229FE9ED6021229FE01D77B
:102EA000021229FEBFD7021229FE51D8021229FEB2
:102EB000B0D8021229FEF2D8021229FE23D902123A
:102EC00029FE7ADA021229FE0080031229FE3280DE
:102ED000031229FE6B80031229FE3482031229FE9D
:102EE0007882031229FE4C83031229FEAB8303125E
:102EF00029FEC184031229FE0D85031229FE9B873A
:102F0000031229FE7F8A031229FEC68B031229FEB3
:102F10005E8C031229FE6A8C031229FEB18C031207
:102F200029FEF38D031229FEE98E031229FE138F69
:102F3000031229FE698F031229FEC28F031229FE94
:102F40003590031229FE6B92031229FEED930312B2
:102F500029FED294031229FE1C96031229FE5498CE
:102F6000031229FE519B031229FE609B031229FEC6
:102F7000F49B031229FE9F9C031229FEE29C03127C
:102F800029FE2B9D031229FE7B9D031229FEDF9D46
:102F9000031229FE519E031229FE6D9E031229FE83
:102FA0009C9E031229FEDB9E031229FED69F03126C
:102FB00029FE85A0031229FE02A3031229FE34A4D0
:102FC000031229FE0CA5031229FE8EA5031229FE69
:102FD000C3A9031229FEF2A9031229FE4DAA031266
:102FE00029FE80AA031229FE04AB031229FE54AB6A
:102FF000031229FEC1AC031229FEE5AC031229FE1F
:103000001CAD031229FE29AD031229FE2CAD0312BB
:1030100029FE5BAD031229FE53AF031229FE12B045
:10302000031229FE3EB0031229FEF2B1031229FE5B
:10303000F5B1031229FE68B2031229FE8CB4031203
:1030400029FEEBB4031229FE3FB5031229FE64B733
:10305000031229FE62B8031229FE46B9031229FEA3
:10306000D0B9031229FEE4B9031229FE11BA0312E2
:1030700029FE41BA031229FEEDBC031229FE5FBDF1
:10308000031229FED2BE031229FEF0BE031229FE4E
:103090003781011229FE7981011229FEE68601128B
:1030A00029FE3287011229FE7887011229FEC9887C
:1030B000011229FE2E89011229FE7289011229FEB0
:1030C000D88A011229FE338E011229FE668F011261
:1030D00029FEF59A011229FE859B011229FE6F9E99
:1030E000011229FED49F011229FE37A0011229FEE8
:1030F00053A1011229FEBDA2011229FE9CA30112B7
:1031000029FE0AA6011229FE9CA7011229FE2DA85C
:10311000011229FE4CA9011229FED9A9011229FE8A
:10312000E3A9011229FE0BAA011229FEAEAA01127F
:1031300029FE99AB011229FE61AC011229FEEEAC09
:10314000011229FE04AD011229FE21AD011229FE52
:103150004AAD011229FE77AD011229FEBBAF011263
:1031600029FE8EB0011229FED2B0011229FE54B1FF
:10317000011229FEF5B1011229FE27B2011229FE22
:103180006EB2011229FEA1B2011229FEE5B20112AE
:1031900029FE34B3011229FE39B3011229FE95B379
:1031A000011229FED9B3011229FEC3B4011229FE6E
:1031B00028B5011229FE86B5011229FE05B60112B5
:1031C00029FE7DB9011229FE80BA011229FE16BC22
:1031D000011229FE59BF011229FEFBBF011229FE6F
:1031E00044C2011229FEFFC2011229FE3EC3011290
:1031F00029FE02C5011229FE1FC5011229FE28C59C
:10320000011229FE31C5011229FE3CC5011229FE19
:103210005BC5011229FE7FC7011229FEDCC701121E
:1032200029FEE6C7011229FEF0C7011229FE53C884
:10323000011229FEAFC8011229FEBCC9011229FEE4
:103240001DCA011229FE2ECB011229FE77CB0112D5
:1032500029FE41CC011229FE58CD011229FE1CCEB7
:10326000011229FE68CF011229FE6CD0011229FE3D
:1032700065D1011229FE7DD1011229FEB4D10112BE
:1032800029FEBED1011229FEC8D1011229FED3D1D7
:10329000011229FEF1D1011229FE39D2011229FEB3
:1032A00097D2011229FEBED2011229FED0D20112FC
:1032B00029FE79D3011229FEB2D3011229FEE3D4EB
:1032C000011229FE40D5011229FE31D6011229FE34
:1032D00067D6011229FED7D6011229FE53D7011253
:1032E00029FED4D8011229FEFBD9011229FEBDDA2C
:1032F000011229FE8BDB011229FE10DC011229FECE
:10330000BFDC011229FEA7DD011229FE40DE0112F9
:1033100029FE1CDF011229FE84DF011229FE43E091
:10332000011229FE9FE0011229FE03E1011229FE8C
:10333000C9E1011229FEECE1011229FEA6E2011207
:1033400029FEC8E2011229FE29E3011229FE59E5EE
:10335000011229FE52E6011229FEFEE6011229FEA3
:103360001BE9011229FE64E9011229FEAFE90112ED
:1033700029FE0BEA011229FE69EA011229FE8DEAF3
:10338000011229FEB1EA011229FEE6EA011229FE24
:103390000EEB011229FE53EB011229FEB1EB0112D3
:1033A00029FE0AEC011229FE04ED011229FEB0EEFD
:1033B000011229FEF5EE011229FE1EEF011229FE6F
:1033C000A7EF011229FE1AF0011229FE28F00112BE
:1033D00029FE4CF0011229FEA2F0011229FEBDF0D7
:1033E000011229FE78F1011229FEA4F1011229FE31
:1033F00007F2011229FE17F4011229FE43F401120B
:1034000029FEFEF4011229FEE2F5011229FE76F6EC
:10341000011229FEB1FF011229FEF0FF011229FE5F
:1034200071BF031229FE1AC0031229FEF9C003124C
:1034300029FE05C2031229FE25C2031229FE47C335
:10344000031229FEF7C4031229FE64C5031229FEE4
:1034500035C6031229FE3BC7031229FEB3C7031268
:1034600029FEEEC7031229FE47C8031229FE82C8AF
:10347000031229FECBC8031229FE5FC9031229FEDD
:10348000F5C9031229FECACA031229FE9DCB0312F5
:1034900029FE2BCC031229FE51CC031229FE7ECC2F
:1034A000031229FEAFCC031229FE7CCD031229FEA4
:1034B0008CCD031229FEDFCD031229FEECCD0312C1
:1034C00029FEF9CD031229FE02CE031229FE66CE93
:1034D000031229FEC4CE031229FE0FCF031229FEC8
:1034E0002ACF031229FE51CF031229FE6ECF0312F9
:1034F00029FE7ACF031229FE0BD1031229FE24D113
:10350000031229FEA0D1031229FEB3D1031229FE12
:10351000C3D1031229FE67D2031229FED3D30312AB
:1035200029FEE6D4031229FE86D5031229FE90D582
:10353000031229FE0FD6031229FE20D6031229FEFC
:103540005FD6031229FE8DD6031229FE5AD7031225
:1035500029FEB1D7031229FEEAD7031229FE40D86B
:10356000031229FE5ED8031229FEACD8031229FEED
:1035700077D9031229FEC5D9031229FE12DA0312E4
:1035800029FE95DA031229FEBFDA031229FEF5DAC5
:10359000031229FE04DB031229FE63DB031229FE5A
:1035A000DBDB031229FE1CDC031229FE6CDC031298
:1035B00029FE97DC031229FEB1DC031229FECBDCC5
:1035C000031229FEA0DD031229FEAADD031229FE43
:1035D000E5DD031229FEF5DD031229FEFEDD0312EF
:1035E00029FE4FDE031229FE63DE031229FE85DF6A
:1035F000031229FE98DF031229FEAFDF031229FE12
:10360000C4DF031229FE57E0031229FECBE00312A8
:1036100029FE70E1031229FE7BE1031229FEDEE29E
:10362000031229FEFAE2031229FE46E3031229FEE1
:10363000B4E3031229FEE6E3031229FE00E40312B9
:1036400029FE60E4031229FEFFE4031229FE4AE585
:10365000031229FE9DE7031229FE35E8031229FE15
:10366000ACE8031229FE09EB031229FE21EB031239
:1036700029FE24EB031229FE30EB031229FE44EB52
:10368000031229FE4CEB031229FE83EB031229FEE1
:1036900077EC031229FE01ED031229FE83ED0312DC
:1036A00029FE03EE031229FEDAEE031229FEFCEED8
:1036B000031229FE95EF031229FEF2EF031229FEF1
:1036C000F5EF031229FE22F0031229FE37F0031250
:1036D00029FEA6F0031229FEF2F1031229FE05F3DA
:1036E000031229FE90F3031229FEA3F4031229FE0C
:1036F0006AF5031229FE9BF5031229FEC1F5031298
:1037000029FECAF5031229FEF9F5031229FEA9F6CE
:10371000031229FE59F7031229FECCF7031229FEE2
:103720006FF8031229FEE2F8031229FE21F90312B1
:1037300029FE6AF9031229FE9FF9031229FEE4D833
:10374000041229FE51D9041229FE98D9041229FE27
:103750000EDA041229FE60DA041229FEE6DA0412F7
:1037600029FE2ADD041229FE59DF041229FE36E360
:10377000041229FEB6E3041229FEF1E3041229FE25
:103780000FE4041229FE6FE4041229FE97E40412E8
:1037900029FEC7E4041229FEF8E4041229FE25E5F7
:1037A000041229FE7EE5041229FEC9E5041229FE51
:1037B00000E6041229FE7CE6041229FEA8E60412A3
:1037C00029FEDAE6041229FE3CE8041229FE58E834
:1037D000041229FE96E8041229FE23E9041229FEA8
:1037E0007FE9041229FE45EA041229FE04EB0412C3
:1037F00029FE49EB041229FEAAEB041229FE1FEC54
:10380000041229FE59EC041229FEB1EC041229FE1F
:10381000D3EC041229FE6BED041229FE12EE041201
:1038200029FE5FEE041229FE88EE041229FEC9EE7D
:10383000041229FE76F0041229FE5AF1041229FE20
:103840000BF2041229FEA4FD051229FEB5FD051296
:1038500029FE53FE051229FEFDFF011229FEC8FFB5
:10386000031229FE6DFE051229FE7DFE051229FEBA
:1038700092FE051229FE23FF051229FEAEFB05125A
:1038800029FE32FC051229FE98FC051229FEFAFFDA
:10389000011229FEAFFF031229FEBFFF031229FE0A
:1038A000C2FF031229FEC5FF031229FEF87F001292
:1038B00029FEADEE051229FECFEE051229FE3AF0E3
:1038C000051229FEBEF0051229FED0FF021229FEC4
:1038D000D9FF021229FEE2FF021229FEF0FF0212B6
:1038E00029FE0AFA031229FE76FA031229FE3EFB8C
:1038F000031229FE33FC031229FE20FE031229FEC7
:103900007AFE031229FECDFE031229FEDEFE03120B
:1039100029FEF0FE031229FE5CFF031229FE70FF50
:10392000031229FE7BFF031229FE89FF031229FEE1
:103930009BFF031229FEB7A8051229FEE3A8051272
:1039400029FE89AB051229FEE0AB051229FE1CAC4D
:10395000051229FE30AC051229FE49AC051229FEDC
:10396000DE9C021229FE16AE051229FE2AAE0512B1
:1039700029FEADF2051229FED1F2051229FEEAF266
:10398000051229FE28F3051229FE5EF3051229FE11
:1039900091F3051229FE9BF3051229FE07F4051287
:1039A00029FE0AF4051229FE14F4051229FE21F459
:1039B000051229FEE4E4051229FE07E5051229FE99
:1039C0009FA4021229FE70E5051229FE8BE505125F
:1039D00029FEF1E5051229FEFDE5051229FE5AE64C
:1039E000051229FE7EE6051229FE44E7051229FE8E
:1039F00051E7051229FE62E7051229FE4D810612E4
:103A000029FE6581061229FE9181061229FED5B88C
:103A1000051229FE39BA051229FE47BA051229FEF8
:103A20005BBA051229FE78BA051229FE8DBA051275
:103A300029FEA0BA051229FE22BB051229FE88BB69
:103A4000051229FE11BC051229FE89BC051229FEAA
:103A500062BD051229FE72BD051229FE81BD051247
:103A600029FEB480061229FED880061229FE0081A4
:103A7000061229FE2881061229FE90E7051229FE6A
:103A8000B7E7051229FED6E7051229FE4BE8051215
:103A900029FE11E2051229FE2AE2051229FE41E261
:103AA000051229FE4AE2051229FE68E2051229FEE6
:103AB00072E2051229FE7CE2051229FE8FE2051250
:103AC00029FE1CE3051229FE8BE3051229FEB9E34A
:103AD000051229FE0AE4051229FE56E4051229FE04
:103AE00071E4051229FE7BE4051229FE8CE405121F
:103AF00029FECFE4051229FEDA81061229FE25826D
:103B0000061229FE2697051229FE5297051229FE54
:103B10007597051229FE8897051229FEA3970512AD
:103B200029FE0798051229FE3598051229FE429CA8
:103B3000051229FE849D051229FEB69D051229FE57
:103B4000219E051229FEA59F051229FECD9F051273
:103B500029FEE29F051229FEF29F051229FE32A0DE
:103B6000051229FE74A0051229FE84A0051229FE63
:103B7000F2F6051229FE02F7051229FE26F70512B4
:103B800029FE4FF7051229FE79F7051229FE9DF748
:103B9000051229FEB4F7051229FEE2F7051229FEE7
:103BA00005F8051229FE33FF051229FE79FF0512DB
:103BB00029FEC6D7051229FED6D7051229FEF4D84C
:103BC000051229FE28D9051229FE4AD9051229FE17
:103BD00072D9051229FE8BD9051229FEC7D9051203
:103BE00029FE2DDA051229FE72DA051229FEB7DA4E
:103BF000051229FEE4DA051229FE1CDB051229FE56
:103C000001D0051229FE63D0051229FE0AD1051242
:103C100029FE42D1051229FEBFCB041229FE6ECC2B
:103C2000041229FEA2CE041229FE75D1041229FE27
:103C3000F5D2041229FE57D3041229FE62D60412CB
:103C400029FEA6D7041229FE3DF8051229FE88F8A0
:103C5000051229FE66B3051229FE25B6051229FEB6
:103C6000C2B6051229FEEEB6051229FE1CB70512D2
:103C700029FE51B7051229FE79B7051229FED9B7D9
:103C8000051229FE0080051229FEE983051229FE8E
:103C9000E085051229FE0E87051229FEEA87051226
:103CA00029FE9589051229FE308B051229FEFD8B10
:103CB000051229FE518C051229FE1DEA051229FE66
:103CC00027EA051229FE48EA051229FEF8F2041235
:103CD00029FE1FF8041229FE4EF9041229FE2AFBC0
:103CE000041229FE23FC041229FE5AFD041229FEA7
:103CF00067FE041229FE4CFF041229FE0080041204
:103D000029FE3880041229FE448A041229FE2E8BD3
:103D1000041229FE7E8C041229FEC98D041229FE8C
:103D2000748E041229FE478F041229FEDE8F0412BE
:103D300029FEC290041229FEC591041229FE879221
:103D4000041229FEB592041229FE2D94041229FEB4
:103D5000B694041229FECF94041229FE2996041267
:103D600029FEDB96041229FE6A97041229FE19988F
:103D7000041229FE7C98041229FE1899041229FEC7
:103D80009199041229FEAF99041229FE7C9A04121B
:103D900029FE4B9B041229FE019C041229FE2BF4E0
:103DA000051229FE55F4051229FE67F5051229FEB4
:103DB0006AF5051229FE487F001229FE9B7F00123A
:103DC00029FEDD7F001229FEED7F001229FE4AF94F
:103DD000021229FE91F9021229FEFAF9021229FEB5
:103DE0001BFA021229FE34FA021229FEE4FA021228
:103DF00029FEEDFA021229FE3EFB021229FE74FB97
:103E0000021229FE8BFB021229FEF8FB021229FE88
:103E100088FC021229FEBEFC021229FE07FD0212D6
:103E200029FE68FD021229FEA2FD021229FE0AFEE9
:103E3000021229FE5DFE021229FEA0FE021229FED8
:103E4000DDFE021229FEEFFE021229FE01FF021220
:103E500029FE3BFF021229FE7BFF021229FEB2BDA2
:103E6000051229FEF8BE051229FE21BF051229FE02
:103E700032BF051229FE4AC1051229FE6AC1051288
:103E800029FE69EC051229FE9FEC051229FEEEECD5
:103E9000051229FE4AEE051229FEADB7041229FECD
:103EA000EBB8041229FE27B9041229FEECBA041259
:103EB00029FE16BB041229FE9CBD041229FEDCBD9E
:103EC000041229FE72BF041229FE07C0041229FE43
:103ED00065C0041229FEEBC0041229FE23C104129E
:103EE00029FE65C1041229FED2C2041229FE56C45D
:103EF000041229FE90C6041229FEBEC6041229FE31
:103F0000EAC6041229FEF3C6041229FE49C70412A8
:103F100029FED9C7041229FEE0CA041229FE62CB89
:103F2000041229FE0080061229FE1680061229FEC0
:103F30002080061229FE7C80061229FE88C7051201
:103F400029FEA1C7051229FE46C8051229FE86C80A
:103F5000051229FE9FC8051229FED2C8051229FEA6
:103F60001FC9051229FE53C9051229FE95C905125C
:103F700029FE6ECB051229FED9CB051229FE71F957
:103F8000051229FEC6F9051229FE20FA051229FE9E
:103F90009BFA051229FE0DFB051229FE4BFB0512AB
:103FA00029FE8CFB051229FEB4A0051229FEBAA039
:103FB000051229FE01A1051229FE0DA3051229FEF5
:103FC0003DA3051229FEA7A3051229FE62A405122E
:103FD00029FEA5A4051229FED6A4051229FE60A576
:103FE000051229FE77A5051229FE84A5051229FED2
:103FF0008EA5051229FE2EA7051229FE20A805125E
:1040000029FE7EA8051229FE37F7011229FE4DF779
:10401000011229FEFFF7011229FE29F9011229FEDA
:104020001EFA011229FEB5FA011229FEF0FA011258
:1040300029FE62FB011229FEC0FB011229FED0FB02
:10404000011229FEF7FB011229FE49FC011229FE8B
:10405000B5FD011229FEBAFD011229FEDCFD011297
:1040600029FED6DA021229FE2EDB021229FEABDC73
:10407000021229FE68DD021229FE7FDD021229FEEE
:10408000CEDD021229FE42DE021229FE55DE0212A8
:1040900029FEA3DE021229FE12DF021229FE85E1AB
:1040A000021229FE92E2021229FEEDE2021229FE1C
:1040B00083E5021229FE04E6021229FE46E60212F8
:1040C00029FE20E7021229FE59E7021229FEA4E781
:1040D000021229FEBAE7021229FE75E8021229FE31
:1040E00043E9021229FE4EE9021229FE9CE902125E
:1040F00029FEF1E9021229FE3DEA021229FE9AEB9D
:10410000021229FEC4EB021229FE57EE021229FE0A
:1041100081EE021229FE8FEF021229FEBEEF02127B
:1041200029FE30F0021229FE5BF0021229FE9DF0FA
:10413000021229FE11F1021229FE2FF2021229FEAB
:104140007CF2021229FE86F2021229FE89F2021284
:1041500029FE93F2021229FEAFF2021229FE2FF37A
:10416000021229FE68F3021229FE84F3021229FECC
:10417000B0F3021229FED7F3021229FEFBF302125A
:1041800029FE74F4021229FEE7F4021229FE2AF530
:10419000021229FE34F5021229FE63F5021229FEED
:1041A00079F5021229FE95F5021229FEC4F50212D4
:1041B00029FEE4F5021229FE2DF6021229FE68F608
:1041C000021229FE74F7021229FECEF8021229FE0D
:1041D000EDF8021229FE05F9021229FE17F9021262
:1041E00029FEB1FC051229FEC2FC051229FE4BFD79
:1041F000051229FE3EAE051229FE7CAE051229FEEF
:1042000015AF051229FE20B0051229FE68B205126D
:1042100029FEE5B2051229FE0F78001229FE5E780C
:10422000001229FE1C7A001229FEF07B001229FEE2
:104230002E7C001229FE0F7D001229FE197E00122D
:1042400029FE3B7E001229FE977E001229FE187F70
:10425000001229FE1B4D001229FE3D4D001229FEC1
:10426000AC4E001229FEF54E001229FE664F0012D8
:1042700029FEE94F001229FE6050001229FEA750C6
:10428000001229FE1E51001229FEBF51001229FE04
:104290003452001229FE7152001229FEB456001247
:1042A00029FED558001229FE0E59001229FE605928
:1042B000001229FE615C001229FEF15C001229FE49
:1042C000A55E001229FED35F001229FEFF600012D6
:1042D00029FE6A61001229FE4B62001229FEA962C2
:1042E000001229FEAC62001229FE7263001229FE40
:1042F000BB64001229FEEA66001229FEF96800126A
:1043000029FEE169001229FE786C001229FE516D28
:10431000001229FE906E001229FEC071001229FEC3
:10432000D071001229FE1673001229FEAF7300121D
:1043300029FEE274001229FE5075001229FE7B76D8
:10434000001229FEB676001229FE5F77001229FEC0
:10435000C69C041229FE689D041229FED49D0412F5
:1043600029FEEE9D041229FE709E041229FEAA9ECB
:10437000041229FEAC9F041229FEEE9F041229FEAE
:1043800060A0041229FEB0A0041229FE0FA104129D
:1043900029FEBBA1041229FEA5A4041229FE6CA5C6
:1043A000041229FED2A5041229FE7AA7041229FEBE
:1043B00013A8041229FEACA8041229FE0FA90412A6
:1043C00029FE85A9041229FE86AA041229FE77ABCC
:1043D000041229FEB2AB041229FEC9AB041229FE55
:1043E000A7AC041229FEE5AC041229FE6DAD04123F
:1043F00029FEBAAE041229FE7EB0041229FEBCB119
:10440000041229FEEFB2041229FE03B4041229FE9D
:104410009AB4041229FE09B5041229FE16B6041234
:1044200029FE6F8C051229FEDA8C051229FE228DD9
:10443000051229FE898D051229FEE58D051229FE3A
:10444000208E051229FEBC8E051229FE168F05123C
:1044500029FE8290051229FE0991051229FE4A9132
:10446000051229FE7591051229FEF691051229FE05
:104470003E92051229FE6492051229FEB69305129A
:1044800029FEBB93051229FE3294051229FE9E9443
:10449000051229FE9995051229FE8596051229FE19
:1044A00070DB051229FEB3DC051229FE7BDD051247
:1044B00029FED0DD051229FE56DE051229FEE6CBC7
:1044C000051229FE04CC051229FE48CC051229FE4E
:1044D0006ECC051229FE95CC051229FEADCC051235
:1044E00029FEC5CC051229FEDDCC051229FE83CD9F
:1044F000051229FEC5CD051229FEDACD051229FEC9
:10450000E1CE051229FEFCCE051229FE05CF0512CB
:1045100029FE0ECF051229FE17CF051229FE21CF45
:10452000051229FE9ECF051229FEBEC2051229FEE4
:1045300000C7051229FE1CC7051229FE21C7051256
:1045400029FE33F1051229FEFCD3051229FE12D4EF
:10455000051229FEB0D5051229FEFBD5051229FE4C
:1045600067D6051229FE66D7051229FE95D70512D2
:1045700029FEA7D7051229FE97F5051229FEEADEC6
:10458000051229FE46DF051229FE86DF051229FEE7
:1045900088E0051229FEA0E0051229FEB2E005120E
:1045A00029FEDEE0051229FE15E1051229FE25E1AE
:1045B000051229FE3BE1051229FE60E1051229FEE4
:1045C000EEE1051229FEA4FF021229FEB99C021297
:1045D00029FEC99B021229FE559B021229FEBE9A92
:1045E000021229FE4C9A021229FE3B9A021229FE5F
:1045F000169A021229FE3299021229FE4E980212D0
:1046000029FE6495021229FE2194021229FE889146
:10461000021229FE4391021229FEE990021229FE9C
:104620004A90021229FEF58F021229FE228F0212F1
:1046300029FE5C8E021229FE208E021229FEB38D05
:10464000021229FEAB8D021229FE208D021229FED4
:10465000B08C021229FE64A3021229FE018C021200
:1046600029FE54A3021229FE28A2021229FE46A006
:10467000021229FE3DA0021229FE3A9F021229FED3
:10468000B29E021229FEA39E021229FE309E021241
:1046900029FEF68B021229FEE78B021229FEC68B39
:1046A000021229FE928B021229FE149E021229FE8A
:1046B000668B021229FE388A021229FE2C88021209
:1046C00029FEFD87021229FE52E5051229FEE18727
:1046D000021229FEF69D021229FE8B87021229FE84
:1046E0005287021229FECA86021229FE7E86021213
:1046F00029FE3786021229FE6A85021229FEEE84FF
:10470000021229FE4684021229FE9F83021229FE0C
:104710004183021229FE1683021229FEC782021269
:1047200029FE8982021229FE6682021229FE4D822A
:10473000021229FE0582021229FE4F81021229FE71
:104740000080021229FEC380021229FE5780021245
:1047500029FE3AAD0500000080FB8F000100221DFC
:1047600087000100211D350004009B1E250002006A
:104770009F1E26000200A11E27000200A31E280083
:104780000100AD1E29000100AE1E84000400AF1E12
:1047900086000100B31E2A000100B41E2B00010098
:1047A000B51E2C000100B81E2D000800031D2E00B0
:1047B0000100B91E2F000100BA1E30000100BB1E0F
:1047C00031000100BC1E320001000B1D330001004E
:1047D0000C1D34000100BD1E360001000D1D380007
:1047E0000100BE1E39000100B71E83000200D21E68
:1047F000630001001E1D64000100FA1C6500010039
:10480000B61E6D0001001F1D71000800FB1C660034
:104810000100D11E43000100C21E44000200C31E5D
:1048200045000100C51E46000200C61E47000800E4
:10483000161D48000100C81E4B000100C91E0400DF
:104840000100D41EA1000100D61E37000100D51EB4
:1048500088000100231D3C0001000E1D3D000100E9
:10486000BF1E49000200CA1E67000100201D4D0046
:104870000200CC1E4E000100CE1E4F000200CF1ED3
:104880003E000100151D510001000F1D52000100E6
:10489000C01E53000100C11E54000100101D000085
:1048A0000000000000013636010100010201000194
:1048B000030100010401060605020000070100349F
:1048C0000801000F090401010D0100FF0E0800009E
:1048D00017020000190100FF1A0100011B0100FE70
:1048E0001C0100081D0200001F0100012001000141
:1048F000210200002301000F240200002601000114
:1049000027010008280200FF2A0100072B010240AE
:104910002C0100002D0100012E0100012F0100FFDC
:1049200030010B1D310800003A0100083B01000F67
:104930003C0100013D0100FF3E0400004204000074
:10494000460400004A0400004E0400005204000027
:10495000560400005A04000001037103010301031F
:1049600001030103010322030203010310030003F7
:1049700000030003000300030003000342030003DD
:104980002403060300030003040312032503230387
:10499000250323030403040300030003000344036B
:1049A0000003000323030003650321003503810393
:1049B0000003050300030003000300032503230392
:1049C000030471040204600411047004020402046C
:1049D0000104020410046104000414046304730459
:1049E0007204620443040004130406040004000477
:1049F00004041204000400040004000451046400D0
:104A00000004000400044404000400040004000442
:104A10006504000435048104640005040004830473
:104A200000040300710030016000110070003102C9
:104A30002003500480001000610000001400630097
:104A400073007200620043000000130006000000C3
:104A5000000004001200000000000000000004003C
:104A60000400370037003C02440000000000000052
:104A70000000650000003500810000000500000016
:104A80008300000001017101010101011101010117
:104A90003101010101018001100161013B0014009D
:104AA00063017301720162014301000113010601F8
:104AB0003D01350004011201000100010001000167
:104AC00004010401330133013C0144013201360089
:104AD00000010001650100013500810100010501AF
:104AE00082018301000103027102300160021102A0
:104AF00070020102020202028002100261023A0008
:104B00004100630273027202620243020002130256
:104B10003800000200020402120200020002000239
:104B2000000204020402370037003C024402000283
:104B30003900000200026502000235028102000213
:104B40000502820283020002360001000600000016
:104B50000F0000000000000000000000000003FF44
:104B6000FF00000403FFFF0000FFFF0FF40100053A
:104B7000C4040320000100000B000000000000003E
:104B80000003010F00000000000000000000000012
:104B90000000000000000000000000000000000015
:104BA00000000000000000008F431300ED421F00D2
:104BB000F3421F80F94201008F4302007542030057
:104BC0007B42040081420500874206009342300088
:104BD000B1423100AB423200BD423300C342350026
:104BE000C9423400CF423600D5421100E1421400E0
:104BF000E7421500A542FFFF00000A000000020086
:104C00000000040000000800000010000000200068
:104C100000004000000080000000000100000002D1
:104C20000000000400000008000000100000002048
:104C300000000040000001D530060B310805310BA3
:104C4000233110772E0A353102DB3005F93007E1C8
:104C5000300CBD300DC930641D46FF000007ECFD6F
:104C6000FDFDECDCDCCCBCACAC9C9C8C7C7C6C6C32
:104C70005C5C5C4C4C3C3C2C2C1C1C03EAF5E5D5E4
:104C8000D5C5B5A595958585757565655555454514
:104C90003535252515150500160F00000B150B02DF
:104CA0000002220F3300000E0C0E020B040B0A0749
:104CB00008000F0001191618161618230300000328
:104CC0004A49434E181A2505023030161819202378
:104CD0001A1C1E3000393D3F373C3C362C442D30E9
:104CE0003017181921301B1D1F3002040201010169
:104CF00001090200BE040A7F00E8030E0000000064
:104D0000000C08100C0A1503090900040003FF1E1B
:104D10001E01050C04040810050328C082C08390FE
:104D20001C83E4F0A3F07CED7D047A9E7B1B123F94
:104D30009F1245ED122EC51245E7026CF974F3126D
:104D4000243C74F5122AC789098A088B0A8C0BE95E
:104D5000705F74026508703F79081241C7750C00D6
:104D6000780C122A55E50BF50C780C122A55E50A39
:104D7000F50C780C122A55901BBA122851901EB3CC
:104D8000E0F97C167D1D901ED2126D0612395D74FD
:104D900007122A2E024E74740165086003024E79D0
:104DA00079081241C77B00AA0AA90A12465F024E7F
:104DB00074740165096009740265096003024E7923
:104DC000EA600674036508704779021241C7901EB5
:104DD000B3E0F9901BBA122CC41245D5E9F9901B27
:104DE000C7E0A2E34010E9700D901C87E004F06476
:104DF000047003124E9A74036508707A901C88E060
:104E0000F8740128F0E8C39405406B124E9A80664E
:104E100074016508706374016509790A702E124186
:104E2000C77401122CF3E4F07402122CF37403F033
:104E300004122CF3E4F0A3F0A3F0A3F07408122CF6
:104E4000F3E4F0AA18AB191230E780441241C7907E
:104E50001EA91228517A007B20901BBEE0F9123F58
:104E6000517404122A2E901EB3E0F9901BBA122C32
:104E7000C4124677E9F9E960179080CA1228517A7E
:104E8000017B00901BBEE0F9123F517404122A2EE0
:104E9000740B122A2E7F050226CD901BBAE4F0A3D4
:104EA00074F8F0A374FFF0A37407F02274F61224D0
:104EB0003CE9FFEAFE7AD1F9123E0D8A828B83E546
:104EC000824583702A7A027B00123DEFEA4B700E16
:104ED0007A107B00901BBEE0F9123E3180148A826A
:104EE0008B8374D1F0EFA3F0EEF9123DFB8003EF5A
:104EF000A3F002511974F712243C89089006F812A5
:104F00006246901E97E0F47003A3E0F4702D900BBE
:104F1000E5E0901E97F0A3E4F080208E828F83A3BB
:104F20001260F9600F8E828F83A3A31260F3FAA937
:104F30000812425D8E828F83124FDCEE4F70DC9040
:104F40001E97E0F47003A3E0F4600A901E97E0FA65
:104F5000A90812425D1231F5901B881259081231CE
:104F6000EF7F010226CD74F012243C890B8C0C7566
:104F700008007509007410122CF3125050741212AC
:104F80002CF3124FDC803CA80A125040F50EA3E02F
:104F9000F50FA809125033F583E0650E7004A3E005
:104FA000650F7014124FD3EE28F582EF39F583E5C3
:104FB0000EF0A3E50FF00508050AE50AC3950C40BD
:104FC000C60509E509C3950B5005750A0080EBA9D4
:104FD000088011A808E828F8E433F9221272D9E809
:104FE000FEE9FF227F080226CD74F412243C890BCF
:104FF0008C0A750800740C122CF3125050800205B4
:1050000008E508C3950B502775090080020509E5DE
:1050100009C3950A50E9A808125033126244A8093E
:105020001250406E7003A3E06F70E2790180027944
:10503000008028E828F8E433F9EA28F582EB3922E1
:10504000E828F8E433F9EC28F582ED39F583E0221D
:105050001272D9E8FCE9FD22122A2E7F040226CD25
:1050600074F612243C1251037003A3E06D7017759F
:1050700008C575091B7808122A51EEFA1243957477
:1050800002122A2E801F7508027509807808122ADC
:10509000518C088D097808122A511250EE1243B92A
:1050A0007404122A2E807274F612243C125103707A
:1050B00003A3E06D70177508D275091B7808122AD2
:1050C00051EEFA12439B7402122A2E801F750803B8
:1050D0007509807808122A518C088D097808122ADF
:1050E000511250EE1243B97404122A2E802B125022
:1050F000FC3FF583E0FD7C8012634D22EE240EF52B
:1051000082E422EAFEEBFF126362FCE439FD901BAD
:1051100088E06C227402122A2E7F020226CD74F6D9
:1051200012243C74FE122AC7EAFEEBFF8518828522
:105130001983E4F0A31258BA12649BFBECFA88823C
:105140008983A3A3E0F9750900750800600574FF61
:10515000697005750882803D901B88E06A7003A322
:10516000E06B701AAA18AB1912377DE9F50985189A
:10517000828519831266DD701C7508838017901D67
:1051800021E06004640170057508818008E0640214
:1051900070037508808518828519831266C6A90870
:1051A000EEFAEFFB1243A1E509601185188285191B
:1051B000831266DD6006126D00123E910251147476
:1051C000F212243CEAFEEBFF750800750900126339
:1051D0005EF50AE439F50B1231F5EA650A7003EB66
:1051E000650B701212378FE914F50879017A4F7B3D
:1051F0001C12379580037509801266CCF50C780C6B
:10520000122A55750C4F750D1C780C122A5178080E
:10521000122A55780A122A51E509F5087808122A47
:105220005512615F1266CFF97A057B801243A7742D
:10523000070274AE74F612243C89097508008027B1
:105240008A828B83E0FE127663EE28E439FF124FE8
:10525000D3EC28F582ED39F583EEF0A3EFF0EA24E4
:1052600002FA50010B0508E508C3950940D2025126
:105270001974E812243C74FB122AC78A168B17850E
:105280001882851983E4F07403122CF3E4F0A3F080
:1052900004122CF3E4F0A3F0125C17351712588CAB
:1052A000F50B850A82F58312774FFEE439FF850AF4
:1052B00082850B83A3A3E0FA850A82850B83A3A3CF
:1052C000A3E0F9EAF508E439F509E50A2404F50A4A
:1052D0005002050BEEFAEFFB123291E96401601601
:1052E000EEFAEFFB123291E9703D901B88E06E7090
:1052F00003A3E06F60311264AC122A55E4F508F59F
:10530000097808122A517808122A55901B88122809
:10531000557508807808122A551256691243A774E9
:1053200007122A2E02565F1256978810602B1272AF
:10533000FA123E8B7403122CF31259087403122CC8
:10534000F31266DD60137403122CF312568FA9104A
:1053500012428D8A0A8B0B800375100012569788B3
:105360000F60271272FA123E8B7401122CF312593D
:10537000087401122CF31266DD600F7401122CF315
:1053800012568FA90F12428D8003750F009006F8F8
:10539000805C850A82850B83A3A3A3A3A3A3A3A3F5
:1053A000E4F0A3F0AA0AAB0B851482851583A3A3AE
:1053B000E0F81260F3F9123DFB851282851383E059
:1053C000C0E0851882851983E0F8744F28F582E4DF
:1053D000341CF583D0E01266E104F0E511A2E05040
:1053E00007AA12AB13123E91851482851583E0F54E
:1053F00014A3E0F515E514451570030255CC85148A
:1054000082851583A31260F960DE85148285158379
:10541000A3A3A3A3A3A3A3A3E0A2E050CB851482DC
:10542000851583A3A3A3A31266DD85148285158346
:10543000A3A3601F1260FAFA79018514828515838F
:10544000A3A3A3A312568212262D8A128B137511C1
:10545000018010125682A3A3A3E0F512A3E0F51376
:10546000751100E512451370030253DB8512828526
:105470001383A3E065087004A3E06509600F74FF5F
:105480006508700474FF650960030253DB851282AE
:10549000851383A3A3A3A3A3A3A3122855851282D4
:1054A000851383A3A3A3A3A3A3E0FC7405122CF389
:1054B000126D06A91012426F7402122A2EE9703C76
:1054C000851282851383A3A3A3A3A3A3A3A3A3A34A
:1054D000122855851282851383A3A3A3A3A3A3A394
:1054E000A3A3E0FC7403122CF3126D06A90F124261
:1054F0006F7402122A2EE970030253DBE50F2510A8
:10550000C333240AFA7B00123DEF8A0A8B0BEA456B
:105510000B70030253B98A828B8374D21268EC8AAF
:10552000828B83A3A3E8F0A3E91275E1A3E510122F
:105530007757E50FF0E510603CEA2405FAE4350BF7
:10554000FBE50A240AF8E4350BF98A828B83125EA4
:105550009F7403122CF31256A7122A4DAC10EC2C98
:10556000FCE433FD8A828B83126D06123DCB7403FB
:10557000122A2E800D8A828B83A3A3A3A3A3E4F017
:10558000A3F0E50F7003025392A810124FD5E50A5D
:1055900028F8E50B39F9E8240AFAE439FB850A8290
:1055A000850B83A3A3A3A3A3A3A3A31259087401E8
:1055B000122CF31256A7122A4DAC0FEC2CFCE4333C
:1055C000FD123DCB7403122A2E0253A48518828546
:1055D0001983E060271264AC122A5575084F7509CB
:1055E0001C7808122A517403122CF31264B5122A83
:1055F00055901B881228557508008029EEFAEFFB9C
:10560000123291E9702F1264AC122A5575084F7549
:10561000091C7808122A517508007808122A55903A
:105620001B881228557808122A551256691243A76A
:105630007407122A2E7403122CF31266DD600B74A9
:1056400003122CF3126D06123E917401122CF31208
:1056500066DD600B7401122CF3126D06123E91741C
:1056600005122A2E7F100226CDE5162402FCE43511
:1056700017FDE5161260ED3517F583E0F97A067B24
:10568000802212568622E0F8A3E0F5838882221257
:1056900066C6AA0AAB0B22850A82850B83E0F8A3B3
:1056A00085820A85830B22E0F50CA3E0F50D750ECB
:1056B00000780C2274F112243C74F4122AC78A0870
:1056C0008B09ECFEEDFF740B122CF37403F0122A1D
:1056D0009F123F9F1231EF8A0A8B0BAC0AAD0B74FD
:1056E00003122A9F123F99E9600A1258866010E05F
:1056F0006401600B85188285198374840258348E86
:10570000828F83A3A3A3A3A3A3A3A3E06013F46046
:10571000101258867016EE24141266CF6003F470CF
:105720000B851882851983748202583412747BE0C9
:1057300064217002A3E0600302580B85188285196A
:1057400083748C1258BA640360030257F574011213
:105750002AA7125E84122FE5E960030257F5124171
:10576000B58A0A8B0BEA450B70030258358E0C8FF5
:105770000D750E00780C122A4D7C157D00123DCB64
:105780007403122A2E850882850983A3A3E50A24BF
:1057900015FCE4350BFD74091229771270F9C0E08D
:1057A000E50A241E125874D0E0125CEBC0E0E50A52
:1057B000241F125874D0E0F0E50A242012587474A3
:1057C00005F0EE240BFE50010FFAEFFB1238137DAB
:1057D000007C007900EEFAEFFB12435F9080CA1262
:1057E00028517A007B10901BBEE0F9123F517404DF
:1057F000122A2E807812587C122A55125894122F91
:10580000D37401122A2EE9702C801412587C122AAB
:1058100055125894122FD97401122A2EE9700D8551
:105820001882851983E4F0124185800985188285E4
:1058300019837488F01270F9F50A780A122A5574DF
:1058400001122A97880A890B780A122A51E508243E
:105850000CF582E4350912588C4480F50B780A1255
:105860002A5112622F1243537405122A2E740C12FD
:105870002A2E805CF582E4350BF58322EE125E91D0
:10588000E0F50A780A221258BF640322F583E0F596
:105890000AA3E022EE240BFCE43FFD8E828F83A35B
:1058A000A3A3A3A3A3A3A3A3126D438E828F83A359
:1058B000A3A3A3A3A3A3A3E0F922F01258BF22122B
:1058C00058C322EE1269C93FF583E022EEFAEFFBDE
:1058D0007F070226CDC082C08374F3122AC78518C1
:1058E00082851983E4F004122CF312590874031210
:1058F0002CF3AA82AB8312472BAA18AB191246F5D8
:10590000740D122A2E026CF9EAF0A3EBF02274F661
:1059100012243C1259521272D38882898312748BDA
:10592000F8901BCDE058F508A3E059F509E50845C6
:1059300009601C7808122A51901B8812285512669B
:10594000CCFD7C001263491243B37404122A2E0268
:105950005119EAFEEBFF12595B3F22EE1269C92290
:1059600074EA12243C74DB122AC78A148B15751250
:1059700000751300125C173515F5831260FAF50EE9
:10598000AC18AD197A007B00799C122CFD7A047951
:10599000001246BFEAF50C851882851983E02AF0CB
:1059A000F8E50EC3984003025B84E0C3950EF50949
:1059B000C394044003750903E50975F01AA4FAAB12
:1059C000F0123E8B8A128B13EA45137003025B8739
:1059D000750D00AE12AF13850E08025A617C087D6A
:1059E0000079FF125C03123DD7850A82850B83A3E1
:1059F000A3A3A3E0702D850A82850B831266DD7058
:105A00000C126E4FF0EE2418126E528010125C0BC6
:105A1000F090055EE014C0E0125BE7D0E0125C3B62
:105A2000E4803490055EE004C0E0125BE7D0E01251
:105A30005C33C39403EE4003025AE9125E8D740294
:105A4000125C3364017003025AF6EE2415125C0EE8
:105A5000F0EE2416125C0EF0EE241AFE50010F0533
:105A60000DE50DC395094003025B21E508C3950CC4
:105A70004003025AFFAA087B001246358A0A8B0BA4
:105A8000050890054B125C1C123F9F850A82850B0E
:105A9000831272D5125BF5E8F0A3E9125C4D850A1A
:105AA00082850B83A3A3A3A3A3A3A3A3A3A3E0C063
:105AB000E0125BDDD0E0F07401122CF3E4127620EA
:105AC0001272D57402122CF3125E9F7401122A9F77
:105AD000124707E9640160030259DD7404122CF3D4
:105AE000125BFF123F9F0259E9125C0C125C336497
:105AF000036003025A4AEE2415126E52025A50E510
:105B00000CC3950E4005750800801DE50EC3950C6D
:105B1000F5088014125C0BF0EE241AFE50010F05FC
:105B20000DE50DC39509505F740E122AA7AA087BD4
:105B3000007987122CFD05087418122CF3125C1CD6
:105B4000123F9F7410122CF3125BFF123F9FEE2442
:105B500012F8E43FF9740E122CF3126D0688828954
:105B600083EAF0A3EB125C3B7403125C4D741D12CC
:105B70002CF3E0C0E0125BDDD0E0126C7170951286
:105B80006E4F8093750900750A00780A122A5578BD
:105B900012122A517809122A55E50EF509780912D0
:105BA0002A557405122CF3E0FD7C00E5141260E424
:105BB0003515FBE5141260E93515F583E0F912435C
:105BC000EF7405122A2EE51245136007AA12AB13D3
:105BD000123E917425122A2E7F0E0226CDEE241934
:105BE000F582E43FF58322125BEB22EE2418F58266
:105BF000E43FF58322EE2412F582E43FF58322ACE4
:105C000082AD83EE240AFAE43FFB22EE2414F582EF
:105C1000E43FF583740122EA12595C221272D98E94
:105C2000828F83E8F0A3E9F07C5F7D05EE1260E4EB
:105C30003FFB2212761BA3A3A3E022F0EE126E46D6
:105C40007402F0EE2416F582E43FF58322F0EE2490
:105C500017F582E43FF5837402F0125BEB74FFF0FA
:105C60002274F612243C74F9122AC7125CE01277EF
:105C7000D9123DE3EAF8EBF9ECFAEDFB85188285E1
:105C80001983122CDCEE2404FE50010F8E828F83C8
:105C9000E0C0E07404122CF3D0E0126C48F87405F4
:105CA000122CF37401F07406122CF37401F0901BA3
:105CB00092F0901B9B04127635A3126D06901B93F5
:105CC000125908E8901B9C125CEB901B91F0AA18EB
:105CD000AB191245CFE960031245C974070251168A
:105CE0008A088B09EA12595C350922F01275ADE079
:105CF0002274F212243C74FF122AC77508007E0039
:105D00007F001231178A0A8B0B1231178A0C8B0D08
:105D1000A80CA90D800505081272CFE84970F7900C
:105D20001D21E0600764016003025DFC1231178AE7
:105D30000C8B0DA80CA90D80031272CFE8496036B8
:105D400088828983126D0690054BE06A7003A3E098
:105D50006B600D125E9839F583126D06EA4B70D9AF
:105D6000888289831272D590054BE0687003A3E0A6
:105D7000697003025DFC7A167B00123E8B8A0C8BE5
:105D80000DAE0CAF0DEE4F607390054B1272D58EB9
:105D9000828F83125E9F900540E08E828F83A3A343
:105DA000F0123279E98E828F83A3A3A3A3A3F0908C
:105DB0001EB412760FF07C5F7D05125E84123F9F49
:105DC000AA18AB1979411244C7851882851983E056
:105DD0006008901B881272D5800478FE79FF8E824D
:105DE0008F83A3A3A3A3A3A3A3125E9F125E8CE53C
:105DF0000AF0A3E50BF08E0A8F0B0508901B9CE0C0
:105E0000F8E508C398500479008027E508C398F99D
:105E1000C39406400279057800800DE50A125E9968
:105E2000350B12588CF50B08901B9CE0FAE8C39ACE
:105E300040E97509007809122A55780A122A51E9B1
:105E4000F5097809122A55901B9CE0F5097809128A
:105E50002A55AD087C007A937B1B901B91E0F912C8
:105E600043E97405122A2E901D21E060046401703C
:105E70000BEE4F6007EEFAEFFB123E911245C9742C
:105E8000010274AEEE240BFAE43FFB22EE125E91A7
:105E900022125E993FF58322E82414F582E422E879
:105EA000F0A3E9F02274F012243C74FF122AC78A8E
:105EB0000A8B0B7E008E0E8E0F125C171258771213
:105EC00060FAFFAC18AD197A007B00799D122CFDA9
:105ED000851882851983E0F8EFC3984003025F7E3E
:105EE000E0C39FFEC3940B40027E0AEE75F007A448
:105EF000FAABF0123E8B8A088B098A0E8B0FEA45AB
:105F00000F6079750C00801A850882850983A3A328
:105F1000A3A3A37403F0E5082407F50850020509BC
:105F2000050CE50CC39E5056AC08AD09E50C2FFAE4
:105F3000E43400FB798B122CFD850882850983A34C
:105F4000A3A3A3A3E014600814601314601F80B817
:105F5000850882850983A3A3A3A3A3E480B785084A
:105F600082850983A3A3A3A3A3740180A8850882C3
:105F7000850983A3A3A3A3A3740280997E00750857
:105F8000007808122A55780E122A51EEF508780882
:105F9000122A55EFF5087808122A557405122CF3C9
:105FA000E0FD7C00E50A1260E4350BFBE50A1260B7
:105FB000E9125877E0F91243F57405122A2EE50E1E
:105FC000450F6007AA0EAB0F123E917401122A2EE4
:105FD000024FE474EE12243C74FE122AC78A0C8B22
:105FE0000D751000751100125C17350DF5831260E8
:105FF000FAF50AAC18AD197A007B0079A3122FDFED
:10600000126D00C3E50A9AE49B50768518828519C3
:1060100083A80AE0C398FEA3E09400FFC3EE9404B3
:10602000EF940040067E037F008004EE4F6052EE46
:10603000FAEFFBEA75F015A4FAA8F075F015EBA4D9
:1060400028FB123E8B8A088B098A108B11EA4511B6
:10605000602F750B00750E00C3E50E9EE49F502661
:10606000AC08AD09A80AE50E28FAE43400FB79A2D1
:10607000122FDFE5082415F50850020509050E80EA
:10608000D7750B8B7E007508007808122A5578109A
:10609000122A51EEF5087808122A55E50AF5087813
:1060A00008122A557405122CF3E0FDAC0BE50C1216
:1060B00060E4350DFBE50C1260E9350DF583E0F980
:1060C0001243FB7405122A2EE51045116007AA1031
:1060D000AB11123E917402122A2E7F0A0226CDFCC9
:1060E000EFFDE5082402FAE4221260ED22240FF508
:1060F00082E422A3E0F5838882A3125686E022740C
:10610000F612243C74FF122AC71259521274D3A3F8
:10611000A3A3A3A3A3A3A3E0F9124683E98518824E
:10612000851983F07508007808122A557401122A1F
:1061300097880889097808122A51750835750980E9
:106140007808122A511261551243537405122A2EEF
:106150007401025116790112615FFAE43FFB22EEED
:106160002402FCE43FFDEE240F2274F412243C745C
:10617000FA122AC7125CE0126244EEFAEFFB1247F1
:1061800025E960171231EF8A0A8B0BAC0AAD0BEED2
:10619000FAEFFB123F99E96401700A7401122CF3C3
:1061A000E4F0A380097401122CF3EEF0A3EF127651
:1061B00051A3A3A3A3A3E0F8A2E650087403122CF2
:1061C000F37401F0E8A2E750087404122CF3740190
:1061D000F07405122CF3E4F004122A9F124653E9DE
:1061E000851882851983F09080B2122CC412321364
:1061F0007A007B0012321F7A007B00123219750A76
:1062000000780A122A557401122A97880A890B7895
:106210000A122A51750A34750B80780A122A511213
:10622000622F1243537405122A2E740602505879B5
:1062300001E5082402FCE43509FDE508240FFAE431
:106240003509FB22F5831274DDFF2274F612243C1B
:1062500074FF122AC712629E1260FAF91246D1E93F
:10626000851882851983F0EE240B1266CF702C7589
:1062700008007808122A557401122A97880889099B
:106280007808122A517508367509807808122A5143
:106290001261551243537405122A2E026150EAFE10
:1062A000EBFF12595B3FF583220229FB74F41224A1
:1062B0003C74EF122AC7EAFEEBFF12635EF508E4B6
:1062C00039F509901B88E065087004A3E065097042
:1062D00052A818A919880A890B780A122A51750A36
:1062E00011750B00780A122A517C007D007A817B9F
:1062F00000123F157404122A2EE97027750A0078DF
:106300000A122A557401122A97880A890B780A12F0
:106310002A51AC08AD091263491243AD7403122A25
:106320002E8021750A11750B80780A122A5178087F
:10633000122A511266CCFD7C841263491243B9744F
:1063400004122A2E741102505812634D22EE2402B8
:10635000FAE43FFBEE1260ED3FF583E0F9221263B1
:1063600062221258C31264A312758EF8E4C8F9EAC7
:10637000282274F112243C74EB122AC712629EE0A8
:1063800012649BFAE4CAFBEC2AF508E43BF5099099
:106390001B88E065087004A3E0650960030264429D
:1063A00088828983A3A3E09410500F88828983A3F5
:1063B000A3E0851882851983800885188285198352
:1063C0007410F0E0C0E07404122CF3D0E01274BF3B
:1063D000A3A3A982AA83890C8A0D750E00780C12DA
:1063E0002A4D7407122CF3E0FC7D007408122CF384
:1063F000AA82AB83123DCB7403122A2E7404122A94
:1064000097880A890B780A122A51750A11750B00B0
:10641000780A122A517C007D007A817B00123F0F9E
:106420007404122A2E7404122CF3E0901BC560052C
:10643000E0D2E48003E0C2E4F0851882851983E4A9
:1064400080088518828519837484F0E0C0E07401A7
:10645000122CF3D0E0F07402122CF3E508F0740370
:10646000122CF3E508F01250FC3F1264B3122A55C7
:106470007402122A97880889097808122A51750827
:10648000147509807808122A517903126157124352
:10649000537405122A2E741502586F1264A3E0FC7F
:1064A000A3E022F8A3E0F98882898322E51612503E
:1064B000FD3517F583E0F50878082274F612243CC0
:1064C00074E0122AC7EAFEEBFF90054DE064086015
:1064D00008E0640460030266C1AC18AD1912433BC6
:1064E000901D21E06402702F1231EF7402122CF320
:1064F000AC82AD83123F99E9601D1231F58A088B99
:1065000009A808A909851882851983E0687003A382
:10651000E06970030266C11233C37402122CF3AC3B
:1065200082AD83126D001232C1E96401700302660C
:10653000C17418122A9F1232017402122CF3AC8219
:10654000AD837418122A9F123F99E960321231FB11
:106550008A088B09A808A909851882851983E0682B
:106560007003A3E06960188518828519831272D5BB
:10657000900541125E9F7A417B05794B1244CD9084
:106580001D21E06004640170751231F58A088B09E1
:10659000A808A909EE24111266CF687003A3E06968
:1065A000605C7402122CF3AA82AB8312468F8A08B5
:1065B0008B09A808A909E849602688828983A3A3D2
:1065C000A3A3E06401600D88828983A3A3A3A3E051
:1065D0006402700C7402122CF3AA82AB8312464D33
:1065E0009005DB1266DD6016901D15E06401700EEB
:1065F000126D009005DCE0F583888212262D79006B
:10660000126D00122E4190054B1266C6126D0012DB
:10661000337B740B122CF3E41266E1F8A3E0F974F7
:106620000C122CF3125E9F740B122A9F124707E97B
:10663000603F7C087D0079007418122A9F123DD7B4
:10664000740E122CF3AC82AD837418122A9F123F81
:1066500099E9601D7402122CF3AC82AD83740E12A2
:106660002CF3AA82AB8312472B740B122A9F12467B
:10667000F57402122CF3AC82AD83740E122CF3AAC3
:1066800082AB8312472B740B122A9F124701E960D9
:1066900030740C122CF31272D5851882851983E0A0
:1066A000687003A3E06960198518828519831272E6
:1066B000D5740C122CF3125E9F740B122A9F124693
:1066C000F57420025116E0FCA3E0FD22EE240EF545
:1066D00082E43FF583E022F582E438F583126E8888
:1066E00022F0851882851983E02274E812243C7414
:1066F000F7122AC78A168B177F008F088F0912435B
:10670000418A128B13EA451370030268BF7E008032
:106710000DEE75F00CA4F81268DC12464D0E8512D1
:1067200082851383E0F8EEC39840030267F4750C8A
