:020000040000FA
:100000000212FF022003FFFFFFFFFF02200BFFFF92
:10001000FFFFFF020E61FFFFFFFFFF02201BFFFF3C
:10002000FFFFFF022023FFFFFFFFFF02202BFFFF48
:10003000FFFFFF022033FFFFFFFFFF020EA4FFFFC1
:10004000FFFFFF022043FFFFFFFFFF02204BFFFFE8
:10005000FFFFFF022053FFFFFFFFFF02205BFFFFB8
:10006000FFFFFF022063FFFFFFFFFF02206BFFFF88
:10007000FFFFFF022073FFFFFFFFFF02207BFFFF58
:10008000FFFFFF022083FFFFFFFFFF02208BFFFF28
:10009000FFFF70DFFFFF040000000002000000C847
:1000A0000300030369A5020269A501000000000026
:1000B00004003273000074F8121046900393E0605D
:1000C0001590030274FEF0900304744DF0A37405C0
:1000D000F07A011206857F0102116374F71210464F
:1000E00074FF12126B7E00801F851882851983E0D1
:1000F00064FE70069003877401F085188285198369
:10010000E0F8900384E068F07C017D00AA18AB1948
:10011000120E1C8B09EA450970030201F38518824F
:10012000851983E064EF70027E07E0C0E0900387EA
:10013000E0FA900385E0F8EA28F8E43400F9740264
:1001400028F582740339F583D0E0F0900387E060EE
:100150009814600E14602C14603C14605214606893
:100160008098900384E4F0851882851983E09003D9
:1001700086F0C394809003874004E40200F974027F
:100180000200F9851882851983E0900382F09003BC
:100190008774030200F9851882851983E090038330
:1001A000F0900386E0601990038774040200F990D0
:1001B0000385E004F0F8900386E06860030200FA2B
:1001C00090038774050200F9900385E4F09003879B
:1001D000F0900384E0F8851882851983E068600355
:1001E0000200FA900382E0644D60030200FA1203F9
:1001F000288002EEF974011212377F020211637433
:10020000F712104674FB12126BEAFEEBFF7508043E
:1002100075090078081212CF74021212E87A907BE6
:10022000007904120EC574021212371206771213E7
:1002300039E0687003A3E06970128518828519831C
:10024000E0F47003A3E0F4600302030874041212E4
:10025000E01206DD8A088B09A808A90974021213A6
:1002600039E8F0A3E9F07404121339E06008790169
:100270001200B6020321851882851983E068700395
:10028000A3E0697076851882851983E0F47003A372
:10029000E0F4701974021213397410F0A37420F092
:1002A0008518828519837410F0A37420F0750801F5
:1002B00075090078081212CF74021212E87A247BB2
:1002C00008120F49740212123775080478081212C6
:1002D000CF74021212E87A907B007904120EC57472
:1002E00002121237120677121339E0687003A3E086
:1002F000697004790280067904800279031200B6DD
:100300008E828F83741E80058E828F83E4F01206A6
:1003100077121339E0687003A3E0697004790180F3
:1003200002790074050201F774ED12104674F81298
:10033000126B900307E0FD900306E0FCFAEDF8E491
:10034000C8F9EA28FEE93408FF751001750B00753D
:100350000A068E088F0974027808121296C395084F
:10036000F8E49509F9740228F50E740339F50F8E37
:10037000088F09740978081212F0E508F511EE24C7
:1003800010F508E43FF509EEF50CEF5401F50D907A
:100390000383E014605914700302046414700302B0
:1003A00004DF14601024FE700302059A1470030227
:1003B000064A02065A750A03794E120C5B9003072F
:1003C00012066D7402F0A3744012066B74081206D4
:1003D0006BF0A3F07418C3940704F510AA10A90BCE
:1003E000120685A90A74081212377F0C0211637570
:1003F0000A04794E120C5BEE450D7005A911120F1F
:10040000AFC3EE9425EF9408503CC3E5089424E56F
:100410000994084031E50E2496F8E50F3420F98858
:10042000828983E0701BA3AA82AB83E070139003E0
:10043000887401F08882898374A5F08A828B838016
:1004400004900388E4F0750810750900780812120A
:10045000CF7C087D03EEFAEFFB120F4974021212F3
:10046000370203DC750A05E511C394794006750B64
:10047000010203DC75124075130078121212CF7C52
:10048000097D037402780C121296AA0CAB0DA91107
:10049000120EC57402121237900307E0A3F0900306
:1004A00006E0A3F0751043C3EE9425EF94084003D3
:1004B0000203DCC3E5089424E50994085003020311
:1004C000DC900388E070030203DCE50E2497F8E576
:1004D0000F3420F988828983E4F0A3F00203DC75ED
:1004E000080475090078081212CF74021212E87A13
:1004F000907B007904120EC5740212123774021236
:100500001339E0F8A3E0F9851882851983E0687053
:1005100003A3E069851882851983700BE0F47003EA
:10052000A3E0F470578009E0F47003A3E0F4700DC9
:100530008518828519837410F0A37420F012067751
:10054000121339E8F0A3E9F075080178081212CF08
:1005500074021212E87A247B08120F4974021212F4
:100560003775080478081212CF74021212E87A90D4
:100570007B007904120EC57402121237120677122C
:100580001339E0687003A3E0697006750A0102037D
:10059000DC750A02750B070203DC900391E060072B
:1005A000640260030203DCEDFF7A01790012068524
:1005B000E0600302063E8003120D1C120D26E97056
:1005C000F7740412133912065F7404121339780891
:1005D00012131D85080C85090D850A0E850B0F90D9
:1005E00005A2780C1212BC7404121339780C121381
:1005F0000EE5084509450A450B70CE8EC2E5C55487
:10060000E04FF5C5740412133912065F7404121317
:1006100039780812131D85080C85090D850A0E8589
:100620000B0F9005A2780C1212BC740412133978C7
:100630000C12130EE5084509450A450B70CE7A01E8
:10064000790012068579080203E5EC900393F070B7
:10065000030203DC750A090203DC79060203E5E400
:10066000F0A37426F0A3E4F0A3F022F0A3E4F0A337
:10067000F0A3F0A3F0A322851882851983E0F8A3E4
:10068000E0F974022274F8121046EAFE900305E0C5
:10069000D2E7F0E9A3F0EE900303F08E0874042A89
:1006A000FE7C028004E062080CECFA3395E0FB74F7
:1006B000022AF58274033BF583EEF8C3EA98EB94C3
:1006C00000A2D265D03340DDE508F074012A0C3376
:1006D00095E0FD7A027B03120E4C0200D674E912FB
:1006E00010467582007583FE1211FE8A168B1775EF
:1006F00014007515008A828B83E4F0900391E070FA
:1007000006D2AAD2AF80046402700579001200B646
:10071000750C00750D20750E00750F00900391E0AB
:10072000600464027015120D1C1200DBE9F87409F4
:1007300068600302080D79001200B675080075099B
:100740000278081212CF74021212E8850C08850D87
:1007500009AA08E5095407FB850E0A850F0B740BDF
:100760007808121252A908120EC574021212377EAE
:10077000007F009005AAC0828E10EFF5113395E03E
:10078000F512F513850C08850D09850E0A850F0BEA
:10079000780879101212A99005A678081212BC7573
:1007A0008305D08278081211DF501D8518828519C3
:1007B00083E5822EF582E5833FF583E0F9AA14AB49
:1007C0001512083C8A148B150EEE70010FC3EF94BE
:1007D0000240A09005AE780C1212BC9005B2780CC5
:1007E0001211DF400302071C7900AA14AB1512088E
:1007F0003C790012083C8B15900391E07004C2AF65
:10080000C2AAEA451570277AA57BA58021E8700366
:1008100002073B740668700302073B7407687003A5
:1008200002073B8516828517837401F080BA7582B2
:10083000007583021211FE7F10021163C008C00907
:100840007C088A088B09740F78081212F0E508F802
:10085000EA25E0FAEB33FBE9A2E7500474014AFA17
:10086000E8A2E0500874216AFA74106BFBE9C33304
:10087000F91CEC70CDD009D0082274F8121046781B
:10088000007900802274942EF582E43403F583E02D
:100890008A828B83F09004141209FA4005900414A4
:1008A000E4F008E8700109900414E0FEA3E06E6033
:1008B00007C3E89CE99D40CDE8FAE9FB7F010211FE
:1008C0006374F7121046900498E0F509A3E0F50868
:1008D000F8E509C398F895E0F9E508C39509E850EB
:1008E0000B120ADC701178007900801B247F500104
:1008F00009C39CE99D50EF7A007B008041E004F041
:10090000D2E908E8700109C3E89CE99D502C8A826D
:100910008B83E0C0E0900499E0FE74182EF582E429
:100920003404F583D0E0120ACC90049AE4F09004E9
:1009300099E0C3947F40C6E480C5E8FAE9FB7F02F2
:10094000021163C082C083C2E9900498E0F8A3E07A
:10095000686017741828F582E43404F583E0F5C163
:10096000900498120AF34002E4F0020D3A74F8126F
:1009700010467800790090051DE07055A3E0705195
:1009800075F900C28FC284A28340FCA28F4004A2EA
:100990008350F8AEF9C28FA2835004D2848032EE25
:1009A000C0E0E0FE1209EFD0E0F090051E120AF35D
:1009B00040D9E4F080D51209EFE08A828B83F09071
:1009C000051D1209FA400590051DE4F008E87001C4
:1009D0000990051DE0FEA3E06E6007C3E89CE99D59
:1009E00040D4E8497006E4F090051DF00208B874A0
:1009F0009D2EF582E43404F58322E004120AD0C36C
:100A000094802274F81210469005A0E0FEF890053C
:100A10009FE0FFEEC39FE0500DC398F895E0F912F8
:100A20000ADB70188012C398F895E0F9E8247F502B
:100A30000109C39CE99D4004EC4D70077A007B00DE
:100A4000020AC98A828B83E0F5F9A3AA82AB837874
:100A50000179008008E004F008E8700109C3E89C0F
:100A6000E99D50278A828B83E0C0E09005A0E0FEDC
:100A7000741F2EF582E43405F583D0E0120ACC9081
:100A800005A0E0C3947F40CDE480CCC28FA2834018
:100A9000FCC284A28F4004A28350F890059F120AE2
:100AA000E6E0F5F9C28F90059FE0FAA3E06A9005B1
:100AB0009F7005120AE68005120AF34002E4F0A2D4
:100AC0008350D0D284E8FAE9FB0208BC120AD02293
:100AD000F08A828B83A3AA82AB8322E824FF18E9E1
:100AE00034FFF9E84922E0FA741F2AF582E434055C
:100AF000F58322E004F0C394802274FB12126B7E13
:100B0000009005CA780812131D9005CA7401F0A35D
:100B1000F0A37469F0A374A5F09005B678081212DA
:100B20008170047E0180159005BA780812128160E8
:100B300008E59D541864107003022000120C81EE29
:100B4000A2E05003020BFEAA18AB191201FFE970D4
:100B500003020BFE851882851983E0C3943C500C78
:100B6000E0F8743CC398FA95E0FB80047A007B00BF
:100B7000120D3FE97003020BFE900391E0640170D7
:100B80000C75F800C2AB539AF7D2EA805E7907126F
:100B900000B68003120D1C120D26E970F7740112C5
:100BA0001339E4F0A37426F0A3E4F0A3F074011267
:100BB0001339780812131D85080C85090D850A0E56
:100BC000850B0F9005A2780C1212BC740112133918
:100BD000780C12130EE5084509450A450B70CE75D1
:100BE0008600C2AAC28B539AFBC2E990000174CD61
:100BF000F0022000C2AF75C9AB75C95B80FE7508F5
:100C000000750900750A00750B00900391E0701BD8
:100C1000D2AAD2AF79051200B6E07003120D1C12F1
:100C200000DBE9F8740968700980E9794E120C5B01
:100C300080ED74016870E2E07017120D1C9005BE23
:100C400078081212BC9005C278081211DF50EBC26E
:100C5000AAC2AF75C9AB75C95B80FEC082C083787C
:100C6000109005A1E0C399501575B60FE5B4A2E741
:100C700050FAE5BBC39940F118E870EDE9F0020DB8
:100C80003AC082C08353BEFBE59DA2E650FA0078CD
:100C9000F8790100120ADB70FA75C6807480659ECF
:100CA00070FA43BE049062707408F0794A120C5BCB
:100CB00090000174F5F07403F5D575D489A2A0E411
:100CC00033900391F0A2E05029D28453F3F753F309
:100CD000EF53FDF743FD10538FF753F7DF43FC202D
:100CE00043F10253F5DF75F82043F4F0D2FED2ABA6
:100CF000802853FF3F85FFFF53F1FE43F30C53F26F
:100D0000F375868075C48090049BE4F0A3F075C2EF
:100D1000D875C50B75C402438640801E8003120936
:100D200043A2E940F922C082C083900498E0F8A36E
:100D3000E0686004790180027900D083D082227457
:100D4000F112104674FF12126B7E00900391E06462
:100D500001706CC2849003927401F07508388E099A
:100D60008E0A8E0B7C017D00AA18AB19120E1C8B0B
:100D70000DEA450D6018851882851983E0641060BE
:100D80002DE064EF70088E088E098E0A8E0B8508A0
:100D90000C85090D850A0E850B0F9005A2780812A7
:100DA00012BCE50C450D450E450F70347E019003D5
:100DB00091E064017056D284900392E4F08051D2A5
:100DC000AAD2AF8A088B09E4F50AF50B9005C6781C
:100DD0000C12131D7808790C120FC679061200B692
:100DE000900391E06003020D64120D1C1200DBE918
:100DF000F8740968700779061200B6809174076864
:100E00006084E8608974066870A48082C2AFC2AA58
:100E1000EEF974011212377F08021163C082C08399
:100E2000900391E0700512087A801E900392E060B2
:100E300015A28F500BE5F98A828B83F07A0180022C
:100E40007A007B00800312096D020D3AC082C083D4
:100E5000900391E070051208C18003120A03020D8D
:100E60003AC0E074F21210AC900001E064CD70055D
:100E7000122013802AE064F57024E5C1C28BC0E023
:100E8000900415E0F8749428F582E43403F583D0D7
:100E9000E0F0900415120AF34005E4F08001007FB1
:100EA0000102110BC0E074F21210AC900001E0647A
:100EB000CD700512203B800BE064F57005120943EC
:100EC00080010080DA74F6121046890A740F550A00
:100ED000F508750900740B7808121296EA2400F8D8
:100EE000EB3480F9E82400E93509F985C709A2AF98
:100EF000E433F508C2AFE50AC4540FFAE5C754F865
:100F00004AF5C7740A121339E0FAA3E0FB801C8883
:100F1000828983E08C828D83F088828983A3A88272
:100F2000A9838C828D83A3AC82AD83EAFEEBFFEEB6
:100F300024FF1AEF34FFFBEE4F70D48509C7E50894
:100F4000A2E092AF7F0302116374F7121046ED9096
:100F50000389F0ECA3F0A37462F0A37473F0A3E030
:100F6000541FF07409121339E0F508A3E0F509E500
:100F700008333354FC90038EF0740678081212F094
:100F8000E50890038DF090038F7412F0A37442F083
:100F900075D1FE75D601EA906271F0EBA3F0906214
:100FA00070E0D2E1F0E0A2E740FB7F02021163C0F3
:100FB00082C083E9C333906272F0906270E0D2E045
:100FC000F0D083D08222080808EAC0E0EBC0E086B7
:100FD000F0E7A4FA180986F0E7A42AFA180986F0BF
:100FE000E7A42AFA180986F0E7A42AFA1986F0E796
:100FF000A4FBE5F02AFA190886F0E7A42BFBE5F03C
:101000003AFA190886F0E7A42BFBE5F03AFA18182B
:101010000986F0E7A4C5F02BFBE43AFA1908E7C506
:10102000F0C6A426F6E5F03BFBE43AFA1886F0E7B2
:10103000A4F6E5F00826F6E43B08F6E43A08F6D014
:10104000E0FBD0E0FA222518C582C0E0E51934FFA4
:10105000C583C0E0E518C3958224F910AF088583E5
:10106000198582188008858319858218D2AFCEF041
:10107000A3E520F0A37808E608F0A3DEFAEFF0A3DA
:10108000E58124FBF8E608F0A3E608F0A30808E6EB
:1010900008F0A3E608F0A315811581D0E0FED0E0AA
:1010A000F815811581E8C0E0EEC0E022C0D0251817
:1010B000C582C0E0E51934FFC583C0E0E518C395DB
:1010C0008224F310AF0885831985821880088583F0
:1010D00019858218D2AFC8F0A3E9F0A3EAF0A3EB18
:1010E000F0A37908E709F0A3D8FAECF0A3EDF0A398
:1010F000EEF0A3EFF0A3D0E0F0A3D0E0F0A3D0E0B7
:10110000F0A3E520F0A3E5F0F0A32285198385186C
:1011100082E0C0E0A3E0F9A3E0FAA3E0FBA3780833
:10112000E0F608A3DFFAE0FCA3E0FDA3E0FEA3E005
:10113000FFA3E0C0E0A3E0C0E0A3E0F5D0A3E0F5AA
:1011400020A3E0A3F5F010AF0885831985821880ED
:1011500008858319858218D2AFD082D083D0E0F879
:10116000D0E032851983851882E0A3FEE0A3F52044
:101170007808E0A3F608DFFAE0A3FFE0A3C0E0E010
:10118000A3C0E0E0A3C0E0E0A3C0E010AF08858208
:10119000188583198008858218858319D2AFD0837A
:1011A000D08222E490030278A179038002F0A3D8D0
:1011B000FCD9FA7AA27B0590008E782979018015F6
:1011C000E493A3AD82AE838A828B83F0A3AA82AB21
:1011D000838D828E83D8E9D9E7120AFA121343C0AD
:1011E00008C3E096F50808A3E096420808A3E09635
:1011F000420808A3E09645087001D3D00822C582B2
:101200002518C582C583351910AF07F519858218D1
:101210008007F519858218D2AFC583222518F5827B
:1012200010AF08F518400C15198008F51840021584
:1012300019D2AF8519832200C0D0251810AF08F548
:1012400018500C05198008F51850020519D2AFD0B6
:10125000D0226016080808C6C313C618C613C618DD
:10126000C613C618C613C6D5E0EA22251810AF0863
:10127000F518400C15198008F51840021519D2AF61
:1012800022E066701008A3E066700A08A3E06670AA
:101290000408A3E06622700422600D18C6C333C69A
:1012A00008C633C6D5E0F41822E627F60809E63763
:1012B000F60809E637F60809E637F622E026F608CA
:1012C000A3E036F608A3E036F608A3E036F622746B
:1012D000028000C0E0F40412121CD0E012132C2291
:1012E0002518FAE43519FB222518FCE43519FD22EE
:1012F000600C08C6C313C618C613C6D5E0F4227521
:10130000D00075813F7518027519030211A3E6F02C
:1013100008A3E6F008A3E6F008A3E6F022E0F6084A
:10132000A3E0F608A3E0F608A3E0F622CAC0E0E6D0
:10133000F0A308DAFAD0E0FA222518F582E435198C
:10134000F5832200000080FBFFFFFFFFFFFFFFFF90
:10135000FFFFFFFFFFFFFFFFFFFFFFFFFFFFFFFF9D
:10136000FFFFFFFFFFFFFFFFFFFFFFFFFFFFFFFF8D
:10137000FFFFFFFFFFFFFFFFFFFFFFFFFFFFFFFF7D
:10138000FFFFFFFFFFFFFFFFFFFFFFFFFFFFFFFF6D
:0A1FF600CA05094338860000000008
:020000040003F7
:01FFF000F020
:020000040000FA
:10200000022C6A0221FCFFFFFFFFFFFFFFFFFFFF23
:10201000FFFFFFFFFFFFFFFFFFFFFFFFFFFFFFFFD0
:10202000FFFFFFFFFFFFFFFFFFFFFF022904FFFF8E
:10203000FFFFFFFFFFFFFFFFFFFFFFFFFFFFFFFFB0
:10204000FFFFFF022759FFFFFFFFFFFFFFFFFFFF1B
:10205000FFFFFF022136FFFFFFFFFFFFFFFFFFFF34
:10206000FFFFFFFFFFFFFFFFFFFFFF02292DFFFF25
:10207000FFFFFFFFFFFFFFFFFFFFFFFFFFFFFFFF70
:10208000FFFFFF02218D01FFFFFFFFFFFFFFFFFFAB
:1020900010201020010105030101FF0F10FEFF7247
:1020A0004C00000000A84B00000000FF000000FFF3
:1020B000000196511800020000BB3D0000000055D1
:1020C0003D393E8B3D033E00007F3D000000000097
:1020D0000000000000000000000000000000000000
:1020E00000000006FFFFFF01010400351B00000097
:1020F000E8030000FFFF041C03E803000064006421
:1021000000B801A0BB0D00A0BB0D0002020008003A
:10211000000502070401051E02051E020A0A010845
:102120000803B80B02803E0102FEFFE8030A050027
:1021300001FFFF0A01E0C0E074F2122578A2AFE4CB
:1021400033F508D2AFAFA7AEA1EE5F541060061210
:102150003AD975A1EFEE5F54086008123ADF75A115
:10216000F78023EEA2E092F0EFA2E082F050179009
:102170006198E0F8900B52E0C398A2D265D033503A
:1021800002E8F075A1FE751A00E5088066C0E074EB
:10219000F2122578A2AFE433FED2AF9061A4E0F84A
:1021A000759B00E59158540860087591F7123B271C
:1021B0008023E59158541060087591EF123B2D80F3
:1021C00014E591A2E092F0E8A2E082F05007E0C2AC
:1021D000E0F0123C839061A3E0F8E5E95854046014
:1021E0000E123C5975E9FB906193E0A2E640F2754E
:1021F0001A00EEA2E092AF7F010225D7C0E074F290
:10220000122578A2AFE433FED2AF9061A5E0F8E5E5
:10221000BF585404600675BFFB123C9B80D1C3E4D9
:1022200098F8E499F912225F8026C3E49AFAE49BB5
:10223000FBE920E7E912225FE498F8E499F922C368
:10224000E498F8E499F912225FE498F8E499F9C364
:10225000E49AFAE49BFB22EB20E7CFE920E7E0B920
:102260000010BB0008E88AF084F8AAF022E4FBC85A
:10227000FA22EB70227B10C833C8C933C933500728
:10228000C39AC3DBF280069A50012ADBEAC833F412
:10229000C8C933F4C9FA2275F008E4C833C8C93391
:1022A000C933C99AC99B5004C92AC93BD5F0ECFB74
:1022B000C833F4C8E4C9FA2274F512251274FA126C
:1022C0002AC77508047509007808122A5174041287
:1022D0002AA77AF87B0779031239B37402122A2EDF
:1022E0009080F27808122C7A7402122D0778081266
:1022F0002AF370497508027509007808122A51748A
:1023000002122AA77AF67B0779031239B3740212F4
:102310002A2E851882851983E0F47003A3E0F46007
:102320001C851882851983E0F8A3E0F988828983E7
:102330007402F0A3F0A37469F0A374A5F0C2AF75A2
:10234000D69F0200007406122A2E7F0402279C08E2
:102350000808EAC0E0EBC0E086F0E7A4FA180986B6
:10236000F0E7A42AFA180986F0E7A42AFA180986E1
:10237000F0E7A42AFA1986F0E7A4FBE5F02AFA1997
:102380000886F0E7A42BFBE5F03AFA190886F0E797
:10239000A42BFBE5F03AFA18180986F0E7A4C5F07B
:1023A0002BFBE43AFA1908E7C5F0C6A426F6E5F0D7
:1023B0003BFBE43AFA1886F0E7A4F6E5F00826F6C7
:1023C000E43B08F6E43A08F6D0E0FBD0E0FA22E479
:1023D000CFC0E0E4CEC0E0E4CDC0E0E4CCC0E07526
:1023E000F020E626F608E633F608E633F608E6338C
:1023F000F6181818EC33FCED33FDEE33FEEF33FF27
:10240000C3EC9709ED9709EE9709EF971919194051
:102410000FFFEC97FC09ED97FD09EE97FE191906E1
:10242000D5F0BFECF709EDF709EEF709EFF7191949
:1024300019D0E0FCD0E0FDD0E0FED0E0FF2225186E
:10244000C582C0E0E51934FFC583C0E0E518C39537
:102450008224F810AF088583198582188008858347
:1024600019858218D2AFCEF0A3E520F0A37808E654
:1024700008F0A3DEFAEFF0A3E58124FAF8E608F00D
:10248000A3E608F0A3E608F0A30808E608F0A3E630
:1024900008F0A315811581D0E0FED0E0F815811574
:1024A000811581E8C0E0EEC0E022122CFCB90003E7
:1024B0000224FCE49004D17871791A8002F0A3D848
:1024C000FCD9FA781A9020867A01BA00028007E4D3
:1024D00093A3F608DAF97A417B1E90209478A379C9
:1024E000018015E493A3AD82AE838A828B83F0A32F
:1024F000AA82AB838D828E83D8E9D9E77582257550
:1025000083B474061229F57582A375834974001289
:1025100029F52518C582C0E0E51934FFC583C0E060
:10252000E518C3958224F910AF08858319858218B0
:102530008008858319858218D2AFCEF0A3E520F0FC
:10254000A37808E608F0A3DEFAEFF0A3E58124FB08
:10255000F8E608F0A3E608F0A30808E608F0A3E60A
:1025600008F0A315811581D0E0FED0E0F8158115A3
:1025700081E8C0E0EEC0E022C0D02518C582C0E0EE
:10258000E51934FFC583C0E0E518C3958224F31034
:10259000AF0885831985821880088583198582187C
:1025A000D2AFC8F0A3E9F0A3EAF0A3EBF0A3790857
:1025B000E709F0A3D8FAECF0A3EDF0A3EEF0A3EF57
:1025C000F0A3D0E0F0A3D0E0F0A3D0E0F0A3E520AA
:1025D000F0A3E5F0F0A322851983851882E0C0E01E
:1025E000A3E0F9A3E0FAA3E0FBA37808E0F608A3D0
:1025F000DFFAE0FCA3E0FDA3E0FEA3E0FFA3E0C060
:10260000E0A3E0C0E0A3E0F5D0A3E0F520A3E0A3C1
:10261000F5F010AF08858319858218800885831925
:10262000858218D2AFD082D083D0E0F8D0E03210CB
:1026300075F0108E218F228582268583258518824C
:10264000851983E0CEA3E0CF852682852583EBC95B
:10265000EAC8EDCBECCAC3E833C8E933C9EA33CAE8
:10266000EB33CBC3EA9EF524EB9FF523B35004ABC9
:1026700023AA24EC33CCED33CDD5F0DAAE21AF2252
:1026800022D083D082ECC0E0EDC0E0E493A3FCE470
:1026900093A3FDED4C600D1227DCEC24FFFCED3420
:1026A000FFFD80EFE493A3FCE493A3FDED4C600DEC
:1026B0001228AFEC24FFFCED34FFFD80EFD0E0FDED
:1026C000D0E0FCE493A3C0E0E493C0E0228519834A
:1026D000851882E0A3FEE0A3F5207808E0A3F608C1
:1026E000DFFAE0A3FFE0A3C0E0E0A3C0E0E0A3C006
:1026F000E0E0A3C0E0E0A3C0E010AF088582188549
:1027000083198008858218858319D2AFD083D0823F
:102710000229FBD083D082E9C0E0E493A3C386F012
:10272000C5F095F0F908E493A386F0C5F095F07034
:102730000BE493A3C3994005E9048002A3E475F078
:1027400002A42582F582E5F03583F583D0E0F9E433
:1027500093A3C0E0E493C0E022C0E074F2122578B5
:10276000A2AFE433FED2AFC2C0901D39E0700BE5DA
:10277000D1A2E4501D123A378018E5D1A2E35006E9
:1027800075D1F7123A0DE5D1A2E4500675D1EF12DA
:102790003A13EEA2E092AF7F010225D78519838517
:1027A0001882E0A3FEE0A3F5207808E0A3F608DF96
:1027B000FAE0A3FFE0A3C0E0E0A3C0E0E0A3C0E034
:1027C000E0A3C0E010AF08858218858319800885D2
:1027D0008218858319D2AFD083D08222C0E0C3E4AF
:1027E0009396087401939618400FE4936670080856
:1027F000740193661870007019A3A3C3E49396083C
:102800007401939618A3A3400DD0E0D0E0D0E0026D
:1028100026BDA3A3A3A3A3A3D0E022D083D082C5C7
:10282000F0E493A3C5F0C395F0F5F0E493A3C3954A
:10283000F04005E5F0048001E475F002A42582F57E
:1028400082E5F03583F583E493A3C0E0E493C0E030
:10285000227404800474028000CCC0E0EDC0E0E586
:1028600018C39CCCAD1950011D10AF068C188D19E2
:1028700080068C188D19D2AF122977D0E0FDD0E0F8
:10288000FC2274028000CCC0E0EDC0E0E518C39CDF
:10289000CCAD1950011D10AF068C188D1980068C17
:1028A000188D19D2AF122955D0E0FDD0E0FC22C01E
:1028B000E0C0F088F0E4936670080874019366182D
:1028C0007000A8F0A3A3700BD0F0D0E0D0E0D0E06F
:1028D0000226BDA3A3D0F0D0E022D083D082CCC00A
:1028E000E0E493A360061229D61470FAE493A3607F
:1028F00006122ADD1470FAD0E0FCE493A3C0E0E4F1
:1029000093C0E022C0E0C0D0E8C0E0E9C0E0A9A8E0
:10291000D2AFC2C7751A00E9A2E7E433F8E9A2E72B
:1029200092AFD0E0F9D0E0F8D0D0D0E032C0E0747F
:10293000F2122578758900C2C5901D39E0700E7AB3
:10294000007B10900BE8E0F9123F6B80031247F90F
:102950007F010225D7CAC0E0E493A3C582CCC5821B
:10296000C583CDC583F0A3C582CCC582C583CDC543
:1029700083DAE5D0E0CA22CAC0E0E0A3C582CCC5B4
:1029800082C583CDC583F0A3C582CCC582C583CD66
:10299000C583DAE6D0E0CA2270090808082260166A
:1029A000181818C6C333C608C633C608C633C608C7
:1029B000C633C6D5E0EA22C008C3E096F50808A3EE
:1029C000E096420808A3E096420808A3E09645086E
:1029D0007001D3D00822C0E0E493A3D39C5010E44C
:1029E00093A3C39C400AD0E0D0E0D0E00228F7A334
:1029F000A3A3D0E022C09FF59FE473D09F22D08391
:102A0000D082C09FE493C0E0740193C0E07402934D
:102A1000F59F222518F58210AF08F518400C1519FE
:102A20008008F51840021519D2AF8519832200C01D
:102A3000D0251810AF08F518500C05198008F518A6
:102A400050020519D2AFD0D0227404800A740380DA
:102A500006740280027401C0E0F404122A13D0E06C
:102A6000122CA722BB0102E722C082C08389828A7E
:102A700083BB0003E08002E493D083D082226016FF
:102A8000080808C6C313C618C613C618C613C61846
:102A9000C613C6D5E0EA222518F8E43519F922252F
:102AA00018FAE43519FB222518FCE43519FD22C378
:102AB000E0C696F608A3E0C696F608A3E0C696F62A
:102AC00008A3E0C696F622251810AF08F518400CAA
:102AD00015198008F51840021519D2AF22C0E0E49C
:102AE00093A36C7009D0E0D0E0D0E00228F7A3A354
:102AF000D0E022E066701008A3E066700A08A3E048
:102B000066700408A3E06622E76670100809E766AD
:102B1000700A0809E76670040809E76622C3E096B0
:102B200008A3E09608A3E09608A3E096A2D265D099
:102B30003322C3E096F008A3E096F008A3E096F0F5
:102B400008A3E096F022C3E697F60809E697F60890
:102B500009E697F60809E697F622C3E49396087407
:102B60000193960874029396087403939622E627BD
:102B7000F60809E637F60809E637F60809E637F6F3
:102B800022E026F608A3E036F608A3E036F608A30E
:102B9000E036F622E493F608740193F60874029383
:102BA000F608740393F622E647F60809E647F608A6
:102BB00009E647F60809E647F622E657F60809E669
:102BC00057F60809E657F60809E657F622E056F6E2
:102BD00008A3E056F608A3E056F608A3E056F6224E
:102BE000E056F008A3E056F008A3E056F008A3E092
:102BF00056F022E026F008A3E036F008A3E036F015
:102C000008A3E036F022700422600D18C6C333C654
:102C100008C633C6D5E0F41822E4C396F608E49655
:102C2000F608E496F608E496F622C6F4C608C6F45A
:102C3000C608C6F4C608C6F4C622600D08C6A2E7D8
:102C400013C618C613C6D5E0F322C3E7960809E7F2
:102C5000960809E7960809E79622C3E09608A3E0DC
:102C60009608A3E09608A3E0962275D00075813FF0
:102C70007518D1751904000224AAE0F608A3E0F63D
:102C800008A3E0F608A3E0F622600C08C6C313C64A
:102C900018C613C6D5E0F422E6F008A3E6F008A3B0
:102CA000E6F008A3E6F022CAC0E0E6F0A308DAFAEC
:102CB000D0E0FA22E0F8A3E0F9A3E0FAA3E0FB22D7
:102CC000E0FCA3E0FDA3E0FEA3E0FF22EAF0A3EB1B
:102CD000F0A3ECF0A3EDF022E0FAA3E0FBA3E0FC0C
:102CE000A3E0FD22ECF0A3EDF0A3EEF0A3EFF022C1
:102CF000E8F0A3E9F0A3EAF0A3EBF022E5C754F86B
:102D00004401F5C77901222518F582E43519F583C8
:102D1000221229FEC8A4021229FE47A5021229FE8A
:102D200078A6021229FEB4A6021229FE8EA802126B
:102D300029FE4BAC021229FE5FAC021229FE69ACDF
:102D4000021229FE73AC021229FE7DAC021229FE8A
:102D500087AC021229FEA0AC021229FEAAAC021214
:102D600029FE21AD021229FE2CAD021229FE5BAD17
:102D7000021229FE83AD021229FE8EAD021229FE37
:102D8000F3AD021229FEFDAD021229FE08AE0212B9
:102D900029FE2CAE021229FE50AE021229FEC2AE4E
:102DA000021229FE0BAF021229FE27AF021229FEE2
:102DB00098AF021229FEE4AF021229FE2DB00212D2
:102DC00029FE6BB0021229FEECB0021229FE93B16B
:102DD000021229FE58B3021229FEBDB3021229FEC7
:102DE000EBB4021229FE11B5021229FE59B60212E5
:102DF00029FE93B9021229FE91BB021229FE5CBD85
:102E0000021229FEF5BD021229FEF6BF021229FEAA
:102E1000ABC0021229FEE4C0021229FE54C1021204
:102E200029FE5EC1021229FE87C3021229FE8AC44E
:102E3000021229FEC7C5021229FE1EC6021229FE71
:102E4000C9C6021229FE79C8021229FEC6C9021299
:102E500029FEE6C9021229FE3BCA021229FE3CCB1A
:102E6000021229FE64CB021229FEC3CB021229FEF4
:102E7000BBCC021229FE32CD021229FE45CE02122F
:102E800029FEB3CE021229FEB2CF021229FE0CD2C5
:102E9000021229FE35D2021229FE9BD3021229FE0C
:102EA0001DD5021229FE74D5021229FE22D6021265
:102EB00029FEC7D6021229FE2AD7021229FEE8D718
:102EC000021229FE7AD8021229FED9D8021229FE4E
:102ED0001BD9021229FE4CD9021229FEA3DA0212D2
:102EE00029FE0080031229FE3280031229FE6B8026
:102EF000031229FE3482031229FE7882031229FE6E
:102F00004E83031229FEAD83031229FEC3840312EC
:102F100029FE0F85031229FE9D87031229FE818A4F
:102F2000031229FEC88B031229FE608C031229FEAE
:102F30006C8C031229FEB58C031229FEF78D031247
:102F400029FEED8E031229FE178F031229FE6D8FC5
:102F5000031229FEC68F031229FE3990031229FE9F
:102F60006F92031229FEF193031229FEDC940312DF
:102F700029FE2696031229FE5E98031229FE5B9B0A
:102F8000031229FE6A9B031229FEFE9B031229FEEF
:102F9000A99C031229FEEC9C031229FE359D031205
:102FA00029FE859D031229FEE99D031229FE5B9EE1
:102FB000031229FE779E031229FEA69E031229FE04
:102FC000E59E031229FEE09F031229FE8FA0031243
:102FD00029FE0CA3031229FE3EA4031229FE16A506
:102FE000031229FE98A5031229FECDA9031229FE7A
:102FF000FCA9031229FE57AA031229FE8AAA03126A
:1030000029FE02AB031229FE35AB031229FE96AB53
:10301000031229FEE6AB031229FEB3AC031229FE0C
:103020006CAD031229FE30AE031229FEAAB00312C2
:1030300029FE0CB2031229FE5DB3031229FE81B4EE
:10304000031229FE84B4031229FEB3B4031229FE2D
:10305000ABB6031229FE6AB7031229FE99B7031211
:1030600029FEB7B8031229FE7FB9031229FE40BB1F
:10307000031229FEB0BB031229FEE2BB031229FE94
:1030800002BC031229FE71BC031229FE6ABD0312A1
:1030900029FE8EBD031229FE01BE031229FE2AC09D
:1030A000031229FE89C0031229FEDDC0031229FE86
:1030B0000CC3031229FEEFC3031229FE77C40312C7
:1030C00029FE5BC5031229FEE5C5031229FEF9C5D9
:1030D000031229FE0DC6031229FE21C6031229FE82
:1030E00035C6031229FE62C6031229FE92C60312D8
:1030F00029FE4DC8031229FE23C9031229FEC7C9A0
:10310000031229FE1CCA031229FE7FCA031229FEDC
:10311000C8CA031229FEEFCA031229FEB7CB031255
:1031200029FE5DCC031229FEE3CD031229FE6ECEEB
:10313000031229FEB5CE031229FE27CF031229FE62
:103140007CD0031229FE25D1031229FE59D1031286
:1031500029FE71D1031229FE14D2031229FE90D444
:10316000031229FE38D6031229FE56D6031229FE71
:1031700074D6031229FE40D7031229FE8EDA0312F9
:1031800029FE4B81011229FE8D81011229FEFA864A
:10319000011229FE4687011229FE8C87011229FEA1
:1031A000DD88011229FE4289011229FE8689011259
:1031B00029FEEC8A011229FE478E011229FE7A8F20
:1031C000011229FE099B011229FE999B011229FE79
:1031D000839E011229FEE89F011229FE4BA00112D5
:1031E00029FE67A1011229FED1A2011229FEB0A376
:1031F000011229FE1EA6011229FEB0A7011229FE06
:1032000041A8011229FE60A9011229FEEDA90112AF
:1032100029FEF7A9011229FE1FAA011229FEC2AA3E
:10322000011229FEADAB011229FE75AC011229FE77
:1032300002AD011229FE18AD011229FE35AD0112B1
:1032400029FE5EAD011229FE8BAD011229FECFAF22
:10325000011229FEA2B0011229FEE6B0011229FED8
:1032600068B1011229FE09B2011229FE3BB2011216
:1032700029FE82B2011229FEB5B2011229FEF9B26D
:10328000011229FE48B3011229FE4DB3011229FE95
:10329000A9B3011229FEEDB3011229FED7B4011220
:1032A00029FE3CB5011229FE9AB5011229FE19B674
:1032B000011229FE91B9011229FE94BA011229FEC8
:1032C0002ABC011229FE6DBF011229FE0FC0011296
:1032D00029FE58C2011229FE13C3011229FE52C34E
:1032E000011229FE16C5011229FE33C5011229FE5D
:1032F0003CC5011229FE45C5011229FE50C5011227
:1033000029FE6FC5011229FE93C7011229FEF0C7DD
:10331000011229FEFAC7011229FE04C8011229FE72
:1033200067C8011229FEC3C8011229FED0C90112C3
:1033300029FE31CA011229FE42CB011229FE8BCB94
:10334000011229FE55CC011229FE6CCD011229FE75
:1033500030CE011229FE7CCF011229FE80D001124D
:1033600029FE79D1011229FE91D1011229FEC8D17D
:10337000011229FED2D1011229FEDCD1011229FE4F
:10338000E7D1011229FE05D2011229FE4DD2011208
:1033900029FEABD2011229FED2D2011229FEE4D2BB
:1033A000011229FE8DD3011229FEC6D3011229FE76
:1033B000F7D4011229FE54D5011229FE45D6011277
:1033C00029FE7BD6011229FEEBD6011229FE67D712
:1033D000011229FEE8D8011229FE0FDA011229FE96
:1033E000D1DA011229FE9FDB011229FE24DC011231
:1033F00029FED3DC011229FEBBDD011229FE54DEB9
:10340000011229FE30DF011229FE98DF011229FE88
:1034100057E0011229FEB3E0011229FE17E1011263
:1034200029FEDDE1011229FE00E2011229FEBAE2C5
:10343000011229FEDCE2011229FE3DE3011229FE00
:103440006DE5011229FE66E6011229FE12E701125E
:1034500029FE2FE9011229FE78E9011229FEC3E9AC
:10346000011229FE1FEA011229FE7DEA011229FE3E
:10347000A1EA011229FEC5EA011229FEFAEA0112A7
:1034800029FE22EB011229FE67EB011229FEC5EB92
:10349000011229FE1EEC011229FE18ED011229FE6F
:1034A000C4EE011229FE09EF011229FE32EF0112CA
:1034B00029FEBBEF011229FE2EF0011229FE3CF07D
:1034C000011229FE60F0011229FEB6F0011229FE58
:1034D000D1F0011229FE8CF1011229FEB8F101127E
:1034E00029FEFBF1011229FE5EF2011229FE6EF4A3
:1034F000011229FE9AF4011229FE55F5011229FE46
:1035000039F6011229FECDF6011229FEB7C70512C0
:1035100029FEEFC7051229FE10C8051229FE52C860
:10352000051229FEB6C8051229FEC0C8051229FEDB
:10353000D0C8051229FE07C9051229FEB0CC051214
:1035400029FE78CE051229FE5CD0051229FEFED098
:10355000051229FE88D1051229FE5080041229FE89
:10356000F980041229FED881041229FEE482041293
:1035700029FE0483041229FE2684041229FED6851E
:10358000041229FE4386041229FE1487041229FE20
:103590001A88041229FE9288041229FECD8804128A
:1035A00029FE2689041229FE6189041229FEAA89AE
:1035B000041229FE3E8A041229FED48A041229FE2E
:1035C000A98B041229FE7C8C041229FE0A8D041298
:1035D00029FE308D041229FE5D8D041229FE8E8D88
:1035E000041229FE5B8E041229FE6B8E041229FE42
:1035F000BE8E041229FECB8E041229FED88E041230
:1036000029FEE18E041229FE458F041229FEA38FA4
:10361000041229FEEE8F041229FE0990041229FEDD
:103620003090041229FE4D90041229FE5990041284
:1036300029FEEA91041229FE0392041229FE7F92C8
:10364000041229FE9292041229FEA292041229FE6B
:103650004693041229FEB294041229FEC595041261
:1036600029FE6596041229FE6F96041229FEEE9635
:10367000041229FEFF96041229FE3E97041229FE29
:103680006C97041229FE3998041229FE90980412AE
:1036900029FEC998041229FE1F99041229FE3D999A
:1036A000041229FE8B99041229FE569A041229FE4F
:1036B000A49A041229FEF19A041229FE749B0412A2
:1036C00029FE9E9B041229FED49B041229FEE39B33
:1036D000041229FE429C041229FEBA9C041229FEFF
:1036E000FB9C041229FE4B9D041229FE769D0412B8
:1036F00029FE909D041229FEAA9D041229FE7F9E98
:10370000041229FE899E041229FEC49E041229FE79
:10371000D49E041229FEDD9E041229FE2E9F04125F
:1037200029FE429F041229FE64A0041229FE77A0FC
:10373000041229FE8EA0041229FEA3A0041229FE61
:1037400036A1041229FEAAA1041229FE4FA20412D6
:1037500029FE5AA2041229FEBDA3041229FED9A3F0
:10376000041229FE25A4041229FE93A4041229FEA2
:10377000C5A4041229FEDFA4041229FE3FA50412E9
:1037800029FEDEA5041229FE29A6041229FE7CA822
:10379000041229FE14A9041229FE8BA9041229FE81
:1037A000E8AB041229FE00AC041229FE03AC04129B
:1037B00029FE0FAC041229FE23AC041229FE2BAC07
:1037C000041229FE62AC041229FE56AD041229FE31
:1037D000E0AD041229FE62AE041229FEE2AE04122C
:1037E00029FEB9AF041229FEDBAF041229FE74B022
:1037F000041229FED1B0041229FED4B0041229FE0D
:1038000001B1041229FE16B1041229FE85B1041279
:1038100029FED1B2041229FEE4B3041229FE6FB4CA
:10382000041229FE82B5041229FE49B6041229FEAB
:103830007AB6041229FEA0B6041229FEA9B6041213
:1038400029FED8B6041229FE88B7041229FE38B81A
:10385000041229FEABB8041229FE4EB9041229FE47
:10386000C1B9041229FE00BA041229FE49BA041291
:1038700029FE7EBA041229FE37A1051229FEA4A151
:10388000051229FEEBA1051229FE61A2051229FEEF
:10389000B3A2051229FE39A3051229FE7DA5051242
:1038A00029FEACA7051229FE89AB051229FE09AC39
:1038B000051229FE44AC051229FE62AC051229FE50
:1038C000C2AC051229FEEAAC051229FE1AAD05129A
:1038D00029FE4BAD051229FE78AD051229FED1ADAA
:1038E000051229FE1CAE051229FEE7F2041229FE7C
:1038F00063F3041229FE8FF3041229FEC1F30412AC
:1039000029FE23F5041229FE3FF5041229FE7DF558
:10391000041229FE0AF6041229FE66F6041229FE94
:103920002CF7041229FEEBF7041229FE30F80412DA
:1039300029FE91F8041229FE06F9041229FE40F925
:10394000041229FE98F9041229FEBAF9041229FE7C
:1039500052FA041229FEF9FA041229FE46FB041257
:1039600029FE6FFB041229FEB0FB041229FE5DFD47
:10397000041229FE41FE041229FEF2FE041229FE61
:103980000AC1061229FE1BC1061229FEB9C1061280
:1039900029FEF0FF011229FEDFFF041229FED3C128
:1039A000061229FEE3C1061229FEF8C1061229FEFD
:1039B00089C2061229FE14BF061229FE98BF0612FC
:1039C00029FEFEBF061229FEF3FF011229FEDCFFCD
:1039D000021229FEECFF021229FEEFFF021229FE5D
:1039E000F2FF021229FEF87F001229FE11B2061220
:1039F00029FE33B2061229FE9EB3061229FE22B416
:103A0000061229FECEC5061229FED7C5061229FECA
:103A1000E0C5061229FEEEC5061229FEFEF10512CA
:103A200029FE6AF2051229FE32F3051229FE27F457
:103A3000051229FE14F6051229FE6EF6051229FE5E
:103A4000C1F6051229FED2F6051229FEE4F605128A
:103A500029FE50F7051229FE64F7051229FE6FF7BB
:103A6000051229FE7DF7051229FE8FF7051229FEA2
:103A7000A3F7051229FECFF7051229FE75FA0512E4
:103A800029FECCFA051229FE08FB051229FE009D2D
:103A9000021229FE35FB051229FE26FC051229FE1D
:103AA00002FD051229FE16FD051229FE11B60612A9
:103AB00029FE35B6061229FE4EB6061229FE8CB630
:103AC000061229FEC2B6061229FEF5B6061229FE16
:103AD000FFB6061229FE6BB7061229FE6EB7061254
:103AE00029FE78B7061229FE85B7061229FECFAA4D
:103AF000061229FE8DA3021229FE3DAB061229FEF5
:103B00005BAB061229FE76AB061229FEDCAB061271
:103B100029FEE8AB061229FE45AC061229FE69AC67
:103B2000061229FE2FAD061229FE3CAD061229FE13
:103B30004DAD061229FE49C5061229FE61C50612C1
:103B400029FE8DC5061229FE6F85061229FED38631
:103B5000061229FEE186061229FEF586061229FEC6
:103B60001287061229FE2787061229FE3A870612B7
:103B700029FEBC87061229FE2288061229FEAB8880
:103B8000061229FE2389061229FEFC89061229FE47
:103B90000C8A061229FE1B8A061229FEB0C40612E0
:103BA00029FED4C4061229FEFCC4061229FE24C52F
:103BB000061229FE57FD021229FE7EFD021229FE81
:103BC0009DFD021229FE12FE021229FE2AFD051297
:103BD00029FE43FD051229FE5AFD051229FE63FD4B
:103BE000051229FE81FD051229FE8BFD051229FE15
:103BF00095FD051229FEA8FD051229FE35FE0512C8
:103C000029FEA4FE051229FED2FE051229FE23FF7D
:103C1000051229FE6FFF051229FE8AFF051229FEF3
:103C200094FF051229FEA5FF051229FEE8FF0512E3
:103C300029FE99FF011229FEE4FF011229FE37D265
:103C4000051229FE63D2051229FE86D2051229FE2D
:103C500099D2051229FEB4D2051229FE18D30512F5
:103C600029FE46D3051229FE53D7051229FE95D801
:103C7000051229FEC7D8051229FE32D9051229FEE0
:103C8000B6DA051229FEDEDA051229FEF3DA05128C
:103C900029FE03DB051229FE43DB051229FE85DB25
:103CA000051229FE95DB051229FE58BA061229FED7
:103CB00068BA061229FE8CBA061229FEB5BA061297
:103CC00029FEDFBA061229FE03BB061229FE1ABB23
:103CD000061229FE48BB061229FE6BBB061229FEFE
:103CE00099C2061229FEDFC2061229FEF4A30612AB
:103CF00029FE04A4061229FE22A5061229FE56A5B5
:103D0000061229FE78A5061229FEA0A5061229FE94
:103D1000B9A5061229FEF5A5061229FE5BA6061214
:103D200029FEA0A6061229FEE5A6061229FE12A764
:103D3000061229FE4AA7061229FE3D98061229FE00
:103D40009F98061229FE4699061229FE7E990612B0
:103D500029FE1294051229FEC194051229FEF5963A
:103D6000051229FEC899051229FE489B051229FE55
:103D7000AA9B051229FEB59E051229FEF99F051280
:103D800029FEA3BB061229FEEEBB061229FE008007
:103D9000061229FEBF82061229FE5C83061229FE46
:103DA0008883061229FEB683061229FEEB830612CB
:103DB00029FE1384061229FE7384061229FE48BBCD
:103DC000051229FE31BF051229FE28C1051229FE60
:103DD00056C2051229FE32C3051229FEDDC40512A2
:103DE00029FE78C6051229FE45C7051229FE99C786
:103DF000051229FE83AD061229FE8DAD061229FE9D
:103E0000AEAD061229FE53AE051229FE7AB3051295
:103E100029FEA9B4051229FE85B6051229FE7EB732
:103E2000051229FEB5B8051229FEC2B9051229FEF0
:103E3000A7BA051229FEE9BA041229FE21BB041211
:103E400029FE7EC5041229FE68C6041229FEB8C7E1
:103E5000041229FE03C9041229FEAEC9041229FE68
:103E600081CA041229FE18CB041229FEFCCB0412CD
:103E700029FEFFCC041229FEC1CD041229FEEFCD8C
:103E8000041229FE67CF041229FEF0CF041229FE86
:103E900009D0041229FE63D1041229FE15D204129E
:103EA00029FEA4D2041229FE53D3041229FEB6D34C
:103EB000041229FE52D4041229FECBD4041229FE86
:103EC000E9D4041229FEB6D5041229FE85D60412BF
:103ED00029FE3BD7041229FE8FB7061229FEB9B777
:103EE000061229FECDB8061229FED0B8061229FE08
:103EF0004DC3061229FEA0C3061229FEE2C3061214
:103F000029FEF2C3061229FE78EB051229FEBFEB4B
:103F1000051229FE28EC051229FE49EC051229FE9E
:103F200062EC051229FE12ED051229FE1BED0512A9
:103F300029FE6CED051229FEA2ED051229FEB9ED50
:103F4000051229FE26EE051229FEB6EE051229FEFF
:103F5000ECEE051229FE35EF051229FE96EF05124B
:103F600029FED0EF051229FE38F0051229FE8BF04C
:103F7000051229FECEF0051229FE0BF1051229FECD
:103F80001DF1051229FE2FF1051229FE69F1051216
:103F900029FEA9F1051229FED2F1051229FE4C8A4B
:103FA000061229FE928B061229FEBB8B061229FEF1
:103FB000CC8B061229FEE48D061229FE048E061211
:103FC00029FECFAF061229FE03B0061229FE52B019
:103FD000061229FEAEB1061229FE0080051229FE46
:103FE0003E81051229FE7A81051229FE3F830512C2
:103FF00029FE6983051229FEEF85051229FE2F8609
:10400000051229FEC587051229FE5A88051229FEC8
:10401000B888051229FE3E89051229FE7689051207
:1040200029FEB889051229FE258B051229FEA98CC7
:10403000051229FEE38E051229FE118F051229FEB5
:104040003D8F051229FE468F051229FE9C8F051211
:1040500029FE2C90051229FE3393051229FEB593F3
:10406000051229FEFCC3061229FE12C4061229FEFF
:104070001CC4061229FE78C4061229FE92FB031204
:1040800029FEABFB031229FE50FC031229FE90FC13
:10409000031229FEA9FC031229FEDCFC031229FEEF
:1040A00029FD031229FE5DFD031229FE9FFD031267
:1040B00029FE78FF031229FEE3FF031229FED7BC75
:1040C000061229FE2CBD061229FE86BD061229FE07
:1040D00001BE061229FE73BE061229FEB1BE0612EB
:1040E00029FEF2BE061229FE8EF7011229FE94F770
:1040F000011229FEDBF7011229FEE7F9011229FE60
:1041000017FA011229FE81FA011229FE3CFB011265
:1041100029FE7FFB011229FEB0FB011229FE3AFCA9
:10412000011229FE51FC011229FE5EFC011229FE3A
:1041300068FC011229FE08FE011229FEFAFE011296
:1041400029FE58FF011229FEC5DB051229FEDBDB23
:10415000051229FE8DDC051229FEB7DD051229FEA8
:10416000ACDE051229FE43DF051229FE7EDF0512B3
:1041700029FEF0DF051229FE4EE0051229FE5EE061
:10418000051229FE85E0051229FED7E0051229FE59
:1041900043E2051229FE48E2051229FE6AE20512F1
:1041A00029FEFFDA021229FE57DB021229FEF7DB95
:1041B000021229FE74DD021229FE60DE021229FEBF
:1041C0001DDF021229FE34DF021229FE83DF0212F4
:1041D00029FEF7DF021229FE52E0021229FE65E0F5
:1041E000021229FEC9E0021229FE38E1021229FE5C
:1041F000E7E3021229FEECE4021229FE47E502126F
:1042000029FE9BE5021229FE4FE8021229FE9FE8D3
:10421000021229FE20E9021229FE62E9021229FE99
:104220003CEA021229FE75EA021229FE94EA021201
:1042300029FEDFEA021229FEF5EA021229FEB0EB9E
:10424000021229FE97EC021229FEA2EC021229FEAC
:10425000F0EC021229FE45ED021229FE91ED021248
:1042600029FEECEE021229FE16EF021229FEAEF133
:10427000021229FED8F1021229FEE3F2021229FEEF
:1042800012F3021229FE8AF3021229FE65F40212C9
:1042900029FEA7F4021229FE1BF5021229FE35F6AB
:1042A000021229FE82F6021229FE95F6021229FE5A
:1042B00098F6021229FEA1F6021229FEBCF602129D
:1042C00029FE34F7021229FE6DF7021229FE89F742
:1042D000021229FEB5F7021229FEDCF7021229FEAE
:1042E00000F8021229FE79F8021229FEECF80212F7
:1042F00029FE2FF9021229FE39F9021229FE68F966
:10430000021229FE7EF9021229FE9AF9021229FEF2
:10431000C9F9021229FEE9F9021229FE32FA021243
:1043200029FE6DFA021229FE79FB021229FEDCFC3D
:10433000021229FEFBFC021229FE12FD021229FEC6
:1043400024FD021229FE17C0061229FE28C00612FB
:1043500029FEB1C0061229FEA47A001229FEE27AD3
:10436000001229FE7B7B001229FE867C001229FEAA
:10437000CE7E001229FE4B7F001229FE3FE405127B
:1043800029FE8EE4051229FE4CE6051229FE20E8DE
:10439000051229FE5EE8051229FE3FE9051229FEF5
:1043A00049EA051229FE6BEA051229FEC7EA051241
:1043B00029FE48EB051229FE8F4F001229FEB14F4E
:1043C000001229FE2051001229FE6951001229FE17
:1043D000DA51001229FE5D52001229FED452001259
:1043E00029FE1B53001229FE9253001229FE365457
:1043F000001229FEAB54001229FEE854001229FED7
:104400003059001229FE535B001229FE8C5B00120A
:1044100029FECB5B001229FEC75E001229FE575F02
:10442000001229FE0B61001229FE4562001229FECE
:104430006563001229FED663001229FEB7640012DC
:1044400029FE3A65001229FE4E65001229FE1D66FE
:10445000001229FE5467001229FE8369001229FE0A
:10446000926B001229FE7E6C001229FE156F00125D
:1044700029FEEA6F001229FE2971001229FE5974E3
:10448000001229FE6974001229FE9F75001229FE90
:104490003876001229FE6977001229FED7770012BC
:1044A00029FE1079001229FE4B79001229FEF479B9
:1044B000001229FE00D8041229FEA2D8041229FEF7
:1044C0000ED9041229FE28D9041229FEAAD90412F1
:1044D00029FEE4D9041229FEE6DA041229FE28DBBB
:1044E000041229FE9ADB041229FEEADB041229FEDB
:1044F00049DC041229FEF5DC041229FEDFDF041278
:1045000029FEA6E0041229FE0CE1041229FEB4E201
:10451000041229FE4DE3041229FEE6E3041229FEEB
:1045200049E4041229FEBFE4041229FEC0E5041286
:1045300029FEB1E6041229FEECE6041229FE03E787
:10454000041229FEE1E7041229FE1FE8041229FEE5
:10455000A7E8041229FEF4E9041229FEB8EB0412BC
:1045600029FEF6EC041229FE29EE041229FE3DEF85
:10457000041229FED4EF041229FE43F0041229FE8E
:1045800050F1041229FEACDA031229FE15DB0312E6
:1045900029FE5DDB031229FEA1DB031229FE14DCD8
:1045A000031229FE6EDC031229FEA9DC031229FE88
:1045B00043DD031229FE9DDD031229FE09DF0312EC
:1045C00029FE82DF031229FEACDF031229FEC0E0C0
:1045D000031229FED4E1031229FEFCE1031229FE95
:1045E000FAE2031229FE0BE3031229FE23E303126E
:1045F00029FE29E4031229FE4CE4031229FE1BE5DF
:10460000031229FE45E5031229FE5CE5031229FE8B
:1046100082E5031229FEC1E5031229FEE1E503123A
:1046200029FE08E6031229FE20E6031229FEFAE617
:10463000031229FE54E7031229FEC4E8031229FEDF
:1046400042E9031229FE66E9031229FE7DE90312FD
:1046500029FE51EA031229FEEAEA031229FE10EBB1
:10466000031229FE60EC031229FE7FEC031229FEDF
:10467000FEEC031229FE35ED031229FE73ED031241
:1046800029FE09EE031229FE7EEE031229FE62EFD7
:10469000031229FE40F1031229FE15F2031229FE2E
:1046A00061F2031229FE92F3031229FE02F50312AE
:1046B00029FE61F6031229FE6FF6031229FE6BF73D
:1046C000031229FE12F8031229FE58F8031229FEDC
:1046D0006DF8031229FE7CF9031229FE95FA0312E4
:1046E00029FEF1FA031229FE389C061229FEF39DD9
:1046F000061229FEBB9E061229FE109F061229FEF5
:10470000969F061229FE2294061229FE4094061254
:1047100029FE8494061229FEAA94061229FED19439
:10472000061229FEE994061229FE0195061229FEB9
:104730001995061229FEBF95061229FE019606124A
:1047400029FE1696061229FE1D97061229FE389795
:10475000061229FE4197061229FE4A97061229FEE3
:104760005397061229FE5D97061229FEDA97061264
:1047700029FE588F061229FE9A93061229FEB69337
:10478000061229FEBB93061229FE97B4061229FED3
:104790002AA0061229FE40A0061229FEDEA106125A
:1047A00029FE29A2061229FE95A2061229FE94A32B
:1047B000061229FEC3A3061229FED5A3061229FE5E
:1047C000FDB8061229FE9EA7061229FEFAA70612B8
:1047D00029FE3AA8061229FE3CA9061229FE54A970
:1047E000061229FE66A9061229FE92A9061229FEC2
:1047F000C9A9061229FED9A9061229FEEFA9061297
:1048000029FE14AA061229FEA2AA061229FECC7FAE
:10481000001229FEDB9C021229FEEB9B021229FEEC
:10482000779B021229FEE09A021229FE6E9A02126A
:1048300029FE5D9A021229FE389A021229FE549925
:10484000021229FE7098021229FE8695021229FE94
:104850004394021229FEAA91021229FE65910212C6
:1048600029FE0B91021229FE6C90021229FE17906C
:10487000021229FE448F021229FE7E8E021229FEA8
:10488000428E021229FED58D021229FECD8D021212
:1048900029FE428D021229FED28C021229FE238C9F
:1048A000021229FE7DA3021229FE188C021229FE93
:1048B00051A2021229FE6FA0021229FE66A0021266
:1048C00029FE59A0021229FE5C9F021229FED49EE5
:1048D000021229FEC59E021229FE529E021229FED4
:1048E000098C021229FEE88B021229FEB48B0212F7
:1048F00029FE888B021229FE369E021229FE5A8A50
:10490000021229FE4E88021229FE1F88021229FE79
:104910000388021229FEF2AA061229FEAD870212AE
:1049200029FE189E021229FE7487021229FEEC86C7
:10493000021229FEA086021229FE5986021229FEC1
:104940008C85021229FE1085021229FE688402124B
:1049500029FEC183021229FE6383021229FE3883D5
:10496000021229FEE982021229FEAB82021229FEFE
:104970008982021229FE6682021229FE4D820212EB
:1049800029FE0582021229FE4F81021229FE0080B3
:10499000021229FEC380021229FE5780021229FE4C
:1049A0001CFB0500000080FBE4738F0001002C1D40
:1049B000870001002B1D35000400A61E2500020003
:1049C000AA1E26000200AC1E27000200AE1E280010
:1049D0000100B81E29000100B91E84000400BA1E9F
:1049E00086000100BE1E2A000100BF1E2B00010030
:1049F000C01E2C000100C41E2D0008000D1D2E003D
:104A00000100C51E2F000100C61E30000100C71E98
:104A100031000100C81E32000100151D33000100E5
:104A2000161D34000100C91E36000100171D380094
:104A30000100CA1E39000100C31E83000200DE1EF1
:104A400063000100281D64000100C11E6500010013
:104A5000C21E6D000100291D71000800051D6600C1
:104A60000100DD1E43000100CE1E44000200CF1EE7
:104A700045000100D11E46000200D21E470008007A
:104A8000201D48000100D41E4B000100D51E04006B
:104A90000100E01EA1000100E21E37000100E11E3E
:104AA000880001002D1D3C000100181D3D00010083
:104AB000CB1E49000200D61E670001002A1D4D00D2
:104AC0000200D81E4E000100DA1E4F000200DB1E5D
:104AD0003E0001001F1D51000100191D5200010080
:104AE000CC1E53000100CD1E540001001A1D000011
:104AF0000000000000013636010100010201000142
:104B0000030100010401060605020000070100344C
:104B10000801000F090401010D0100FF0E0800004B
:104B200017020000190100FF1A0100011B0100FE1D
:104B30001C0100081D0200001F01000120010001EE
:104B4000210200002301000F2402000026010001C1
:104B500027010008280200FF2A0100072B0102405C
:104B60002C0100002D0100012E0100012F0100FF8A
:104B700030010B1D310800003A0100083B01000F15
:104B80003C0100013D0100FF3E0400004204000022
:104B9000460400004A0400004E04000052040000D5
:104BA000560400005A0400000103710301030103CD
:104BB00001030103010322030203010310030003A5
:104BC000000300030003000300030003420300038B
:104BD0002403060300030003040312032503230335
:104BE0002503230304030403000300030003440319
:104BF0000003000323030003650321003503810341
:104C0000000305030003000300030003250323033F
:104C10000304710402046004110470040204020419
:104C20000104020410046104000414046304730406
:104C30007204620443040004130406040004000424
:104C4000040412040004000400040004510464007D
:104C500000040004000444040004000400040004F0
:104C60006504000435048104640005040004830421
:104C70000004030071003001600011007000310277
:104C80002003500480001000610000001400630045
:104C90007300720062004300000013000600000071
:104CA00000000400120000000000000000000400EA
:104CB0000400370037003C02440000000000000000
:104CC00000006500000035008100000005000000C4
:104CD00083000000010171010101010111010101C5
:104CE0003101010101018001100161013B0014004B
:104CF00063017301720162014301000113010601A6
:104D00003D01350004011201000100010001000114
:104D100004010401330133013C0144013201360036
:104D2000000100016501000135008101000105015C
:104D3000820183010001030271023001600211024D
:104D400070020102020202028002100261023A00B5
:104D50004100630273027202620243020002130204
:104D600038000002000204021202000200020002E7
:104D7000000204020402370037003C024402000231
:104D800039000002000265020002350281020002C1
:104D900005028202830200023600010006000000C4
:104DA0000F0000000000000000000000000003FFF2
:104DB000FF00000403FFFF0000FFFF0FF4010005E8
:104DC000C4040320000100000B00000000000000EC
:104DD0000003010F000000000000000000000000C0
:104DE00000000000000000000000000000000000C3
:104DF0000000000000000000F344130051441F00B5
:104E000057441F805D440100F3440200D94303006E
:104E1000DF430400E5430500EB430600F7433000A1
:104E2000154431000F44320021443300274435003B
:104E30002D443400334436003944110045441400F5
:104E40004B4415000944FFFF00000A000000020067
:104E50000000040000000800000010000000200016
:104E6000000040000000800000000001000000027F
:104E700000000004000000080000001000000020F6
:104E800000000040000001C73106FD3108F7310B7A
:104E9000153210912E0A273202CD3105EB3107D39E
:104EA000310CAF310DBB31646548FF000007ECFDEC
:104EB000FDFDECDCDCCCBCACAC9C9C8C7C7C6C6CE0
:104EC0005C5C5C4C4C3C3C2C2C1C1C03EAF5E5D592
:104ED000D5C5B5A5959585857575656555554545C2
:104EE0003535252515150500160F00000B150B028D
:104EF0000002220F3300000E5A6967426565416C5B
:104F00006C69616E6365303901030507090B0D0F8C
:104F100000020406080A0C0D00034A49434E181A01
:104F200025050200011916181616182303000C0E89
:104F3000020B040B0A0708000F3030161819202343
:104F40001A1C1E3000393D3F373C3C362C442D3076
:104F50003017181921301B1D1F30020402010101F6
:104F6000010902E803000000BE040A000000007FFF
:104F700000E8030E000C0A030305090008000CFFFB
:104F80001E1E2805080304040910150401080CC09E
:104F900082C083901BFCE4F0A3F07CED7D047A15C5
:104FA0007B1B1240DF124835122EDF12482F02659C
:104FB0004774F312243E74F5122AC789098A088BB4
:104FC0000A8C0BE9705F74026508703F7908124320
:104FD0002B750C00780C122A55E50BF50C780C1289
:104FE0002A55E50AF50C780C122A55901B31122827
:104FF00051901EBEE0F97C207D1D901EDE126F9F39
:10500000123A8B7407122A2E0250E8740165086068
:10501000030250ED790812432B7B00AA0AA90A1259
:1050200048A10250E87401650960097402650960CD
:10503000030250EDEA6006740365087047790212B6
:10504000432B901EBEE0F9901B31122CD812481D44
:10505000E9F9901B40E0A2E34010E9700D901C00BC
:10506000E004F06404700312510E74036508707A52
:10507000901C01E0F8740128F0E8C39405406B121D
:10508000510E806674016508706374016509790AC0
:10509000702E12432B7401122D07E4F07402122DAE
:1050A000077403F004122D07E4F0A3F0A3F0A3F0BB
:1050B0007408122D07E4F0AA18AB191231D98044F4
:1050C00012432B901EB41228517A007B20901B357E
:1050D000E0F91240917404122A2E901EBEE0F9905D
:1050E0001B31122CD81248C5E9F9E960179080CE1F
:1050F0001228517A017B00901B35E0F9124091741F
:1051000004122A2E740B122A2E7F050226CD901B24
:1051100031E4F0A374F8F0A374FFF0A37407F02255
:1051200074F612243EE9FFEAFE7AD1F9123F478A6B
:10513000828B83E5824583702A7A027B00123F29A5
:10514000EA4B700E7A107B00901B35E0F9123F6B32
:1051500080148A828B8374D1F0EFA3F0EEF9123FB2
:10516000358003EFA3F002538D74F712243E8908B3
:105170009006FB1264B2901EA1E0F47003A3E0F469
:10518000702D900BE8E0901EA1F0A3E4F080208E3B
:10519000828F83A312623F600F8E828F83A3A3123C
:1051A0006239FAA9081243C18E828F83125250EEDF
:1051B0004F70DC901EA1E0F47003A3E0F4600A904D
:1051C0001EA1E0FAA9081243C11232E7901AFF1299
:1051D0005B861232E17F010226CD74F012243E89F3
:1051E0000B8C0C7508007509007410122D071252F3
:1051F000C47412122D07125250803CA80A1252B4E5
:10520000F50EA3E0F50FA8091252A7F583E0650E8D
:105210007004A3E0650F7014125247EE28F582EF78
:1052200039F583E50EF0A3E50FF00508050AE50A58
:10523000C3950C40C60509E509C3950B5005750AD1
:105240000080EBA9088011A808E828F8E433F922C7
:10525000126C78E8FEE9FF227F080226CD74F41272
:10526000243E890B8C0A750800740C122D0712520B
:10527000C480020508E508C3950B50277509008016
:10528000020509E509C3950A50E9A8081252A712B8
:1052900064B0A8091252B46E7003A3E06F70E27993
:1052A00001800279008028E828F8E433F9EA28F53B
:1052B00082EB3922E828F8E433F9EC28F582ED395D
:1052C000F583E022126C78E8FCE9FD22122A2E7F99
:1052D000040226CD74F612243E1253777003A3E025
:1052E0006D701775083E75091B7808122A51EEFA81
:1052F0001244F97402122A2E801F75080275098063
:105300007808122A518C088D097808122A511253F4
:105310006212451D7404122A2E807274F612243E05
:105320001253777003A3E06D701775084B75091B56
:105330007808122A51EEFA1244FF7402122A2E80C3
:105340001F7508037509807808122A518C088D0989
:105350007808122A5112536212451D7404122A2E23
:10536000802B1253703FF583E0FD7C801265EF22A5
:10537000EE240EF582E422EAFEEBFF126604FCE462
:1053800039FD901AFFE06C227402122A2E7F02026D
:1053900026CD74F612243E74FE122AC7EAFEEBFFF5
:1053A000851882851983E4F0A3125B36126535FCFB
:1053B000A3E0FBECFA88828983A3A3E0F9750900D6
:1053C000750800600574FF697005750882803D905E
:1053D0001AFFE06A7003A3E06B701AAA18AB1912E7
:1053E00038B7E9F509851882851983126976701C2A
:1053F0007508838017901D2BE060046401700575AB
:1054000008818008E0640270037508808518828531
:10541000198312695FA908EEFAEFFB124505E50949
:1054200060118518828519831269766006126F995A
:10543000123FD102538874F212243EEAFEEBFF754C
:105440000800750900126600F50AE439F50B1232FE
:10545000E7EA650A7003EB650B70121238C9E914AC
:10546000F50879017AC87B1B1238CF800375098053
:10547000126965F50C780C122A55750CC8750D1B50
:10548000780C122A517808122A55780A122A51E506
:1054900009F5087808122A551263CB126968F97A5F
:1054A000057B8012450B740702773574F612243E93
:1054B000890975080080278A828B83E0FE1278F8BC
:1054C000EE28E439FF125247EC28F582ED39F583D6
:1054D000EEF0A3EFF0EA2402FA50010B0508E5080C
:1054E000C3950940D202538D74E812243E74FB1216
:1054F0002AC78A168B17851882851983E4F07403EE
:10550000122D07E4F0A3F004122D07E4F0A3F0122B
:1055100058F93517125B08F50B850A82F583127965
:10552000E4FEE439FF850A82850B83A3A3E0FA85B4
:105530000A82850B83A3A3A3E0F9EAF508E439F511
:1055400009E50A2404F50A5002050BEEFAEFFB12F6
:105550003383E964016016EEFAEFFB123383E970DE
:105560003D901AFFE06E7003A3E06F603112674553
:10557000122A55E4F508F5097808122A517808121C
:105580002A55901AFF1228557508807808122A5556
:105590001258E012450B7407122A2E0258D61259DF
:1055A000138810602B127583123FCB7403122D07E2
:1055B000125B867403122D0712697660137403124E
:1055C0002D0712590BA9101243F18A0A8B0B800385
:1055D000751000125913880F6027127583123FCB84
:1055E0007401122D07125B867401122D0712697661
:1055F000600F7401122D0712590BA90F1243F1808D
:1056000003750F009006FB805C850A82850B83A3DF
:10561000A3A3A3A3A3A3A3E4F0A3F0AA0AAB0B85BF
:105620001482851583A3A3E0F8126239F9123F357D
:10563000851282851383E0C0E0851882851983E096
:10564000F874C828F582E4341BF583D0E012697A37
:1056500004F0E511A2E05007AA12AB13123FD18566
:105660001482851583E0F514A3E0F515E5144515BE
:105670007003025843851482851583A312623F602C
:10568000DE851482851583A3A3A3A3A3A3A3A3E00C
:10569000A2E050CB851482851583A3A3A3A312692E
:1056A00076851482851583A3A3601F126240FA7960
:1056B00001851482851583A3A3A3A31258FE124962
:1056C000A88A128B1375110180101258FEA3A3A390
:1056D000E0F512A3E0F513751100E5124513700310
:1056E000025652851282851383A3E065087004A3D5
:1056F000E06509600F74FF6508700474FF65096058
:1057000003025652851282851383A3A3A3A3A3A3E6
:10571000A3122855851282851383A3A3A3A3A3A351
:10572000E0FC7405122D07126F9FA9101243D37469
:1057300002122A2EE9703C851282851383A3A3A34B
:10574000A3A3A3A3A3A3A312285585128285138321
:10575000A3A3A3A3A3A3A3A3A3E0FC7403122D07F5
:10576000126F9FA90F1243D37402122A2EE97003FD
:10577000025652E50F2510C333240AFA7B00123F6C
:10578000298A0A8B0BEA450B70030256308A828BFA
:105790008374D2126B858A828B83A3A3E8F0A3E97A
:1057A00012785EA3E5101279ECE50FF0E510603C8D
:1057B000EA2405FAE4350BFBE50A240AF8E4350B84
:1057C000F98A828B831261057403122D0712592303
:1057D000122A4DAC10EC2CFCE433FD8A828B831230
:1057E0006F9F123F057403122A2E800D8A828B83CD
:1057F000A3A3A3A3A3E4F0A3F0E50F70030256094B
:10580000A810125249E50A28F8E50B39F9E8240AEC
:10581000FAE439FB850A82850B83A3A3A3A3A3A380
:10582000A3A3125B867401122D07125923122A4D6D
:10583000AC0FEC2CFCE433FD123F057403122A2E4E
:1058400002561B851882851983E06027126745126E
:105850002A557508C875091B7808122A5174031255
:105860002D0712674E122A55901AFF1228557508F7
:10587000008029EEFAEFFB123383E9702F1267459F
:10588000122A557508C875091B7808122A5175081F
:10589000007808122A55901AFF1228557808122A03
:1058A000551258E012450B7407122A2E7403122D5C
:1058B00007126976600B7403122D07126F9F123F57
:1058C000D17401122D07126976600B7401122D0735
:1058D000126F9F123FD17405122A2E7F100226CD1F
:1058E000E5162402FCE43517FDE51612635F351753
:1058F000F583E0F97A067B8022EA12652C221259A0
:105900000222E0F8A3E0F58388822212695FAA0AE6
:10591000AB0B22850A82850B83E0F8A385820A857A
:10592000830B22E0F50CA3E0F50D750E00780C2238
:1059300074F112243E74F4122AC78A088B09ECFE13
:10594000EDFF740B122D077403F0122A9F1240DF33
:105950001232E18A0A8B0BAC0AAD0B7403122A9F38
:105960001240D9E9600A125B026010E06401600B2A
:105970008518828519837484025AB08E828F83A31E
:10598000A3A3A3A3A3A3A3E06013F46010125B027C
:105990007016EE24141269686003F4700B85188287
:1059A0008519837482025AB0127706E0642170026E
:1059B000A3E06003025A87851882851983748C12CC
:1059C0005B3664036003025A717401122AA71260E5
:1059D000EA12300BE96003025A711243198A0A8BEA
:1059E0000BEA450B7003025AB18E0C8F0D750E0039
:1059F000780C122A4D7C157D00123F057403122A83
:105A00002E850882850983A3A3E50A2415FCE435C5
:105A10000BFD7409122977127392C0E0E50A241E67
:105A2000125AF0D0E0125F51C0E0E50A241F125A6A
:105A3000F0D0E0F0E50A2420125AF07405F0EE24CC
:105A40000BFE50010FFAEFFB12394D7D007C0079FF
:105A500000EEFAEFFB1244C39080CE1228517A0078
:105A60007B10901B35E0F91240917404122A2E80AD
:105A700078125AF8122A55125B10122FED74011287
:105A80002A2EE9702C8014125AF8122A55125B1033
:105A9000122FF37401122A2EE9700D8518828519D0
:105AA00083E4F01242E9800985188285198374889D
:105AB000F0127392F50A780A122A557401122A9785
:105AC000880A890B780A122A51E508240CF582E429
:105AD0003509125B084480F50B780A122A511264CA
:105AE0009B1244B77405122A2E740C122A2E805E63
:105AF000F582E4350BF58322EE1260F7E0F50A78C3
:105B00000A22125B3B640322F583E0F50AA3E0223C
:105B1000EE240BFCE43FFD8E828F83A3A3A3A3A3FB
:105B2000A3A3A3A3126FDC8E828F83A3A3A3A3A33B
:105B3000A3A3A3E0F922F0125B3B22125B3F22EE0B
:105B40002413F582E43FF583E022EEFAEFFB7F07B2
:105B50000226CDC082C08374F3122AC785188285BD
:105B60001983E4F004122D07125B867403122D07CB
:105B7000AA82AB83124979AA18AB1912493D740D58
:105B8000122A2E026547EAF0A3EBF02274F61224E3
:105B90003E12651FFAA3E0F9EAF8901B46E058F5BB
:105BA00008A3E059F509E5084509601C7808122AA0
:105BB00051901AFF122855126965FD7C001265EBA1
:105BC0001245177404122A2E02538D74EA12243ED1
:105BD00074DB122AC78A148B157512007513001214
:105BE00058F93515F583126240F50EAC18AD197AE7
:105BF000007B00799C122D177A047900124907EA7C
:105C0000F50C851882851983E02AF0F8E50EC39813
:105C10004003025DEFE0C3950EF509C39404400311
:105C2000750903E50975F01AA4FAABF0123FCB8AA7
:105C3000128B13EA45137003025DF2750D00AE126C
:105C4000AF13850E08025CCC7C087D0079FF125EE4
:105C50006E123F11850A82850B83A3A3A3A3E07074
:105C60002D850A82850B83126976700C1270E8F01C
:105C7000EE24181270EB8010125E76F090055FE053
:105C800014C0E0125E52D0E0125EA1E480349005B0
:105C90005FE004C0E0125E52D0E0125E99C394034C
:105CA000EE4003025D541260F37402125E996401C7
:105CB0007003025D61EE2415125E79F0EE24161277
:105CC0005E79F0EE241AFE50010F050DE50DC39527
:105CD000094003025D8CE508C3950C4003025D6A30
:105CE000AA087B0012487D8A0A8B0B050890054C98
:105CF000125E821240DF850A82850B83126C741259
:105D00005E60E8F0A3E9125EB3850A82850B83A387
:105D1000A3A3A3A3A3A3A3A3A3E0C0E0125E48D0C0
:105D2000E0F07401122D07E41278B2126C74740260
:105D3000122D071261057401122A9F12494FE9645E
:105D4000016003025C487404122D07125E6A12405F
:105D5000DF025C54125E77125E9964036003025C9A
:105D6000B5EE24151270EB025CBBE50CC3950E403A
:105D700005750800801DE50EC3950CF5088014120A
:105D80005E76F0EE241AFE50010F050DE50DC39569
:105D900009505F740E122AA7AA087B007987122D7A
:105DA0001705087418122D07125E821240DF741056
:105DB000122D07125E6A1240DFEE2412F8E43FF95A
:105DC000740E122D07126F9F88828983EAF0A3EB6D
:105DD000125EA17403125EB3741D122D07E0C0E0C1
:105DE000125E48D0E0126F0E70951270E8809375C5
:105DF0000900750A00780A122A557812122A517879
:105E000009122A55E50EF5097809122A557405126A
:105E10002D07E0FD7C00E5141263563515FBE514F3
:105E200012635B3515F583E0F91245537405122AA8
:105E30002EE51245136007AA12AB13123FD1742549
:105E4000122A2E7F0E0226CDEE2419F582E43FF5AC
:105E50008322125E5622EE2418F582E43FF5832257
:105E6000EE2412F582E43FF58322AC82AD83EE246A
:105E70000AFAE43FFB22EE2414F582E43FF5837432
:105E80000122126C788E828F83E8F0A3E9F07C60A7
:105E90007D05EE1263563FFB221278ADA3A3A3E06B
:105EA00022F0EE1270DF7402F0EE2416F582E43F69
:105EB000F58322F0EE2417F582E43FF5837402F0B7
:105EC000125E5674FFF02274F612243E74F9122A00
:105ED000C7125F46127A6E123F1DEAF8EBF9ECFA30
:105EE000EDFB851882851983122CF0EE2404FE50F8
:105EF000010F8E828F83E0C0E07404122D07D0E082
:105F0000126EE5F87405122D077401F07406122D57
:105F1000077401F0901B09F0901B12041278CAA3B9
:105F2000126F9F901B0A125B86E8901B13125F5141
:105F3000901B08F0AA18AB19124817E96003124821
:105F400011740702538A8A088B09EA12652C3509F5
:105F500022F012782AE02274F212243E74FF122AF0
:105F6000C77508007E007F001232098A0A8B0B1267
:105F700032098A0C8B0DA80CA90D80050508126C3E
:105F80006EE84970F7901D2BE06007640160030222
:105F900060621232098A0C8B0DA80CA90D800312C5
:105FA0006C6EE849603688828983126F9F90054C39
:105FB000E06A7003A3E06B600D1260FE39F5831296
:105FC0006F9FEA4B70D988828983126C7490054C5C
:105FD000E0687003A3E06970030260627A167B00D8
:105FE000123FCB8A0C8B0DAE0CAF0DEE4F60739051
:105FF000054C126C748E828F83126105900541E00E
:106000008E828F83A3A3F012336BE98E828F83A3DA
:10601000A3A3A3A3F0901EBF1278A1F07C607D051E
:106020001260EA1240DFAA18AB19794112470F85B6
:106030001882851983E06008901AFF126C7480043E
:1060400078FE79FF8E828F83A3A3A3A3A3A3A312B9
:1060500061051260F2E50AF0A3E50BF08E0A8F0BE2
:106060000508901B13E0F8E508C3985004790080F8
:1060700027E508C398F9C3940640027905780080A3
:106080000DE50A1260FF350B125B08F50B08901B3B
:1060900013E0FAE8C39A40E97509007809122A5515
:1060A000780A122A51E9F5097809122A55901B132A
:1060B000E0F5097809122A55AD087C007A0A7B1BA5
:1060C000901B08E0F912454D7405122A2E901D2BE5
:1060D000E060046401700BEE4F6007EEFAEFFB1214
:1060E0003FD11248117401027735EE240BFAE43FD8
:1060F000FB22EE1260F7221260FF3FF58322E824B4
:1061000014F582E422E8F0A3E9F02274F012243EB0
:1061100074FF122AC78A0A8B0B7E008E0E8E0F1216
:1061200058F9125AF3126240FFAC18AD197A007B8D
:1061300000799D122D17851882851983E0F8EFC329
:106140009840030261E4E0C39FFEC3940B40027ECB
:106150000AEE75F007A4FAABF0123FCB8A088B0960
:106160008A0E8B0FEA450F6079750C00801A85083E
:1061700082850983A3A3A3A3A37403F0E5082407DE
:10618000F50850020509050CE50CC39E5056AC08F5
:10619000AD09E50C2FFAE43400FB798B122D17853D
:1061A0000882850983A3A3A3A3A3E0146008146055
:1061B0001314601F80B8850882850983A3A3A3A355
:1061C000A3E480B7850882850983A3A3A3A3A3744E
:1061D0000180A8850882850983A3A3A3A3A37402D1
:1061E00080997E007508007808122A55780E122AC8
:1061F00051EEF5087808122A55EFF5087808122AAA
:10620000557405122D07E0FD7C00E50A1263563532
:106210000BFBE50A12635B125AF3E0F9124559745D
:1062200005122A2EE50E450F6007AA0EAB0F123F8E
:10623000D17401122A2E025258A3E0F5838882A35A
:10624000125902E02274EE12243E74FE122AC78A0A
:106250000C8B0D7510007511001258F9350DF58372
:10626000126240F50AAC18AD197A007B0079A312CE
:106270002FF9126F99C3E50A9AE49B50768518822C
:10628000851983A80AE0C398FEA3E09400FFC3EE3B
:106290009404EF940040067E037F008004EE4F607C
:1062A00052EEFAEFFBEA75F015A4FAA8F075F015B6
:1062B000EBA428FB123FCB8A088B098A108B11EACA
:1062C0004511602F750B00750E00C3E50E9EE49F0F
:1062D0005026AC08AD09A80AE50E28FAE43400FB04
:1062E00079A2122FF9E5082415F5085002050905D1
:1062F0000E80D7750B8B7E007508007808122A5522
:106300007810122A51EEF5087808122A55E50AF598
:10631000087808122A557405122D07E0FDAC0BE52C
:106320000C126356350DFBE50C12635B350DF583DE
:10633000E0F912455F7405122A2EE5104511600739
:10634000AA10AB11123FD17402122A2E7F0A022624
:10635000CDFCEFFDE5082402FAE42212635F22245B
:106360000FF582E42274F612243E74FF122AC7EA63
:10637000FEEBFFEE1258FA3F12775AA3A3A3A3A392
:10638000A3A3A3E0F91248D1E9851882851983F007
:106390007508007808122A557401122A978808890E
:1063A000097808122A517508357509807808122A6B
:1063B000511263C11244B77405122A2E740102539C
:1063C0008A79011263CBFAE43FFB22EE2402FCE45B
:1063D0003FFDEE240F2274F412243E74FA122AC7F1
:1063E000125F461264B0EEFAEFFB124973E96017D0
:1063F0001232E18A0A8B0BAC0AAD0BEEFAEFFB12FC
:1064000040D9E96401700A7401122D07E4F0A380F9
:10641000097401122D07EEF0A3EF1278E6A3A3A3EF
:10642000A3A3E0F8A2E650087403122D077401F04C
:10643000E8A2E750087404122D077401F0740512E5
:106440002D07E4F004122A9F123AF1E9851882859B
:106450001983F09080B6122CD81233057A007B0095
:106460001233117A007B0012330B750A00780A127E
:106470002A557401122A97880A890B780A122A5120
:10648000750A34750B80780A122A5112649B1244E3
:10649000B77405122A2E74060252CC7901E508243D
:1064A00002FCE43509FDE508240FFAE43509FB2276
:1064B000F583127764FF2274F612243E74FF122AC9
:1064C000C712651FF509A3E0F508A90912491FE9DC
:1064D000851882851983F0901D2BE0700B7401657F
:1064E000087005A909124619EE240B126968702C70
:1064F0007508007808122A557401122A97880889AD
:10650000097808122A517508367509807808122A08
:10651000511263C11244B77405122A2E0263BCEAF9
:10652000FEEBFF12652B3F12653222EE2413F5823B
:10653000E422F583E0126614E022C082C083901D3D
:106540002BE0700312461FD083D0820229FB74F423
:1065500012243E74EF122AC7EAFEEBFF126600F522
:1065600008E439F509901AFFE065087004A3E065B6
:10657000097052A818A919880A890B780A122A5199
:10658000750A11750B00780A122A517C007D007A79
:10659000817B001240557404122A2EE97027750A77
:1065A00000780A122A557401122A97880A890B78F2
:1065B0000A122A51AC08AD091265EB124511740399
:1065C000122A2E8021750A11750B80780A122A5121
:1065D0007808122A51126965FD7C841265EB124518
:1065E0001D7404122A2E74110252CC1265EF22EE91
:1065F0002402FAE43FFBEE12635F3FF583E0F922E9
:1066000012660422125B3F126614127815F8E4C871
:10661000F9EA2822F8A3E0F9888289832274F1122A
:10662000243E74EB122AC712651FFCA3E0FAE4CAE9
:10663000FBEC2AF508E43BF509901AFFE0650870C9
:1066400004A3E0650960030266EC88828983A3A342
:10665000E09410500F88828983A3A3E08518828577
:10666000198380088518828519837410F0E0C0E0D2
:106670007404122D07D0E0127746A3A3A982AA833F
:10668000890C8A0D750E00780C122A4D7407122D94
:1066900007E0FC7D007408122D07AA82AB83123F2D
:1066A000057403122A2E7404122A97880A890B781B
:1066B0000A122A51750A11750B00780A122A517CA8
:1066C000007D007A817B0012404F7404122A2E74E0
:1066D00004122D07E0901B3E6005E0D2E48003E049
:1066E000C2E4F0851882851983E4800885188285C4
:1066F00019837484F0E0C0E07401122D07D0E0F03B
:106700007402122D07E508F07403122D07E508F056
:106710001253703F12674C122A557402122A97883E
:106720000889097808122A517508147509807808B3
